:10000000CCC200000C94FB0B0C94D80B0C94B50BD9
:100010000C94920B0C946F0B0C944C0B0C94290BBE
:100020000C94060BDAC600000C94E30A0C94C00A88
:100030000C949D0A67C700000C947A0A0C94570A26
:100040000C94340A0C94110A0C94EE090C94CB090C
:100050000C94A8090C94A0080C9485090C946209CE
:100060000C940D090C943F090000000000000020D2
:10007000202020200020505050000000005050F858
:1000800050F850502078A07028F020C0C8102040B0
:1000900098186090A040A890686020400000000080
:1000A00010204040402010402010101020400050F0
:1000B00020F8205000002020F82020000000000040
:1000C000602040000000F800000000000000006018
:1000D0006000081020408000708898A8C8887020B0
:1000E000602020202070708808102040F8F8102030
:1000F0001008887010305090F81010F880F0080840
:100100008870304080F0888870F8081020404040A7
:10011000708888708888707088887808106000609F
:1001200060006060000060600060204008102040B7
:100130002010080000F800F8000080402010204047
:10014000807088081020002070880868A8A8707047
:10015000888888F88888F08888F08888F070888097
:1001600080808870E09088888890E0F88080F080B7
:1001700080F8F88080E08080807088808098887027
:10018000888888F88888887020202020207038107F
:1001900010101090608890A0C0A09088808080800F
:1001A0008080F888D8A8888888888888C8A898888F
:1001B0008870888888888870F08888F0808080704F
:1001C000888888A89068F08888F0A09088788080D7
:1001D000700808F0F820202020202088888888884F
:1001E000887088888888885020888888A8A8D888B7
:1001F0008888502050888888885020202020F8083F
:1002000010204080F8382020202020380080402016
:10021000100800E02020202020E02050880000006E
:1002200000000000000000F8402010000000000066
:100230000070087888788080B0C88888F0000070E6
:10024000808088700808689888887800007088F82E
:100250008070304840E040404000007888780830A6
:100260008080B0C88888882000602020207010001E
:10027000301010906040404850605048602020206E
:100280002020700000D0A8A888880000B0C8888806
:1002900088000070888888700000F088F0808000F6
:1002A0000068987808080000B0C88080800000705E
:1002B000807008F04040E040404830000088888866
:1002C00098680000888888502000008888A8A85076
:1002D000000088502050880000888878087000004E
:1002E000F8102040F810202040202010202020204E
:1002F00020202040202010202040205020000000FE
:1003000000000000000000002020202020002050DD
:100310005050000000005050F850F850502078A085
:100320007028F020C0C810204098186090A040A805
:1003300090686020400000000010204040402010E5
:1003400040201010102040005020F82050000020C5
:1003500020F820200000000000602040000000F88D
:1003600000000000000000006060000810204080D5
:1003700000708898A8C888702060202020207070A5
:100380008808102040F8F8102010088870103050AD
:1003900090F81010F880F008088870304080F088DD
:1003A0008870F808102040404070888870888870F5
:1003B00070888878081060006060006060000060ED
:1003C0006000602040081020402010080000F80065
:1003D000F800008040201020408070880810200025
:1003E0002070880868A8A87070888888F88888F0C5
:1003F0008888F08888F070888080808870E0908895
:10040000888890E0F88080F08080F8F88080E08034
:10041000808070888080988870888888F88888882C
:1004200070202020202070381010101090608890CC
:10043000A0C0A09088808080808080F888D8A8881C
:100440008888888888C8A8988888708888888888D4
:1004500070F08888F080808070888888A89068F024
:100460008888F0A09088788080700808F0F82020B4
:1004700020202020888888888888708888888888B4
:100480005020888888A8A8D88888885020508888D4
:1004900088885020202020F80810204080F838203C
:1004A000202020203800804020100800E02020205C
:1004B0002020E02050880000000000000000000024
:1004C000F840201000000000000070087888788054
:1004D00080B0C88888F00000708080887008086844
:1004E0009888887800007088F88070304840E04034
:1004F0004040000078887808308080B0C8888888BC
:1005000020006020202070100030101090604040CB
:100510004850605048602020202020700000D0A863
:10052000A888880000B0C8888888000070888888FB
:10053000700000F088F0808000006898780808005B
:1005400000B0C8808080000070807008F04040E0FB
:100550004040483000008888889868000088888873
:10056000502000008888A8A850000088502050889B
:10057000000088887808700000F8102040F81020EB
:10058000204020201020202020202020402020104B
:100590002020402050200000000011241FBECFEF7B
:1005A000D8E0DEBFCDBF13E0A0E0B1E0E4E6FEE3BB
:1005B00002C005900D92A834B107D9F724E0A8E451
:1005C000B3E001C01D92AC36B207E1F70E945618A5
:1005D0000C94301F0895CF93DF931F92CDB7DEB7F1
:1005E0008FEF809364008FB78983F89489815F933C
:1005F00050E85093610050E0509361005F918FBFCD
:100600000F90DF91CF910895CF93DF931F92CDB7D5
:10061000DEB79FB79983F8949981811106C06095E0
:10062000809164006823609364009FBF0F90DF9106
:10063000CF910895CF93DF931F92CDB7DEB79FB7C9
:100640009983F8949981811105C080916400682B89
:10065000609364009FBF0F90DF91CF910895FF9248
:100660000F931F93CF93DF93082F842F90E0800F79
:10067000911D813F910514F040EF401B442309F484
:1006800047C0D62FD695D695D69570E088E0D89FEE
:1006900060197109112481E090E001C0880F6A950A
:1006A000EAF7F82E213031F040F0223089F5CFEF13
:1006B000C40F22C0CFEFC40F05C0CFEFC40F182F57
:1006C00010950DC0102F1C0F612F8D2FAFD24F2D05
:1006D000482B612F8D2F98D2C150A0F719C0F02E52
:1006E000FC0E6F2D8D2FA2D2412F48236F2D8D2F01
:1006F0008BD2C150A0F70CC0102F1C0F612F8D2F73
:1007000095D24F2D4827612F8D2F7ED2C150A0F753
:10071000DF91CF911F910F91FF900895EF92FF927B
:100720000F931F93CF93DF93942F442309F446C074
:100730004FEF460F940F691308C0422FDF91CF91FE
:100740001F910F91FF90EF90A4C29F3708F09FE791
:10075000162F169516951695092F0695069506954A
:100760006770EFEFF0E0AF0101C0440F6A95EAF760
:10077000977067E070E0691B71097F0102C0F59412
:10078000E7946A95E2F7101304C04E21682F812F79
:100790000EC0D22FC82F6C2F812F56D21F5F2D2F46
:1007A000101710F44FEFF7CF4E2D6C2F802FDF91E5
:1007B000CF911F910F91FF90EF9046C2DF91CF91A3
:1007C0001F910F91FF90EF9008958F929F92AF929B
:1007D000BF92CF92DF92EF92FF920F931F93CF932E
:1007E000DF93182FB62E481728F4B22E262F812F0C
:1007F000142F482FC42FD0E0C11BD109E22EF12CB9
:10080000EB18F108D7FF06C0D195C195D1099924FD
:100810009A9402C099249394F7FE06C0F194E1944F
:10082000F10888248A9402C088248394EC16FD067B
:10083000BCF46701CC1ADD0AA12C8A2D90E0C81700
:10084000D9072CF1402F6B2D812F23D2D7FC03C069
:10085000CC1ADD0AB80CCE0CDF1C190DA394EDCF19
:100860006E01CE18DF08A12C8A2D90E0E816F9065B
:1008700074F0402F6B2D812F0CD2D7FC03C0CE1803
:10088000DF08190DCC0EDD1EB80CA394EDCFDF915F
:10089000CF911F910F91FF90EF90DF90CF90BF907D
:1008A000AF909F908F900895FF920F931F93CF93D7
:1008B000DF93D82F162FC42FF22E202FD0DE6FEF0C
:1008C0006F0D610F202F4C2F8D2FC9DE202F4F2D44
:1008D000612F8D2F23DF8FEF8C0F202F4F2D612F56
:1008E0008D0FDF91CF911F910F91FF9017CFFF9246
:1008F0000F931F93CF93DF93222369F0142FF62ECB
:10090000D82FCFEFC20F6F2D6C0F202F412F8D2FBF
:10091000A6DEC150C0F7DF91CF911F910F91FF90DC
:1009200008955F926F927F928F929F92AF92BF9243
:10093000CF92DF92EF92FF920F931F93CF93DF93AB
:10094000182FF62EC42FE22E411111C0422FDF9135
:10095000CF911F910F91FF90EF90DF90CF90BF90BC
:10096000AF909F908F907F906F905F9092C183E047
:1009700090E06C0122E0429FC018D1081124D0E021
:10098000802F8170B82E202F2270A22E802F84708D
:10099000982E202F2870822E802F8071782E202F65
:1009A0002072622E802F8074582EBB2031F04E2D85
:1009B0006F2D6D1B812F8C0F6CD1AA2031F04E2D25
:1009C0006F2D6C1B812F8D0F64D1992031F04E2D2E
:1009D0006F2D6C1B812F8D1B5CD1882031F04E2D2B
:1009E0006F2D6D1B812F8C1B54D1772031F04E2D34
:1009F0006F2D6D0F812F8C1B4CD1662031F04E2D49
:100A00006F2D6C0F812F8D1B44D1552031F04E2D51
:100A10006F2D6C0F812F8D0F3CD107FF06C04E2D1F
:100A20006F2D6D0F812F8C0F34D18D2F90E0D7FE5D
:100A300008C0880F991F880F991F0696C80ED91EE7
:100A40000AC08C1B9109880F991F880F991F0A965D
:100A5000C80ED91EC150DF5FCD1708F0A6CFDF91B9
:100A6000CF911F910F91FF90EF90DF90CF90BF90AB
:100A7000AF909F908F907F906F905F9008958F922E
:100A80009F92AF92BF92CF92DF92EF92FF920F931D
:100A90001F93CF93DF93182FD62EC42FC22E411150
:100AA0000EC0422FDF91CF911F910F91FF90EF90D9
:100AB000DF90CF90BF90AF909F908F90EAC083E07F
:100AC00090E07C0122E0429FE018F1081124BB2451
:100AD000B394D0E0802F8370A82E202F2C70922EFC
:100AE000802F8073882E007CAA2079F02C2D4B2D2E
:100AF0006D2D6D1B812F8C0F11DE2C2D41E04C0FC5
:100B00006D2D6C1B812F8D0F09DE992079F02C2D16
:100B10004B2D6D2D6D1B812F8C1B00DE2C2D41E08C
:100B20004C0F6D2D6C1B812F8D1BF8DD882069F01B
:100B30002C2D4B2D6D2D812F8C1BF0DD2C2D41E0AC
:100B40004C0F6D2D812F8D1BE9DD002369F02C2DBD
:100B50004B2D6D2D812F8C0FE1DD2C2D41E04C0FA5
:100B60006D2D812F8D0FDADD8D2F90E0F7FE08C0FF
:100B7000880F991F880F991F0696E80EF91E0AC064
:100B80008C1B9109880F991F880F991F0A96E80EF0
:100B9000F91EC150DF5FB394CD1708F0A5CFDF91E8
:100BA000CF911F910F91FF90EF90DF90CF90BF906A
:100BB000AF909F908F9008950F931F93CF93DF93E3
:100BC0008C01862FD42FC22F01151105C1F0603181
:100BD000B0F4403FA0F4AED68D2FB4D68C2F90E069
:100BE0008D0F911D813F910514F0C0EFCD1BCC23DB
:100BF00031F0F80181918F0152D6C150F8CFDF91C9
:100C0000CF911F910F910895CF93DF93803158F4C6
:100C1000603F48F4D42FC62F8DD68C2F93D68D2FBE
:100C2000DF91CF913CC6DF91CF910895CF93803172
:100C300040F4603F30F4C62F7DD68C2F83D6CF9101
:100C40003BC680E0CF9108950F931F93CF93DF931E
:100C50008031D0F4603FC0F4022FD42F162FE6DF8E
:100C6000C82F013041F020F0023031F4CD2704C00C
:100C7000D095CD2301C0CD2B812F64D68C2FDF9151
:100C8000CF911F910F910BC6DF91CF911F910F91C3
:100C90000895962F242F803F88F467FD0FC0362FCC
:100CA000377061E070E0AB0101C0440F3A95EAF79C
:100CB000682F892F869586958695C6CF08959F9231
:100CC000AF92BF92CF92DF92EF92FF920F931F935A
:100CD000CF93DF93D82FC62ED42E790100E0F901EF
:100CE000248143816D2D8C2D02DEF70180818111DD
:100CF00039C08381282F269526952695877009F07F
:100D00002F5FF701C4818D2F90E03581831B9109FE
:100D10002C9F90011124829FA001839F500D929FD0
:100D2000500D112401811281040F151FDC0E9D2C22
:100D30009C1AF701A380B12CD0E08C2D8D0FAD163D
:100D400079F09D2F977021F4F801B4900F5F1F4F39
:100D5000B7FE03C041E0692D9CDFBB0CDF5FEDCF28
:100D6000C15029F7DF91CF911F910F91FF90EF9024
:100D7000DF90CF90BF90AF909F900895DF92EF9259
:100D8000FF920F931F93CF93DF93D62ED42F790129
:100D90008C01C62FF80181918F018A3031F4F7015F
:100DA00084818F5FD80FCD2D09C08D3039F0970128
:100DB0004D2F6C2F84DFF7018381C80FF8018081EC
:100DC0008111E8CFDF91CF911F910F91FF90EF90AC
:100DD000DF9008959895000008951F920F920FB626
:100DE0000F9211242F933F934F935F936F937F93B1
:100DF0008F939F93AF93BF93EF93FF93809154048E
:100E000081FF6FC085B18F7390913F049F3060F474
:100E1000806490914B03923019F09AE790934A03C3
:100E200092E090934B0324C09F30C1F42091310491
:100E3000309132042D5F3F4F2730310578F48068C0
:100E400010924B039091440420914903921781F032
:100E50009093490396E090934A030AC090914B0304
:100E6000911103C09EE190934A0391E090934B034C
:100E700090914A03992339F0915090934A0399E055
:100E80009093580402C01092580485B98091480389
:100E9000882321F081508093480323C08CE0809305
:100EA000480386B1867090E09595879580FD09C0CE
:100EB000809159048823A9F081508093590411D559
:100EC00010C081FD09C0809159048F3350F48F5FA9
:100ED0008093590406D505C01A9903C081E00E9489
:100EE0005417FF91EF91BF91AF919F918F917F9197
:100EF0006F915F914F913F912F910F900FBE0F9087
:100F00001F9018951F920F920FB60F9211242F93D6
:100F10003F934F935F936F937F938F939F93AF9381
:100F2000BF938091680490916904A0916A04B09184
:100F30006B040196A11DB11D809368049093690410
:100F4000A0936A04B0936B048091540481FF56C04F
:100F500040915804442309F451C080912D0490918C
:100F60002E0495958795959587959C012559314F28
:100F70005091550480915604909157045523B1F037
:100F8000821B930B9093570480935604823020EC7D
:100F9000920714F51092550422E030E8B901681B5D
:100FA000790B709357046093560416C0820F931FF9
:100FB00090935704809356048F3F7FE3970764F024
:100FC00021E0209355042EEF3FE7B901681B790B10
:100FD00070935704609356042FE030E0241B3109CE
:100FE000809156049091570402C0959587952A9553
:100FF000E2F793959093890080938800BF91AF9119
:101000009F918F917F916F915F914F913F912F9120
:101010000F900FBE0F901F9018958F929F92AF92D6
:10102000BF92CF92DF92EF92FF92CF93DF93EB01CB
:101030008130E9F5C0906304D0906404E0906504C9
:10104000F090660420E030E0A901C701B6010E94DB
:10105000F119AE0160E070E08823D9F0CB01BA014C
:101060000E948E1A2FE632E143E05BE30E94971B59
:101070004B015C012EEE3CE74FE75FE3C701B60191
:101080000E94971B9B01AC01C501B4010E948D1900
:1010900004C0CB01BA010E948E1AF89460936304D5
:1010A0007093640480936504909366043EC083301B
:1010B000E1F5C0905F04D0906004E0906104F0908E
:1010C000620420E030E0A901C701B6010E94F119D5
:1010D000AE0160E070E08823D9F0CB01BA010E9434
:1010E0008E1A2FE632E143E05AE30E94971B4B0130
:1010F0005C012BE33FED4FE75FE3C701B6010E94C0
:10110000971B9B01AC01C501B4010E948D1904C05D
:10111000CB01BA010E948E1AF89460935F04709319
:1011200060048093610490936204DF91CF91FF90FB
:10113000EF90DF90CF90BF90AF909F908F900895E9
:101140001F920F920FB60F921124CF92DF92EF925F
:10115000FF921F932F933F934F935F936F937F93D0
:101160008F939F93AF93BF93CF93DF93EF93FF93AF
:1011700010916704C091780080917900D0E0D82B5D
:10118000113059F030F0123079F483E08093670425
:1011900010C081E0809367040CC088EC80937C00D1
:1011A00082E08093670405C080EC80937C001092FD
:1011B0006704609163047091640480916504909168
:1011C00066040E94621A6B017C0160915F04709159
:1011D000600480916104909162040E94621A789484
:1011E0009B01A601BE01812F18DFFF91EF91DF91D6
:1011F000CF91BF91AF919F918F917F916F915F91AF
:101200004F913F912F911F91FF90EF90DF90CF90E2
:101210000F900FBE0F901F9018951F920F920FB650
:101220000F9211242F933F934F935F936F937F936C
:101230008F939F93AF93BF93CF93DF93EF93FF93DE
:101240008091B9006091BB00CCEBD0E04881887FF1
:101250000E94781585688883FF91EF91DF91CF9187
:10126000BF91AF919F918F917F916F915F914F91BE
:101270003F912F910F900FBE0F901F9018951F92C6
:101280000F920FB60F9211242F933F934F935F93BA
:101290006F937F938F939F93AF93BF93EF93FF933E
:1012A00099DDFF91EF91BF91AF919F918F917F91C8
:1012B0006F915F914F913F912F910F900FBE0F90C3
:1012C0001F9018951F920F920FB60F9211242F9313
:1012D0003F934F935F936F937F938F939F93AF93BE
:1012E000BF93EF93FF93CBDFFF91EF91BF91AF914E
:1012F0009F918F917F916F915F914F913F912F912E
:101300000F900FBE0F901F9018951F920F920FB65F
:101310000F9211242F933F934F935F936F937F937B
:101320008F939F93AF93BF93EF93FF93A8DFFF91AA
:10133000EF91BF91AF919F918F917F916F915F914D
:101340004F913F912F910F900FBE0F901F901895C6
:101350001F920F920FB60F9211242F933F934F932A
:101360005F936F937F938F939F93AF93BF93EF930D
:10137000FF9385DFFF91EF91BF91AF919F918F9187
:101380007F916F915F914F913F912F910F900FBE81
:101390000F901F9018951F920F920FB60F92112465
:1013A0002F933F934F935F936F937F938F939F936D
:1013B000AF93BF93EF93FF9362DFFF91EF91BF91E4
:1013C000AF919F918F917F916F915F914F913F91DD
:1013D0002F910F900FBE0F901F9018951F920F9294
:1013E0000FB60F9211242F933F934F935F936F93F8
:1013F0007F938F939F93AF93BF93EF93FF933FDFC1
:10140000FF91EF91BF91AF919F918F917F916F91DC
:101410005F914F913F912F910F900FBE0F901F90B2
:1014200018951F920F920FB60F9211242F933F938E
:101430004F935F936F937F938F939F93AF93BF93DC
:10144000EF93FF931CDFFF91EF91BF91AF919F91BD
:101450008F917F916F915F914F913F912F910F905D
:101460000FBE0F901F9018951F920F920FB60F92FC
:1014700011242F933F934F935F936F937F938F9399
:101480009F93AF93BF93EF93FF93F9DEFF91EF919B
:10149000BF91AF919F918F917F916F915F914F918C
:1014A0003F912F910F900FBE0F901F9018951F9294
:1014B0000F920FB60F9211242F933F934F935F9388
:1014C0006F937F938F939F93AF93BF93EF93FF930C
:1014D000D6DEFF91EF91BF91AF919F918F917F9158
:1014E0006F915F914F913F912F910F900FBE0F9091
:1014F0001F9018951F920F920FB60F9211242F93E1
:101500003F934F935F936F937F938F939F93AF938B
:10151000BF93EF93FF93B3DEFF91EF91BF91AF9134
:101520009F918F917F916F915F914F913F912F91FB
:101530000F900FBE0F901F9018951F920F920FB62D
:101540000F9211242F933F934F935F936F937F9349
:101550008F939F93AF93BF93EF93FF9390DEFF9191
:10156000EF91BF91AF919F918F917F916F915F911B
:101570004F913F912F910F900FBE0F901F90189594
:101580001F920F920FB60F9211242F933F934F93F8
:101590005F936F937F938F939F93AF93BF93EF93DB
:1015A000FF936DDEFF91EF91BF91AF919F918F916E
:1015B0007F916F915F914F913F912F910F900FBE4F
:1015C0000F901F9018951F920F920FB60F92112433
:1015D0002F933F934F935F936F937F938F939F933B
:1015E000AF93BF93EF93FF934ADEFF91EF91BF91CB
:1015F000AF919F918F917F916F915F914F913F91AB
:101600002F910F900FBE0F901F9018951F920F9261
:101610000FB60F9211242F933F934F935F936F93C5
:101620007F938F939F93AF93BF93EF93FF9327DEA7
:10163000FF91EF91BF91AF919F918F917F916F91AA
:101640005F914F913F912F910F900FBE0F901F9080
:1016500018951F920F920FB60F9211242F933F935C
:101660004F935F936F937F938F939F93AF93BF93AA
:10167000EF93FF9304DEFF91EF91BF91AF919F91A4
:101680008F917F916F915F914F913F912F910F902B
:101690000FBE0F901F9018951F920F920FB60F92CA
:1016A00011242F933F934F935F936F937F938F9367
:1016B0009F93AF93BF93EF93FF93E1DDFF91EF9182
:1016C000BF91AF919F918F917F916F915F914F915A
:1016D0003F912F910F900FBE0F901F9018951F9262
:1016E0000F920FB60F9211242F933F934F935F9356
:1016F0006F937F938F939F93AF93BF93EF93FF93DA
:10170000BEDDFF91EF91BF91AF919F918F917F913E
:101710006F915F914F913F912F910F900FBE0F905E
:101720001F9018951F920F920FB60F9211242F93AE
:101730003F934F935F936F937F938F939F93AF9359
:10174000BF93EF93FF939BDDFF91EF91BF91AF911B
:101750009F918F917F916F915F914F913F912F91C9
:101760000F900FBE0F901F9018951F920F920FB6FB
:101770000F9211242F933F934F935F936F937F9317
:101780008F939F93AF93BF93EF93FF9378DDFF9178
:10179000EF91BF91AF919F918F917F916F915F91E9
:1017A0004F913F912F910F900FBE0F901F90189562
:1017B0001F920F920FB60F9211242F933F934F93C6
:1017C0005F936F937F938F939F93AF93BF93EF93A9
:1017D000FF9355DDFF91EF91BF91AF919F918F9155
:1017E0007F916F915F914F913F912F910F900FBE1D
:1017F0000F901F9018951F920F920FB60F92112401
:101800002F933F934F935F936F937F938F939F9308
:10181000AF93BF93EF93FF9332DDFF91EF91BF91B1
:10182000AF919F918F917F916F915F914F913F9178
:101830002F910F900FBE0F901F901895CF93DF93AD
:101840001F92CDB7DEB78FB78983F89489810F9047
:10185000DF91CF91089504C0615071098109910908
:101860006115710581059105B9F70895E7DF982F96
:101870008FEF8BB91AB828982C9A2D9A2D9889B188
:101880009FBF0895CF93C82FD9DFCBB99FEF9AB9E7
:1018900028982C982D9A2D988FBFCF910895CF938B
:1018A000C82FCCDFCBB99FEF9AB9289A2C982D9AE4
:1018B0002D988FBFCF910895C1DF982F8FEF8BB9EF
:1018C0001AB8289A2C9A2D9A2D9880910C04882366
:1018D00019F089B12D9A2D9889B110920C049FBFEF
:1018E000089581E8CFDF809159048F738068CACF53
:1018F0008DE2C8DF84E2C6DF8AEEC4DFF2DF88EC67
:10190000C1DF88E8BFDF80E4BDDF80E9BBDF80EBBB
:10191000B9DF80E0B7DF80E1B5DF81E080930C04C0
:101920008FEEB0DF8EEEAEDF84EAACDF86EAAADFB0
:101930008FEAA8CF803128F4806BA4DF81E0809308
:101940000C040895CF93803F58F4C82F8F709ADF0E
:101950008C2F82958F70806195DF81E080930C04DD
:10196000CF91089580E08EDF80E18CDF81E080936D
:101970000C04089580EB86DFF5CFCF93DF93C0E0B2
:101980008C2F806B7FDF80E07DDF80E17BDFD0EF1D
:1019900080E085DFD150E1F7CF5FC03189F7DF917B
:1019A000CF91E8CFFF920F931F93CF93DF936AE01D
:1019B00071E08CED93E00E942D1C23E031E04BE0C0
:1019C00063E08CED93E0DAD967E171E08CED93E0B0
:1019D0000E942D1C23E031E044E163E08CED93E0B4
:1019E000CDD961E271E08CED93E00E942D1C23E0E3
:1019F00031E04DE163E08CED93E0C0D91F921F927E
:101A00001F921F9288E391E09F938F931F9210E3A0
:101A10001F93CCEDD3E0DF93CF930E94341C23E0DF
:101A200031E046E263E0CE01A9D91F921F921F92D6
:101A30001F921F921F921F921F9280E591E09F9329
:101A40008F931F921F93DF93CF930E94341C23E048
:101A500031E04FE263E0CE0191D91F921F921F92B5
:101A60001F9283E791E09F938F931F921F93DF93C1
:101A7000CF930E94341C8DB79EB782960FB6F89410
:101A80009EBF0FBE8DBF23E031E048E363E0CE018F
:101A900075D91F921F921F921F9288E891E09F9321
:101AA0008F931F921F93DF93CF930E94341C23E0E8
:101AB00031E048E36BE7CE0161D91F921F921F927C
:101AC0001F921F921F928EE991E09F938F931F9216
:101AD0001F93DF93CF930E94341C23E031E041E455
:101AE00063E0CE014BD91F921F921F921F928BEC85
:101AF00091E09F938F931F921F93DF93CF930E9448
:101B0000341C8DB79EB780960FB6F8949EBF0FBE5B
:101B10008DBF23E031E04AE463E0CE012FD91F926C
:101B20001F921F921F928FED91E09F938F931F92B0
:101B30001F93DF93CF930E94341C23E031E043E5F1
:101B400063E0CE011BD91F921F921F921F921F921A
:101B50000EE70F931F921F921F9280E2F82EFF92C2
:101B600087EF91E09F938F931F921F93DF93CF9303
:101B70000E94341C23E031E04CE563E0CE01FED846
:101B80001F921F921F921F921F920F931F921F92DC
:101B90001F92FF9286E192E09F938F931F921F9373
:101BA000DF93CF930E94341C8DB79EB78A960FB6F1
:101BB000F8949EBF0FBE8DBF23E031E045E663E0A1
:101BC000CE01DCD81F921F921F921F9284E392E0F5
:101BD0009F938F931F921F93DF93CF930E94341C88
:101BE00023E031E04EE663E0CE01C8D81F920F93A8
:101BF0001F921F928AE492E09F938F931F921F93EC
:101C0000DF93CF930E94341C23E031E04EE66FE96E
:101C1000CE01B4D88DB79EB744960FB6F8949EBF48
:101C20000FBE8DBF23E031E047E763E089E592E036
:101C3000DF91CF911F910F91FF90A0C83F924F92DB
:101C40005F926F927F928F929F92AF92BF92CF924C
:101C5000DF92EF92FF920F931F93CF93DF93EEDD0E
:101C6000C82FF8949091290492FF2EC09B7F9093E7
:101C70002904809144041F928F93809143041F9202
:101C80008F93809142041F928F9383E692E09F93FB
:101C90008F931F9280E38F938CED93E09F938F93AC
:101CA0000E94341CCFBF23E031E04DE16FE38CEDA7
:101CB00093E064D88DB79EB70C960FB6F8949EBF8C
:101CC0000FBE8DBF8FEFFDC391FF30C09D7F9093FE
:101CD0002904809130048F9380912F048F938091F9
:101CE00040041F928F93809141041F928F9382E74B
:101CF00092E09F938F931F9280E38F938CED93E0FC
:101D00009F938F930E94341CCFBF23E031E044E1C6
:101D10006FE38CED93E032D88DB79EB70C960FB67B
:101D2000F8949EBF0FBE8DBF8EEFCBC3892F8170FD
:101D300090FF55C19E7F90932904CFBFC0912D0481
:101D4000D0912E04A0902B04B0902C0490903F04CE
:101D5000C13596E4D9079CF4C03B89EBD8072CF039
:101D6000C53991E1D9071CF00FC0C0EBD9EBBE011A
:101D7000CC368EEED80754F46CE67EEE07C0C0E594
:101D8000D6E460E576E402C060E576E4072E000C58
:101D9000880B990B0E94901A20E030EA4CE855E439
:101DA0000E94F51920E030E048E952E40E94971BB8
:101DB0000E945D1A2B013C017B0177FF08C036E9C8
:101DC000832E860ECC24DD24C61AD70A03C06B01ED
:101DD00026E9822E1F929F9281E892E09F938F9333
:101DE0001F9290E3392E3F920CED13E01F930F9357
:101DF0000E94341C23E031E04BE06BE4C8010E94F8
:101E0000BE06C50168EE73E00E94061C9F938F9387
:101E10007F936F9385E892E09F938F931F923F92F9
:101E20001F930F930E94341C23E031E048E36DEBD5
:101E3000C8010E94BE06CE0164E670E00E941A1C32
:101E40007F936F938EE892E09F938F931F923F92C0
:101E50001F930F930E94341C23E031E04EE669EC9F
:101E6000C8010E94BE068DB79EB74A960FB6F89479
:101E70009EBF0FBE8DBF80915603981222C0C11421
:101E8000D104F9F0442D1E141F040CF440E0D42DAD
:101E9000F7FCD0E097E0991609F462C0991568F054
:101EA0008FEF890D833008F096C001E021E048E90A
:101EB0006AE78AE40E9477048EC08FE0981699F052
:101EC0008AC000E025E040EA68E786E40E947704E3
:101ED000C114D104B9F601E02CE746E968E786E9C8
:101EE0000E94E50378C0405B00E025E068E786E4F7
:101EF0000E947704F7FE0FC001E028E7482D6AE74B
:101F0000CCEFC80D8C2F0E94E5032CE7482D6AE723
:101F10008C2F0E94E50301E025E04C2D68E7882D19
:101F20000E94770440E54D1B00E025E068E786E964
:101F30008D0F0E9477041E141F040CF04CC0C5E9DD
:101F4000CD0FD75601E028E74C2F6AE78D2F0E946E
:101F5000E5032CE74C2F6AE78D2F0E94E5033BC079
:101F6000405B00E023E069E786E40E947704F7FE27
:101F70000FC001E029E7482D6AE7CCEFC80D8C2F90
:101F80000E94E5032BE7482D6AE78C2F0E94E503AA
:101F900001E023E04C2D69E7882D0E94770440E59D
:101FA0004D1B00E023E069E786E98D0F0E9477046E
:101FB0001E141F0484F4C5E9CD0FD75601E029E7AC
:101FC0004C2F6AE78D2F0E94E5032BE74C2F6AE721
:101FD0008D2F0E94E503909256038DEF72C296FFFB
:101FE00036C020910101223090F59F7B9093290407
:101FF00080914A041F928F93809149041F928F937E
:10200000809148041F928F9384E992E09F938F936D
:102010001F9280E38F938CED93E09F938F930E94A8
:10202000341CCFBF23E031E041E46DE58CED93E05B
:102030000E94BE0682E0809301018DB79EB70C9688
:102040000FB6F8949EBF0FBE8DBF81E03AC297FFD6
:1020500047C020910101233008F042C0809129043B
:102060008F77809329042091370430913804C90177
:1020700064E670E00E94061C9F938F93B90180E094
:1020800090E00E948E1A20E030E048EC52E40E947A
:10209000F5190E945D1A7F936F9385ED91E09F93F0
:1020A0008F931F9280E38F938CED93E09F938F9398
:1020B0000E94341CCFBF23E031E04AE46FE38CED93
:1020C00093E00E94BE0683E0809301018DB79EB726
:1020D0000A960FB6F8949EBF0FBE8DBF82E0F1C185
:1020E00020912A0420FF32C030910101343070F574
:1020F0002E7F20932A0480914C041F928F9380910D
:102100004B041F928F938CEE91E09F938F931F92BD
:1021100080E38F938CED93E09F938F930E94341C08
:10212000CFBF23E031E043E561E58CED93E00E9411
:10213000BE0684E0809301018DB79EB70A960FB664
:10214000F8949EBF0FBE8DBF83E0BBC121FF41C08D
:10215000309101013530E8F580912A048D7F80931C
:102160002A0480913A048F93809139048F9380914F
:102170004F041F928F931F928EE78F9380914E048E
:102180001F928F9380914D041F928F938DEA92E05E
:102190009F938F931F9280E38F938CED93E09F9397
:1021A0008F930E94341CCFBF23E031E04CE56FE3F6
:1021B0008CED93E00E94BE0685E0809301018DB70F
:1021C0009EB740960FB6F8949EBF0FBE8DBF84E0B9
:1021D00078C122FF41C0309101013630E8F580918D
:1021E0002A048B7F80932A0480913C048F938091F2
:1021F0003B048F93809152041F928F931F928EE71E
:102200008F93809151041F928F93809150041F925D
:102210008F9381EC92E09F938F931F9280E38F9333
:102220008CED93E09F938F930E94341CCFBF23E0EB
:1022300031E045E66FE38CED93E00E94BE0686E058
:10224000809301018DB79EB740960FB6F8949EBF5C
:102250000FBE8DBF85E035C123FF36C0209101013F
:10226000273090F580912A04877F80932A048091FB
:1022700053041F928F9380913E048F9380913D046D
:102280008F9384ED92E09F938F931F9280E38F93BF
:102290008CED93E09F938F930E94341CCFBF23E07B
:1022A00031E04EE66FE38CED93E00E94BE0687E0DE
:1022B000809301018DB79EB70A960FB6F8949EBF22
:1022C0000FBE8DBF86E0FDC093FF38C02091010195
:1022D0002830A0F580912904877F8093290480917C
:1022E00034048F93809133048F93809132048F93C1
:1022F000809131048F938DED92E09F938F931F9285
:1023000080E38F938CED93E09F938F930E94341C16
:10231000CFBF23E031E046E26FE38CED93E00E9413
:10232000BE0688E0809301018DB79EB70A960FB66E
:10233000F8949EBF0FBE8DBF87E0C3C094FF85C0D9
:1023400020910101293008F080C0F090450460918F
:102350004604809129048F7E80932904CFBF70E0CA
:1023600080E090E00E94901A2B013C0120E030E0D8
:102370004AE750E40E94971B0E945D1A7F936F9377
:102380001F92FF9207EE12E01F930F931F9280E3BC
:10239000B82EBF92CCEDD3E0DF93CF930E94341CD4
:1023A00023E031E04FE26FE3CE010E94BE066F2DC5
:1023B00070E080E090E00E948E1A6B017C0120E0CA
:1023C00030E040E85BE3C301B2010E94971BA70124
:1023D0009601A3D720E030E048EC5EE30E94971B13
:1023E0006B017C010E94CB1A9B01AC01C701B601B5
:1023F00093D720E030E04AE754E40E94971B0E9404
:102400005D1A7F936F93C701B6010E945D1A7F9397
:102410006F931F930F931F92BF92DF93CF930E94EE
:10242000341C23E031E04FE26DE8CE010E94BE068D
:1024300089E0809301018DB79EB744960FB6F8945A
:102440009EBF0FBE8DBF88E03CC095FF36C0909107
:1024500001019A3090F5809129048F7D80932904A1
:10246000809136048F93809135048F938091470437
:102470001F928F9385E892E09F938F931F9280E342
:102480008F938CED93E09F938F930E94341CCFBF6A
:1024900023E031E048E36FE38CED93E00E94BE0659
:1024A0008AE0809301018DB79EB70A960FB6F89423
:1024B0009EBF0FBE8DBF89E004C091E090930101E3
:1024C000CFBFDF91CF911F910F91FF90EF90DF90E1
:1024D000CF90BF90AF909F908F907F906F905F90C4
:1024E0004F903F900895EF92FF920F931F93CF93D9
:1024F000DF9383EC9FEF9093DB038093DA0381E01B
:102500008093D90320E030E08BE0E82EF12CC0E48A
:1025100048EFD8EC18ED0FED2115310519F41092A4
:10252000940343C0233031055CF4F901EC56FC4FB1
:1025300040832F5F3F4FF901EC56FC4F108335C0AD
:10254000253031052CF4F901EC56FC4F00832DC0E9
:102550002B3031052CF4F901EC56FC4F108325C0CB
:1025600020313105E4F02C33310519F41092D003F9
:102570001CC0C9014097B7010E941A1CF901EC5612
:10258000FC4F892B89F4C083C183C2834383448376
:10259000D58346834783D0874187265F3F4FF90124
:1025A000EC56FC4F408301C010822F5F3F4F2D330C
:1025B00031050CF4B1CFA4E9B3E0E4E9F3E08D9187
:1025C000829383E0E735F807D1F700E028E040EF99
:1025D00068E780E00E947704DF91CF911F910F910F
:1025E000FF90EF900895CF92DF92EF92FF920F93BA
:1025F0008091D903882309F479C10ED46B017C0141
:102600002091D1033091D2034091D3035091D40350
:1026100083D62AE037ED43E25DE30E94931B87FDFA
:102620005BC0C092D103D092D203E092D303F09268
:10263000D4038091D903E091DA03F091DB03E80F32
:10264000F11D87FDFA95F093DB03E093DA03EA3B93
:102650008FEFF80724F481E08093D90306C0EA3FA6
:10266000F1051CF08FEF8093D9038091D90387FF88
:102670001AC0E03FF10540F42DE34E2F6FE084E9EE
:1026800093E00E94DC0528C0CF01CC96CC9720F5C2
:102690002DE32E0F40E06FE084E993E08E1B9F0B4B
:1026A0000E94DC0519C0E03FF10540F42DE34E2FF8
:1026B0006FE087E593E00E94DC050EC0CF01CC9669
:1026C000CC9750F42DE32E0F40E06FE087E593E0C8
:1026D0008E1B9F0B0E94DC052091D5033091D60301
:1026E0004091D7035091D803C701B60115D620E019
:1026F00030E040E05FE30E94931B87FDC0C0C092C2
:10270000D503D092D603E092D703F092D803FCD33E
:1027100095D8C0905B04D0905C04E0905D04F0908C
:102720005E048FBF20E030E0A901C701B60159D691
:1027300087FF03C0C12CD12C760120915203309128
:1027400053034091540350915503C701B601E4D59A
:102750009F772AE037ED43E25CE343D687FD39C03B
:10276000C0925203D0925303E0925403F092550367
:1027700020E030E048EC52E4C701B601D8D79DD63E
:10278000CB0164E670E00E941A1C9F938F93C701EF
:10279000B60193D67F936F9380EF92E09F938F93D0
:1027A0001F9280E38F938CED93E09F938F930E9411
:1027B000341C23E031E049E660EA8CED93E00E94AE
:1027C000BE068DB79EB70A960FB6F8949EBF0FBE91
:1027D0008DBF34D8C0906304D0906404E090650449
:1027E000F09066048FBF20914E0330914F034091CB
:1027F000500350915103C701B6018ED59F772DEC40
:102800003CEC4CEC5DE3EDD587FD39C0C0924E0346
:10281000D0924F03E0925003F092510320E030E059
:1028200040E251E4C701B60182D747D6CB016AE046
:1028300070E00E941A1C9F938F93C701B6013DD68A
:102840007F936F9381E093E09F938F931F9280E338
:102850008F938CED93E09F938F930E94341C23E021
:1028600031E04FE560EA8CED93E00E94BE068DB743
:102870009EB70A960FB6F8949EBF0FBE8DBF2091EB
:102880004C0330914D03F9013196F0934D03E093E1
:102890004C03809100012231310564F463E0AAD732
:1028A0002BE12E1B6AE06E0F092F4FEE80E00E9495
:1028B000E5031CC0E23091E0F90764F463E09AD7C5
:1028C00041E04E1B092F2AE06BE18EEE8E0F0E9435
:1028D000E5030CC010924D0310924C038F5F8330C0
:1028E00018F48093000102C0109200010F91FF9034
:1028F000EF90DF90CF900895EF92FF920F931F9388
:10290000CF93C82F80FD03C0C1FF28C008C010E0CE
:10291000812F0E944F0C1F5F103FD1F7F5CF82EB44
:102920000E94420C81E080930C041CD800E010E06F
:1029300087E0E82EF12CC801B7017CD7892B19F468
:1029400080E00E944F0CF801E851FC4F84910E94F6
:102950004F0C0F5F1F4F003F110569F7C2FF2DC0DD
:1029600041E068E284E00E94490641E069E285E0D6
:102970000E94490641E06AE286E00E94490641E081
:102980006BE287E00E94490641E06CE286E00E942B
:10299000490641E06DE285E00E94490641E06EE2B1
:1029A00086E00E94490641E06FE287E00E94490606
:1029B00041E060E388E00E944906C3FF07C001E0F0
:1029C0002FE14FEE60E180E00E94E503C4FF0DC0FF
:1029D00001E028E248E260E386E40E94540428E231
:1029E00048E260E38AEA0E947704C5FF0DC00FEF5A
:1029F00021E04AE060E58AE00E94910421E04AE09B
:102A000060E588E20E943F05C6FF08C023E031E090
:102A100040E266E48FE093E00E94BE06C7FF0CC070
:102A200062DD80915404816080935404CF911F91A2
:102A30000F91FF90EF90D7CDCF911F910F91FF9005
:102A4000EF90089583E091E0089582EE0E94420C99
:102A50006BE278E680E090E00E942B0C0E94360C3E
:102A600087FD06C00E94780C0E94BD0C80E008958E
:102A700081E0089580932804882331F080915404E4
:102A80008E7F809354040895E0DF81EF35CF82EE8E
:102A90000E94420C6BE67AE080E090E00C942B0CF4
:102AA000E0912204EE2351F0F0E0E55EFB4F12923C
:102AB00084E0EA31F807D9F7109222040895809152
:102AC00011048232A1F480911204813019F0823015
:102AD00059F0089580911904811109C010921204CF
:102AE00081E180931104089580911304C3CF089568
:102AF0001F93CF93DF93D62FC42FC574883609F464
:102B000090C008F042C0803309F483C048F580319A
:102B100009F46AC0D8F4882309F468C1883009F040
:102B200065C11092100482E080930F0484E28093C8
:102B30001A0484E380931B0486E580931C0488E7D1
:102B400080931D048AE980931E044EC0803209F4EC
:102B500061C0883209F44CC0883109F047C145C0D2
:102B6000883409F45BC038F4883309F455C08034E4
:102B700009F454C03BC1883509F450C0803609F4CB
:102B80004FC0803509F032C149C0803A09F4F7C01E
:102B9000B0F4803809F45FC038F4803709F450C0CD
:102BA000883709F44EC022C1803909F455C08839EC
:102BB00009F4D1C0883809F019C10000CCC0883BA5
:102BC00009F4F7C038F4883A09F4E4C0803B09F40A
:102BD000E2C00CC1883C09F406C1883F09F406C173
:102BE000803C09F003C1FFC00000E091100406C062
:102BF000E091100480910F04E81758F481E08E0FE3
:102C000080931004F0E0E65EFB4F80818093BB0070
:102C1000F1C046DFC061EEC0C062ECC00000EAC097
:102C2000000011E01093190440E068E081E194E0B5
:102C300030D1D695D093110410930E04C064DAC03D
:102C4000000081E080931904D695D09311048093FD
:102C50000E04C064CFC0000080910D048F3009F4D1
:102C600073C090910E049F3008F072C0E92FF0E01D
:102C7000EF5EFB4FD083913009F05CC0809111046E
:102C8000823209F059C010920D0410920F04809105
:102C90001204803809F44AC0C0F48032D9F140F4FB
:102CA000813079F150F1823089F1843179F144C079
:102CB000863381F128F4823369F1843359F13CC0C1
:102CC000883321F18A3311F137C0883839F168F43B
:102CD000833841F128F4813829F18238F9F02CC089
:102CE0008438C1F08538D1F027C08D3818F48B387E
:102CF00088F01CC08D3891F01FC081E080930D04D6
:102D00001BC090930D0490930F0416C082E0809333
:102D10000D0412C083E080930D040EC084E0809304
:102D20000D040AC085E080930D0406C086E0809300
:102D30000D0402C09E3060F49F5F90930E0480915A
:102D40000D04891728F024C0D093130410920E04A8
:102D5000C42FC5704FC01092190480910D048F309C
:102D600009F0ADDE10920E0410920D0440E068E010
:102D700081E194E08ED010921904C0643BC010929F
:102D8000190480910D048F3009F099DE10920E0421
:102D9000C06430C0000081E08093190410921004D8
:102DA00090910F049923A1F0809310048091110455
:102DB00010C0E091100480910F04E81748F481E0FE
:102DC0008E0F80931004F0E0EF5EFB4F808101C016
:102DD00080E08093BB0090910F04809110048917CC
:102DE00008F0B6CFD5CF10921904D2CF00001092C0
:102DF0001904C0658C2FDF91CF911F910895CF9357
:102E0000DF931F92CDB7DEB78FB78983F89489819E
:102E10000F90DF91CF9108958F929F92AF92BF92C2
:102E2000CF92DF92EF92FF92EADF6091840090915F
:102E30008500C0906804D0906904E0906A04F09026
:102E40006B048FBF70E0792B072E000C880B990B59
:102E500067D320E034E244EF5AE4C7D24B015C016F
:102E6000C701B6015BD320E030E040E054E45FD41A
:102E700020E034E244EF5AE4B8D2A50194014DD2E7
:102E8000FF90EF90DF90CF90BF90AF909F908F908A
:102E9000089570E06115710531F0FC014193CF0197
:102EA00061507109F7CF0895CF93C82F87FF04C0F1
:102EB00061E180E090E08FD7C0FF07C060915904C6
:102EC0006F7380E190E0CF9186C7CF910895CF9343
:102ED000C82F87FF07C080E090E075D7813111F0DF
:102EE00080E8E2DFC0FF0EC08CE18093590480E1EE
:102EF00090E069D7803418F48093590403C081E0CE
:102F0000CF91D2CFCF9108954F925F926F927F92DF
:102F10008F929F92AF92BF92EF92FF920F931F9367
:102F2000CF93DF93CDB7DEB7A8970FB6F894DEBF87
:102F30000FBECDBF64DF40905F045090600460908E
:102F40006104709062048090630490906404A09087
:102F50006504B09066041091540410FBEE24E0F870
:102F6000169511708FBF4BDFF82E29E137EC4FEA31
:102F700053E4C301B201D0D120E030EA47E85FE377
:102F8000D6D320E030E048EC51E4C7D160935B0435
:102F900070935C0480935D0490935E04FFBEC50152
:102FA000B40190D2663B23E0720700F580E090E028
:102FB000B5D220E030E040E251E4AED120E030E88C
:102FC0004DE654E412D220E030E045E753E4AFD3BD
:102FD00020E030E040E251E4A0D174D26093B3002D
:102FE0008091B00080688093B00007C01092B30059
:102FF0008091B0008F738093B000112321F00E9464
:103000001E0EF82E01C0F12CEE2011F0ECDA37C0C4
:1030100080910201882399F1109202010E94BD0C57
:1030200080912804803141F401E020E840EF60E025
:1030300080E00E9454041CC08032D1F401E020E8FA
:1030400040EF60E080E00E94540488E2E0E2F3E0B8
:10305000DE01119601900D928A95E1F7F3DC9C0157
:1030600042E063E0CE0101960E94BE060E94D20CAF
:10307000C6DE909154049260909354048FBFF11077
:10308000BCCFA8960FB6F894DEBF0FBECDBFDF91C0
:10309000CF911F910F91FF90EF90BF90AF909F90B5
:1030A0008F907F906F905F904F900895CF93DF93B4
:1030B0008EE788B988E087B984E185B98BEF84B958
:1030C0008FEF8BB91AB8C1E0C0937E000E94EB026B
:1030D0008BEE80936400D3E8D3BD68E080E00E946B
:1030E000040382E88093800089E08093810010923D
:1030F0008500109284001092890080E880938800F7
:10310000C0936F0087E286BB60E480E00E94040306
:10311000D093B00085E08093B1001092B20010927D
:10312000B300C093700087E087BB1092B60061E0E7
:1031300080E00E940403C0937E0087E880937A00B9
:1031400080EC80937C0080917A00806180937A008B
:1031500080917A00886080937A0080917B00887FDC
:10316000866080937B0080917A00806280937A00F1
:103170000E94EA0284B7982F977011F481112BC036
:103180003EDEF89410926704109263041092640477
:10319000109265041092660410925F04109260040D
:1031A000109261041092620440E050E068EC71E417
:1031B00040935B0450935C0460935D0470935E04E1
:1031C00090E490935A04909154049E7F9D7F909335
:1031D00054048FBF0DC090E0A0E0B0E080932404C1
:1031E00090932504A0932604B09327040E94EA0636
:1031F0008FEF6DDE60E880E00E94040300DE109235
:10320000B90092E09093B80094E49093BA001092C1
:10321000BD0095E49093BC008FBF789413BC15DC7F
:1032200081EF6ADB81E080932304C1E08091230475
:10323000882339F069DEC3BF889583B78E7F83BF4B
:10324000F5CF25DCF89480B7806880BF64E080E02B
:103250000E941A0362E080E00E941A03D0DD94E02D
:103260009093BC003C98449A3D98459A1092BC00BB
:103270008FBF60E880E00E941A0380917A00877F08
:1032800080937A0080917A008F7D80937A0080917C
:103290007B00887F80937B0010927C0010927E00E0
:1032A00061E080E00E941A03AADDC82F60E280E09E
:1032B0000E941A0321982998109280001092810090
:1032C0001092820010926F0068E080E00E941A0362
:1032D000239A2B981092B0001092B10010927000B7
:1032E0001092B60060E480E00E941A0388DD5F93CC
:1032F00050E85093610050E0509361005F918FBFA0
:10330000CFBF89E083BF889583B78E7F83BF80E07E
:1033100090E0DF91CF9108955058BB27AA270ED097
:10332000B1C1A2D130F0A7D120F031F49F3F11F408
:103330001EF497C10EF4E095E7FB64C1E92FB3D109
:1033400080F3BA17620773078407950718F071F4C2
:103350009EF5E2C10EF4E0950B2EBA2FA02D0B01C5
:10336000B90190010C01CA01A0011124FF27591BCA
:1033700099F0593F50F4503E68F11A16F040A22FD0
:10338000232F342F4427585FF3CF46953795279541
:10339000A795F0405395C9F77EF41F16BA0B620B40
:1033A000730B840BBAF09150A1F0FF0FBB1F661F87
:1033B000771F881FC2F70EC0BA0F621F731F841FCA
:1033C00048F4879577956795B795F7959E3F08F0F0
:1033D000B3CF9395880F08F09927EE0F97958795AF
:1033E0000895ECD008F481E008950CD04BC143D18E
:1033F00040F03AD130F021F45F3F19F003C1511190
:103400008CC12FC150D198F39923C9F35523B1F33F
:10341000951B550BBB27AA2762177307840738F043
:103420009F5F5F4F220F331F441FAA1FA9F333D0A2
:103430000E2E3AF0E0E830D091505040E695001C56
:10344000CAF729D0FE2F27D0660F771F881FBB1F12
:10345000261737074807AB07B0E809F0BB0B802DEC
:10346000BF01FF2793585F4F2AF09E3F510568F038
:10347000C9C053C15F3FECF3983EDCF38695779566
:103480006795B795F7959F5FC9F7880F911D96953A
:10349000879597F90895E1E0660F771F881FBB1F96
:1034A000621773078407BA0720F0621B730B840B43
:1034B000BA0BEE1F88F7E095089504D06894B11117
:1034C0002CC10895F8D088F09F5790F0B92F992714
:1034D000B751A0F0D1F0660F771F881F991F1AF01F
:1034E000BA95C9F712C0B13081F016D1B1E0089594
:1034F00013C1672F782F8827B85F39F0B93FCCF315
:10350000869577956795B395D9F73EF49095809514
:10351000709561957F4F8F4F9F4F0895E89409C034
:1035200097FB3EF490958095709561957F4F8F4FF6
:103530009F4F9923A9F0F92F96E9BB279395F6950C
:10354000879577956795B795F111F8CFFAF4BB0F8A
:1035500011F460FF1BC06F5F7F4F8F4F9F4F16C0EE
:10356000882311F096E911C0772321F09EE8872F78
:10357000762F05C0662371F096E8862F70E060E034
:103580002AF09A95660F771F881FDAF7880F9695AD
:10359000879597F90895A9D080F09F3740F491114D
:1035A0000EF0BBC060E070E080E89FEB089526F469
:1035B0001B16611D711D811D2BC045C0990F000890
:1035C000550FAA0BE0E8FEEF16161706E807F907F5
:1035D000C0F012161306E407F50798F0621B730B90
:1035E000840B950B39F40A2661F0232B242B252B11
:1035F00021F408950A2609F4A140A6958FEF811DB4
:10360000811D089597F99F6780E870E060E0089554
:10361000882371F4772321F09850872B762F07C0E9
:10362000662311F499270DC09051862B70E060E05D
:103630002AF09A95660F771F881FDAF7880F9695FC
:10364000879597F908959F3F31F0915020F4879521
:1036500077956795B795880F911D9695879597F9FA
:1036600008959FEF80EC089500240A94161617061B
:1036700018060906089500240A9412161306140663
:1036800005060895092E0394000C11F4882352F0C6
:10369000BB0F40F4BF2B11F460FF04C06F5F7F4F7E
:1036A0008F4F9F4F089557FD9058440F551F59F065
:1036B0005F3F71F04795880F97FB991F61F09F3F1F
:1036C00079F087950895121613061406551FF2CF48
:1036D0004695F1DF08C0161617061806991FF1CF98
:1036E00086957105610508940895E5DFA0F0BEE7B1
:1036F000B91788F4BB279F3860F41616B11D672FE1
:10370000782F8827985FF7CF869577956795B11DB5
:1037100093959639C8F30895E894BB2766277727D1
:10372000CB0197F908954ADF08F48FEF08950BD085
:10373000A9CF9ADF28F09FDF18F0952309F062CF18
:1037400090CF1124EACFAFDFA0F3959FD1F3950F6F
:1037500050E0551F629FF001729FBB27F00DB11D15
:10376000639FAA27F00DB11DAA1F649F6627B00DA5
:10377000A11D661F829F2227B00DA11D621F739F8E
:10378000B00DA11D621F839FA00D611D221F749F9C
:103790003327A00D611D231F849F600D211D822FE3
:1037A000762F6A2F11249F5750408AF0E1F088232A
:1037B0004AF0EE0FFF1FBB1F661F771F881F915037
:1037C0005040A9F79E3F510570F01CCFA6CF5F3F38
:1037D000ECF3983EDCF3869577956795B795F7956A
:1037E000E7959F5FC1F7FE2B880F911D96958795F2
:1037F00097F90895991B79E004C0991F961708F06E
:10380000961B881F7A95C9F780950895AA1BBB1B44
:1038100051E107C0AA1FBB1FA617B70710F0A61BD0
:10382000B70B881F991F5A95A9F780959095BC01F1
:10383000CD01089597FB072E16F4009406D077FD6E
:1038400008D0E4DF07FC05D03EF4909581959F4FAA
:103850000895709561957F4F0895FB01DC010190FB
:103860000D920020E1F70895AEE0B0E0E9E3FCE15D
:10387000CEC20D891E898F89988D26E02C831A83EC
:10388000098397FF02C080E090E801979E838D83B3
:10389000AE01455E5F4F698D7A8DCE01019611D0E4
:1038A0004D815E8157FD0AC02F813885421753072D
:1038B0000CF49A01F801E20FF31F10822E96E4E057
:1038C000C2C2ABE0B0E0E6E6FCE193C26C017B0172
:1038D0008A01FC0117821682838181FFBFC1CE015C
:1038E00001963C01F6019381F70193FD859193FFC9
:1038F00081917F01882309F4ADC1853239F493FDAC
:10390000859193FF81917F01853221F4B60190E08A
:10391000C0D1E8CF912C212C312CFFE1F315D8F048
:103920008B3279F038F4803279F08332A1F4232D90
:1039300020611DC08D3261F0803369F4232D216038
:1039400016C0832D8260382EE32DE4603E2E2AC0FF
:10395000F32DF8601DC037FC2DC020ED280F2A3054
:1039600040F08E32B9F436FC75C1232D2064322E1E
:1039700019C036FE06C08AE0989E200D1124922EB2
:1039800011C0EAE02E9E200D1124222EF32DF062AC
:103990003F2E08C08C3621F4832D8068382E02C05B
:1039A000883641F4F70193FD859193FF81917F0162
:1039B0008111B3CF982F9F7D9554933028F40C5FDD
:1039C0001F4F9FE399830DC0833631F0833771F029
:1039D000833509F055C020C0F801808189830E5FCE
:1039E0001F4F88248394912C530112C02801F2E0C8
:1039F0004F0E511CF801A080B18036FE03C0692D26
:103A000070E002C06FEF7FEFC50138D14C01820139
:103A1000F32DFF773F2E15C0280122E0420E511CE6
:103A2000F801A080B18036FE03C0692D70E002C0AD
:103A30006FEF7FEFC50117D14C01F32DF0683F2EDA
:103A4000820133FC19C0822D90E088169906A0F4FB
:103A5000B60180E290E01DD12A94F5CFF50137FC44
:103A6000859137FE81915F01B60190E012D121105E
:103A70002A9421E0821A91088114910479F7E1C017
:103A8000843611F0893639F5F80137FE07C06081B8
:103A90007181828193810C5F1F4F08C060817181A9
:103AA000072E000C880B990B0E5F1F4FF32DFF762E
:103AB0003F2E97FF09C090958095709561957F4F37
:103AC0008F4F9F4FF0683F2E2AE030E0A3011DD1B9
:103AD000882E861844C0853731F4232D2F7EB22ED0
:103AE0002AE030E025C0932D997FB92E8F36C1F0A2
:103AF00018F4883579F0AEC0803719F0883721F096
:103B0000A9C0E92FE061BE2EB4FE0DC0FB2DF4600C
:103B1000BF2E09C034FE0AC0292F2660B22E06C06F
:103B200028E030E005C020E130E002C020E132E0D2
:103B3000F801B7FE07C060817181828193810C5FBB
:103B40001F4F06C06081718180E090E00E5F1F4FC3
:103B5000A301DBD0882E8618FB2DFF773F2E36FE83
:103B60000DC0232D2E7FA22E891458F434FE0BC0D5
:103B700032FC09C0832D8E7EA82E05C0B82CA32C44
:103B800003C0B82C01C0B92CA4FE0FC0FE01E80D83
:103B9000F11D8081803321F49A2D997EA92E09C0D0
:103BA000A2FE06C0B394B39404C08A2D867809F0AF
:103BB000B394A3FC10C0A0FE06C0B21480F4280C7D
:103BC000922C9B180DC0B21458F4B60180E290E01C
:103BD00060D0B394F8CFB21418F42B1802C0982C0C
:103BE000212CA4FE0FC0B60180E390E052D0A2FECB
:103BF00016C0A1FC03C088E790E002C088E590E011
:103C0000B6010CC08A2D867851F0A1FE02C08BE26D
:103C100001C080E2A7FC8DE2B60190E03AD08914A1
:103C200030F4B60180E390E034D09A94F8CF8A94CF
:103C3000F301E80DF11D8081B60190E02AD08110DA
:103C4000F6CF222009F44ECEB60180E290E021D0DA
:103C50002A94F7CFF6018681978102C08FEF9FEFFC
:103C60002B96E2E1E2C0FC0105906150704001102A
:103C7000D8F7809590958E0F9F1F0895FC01615095
:103C8000704001900110D8F7809590958E0F9F1F7E
:103C900008950F931F93CF93DF93FB01238121FDA1
:103CA00003C08FEF9FEF2CC022FF16C046815781C3
:103CB000248135814217530744F4A081B1819D01CD
:103CC0002F5F3F4F318320838C93268137812F5F75
:103CD0003F4F3783268314C08B01EC01FB01008426
:103CE000F185E02D0995892BE1F6D80116968D9185
:103CF0009C911797019617969C938E931697CE01D9
:103D0000DF91CF911F910F910895FA01AA272830D2
:103D100051F1203181F1E8946F936E7F6E5F7F4F98
:103D20008F4F9F4FAF4FB1E03ED0B4E03CD0670F14
:103D3000781F891F9A1FA11D680F791F8A1F911D67
:103D4000A11D6A0F711D811D911DA11D20D009F4B7
:103D500068943F912AE0269F11243019305D3193F9
:103D6000DEF6CF010895462F4770405D4193B3E0E2
:103D70000FD0C9F7F6CF462F4F70405D4A3318F089
:103D8000495D31FD4052419302D0A9F7EACFB4E03A
:103D9000A6959795879577956795BA95C9F70097F2
:103DA0006105710508959B01AC010A2E0694579593
:103DB000479537952795BA95C9F7620F731F841FEA
:103DC000951FA01D0895F999FECF92BD81BDF89A67
:103DD000992780B50895262FF999FECF1FBA92BD75
:103DE00081BD20BD0FB6F894FA9AF99A0FBE0196DC
:103DF00008952F923F924F925F926F927F928F928F
:103E00009F92AF92BF92CF92DF92EF92FF920F9369
:103E10001F93CF93DF93CDB7DEB7CA1BDB0B0FB673
:103E2000F894DEBF0FBECDBF09942A883988488830
:103E30005F846E847D848C849B84AA84B984C884C6
:103E4000DF80EE80FD800C811B81AA81B981CE0FBD
:103E5000D11D0FB6F894DEBF0FBECDBFED010895A2
:043E6000F894FFCF04
:103E64000201010068000607207E436C6B537461F5
:103E740074653A2030780044617465202020203A2B
:103E84000054696D65202020203A2030303A3030CB
:103E94002E30302055544300446576696174276E92
:103EA4003A20253034642E2530336420707062004B
:103EB40050574D20202020203A202533642E2530D1
:103EC40033642F323536203D2533642E2530336458
:103ED40025250050756C6C566F6C743A202531643E
:103EE4002E253033642056005068617365566F6C1C
:103EF400743A202531642E253033642056005361F2
:103F04007455736520203A20576573743D2530320B
:103F14006420456173743D253032642055736564B3
:103F24003D253032642073617473005361742044FE
:103F34004F50203A20253032642E2530326400530D
:103F4400617453746174653A2046493D2531642097
:103F54004D323D25316400536174204C6174203A24
:103F64002025632020253032642563253032642ED9
:103F7400253034642700536174204C6F6E203A203E
:103F8400256320253033642563253032642E2530A3
:103F94003464270053617420486774203A20253024
:103FA40034642E25303164206D0050686173653AA5
:103FB40020252B30346425630050686173654F6697
:103FC400733A00253032643A253032642E2530327B
:103FD4006400253032642E253032642E253034645A
:103FE40000253158002531642E2530336400252BFB
:103FF400303464002530326420456173743D2530CB
:10400400326420557365643D253032640025632095
:1040140020253032642563253032642E2530346403
:1040240000256320253033642563253032642E2532
:1040340030346400253034642E2531640025303456
:10404400642E25303364002533642E253033640018
:1040540020543D20202532642E253032645E4320D6
:1040640000204C3D2534642E253164204144004415
:10407400463449414820536D6172742D4C434400C9
:104084003C3D3D3D3D203130204D487A2E2D52653A
:10409400662E2D4F73632E20536D6172742D4C4325
:0840A40044203D3D3D3D3E007E
:00000001FF
