S0140000536D6172742D4C43445F53572E7372656300
S1130000E7C200000C941B0C0C94F80B0C94D50B59
S11300100C94B20B0C948F0B0C946C0B0C94490B3A
S11300200C94260B30C700000C94030B0C94E00ACC
S11300300C94BD0ADAC700000C949A0A0C94770A4F
S11300400C946F080C94540A0C94310A0C940E0A04
S11300500C94EB090C9479080C94C8090C94A50928
S11300600C9450090C9482097B1884189118A218D6
S1130070B718D018ED180E1933195C198919BA1963
S1130080EF193F1B6C1B981BBD1BE21BF91BDA1CF1
S1130090DA1C171C361C4C1C631C911CBE1C000073
S11300A0000000000020202020200020505050009C
S11300B00000005050F850F850502078A07028F0FC
S11300C020C0C810204098186090A040A890686094
S11300D0204000000000102040404020104020102C
S11300E010102040005020F8205000002020F8205C
S11300F0200000000000602040000000F800000024
S1130100000000000060600008102040800070883B
S113011098A8C8887020602020202070708808105B
S11301202040F8F810201008887010305090F81013
S113013010F880F008088870304080F0888870F8E3
S113014008102040404070888870888870708888C3
S1130150780810600060600060600000606000600B
S11301602040081020402010080000F800F800008B
S11301708040201020408070880810200020708863
S11301800868A8A87070888888F88888F08888F03B
S11301908888F070888080808870E0908888889053
S11301A0E0F88080F08080F8F88080E080808070C3
S11301B0888080988870888888F88888887020204B
S11301C020202070381010101090608890A0C0A0DB
S11301D09088808080808080F888D8A888888888E3
S11301E08888C8A898888870888888888870F088E3
S11301F088F080808070888888A89068F08888F06B
S1130200A09088788080700808F0F82020202020B2
S1130210208888888888887088888888885020887A
S11302208888A8A8D88888885020508888888850CA
S113023020202020F80810204080F838202020209A
S1130240203800804020100800E02020202020E0FA
S113025020508800000000000000000000F840204A
S11302601000000000000070087888788080B0C812
S11302708888F000007080808870080868988888F2
S11302807800007088F88070304840E040404000BA
S11302900078887808308080B0C88888882000601A
S11302A020202070100030101090604040485060B2
S11302B05048602020202020700000D0A8A8888802
S11302C00000B0C8888888000070888888700000A2
S11302D0F088F08080000068987808080000B0C8B2
S11302E0808080000070807008F04040E04040480A
S11302F0300000888888986800008888885020002A
S1130300008888A8A85000008850205088000088E1
S1130310887808700000F8102040F8102020402051
S113032020102020202020202040202010202040A9
S113033020502000000000000000000000002020E9
S11303402020200020505050000000005050F85051
S1130350F850502078A07028F020C0C81020409891
S1130360186090A040A89068602040000000001031
S11303702040404020104020101010204000502009
S1130380F8205000002020F8202000000000006029
S11303902040000000F80000000000000000606041
S11303A000081020408000708898A8C888702060D9
S11303B02020202070708808102040F8F8102010A9
S11303C008887010305090F81010F880F0080888F1
S11303D070304080F0888870F808102040404070E9
S11303E088887088887070888878081060006060D9
S11303F00060600000606000602040081020402021
S113040010080000F800F800008040201020408010
S11304107088081020002070880868A8A870708868
S11304208888F88888F08888F08888F070888080C8
S1130430808870E09088888890E0F88080F08080E0
S1130440F8F88080E0808080708880809888708848
S11304508888F88888887020202020207038101020
S1130460101090608890A0C0A090888080808080C8
S113047080F888D8A8888888888888C8A8988888B0
S113048070888888888870F08888F0808080708878
S11304908888A89068F08888F0A090887880807018
S11304A00808F0F820202020202088888888888860
S11304B07088888888885020888888A8A8D88888E0
S11304C088502050888888885020202020F80810E0
S11304D0204080F838202020202038008040201040
S11304E00800E02020202020E020508800000000A8
S11304F0000000000000F840201000000000000090
S113050070087888788080B0C88888F0000070808F
S11305108088700808689888887800007088F88057
S113052070304840E04040400000788878083080CF
S113053080B0C88888882000602020207010003097
S113054010109060404048506050486020202020A7
S113055020700000D0A8A888880000B0C8888888C7
S1130560000070888888700000F088F080800000A7
S113057068987808080000B0C88080800000708007
S11305807008F04040E04040483000008888889877
S1130590680000888888502000008888A8A8500037
S11305A0008850205088000088887808700000F87F
S11305B0102040F81020204020201020202020204F
S11305C02020402020102020402050200000000047
S11305D011241FBECFEFD8E0DEBFCDBF13E0A0E0F3
S11305E0B1E0EEE4FFE402C005900D92AA3BB1072E
S11305F0D9F725E0AAEBB3E001C01D92A331B207FD
S1130600E1F70E9481200C94A5270895CF93DF93EE
S11306101F92CDB7DEB78FEF809364008FB78983C5
S1130620F89489815F9350E85093610050E05093AF
S113063061005F918FBF0F90DF91CF910895CF93A9
S1130640DF931F92CDB7DEB79FB79983F894998152
S1130650811106C0609580916400682360936400F2
S11306609FBF0F90DF91CF910895CF93DF931F9297
S1130670CDB7DEB79FB79983F8949981811105C0EE
S113068080916400682B609364009FBF0F90DF919A
S1130690CF910895FF920F931F93CF93DF93082F69
S11306A0842F90E0800F911D813F910514F040EF5D
S11306B0401B442309F447C0D62FD695D695D6952A
S11306C070E088E0D89F60197109112481E090E0FE
S11306D001C0880F6A95EAF7F82E213031F040F016
S11306E0223089F5CFEFC40F22C0CFEFC40F05C06D
S11306F0CFEFC40F182F10950DC0102F1C0F612FB2
S11307008D2FCCD24F2D482B612F8D2FAFD2C150BE
S1130710A0F719C0F02EFC0E6F2D8D2FBFD2412FE4
S113072048236F2D8D2FA2D2C150A0F70CC0102FDB
S11307301C0F612F8D2FB2D24F2D4827612F8D2F83
S113074095D2C150A0F7DF91CF911F910F91FF90E7
S11307500895EF92FF920F931F93CF93DF93942FFB
S1130760442309F446C04FEF460F940F691308C0A1
S1130770422FDF91CF911F910F91FF90EF90DAC23A
S11307809F3708F09FE7162F169516951695092F93
S11307900695069506956770EFEFF0E0AF0101C08E
S11307A0440F6A95EAF7977067E070E0691B710976
S11307B07F0102C0F594E7946A95E2F7101304C030
S11307C04E21682F812F0EC0D22FC82F6C2F812F5E
S11307D08CD21F5F2D2F101710F44FEFF7CF4E2D33
S11307E06C2F802FDF91CF911F910F91FF90EF908D
S11307F07CC2DF91CF911F910F91FF90EF900895EC
S11308008F929F92AF92BF92CF92DF92EF92FF921C
S11308100F931F93CF93DF93182FB62E481728F406
S1130820B22E262F812F142F482FC42FD0E0C11BA6
S1130830D109E22EF12CEB18F108D7FF06C0D195AF
S1130840C195D10999249A9402C099249394F7FEEE
S113085006C0F194E194F10888248A9402C08824A3
S11308608394EC16FD06BCF46701CC1ADD0AA12CB6
S11308708A2D90E0C817D9072CF1402F6B2D812FBA
S113088059D2D7FC03C0CC1ADD0AB80CCE0CDF1C3D
S1130890190DA394EDCF6E01CE18DF08A12C8A2D7B
S11308A090E0E816F90674F0402F6B2D812F42D2A8
S11308B0D7FC03C0CE18DF08190DCC0EDD1EB80C12
S11308C0A394EDCFDF91CF911F910F91FF90EF9003
S11308D0DF90CF90BF90AF909F908F900895FF923C
S11308E00F931F93CF93DF93D82F162FC42FF22E7D
S11308F0202FD0DE6FEF6F0D610F202F4C2F8D2F27
S1130900C9DE202F4F2D612F8D2F23DF8FEF8C0F0A
S1130910202F4F2D612F8D0FDF91CF911F910F91BC
S1130920FF9017CFFF920F931F93CF93DF93222350
S113093069F0142FF62ED82FCFEFC20F6F2D6C0F46
S1130940202F412F8D2FA6DEC150C0F7DF91CF910C
S11309501F910F91FF9008955F926F927F928F92F3
S11309609F92AF92BF92CF92DF92EF92FF920F933A
S11309701F93CF93DF93182FF62EC42FE22E41112D
S113098011C0422FDF91CF911F910F91FF90EF90F3
S1130990DF90CF90BF90AF909F908F907F906F909B
S11309A05F90C8C183E090E06C0122E0429FC018D0
S11309B0D1081124D0E0802F8170B82E202F22700E
S11309C0A22E802F8470982E202F2870822E802FA4
S11309D08071782E202F2072622E802F8074582EE2
S11309E0BB2031F04E2D6F2D6D1B812F8C0FA2D1AA
S11309F0AA2031F04E2D6F2D6C1B812F8D0F9AD1B3
S1130A00992031F04E2D6F2D6C1B812F8D1B92D1AF
S1130A10882031F04E2D6F2D6D1B812F8C1B8AD1B8
S1130A20772031F04E2D6F2D6D0F812F8C1B82D1CD
S1130A30662031F04E2D6F2D6C0F812F8D1B7AD1D6
S1130A40552031F04E2D6F2D6C0F812F8D0F72D1EB
S1130A5007FF06C04E2D6F2D6D0F812F8C0F6AD1AD
S1130A608D2F90E0D7FE08C0880F991F880F991F1B
S1130A700696C80ED91E0AC08C1B9109880F991FAF
S1130A80880F991F0A96C80ED91EC150DF5FCD1773
S1130A9008F0A6CFDF91CF911F910F91FF90EF90B7
S1130AA0DF90CF90BF90AF909F908F907F906F908A
S1130AB05F9008958F929F92AF92BF92CF92DF92F0
S1130AC0EF92FF920F931F93CF93DF93182FD62E9D
S1130AD0C42FC22E41110EC0422FDF91CF911F911E
S1130AE00F91FF90EF90DF90CF90BF90AF909F90C9
S1130AF08F9020C183E090E07C0122E0429FE018C7
S1130B00F1081124BB24B394D0E0802F8370A82E65
S1130B10202F2C70922E802F8073882E007CAA2088
S1130B2079F02C2D4B2D6D2D6D1B812F8C0F11DE2B
S1130B302C2D41E04C0F6D2D6C1B812F8D0F09DE88
S1130B40992079F02C2D4B2D6D2D6D1B812F8C1B35
S1130B5000DE2C2D41E04C0F6D2D6C1B812F8D1B65
S1130B60F8DD882069F02C2D4B2D6D2D812F8C1BE9
S1130B70F0DD2C2D41E04C0F6D2D812F8D1BE9DD17
S1130B80002369F02C2D4B2D6D2D812F8C0FE1DD71
S1130B902C2D41E04C0F6D2D812F8D0FDADD8D2F23
S1130BA090E0F7FE08C0880F991F880F991F0696DA
S1130BB0E80EF91E0AC08C1B9109880F991F880F33
S1130BC0991F0A96E80EF91EC150DF5FB394CD1742
S1130BD008F0A5CFDF91CF911F910F91FF90EF9077
S1130BE0DF90CF90BF90AF909F908F900895803109
S1130BF030F4603F20F470E07064782B02C060E051
S1130C0070E876FF06C07093BB036093BA03409309
S1130C10BC0308950F931F93CF93DF938C01862F0A
S1130C20D42FC22F0115110549F41092BB03109261
S1130C30BA03DF91CF911F910F9108956031A8F706
S1130C40403F98F797D68D2F9DD68C2F90E08D0F2F
S1130C50911D813F910514F0C0EFCD1BCC2329F3E6
S1130C60F80181918F013BD6C150F8CF1F93CF93E8
S1130C70DF93803178F4603F68F4142FC62FD82FA7
S1130C80B6DF8D2F77D68C2F7DD6812FDF91CF9134
S1130C901F9125C6DF91CF911F9108951F93CF9384
S1130CA0DF93803180F4603F70F4262F30E03064AD
S1130CB0382B4091BA035091BB034217530729F4D0
S1130CC01091BC030DC010E00BC0D62FC82F52D614
S1130CD08D2F58D611D6182F482F6D2F8C2F87DFC4
S1130CE0812FDF91CF911F9108950F931F93CF937D
S1130CF0DF938031D0F4603FC0F4022FC42F162F4D
S1130D00D82FCCDF013041F020F0023031F48C27B1
S1130D1004C0C0958C2301C08C2B482F612F8D2FCC
S1130D20DF91CF911F910F91A1CFDF91CF911F91AF
S1130D300F910895962F242F803F88F467FD0FC0EC
S1130D40362F377061E070E0AB0101C0440F3A9573
S1130D50EAF7682F892F869586958695C6CF0895DC
S1130D601092BB031092BA0308959F92AF92BF9260
S1130D70CF92DF92EF92FF920F931F93CF93DF9363
S1130D80D82FC62ED42E790100E0F90124814381A5
S1130D906D2D8C2DC7DDF7018081811139C08381D0
S1130DA0282F269526952695877009F02F5FF70141
S1130DB0C4818D2F90E03581831B91092C9F900174
S1130DC01124829FA001839F500D929F500D1124E6
S1130DD001811281040F151FDC0E9D2C9C1AF70152
S1130DE0A380B12CD0E08C2D8D0FAD1679F09D2F02
S1130DF0977021F4F801B4900F5F1F4FB7FE03C042
S1130E0041E0692D97DFBB0CDF5FEDCFC15029F7BF
S1130E10DF91CF911F910F91FF90EF90DF90CF90D2
S1130E20BF90AF909F900895DF92EF92FF920F933F
S1130E301F93CF93DF93D62ED42F79018C01C62F25
S1130E40F80181918F018A3031F4F70184818F5F39
S1130E50D80FCD2D09C08D3039F097014D2F6C2F4F
S1130E6084DFF7018381C80FF80180818111E8CF05
S1130E70DF91CF911F910F91FF90EF90DF90089534
S1130E809895000008951F920F920FB60F921124A7
S1130E902F933F934F935F936F937F938F939F937E
S1130EA0AF93BF93CF93EF93FF93C3B126B18091D8
S1130EB0B204882311F02E9A01C02E988091B104B7
S1130EC0882311F02F9A01C02F98B89A78948091B2
S1130ED0FC0481FF6BC08091B304803209F066C0CA
S1130EE01092FF048091E7048F3080F481E08093B6
S1130EF0B2041092B1048091C103823019F08AE7E0
S1130F008093FD0482E08093C1032AC08F30D1F422
S1130F108091D9049091DA040396079798F481E0BC
S1130F208093B1041092B2041092C1038091EC0436
S1130F309091C0038917A1F08093C00386E0809349
S1130F40FD040EC08091C103811107C08EE180931E
S1130F50FD041092B1041092B20481E08093C103A5
S1130F608091BF03882321F081508093BF031EC06A
S1130F708CE08093BF03C47021FD09C080910005FB
S1130F80882379F0815080930005CBD40AC022FDD8
S1130F9008C0809100058F3320F48F5F8093000593
S1130FA0C0D4C11103C081E00E94BC1E8091FD0425
S1130FB0882339F081508093FD0481E08093FF04FD
S1130FC002C01092FF04FF91EF91CF91BF91AF91B6
S1130FD09F918F917F916F915F914F913F912F914D
S1130FE00F900FBE0F901F9018951F920F920FB67F
S1130FF00F9211242F933F934F935F936F937F939B
S11310008F939F93AF93BF93EF93FF9380910F05BB
S113101090911005A0911105B0911205BC01CD016C
S11310206F5F7F4F8F4F9F4F60930F057093100535
S113103080931105909312052091BE032223A1F001
S113104030E040E050E00E946124672B682B692B5C
S113105059F49091BD0381E089278093BD038823CF
S113106011F0299A01C029988091FC0481FF24C0C1
S11310708091FF04882301F18091B3048032B9F494
S11310802091D604822F8595922F990F990B843045
S1131090910514F083E090E08C3F2FEF920714F455
S11310A08CEF9FEF95E0981B9093BE0307C080914F
S11310B0FE048093BE0302C01092BE03FF91EF9121
S11310C0BF91AF919F918F917F916F915F914F915C
S11310D03F912F910F900FBE0F901F9018951F9264
S11310E00F920FB60F9211240F900FBE0F901F9006
S11310F018951F920F920FB60F9211248F929F9200
S1131100AF92BF92CF92DF92EF92FF922F933F93D1
S11311104F935F936F937F938F939F93AF93BF93FB
S1131120CF93DF93EF93FF93409178008091790000
S113113050E0EA01D82B80910E05813061F038F03F
S1131140823009F44CC0833009F44DC089C081E079
S113115080930E058AC0C0900A05D0900B05E090DC
S11311600C05F0900D05789420E030E0A901C7014A
S1131170B6010E942522AE0160E070E08823D9F018
S1131180CB01BA010E94C2222AE037ED43EA5CE3B4
S11311900E94CB234B015C0128E431EE4AE75FE374
S11311A0C701B6010E94CB239B01AC01C501B40168
S11311B00E94C12104C0CB01BA010E94C222F8944A
S11311C060930A0570930B0580930C0590930D05AD
S11311D088EC80937C0082E080930E0546C083E017
S11311E080930E0542C0C0900605D0900705E0909C
S11311F00805F0900905789420E030E0A901C701C2
S1131200B6010E942522AE0160E070E08823D9F087
S1131210CB01BA010E94C2222FE632E143E05BE334
S11312200E94CB234B015C012EEE3CE74FE75FE3CA
S1131230C701B6010E94CB239B01AC01C501B401D7
S11312400E94C12104C0CB01BA010E94C222F894B9
S1131250609306057093070580930805909309052C
S113126080EC80937C0010920E05FF91EF91DF914A
S1131270CF91BF91AF919F918F917F916F915F912A
S11312804F913F912F91FF90EF90DF90CF90BF90BF
S1131290AF909F908F900F900FBE0F901F90189556
S11312A01F920F920FB60F9211242F933F934F93D7
S11312B05F936F937F938F939F93AF93BF93CF93DA
S11312C0DF93EF93FF938091B9006091BB00CCEB67
S11312D0D0E04881887F0E94E11C85688883FF9163
S11312E0EF91DF91CF91BF91AF919F918F917F91BA
S11312F06F915F914F913F912F910F900FBE0F907F
S11313001F9018951F920F920FB60F9211242F93CE
S11313103F934F935F936F937F938F939F93AF9379
S1131320BF93EF93FF93ACDDFF91EF91BF91AF912A
S11313309F918F917F916F915F914F913F912F91E9
S11313400F900FBE0F901F9018951F920F920FB61B
S11313500F9211242F933F934F935F936F937F9337
S11313608F939F93AF93BF93EF93FF93CBDFFF9143
S1131370EF91BF91AF919F918F917F916F915F9109
S11313804F913F912F910F900FBE0F901F90189582
S11313901F920F920FB60F9211242F933F934F93E6
S11313A05F936F937F938F939F93AF93BF93EF93C9
S11313B0FF93A8DFFF91EF91BF91AF919F918F9120
S11313C07F916F915F914F913F912F910F900FBE3D
S11313D00F901F9018951F920F920FB60F92112421
S11313E02F933F934F935F936F937F938F939F9329
S11313F0AF93BF93EF93FF9385DFFF91EF91BF917D
S1131400AF919F918F917F916F915F914F913F9198
S11314102F910F900FBE0F901F9018951F920F924F
S11314200FB60F9211242F933F934F935F936F93B3
S11314307F938F939F93AF93BF93EF93FF9362DF59
S1131440FF91EF91BF91AF919F918F917F916F9198
S11314505F914F913F912F910F900FBE0F901F906E
S113146018951F920F920FB60F9211242F933F934A
S11314704F935F936F937F938F939F93AF93BF9398
S1131480EF93FF933FDFFF91EF91BF91AF919F9156
S11314908F917F916F915F914F913F912F910F9019
S11314A00FBE0F901F9018951F920F920FB60F92B8
S11314B011242F933F934F935F936F937F938F9355
S11314C09F93AF93BF93EF93FF931CDFFF91EF9133
S11314D0BF91AF919F918F917F916F915F914F9148
S11314E03F912F910F900FBE0F901F9018951F9250
S11314F00F920FB60F9211242F933F934F935F9344
S11315006F937F938F939F93AF93BF93EF93FF93C7
S1131510F9DEFF91EF91BF91AF919F918F917F91F0
S11315206F915F914F913F912F910F900FBE0F904C
S11315301F9018951F920F920FB60F9211242F939C
S11315403F934F935F936F937F938F939F93AF9347
S1131550BF93EF93FF93D6DEFF91EF91BF91AF91CD
S11315609F918F917F916F915F914F913F912F91B7
S11315700F900FBE0F901F9018951F920F920FB6E9
S11315800F9211242F933F934F935F936F937F9305
S11315908F939F93AF93BF93EF93FF93B3DEFF912A
S11315A0EF91BF91AF919F918F917F916F915F91D7
S11315B04F913F912F910F900FBE0F901F90189550
S11315C01F920F920FB60F9211242F933F934F93B4
S11315D05F936F937F938F939F93AF93BF93EF9397
S11315E0FF9390DEFF91EF91BF91AF919F918F9107
S11315F07F916F915F914F913F912F910F900FBE0B
S11316000F901F9018951F920F920FB60F921124EE
S11316102F933F934F935F936F937F938F939F93F6
S1131620AF93BF93EF93FF936DDEFF91EF91BF9163
S1131630AF919F918F917F916F915F914F913F9166
S11316402F910F900FBE0F901F9018951F920F921D
S11316500FB60F9211242F933F934F935F936F9381
S11316607F938F939F93AF93BF93EF93FF934ADE40
S1131670FF91EF91BF91AF919F918F917F916F9166
S11316805F914F913F912F910F900FBE0F901F903C
S113169018951F920F920FB60F9211242F933F9318
S11316A04F935F936F937F938F939F93AF93BF9366
S11316B0EF93FF9327DEFF91EF91BF91AF919F913D
S11316C08F917F916F915F914F913F912F910F90E7
S11316D00FBE0F901F9018951F920F920FB60F9286
S11316E011242F933F934F935F936F937F938F9323
S11316F09F93AF93BF93EF93FF9304DEFF91EF911A
S1131700BF91AF919F918F917F916F915F914F9115
S11317103F912F910F900FBE0F901F9018951F921D
S11317200F920FB60F9211242F933F934F935F9311
S11317306F937F938F939F93AF93BF93EF93FF9395
S1131740E1DDFF91EF91BF91AF919F918F917F91D7
S11317506F915F914F913F912F910F900FBE0F901A
S11317601F9018951F920F920FB60F9211242F936A
S11317703F934F935F936F937F938F939F93AF9315
S1131780BF93EF93FF93BEDDFF91EF91BF91AF91B4
S11317909F918F917F916F915F914F913F912F9185
S11317A00F900FBE0F901F9018951F920F920FB6B7
S11317B00F9211242F933F934F935F936F937F93D3
S11317C08F939F93AF93BF93EF93FF939BDDFF9111
S11317D0EF91BF91AF919F918F917F916F915F91A5
S11317E04F913F912F910F900FBE0F901F9018951E
S11317F01F920F920FB60F9211242F933F934F9382
S11318005F936F937F938F939F93AF93BF93EF9364
S1131810FF9378DDFF91EF91BF91AF919F918F91ED
S11318207F916F915F914F913F912F910F900FBED8
S11318300F901F9018951F920F920FB60F921124BC
S11318402F933F934F935F936F937F938F939F93C4
S1131850AF93BF93EF93FF9355DDFF91EF91BF914A
S1131860AF919F918F917F916F915F914F913F9134
S11318702F910F900FBE0F901F901895CF93DF9369
S11318801F92CDB7DEB78FB78983F89489810F9003
S1131890DF91CF91089504C06150710981099109C4
S11318A06115710581059105B9F70895E7DF982F52
S11318B08FEF8BB91AB828982C9A2D9A2D9889B144
S11318C09FBF0895CF93C82FD9DFCBB99FEF9AB9A3
S11318D028982C982D9A2D988FBFCF910895CF9347
S11318E0C82FCCDFCBB99FEF9AB9289A2C982D9AA0
S11318F02D988FBFCF910895C1DF982F8FEF8BB9AB
S11319001AB8289A2C9A2D9A2D98809157048823D6
S113191019F089B12D9A2D9889B1109257049FBF5F
S1131920089581E8CFDF809100058F738068CACF66
S11319308DE2C8DF84E2C6DF8AEEC4DFF2DF88EC22
S1131940C1DF88E8BFDF80E4BDDF80E9BBDF80EB77
S1131950B9DF80E0B7DF80E1B5DF81E08093570431
S11319608FEEB0DF8EEEAEDF84EAACDF86EAAADF6C
S11319708FEAA8CF803128F4806BA4DF81E08093C4
S113198057040895CF93803F58F4C82F8F709ADF7F
S11319908C2F82958F70806195DF81E0809357044E
S11319A0CF91089580E08EDF80E18CDF81E0809329
S11319B05704089580EB86DFF5CFCF93DF93C0E023
S11319C08C2F806B7FDF80E07DDF80E17BDFD0EFD9
S11319D080E085DFD150E1F7CF5FC03189F7DF9137
S11319E0CF91E8CF0F931F93CF93DF930097A1F08C
S11319F0042F162FEC016FEF70E00E94A924815090
S1131A008E3F50F424E031E0402F612FCE01DF916E
S1131A10CF911F910F9108CADF91CF911F910F9120
S1131A200895FF920F931F93CF93DF936BE071E0C0
S1131A3080E894E00E94A22424E031E04BE063E0DB
S1131A4080E894E0F1D968E171E080E894E00E94D4
S1131A50A22424E031E044E163E080E894E0E4D9A6
S1131A6062E271E080E894E00E94A22424E031E084
S1131A704DE163E080E894E0D7D91F921F921F9252
S1131A801F9289E391E09F938F931F9210E31F931A
S1131A90C0E8D4E0DF93CF930E94B42424E031E083
S1131AA046E263E0CE01C0D91F921F921F921F929B
S1131AB01F921F921F921F9281E591E09F938F9333
S1131AC01F921F93DF93CF930E94B42424E031E04C
S1131AD04FE263E0CE01A8D91F921F921F921F927A
S1131AE084E791E09F938F931F921F93DF93CF938B
S1131AF00E94B4248DB79EB782960FB6F8949EBF09
S1131B000FBE8DBF24E031E048E363E0CE018CD901
S1131B101F921F921F921F9289E891E09F938F93C7
S1131B201F921F93DF93CF930E94B42424E031E0EB
S1131B3048E36BE7CE0178D91F921F921F921F9240
S1131B401F921F928FE991E09F938F931F921F938F
S1131B50DF93CF930E94B42424E031E041E463E0B6
S1131B60CE0162D91F921F921F921F928CEC91E0BA
S1131B709F938F931F921F93DF93CF930E94B4245C
S1131B808DB79EB780960FB6F8949EBF0FBE8DBFDB
S1131B9024E031E04AE463E0CE0146D91F921F926B
S1131BA01F921F9280EE91E09F938F931F921F9339
S1131BB0DF93CF930E94B42424E031E043E563E053
S1131BC0CE0132D91F921F921F921F921F920EE7CD
S1131BD00F931F921F921F9280E2F82EFF9288EFBC
S1131BE091E09F938F931F921F93DF93CF930E9453
S1131BF0B42424E031E04CE563E0CE0115D91F9212
S1131C001F921F921F921F920F931F921F921F9257
S1131C10FF9287E192E09F938F931F921F93DF932C
S1131C20CF930E94B4248DB79EB78A960FB6F894CA
S1131C309EBF0FBE8DBF24E031E045E663E0CE01D8
S1131C40F3D81F921F921F921F9285E392E09F93F5
S1131C508F931F921F93DF93CF930E94B42424E0A9
S1131C6031E04EE663E0CE01DFD81F920F931F925E
S1131C701F928BE492E09F938F931F921F93DF93A5
S1131C80CF930E94B42424E031E04EE66FE9CE0104
S1131C90CBD88DB79EB744960FB6F8949EBF0FBEAF
S1131CA08DBF24E031E047E763E08AE592E0DF910D
S1131CB0CF911F910F91FF90B7C83F924F925F92BF
S1131CC06F927F928F929F92AF92BF92CF92DF9248
S1131CD0EF92FF920F931F93CF93DF93CFDDC82F23
S1131CE09091BD0492FF2FC09B7F9093BD0480917F
S1131CF0EC041F928F938091EB041F928F93809139
S1131D00EA041F928F9384E692E09F938F931F922D
S1131D1080E38F9380E894E09F938F930E94B42490
S1131D20CFBF24E031E04DE16FE380E894E07CD85C
S1131D3017D88DB79EB70C960FB6F8949EBF0FBEFA
S1131D408DBF8FEF17C491FF32C09D7F9093BD0468
S1131D508091D8048F938091D7048F938091E80465
S1131D601F928F938091E9041F928F9383E792E0EF
S1131D709F938F931F9280E38F9380E894E09F93C7
S1131D808F930E94B424CFBF24E031E044E16FE399
S1131D9080E894E049D80E94B0068DB79EB70C96AF
S1131DA00FB6F8949EBF0FBE8DBF8EEFE3C3892F8D
S1131DB0817090FF57C19E7F9093BD04CFBFC091A7
S1131DC0D504D091D604A090D304B090D4049090BC
S1131DD0E704C13596E4D9079CF4C03B89EBD807E6
S1131DE02CF0C53991E1D9071CF00FC0C0EBD9EB39
S1131DF0BE01CC368EEED80754F46CE67EEE07C0F6
S1131E00C0E5D6E460E576E402C060E576E4072E3A
S1131E10000C880B990B0E94C42220E030EA4CE8A5
S1131E2055E40E94292220E030E048E952E40E946F
S1131E30CB230E9491222B013C017B0177FF08C038
S1131E4036E9832E860ECC24DD24C61AD70A03C0B5
S1131E506B0126E9822E1F929F9282E892E09F9363
S1131E608F931F9290E3392E3F9200E814E01F9362
S1131E700F930E94B42424E031E04BE06BE4C801EA
S1131E800E941407C50168EE73E00E943A249F93F0
S1131E908F937F936F9386E892E09F938F931F9223
S1131EA03F921F930F930E94B42424E031E048E34F
S1131EB06DEBC8010E941407CE0164E670E00E9435
S1131EC04E247F936F938FE892E09F938F931F929A
S1131ED03F921F930F930E94B42424E031E04EE616
S1131EE069ECC8010E9414078DB79EB74A960FB6D5
S1131EF0F8949EBF0FBE8DBF8091D103981222C06B
S1131F00C114D104F9F0442D1E141F040CF440E054
S1131F10D42DF7FCD0E097E0991609F462C0991526
S1131F2068F08FEF890D833008F096C001E021E05E
S1131F3048E96AE78AE40E9492048EC08FE098160A
S1131F4099F08AC000E025E040EA68E786E40E9450
S1131F509204C114D104B9F601E02CE746E968E71C
S1131F6086E90E94000478C0405B00E025E068E751
S1131F7086E40E949204F7FE0FC001E028E7482D92
S1131F806AE7CCEFC80D8C2F0E9400042CE7482D83
S1131F906AE78C2F0E94000401E025E04C2D68E7DD
S1131FA0882D0E94920440E54D1B00E025E068E77F
S1131FB086E98D0F0E9492041E141F040CF04CC07D
S1131FC0C5E9CD0FD75601E028E74C2F6AE78D2FDE
S1131FD00E9400042CE74C2F6AE78D2F0E94000416
S1131FE03BC0405B00E023E069E786E40E94920482
S1131FF0F7FE0FC001E029E7482D6AE7CCEFC80DD2
S11320008C2F0E9400042BE7482D6AE78C2F0E9436
S1132010000401E023E04C2D69E7882D0E9492041E
S113202040E54D1B00E023E069E786E98D0F0E943F
S113203092041E141F0484F4C5E9CD0FD75601E0A1
S113204029E74C2F6AE78D2F0E9400042BE74C2FC1
S11320506AE78D2F0E9400049092D1030E94B0067B
S11320608DEF88C296FF38C0209101012230A0F57F
S11320709F7B9093BD048091F2041F928F93809173
S1132080F1041F928F938091F0041F928F9385E93E
S113209092E09F938F931F9280E38F9380E894E064
S11320A09F938F930E94B424CFBF24E031E041E496
S11320B06DE580E894E00E9414070E94B00682E077
S11320C0809301018DB79EB70C960FB6F8949EBF0E
S11320D00FBE8DBF81E04EC297FF49C02091010120
S11320E0233008F044C08091BD048F778093BD04F1
S11320F02091DF043091E004C90164E670E00E949D
S11321003A249F938F93B90180E090E00E94C22209
S113211020E030E048EC52E40E9429220E949122FF
S11321207F936F9386ED91E09F938F931F9280E34B
S11321308F9380E894E09F938F930E94B424CFBF41
S113214024E031E04AE46FE380E894E00E9414075D
S11321500E94B00683E0809301018DB79EB70A9672
S11321600FB6F8949EBF0FBE8DBF82E003C22091CC
S1132170BE0420FF34C030910101343080F52E7F3D
S11321802093BE048091F4041F928F938091F304F2
S11321901F928F938DEE91E09F938F931F9280E314
S11321A08F9380E894E09F938F930E94B424CFBFD1
S11321B024E031E043E561E580E894E00E941407FF
S11321C00E94B00684E0809301018DB79EB70A9601
S11321D00FB6F8949EBF0FBE8DBF83E0CBC121FF25
S11321E044C030910101353008F03FC08091BE04F5
S11321F08D7F8093BE048091E2048F938091E104EB
S11322008F938091F7041F928F931F928EE78F9381
S11322108091F6041F928F938091F5041F928F93FF
S11322208EEA92E09F938F931F9280E38F9380E8CE
S113223094E09F938F930E94B424CFBF24E031E0B5
S11322404CE56FE380E894E00E9414070E94B00616
S113225085E0809301018DB79EB740960FB6F89440
S11322609EBF0FBE8DBF84E085C122FF44C0309164
S11322700101363008F03FC08091BE048B7F80930B
S1132280BE048091E4048F938091E3048F93809142
S1132290FA041F928F931F928EE78F938091F90413
S11322A01F928F938091F8041F928F9382EC92E097
S11322B09F938F931F9280E38F9380E894E09F9382
S11322C08F930E94B424CFBF24E031E045E66FE34E
S11322D080E894E00E9414070E94B00686E0809390
S11322E001018DB79EB740960FB6F8949EBF0FBEFE
S11322F08DBF85E03FC123FF38C020910101273005
S1132300A0F58091BE04877F8093BE048091FB0476
S11323101F928F938091E6048F938091E5048F93AD
S113232085ED92E09F938F931F9280E38F9380E8D3
S113233094E09F938F930E94B424CFBF24E031E0B4
S11323404EE66FE380E894E00E9414070E94B00612
S113235087E0809301018DB79EB70A960FB6F89473
S11323609EBF0FBE8DBF86E005C193FF3AC020918A
S113237001012830B0F58091BD04877F8093BD04AE
S11323808091DC048F938091DB048F938091DA0435
S11323908F938091D9048F938EED92E09F938F93C6
S11323A01F9280E38F9380E894E09F938F930E9421
S11323B0B424CFBF24E031E046E26FE380E894E048
S11323C00E9414070E94B00688E0809301018DB733
S11323D09EB70A960FB6F8949EBF0FBE8DBF87E0D6
S11323E0C9C094FF89C020910101293008F084C03C
S11323F0F090ED046091EE048091BD048F7E809393
S1132400BD04CFBF70E080E090E00E94C4222B01A5
S11324103C0120E030E04AE750E40E94CB230E94D4
S113242091227F936F931F92FF9208EE12E01F9305
S11324300F931F9280E3B82EBF92C0E8D4E0DF93DD
S1132440CF930E94B42424E031E04FE26FE3CE0145
S11324500E9414076F2D70E080E090E00E94C22279
S11324606B017C0120E030E040E85BE3C301B20192
S11324700E94CB23A70196010E94C12120E030E0F5
S113248048EC5EE30E94CB236B017C010E94FF2297
S11324909B01AC01C701B6010E94C02120E030E0DD
S11324A04AE754E40E94CB230E9491227F936F93C6
S11324B0C701B6010E9491227F936F931F930F93DC
S11324C01F92BF92DF93CF930E94B42424E031E0A3
S11324D04FE26DE8CE010E9414070E94B00689E025
S11324E0809301018DB79EB744960FB6F8949EBFB2
S11324F00FBE8DBF88E03EC095FF38C090910101AA
S11325009A30A0F58091BD048F7D8093BD048091A5
S1132510DE048F938091DD048F938091EF041F92EA
S11325208F9386E892E09F938F931F9280E38F931B
S113253080E894E09F938F930E94B424CFBF24E05B
S113254031E048E36FE380E894E00E9414070E94BE
S1132550B0068AE0809301018DB79EB70A960FB644
S1132560F8949EBF0FBE8DBF89E004C091E09093A4
S11325700101CFBFDF91CF911F910F91FF90EF9099
S1132580DF90CF90BF90AF909F908F907F906F908F
S11325905F904F903F900895EF92FF920F931F9397
S11325A0CF93DF9383EC9FEF90935604809355046D
S11325B081E08093540420E030E08BE0E82EF12C9D
S11325C0C0E448EFD8EC18ED0FED2115310519F4EE
S11325D010920F0443C0233031055CF4F901E15F2C
S11325E0FB4F40832F5F3F4FF901E15FFB4F1083A7
S11325F035C0253031052CF4F901E15FFB4F008330
S11326002DC02B3031052CF4F901E15FFB4F108311
S113261025C020313105E4F02C33310519F4109232
S11326204B041CC0C9014097B7010E944E24F90114
S1132630E15FFB4F892B89F4C083C183C283438349
S11326404483D58346834783D0874187265F3F4FA2
S1132650F901E15FFB4F408301C010822F5F3F4FC0
S11326602D3331050CF4B1CFAFE0B4E0EFE0F4E08A
S11326708D91829383E0E23DF807D1F700E028E0F2
S113268040EF68E780E00E949204DF91CF911F91B0
S11326900F91FF90EF9008952F923F924F925F9287
S11326A06F927F928F929F92AF92BF92CF92DF925E
S11326B0EF92FF920F931F93CF93DF9300D000D03C
S11326C01F92CDB7DEB7DAD89091FC0491708FBF1A
S11326D010E320E8E22E24E0F22E34E6232E312CFF
S11326E041EFC42E42E0D42E992309F425C28091EF
S11326F05404882309F420C20E948F1E2B013C013C
S113270020914C0430914D0440914E0450914F045B
S11327100E94C0212AE037ED43E25DE30E94C72313
S113272087FD61C040924C0450924D0460924E0467
S113273070924F0420915404809155049091560452
S1132740820F911D27FD9A9590935604809355040A
S11327508A3B2FEF920724F4E1E0E093540406C08F
S11327608A3F91051CF0FFEFF09354042091540428
S113277027FF1DC0803F910540F42DE3482F6FE0F3
S11327808FE094E00E940A062EC09C01245C3F4F17
S11327902C33310540F52DE3280F40E06FE0EFE0E6
S11327A0F4E0E81BF90BCF010E940A061CC0803F2D
S11327B0910540F42DE3482F6FE082ED93E00E94F1
S11327C00A0611C09C01245C3F4F2C33310558F498
S11327D02DE3280F40E06FE0E2EDF3E0E81BF90B96
S11327E0CF010E940A06C301B2010E94DF1E20919C
S11327F05004309151044091520450915304C30148
S1132800B2010E94C02120E030E040E05FE30E947A
S1132810C72387FD51C140925004509251046092E5
S11328205204709253042AD8409002055090030534
S113283060900405709005058FBF20E030E0A90189
S1132840C301B2010E94252287FF03C0412C512CF1
S113285032012091CD033091CE034091CF035091AA
S1132860D003C301B2010E94C0219F772AE037ED53
S113287043E25CE30E94252287FD33C04092CD03EE
S11328805092CE036092CF037092D00320E030E0E8
S113289048EC52E4C301B2010E94CB230E9491226E
S11328A0CB01B1010E944E249F938F93C301B201C7
S11328B00E9491227F936F93DF92CF921F921F9376
S11328C0FF92EF920E94B42424E031E04EE466E7E4
S11328D080E894E00E9414070FB6F894DEBF0FBEA0
S11328E0CDBF0E943E0C40900A0550900B056090AD
S11328F00C0570900D058FBF2091C9033091CA0358
S11329004091CB035091CC03C301B2010E94C0217A
S11329109F772DEC3CEC4CEC5DE30E94252287FD77
S113292036C04092C9035092CA036092CB0370929E
S1132930CC0320E030E040E251E4C301B2010E9444
S1132940CB230E949122CB016AE070E00E944E24C6
S11329509F938F93C301B2010E9491227F936F933F
S1132960ECEFF2E0FF93EF931F921F93FF92EF922D
S11329700E94B42424E031E048E566E780E894E06E
S11329800E9414070FB6F894DEBF0FBECDBF0E949D
S11329903E0C95E0E8EBF4E0DE01119601900D9217
S11329A09A95E1F74091B8045091B9046091BA0442
S11329B07091BB04E091BC04FE2FF170E695E6959E
S11329C0E695E3708FBF2A013B0182E0440C551C5D
S11329D0661C771C8A95D1F74E2A8091C503909185
S11329E0C603A091C703B091C80353014201881ADA
S11329F0990AAA0ABB0A49F42F2F30E08091C40334
S1132A0090E02817390709F457C04092C503509243
S1132A10C6036092C7037092C803F093C4038D8108
S1132A20F0FB80F99E2F9370990F990F990F877E71
S1132A30892B8D8380FD02C09EE201C092E481FD5A
S1132A4002C02EE201C029E482FD02C03EE201C0C0
S1132A5031E5181419041A041B0434F089288A284F
S1132A608B2821F48DE203C08EE501C086E71F9216
S1132A708F931F92EF937F936F935F934F931F9264
S1132A803F931F922F931F929F93E7E0F3E0FF93EE
S1132A90EF931F921F93FF92EF920E94B42424E0BD
S1132AA031E042E666E780E894E00E9414070FB63E
S1132AB0F894DEBF0FBECDBF2091C2033091C30393
S1132AC0F9013196F093C303E093C20380910001AE
S1132AD0223131056CF463E00E942E242BE12E1B7D
S1132AE06AE06E0F092F4FEE80E00E9400041DC0C3
S1132AF0E23091E0F9076CF463E00E942E2441E097
S1132B004E1B092F2AE06BE18EEE8E0F0E9400040B
S1132B100CC01092C3031092C2038F5F833018F469
S1132B208093000102C0109200010E943E0C90911B
S1132B30FC0491708FBFD8CD0E943E0C9091FC0490
S1132B409E7F9093FC048FBF0F900F900F900F9077
S1132B500F90DF91CF911F910F91FF90EF90DF9035
S1132B60CF90BF90AF909F908F907F906F905F9029
S1132B704F903F902F900895EF92FF920F931F93E1
S1132B80CF93DF93C82F0E943E0C9091FC049E7F4C
S1132B909D7F9093FC048FBFC0FD03C0C1FF32C072
S1132BA010C080EB0E94620C81E0809357040E9465
S1132BB0D20C10E0812F0E946F0C1F5F103FD1F7E1
S1132BC0EDCF81EB0E94620C81E0809357040E9458
S1132BD0D20C00E010E087E0E82EF12CC801B70128
S1132BE00E944E24892B19F480E00E946F0CF80196
S1132BF0E25EFB4F84910E946F0C0F5F1F4F003FFA
S1132C00110561F7C2FF14C041E06CE389E10E9441
S1132C109A0641E063E580E00E949A0641E063E59C
S1132C2082E30E949A0641E069E689E10E949A06DD
S1132C30C3FF0DC001E02EE548E266E48AE00E948D
S1132C40000426E448E26EE58AE00E940004C4FF22
S1132C500DC001E024E144E16CE380E00E946F04D4
S1132C6024E144E16CE38EE10E949204C5FF0DC0AF
S1132C700FEF21E04AE06EE58AE00E945A0521E068
S1132C804AE06EE588E20E94AC04C6FF57C024E027
S1132C9031E045E266E48EE193E00E94140783E0AC
S1132CA08F9386E98F931F928AEA8F938FE293E042
S1132CB09F938F931F92D0E3DF9300E814E01F9358
S1132CC00F930E94B42424E031E04AE366E4C8018F
S1132CD00E9414071F9281E18F9381E493E09F93F4
S1132CE08F931F92DF931F930F930E94B42424E0C9
S1132CF031E044E466E4C8010E94140724E031E0B2
S1132D004EE466E481E593E00E94140724E031E098
S1132D1048E566E484E693E00E94140724E031E089
S1132D2042E666E487E793E00E9414078DB79EB7F6
S1132D3042960FB6F8949EBF0FBE8DBFC7FF10C05A
S1132D402BDC0E943E0C9091FC0491609093FC0457
S1132D508FBFDF91CF911F910F91FF90EF909CCC8B
S1132D60DF91CF911F910F91FF90EF90089584E030
S1132D7091E0089582EE0E94620C6BE278E680E0B6
S1132D8090E00E944B0C0E94560C87FD06C00E94E6
S1132D90980C0E94DD0C80E0089581E00895DF9294
S1132DA0EF92FF920F931F93CF93DF93CDB7DEB7CC
S1132DB028970FB6F894DEBF0FBECDBF0E943E0C1D
S1132DC0F82E1091BF04103309F441C0F8F4113106
S1132DD071F158F4103109F0CAC00E94B006CADF7C
S1132DE01092BF04FFBE11E1C4C0143141F110328E
S1132DF009F0BDC08091C0048093D1048091C104C6
S1132E008093D2041092BF04FFBEB3C0163309F4FA
S1132E106EC030F41233C9F1143309F452C0A7C0A0
S1132E20183309F47AC01A3309F48CC0A0C00E9484
S1132E30B0060E94DD0C1092BF04FFBE9AC08091C0
S1132E40C0048093D0041092BF04FFBE92C02091AE
S1132E50C004A1ECB4E0CE010196FC013E2F381B66
S1132E60321718F43D913193F9CFFC01E20FF11DB3
S1132E7010824091D2046091D1040E94F20C0E940D
S1132E80B0061092BF04FFBE74C08091D10460915B
S1132E90D204D090C004E090C1040091C2040F3F5A
S1132EA011F40091D0042E2D4D2D0E9400040E9497
S1132EB0B006D092D104E092D2041092BF04FFBEB7
S1132EC058C08091D1046091D2044091C0042091F3
S1132ED0C1040091C2040F3F11F40091D0040E9478
S1132EE06F040E94B0061092BF04FFBE42C08091DE
S1132EF0D1046091D2044091C0042091C104009196
S1132F00C2040F3F11F40091D0040E9492040E9465
S1132F10B0061092BF04FFBE2CC08091D104609112
S1132F20D2044091C0042091C1042F3F11F4209198
S1132F30D0040FEF0E94AC040E94B0061092BF04AC
S1132F40FFBE17C08091D1046091D2044091C004A7
S1132F502091C1042F3F11F42091D0040FEF0E945F
S1132F605A050E94B0061092BF04FFBE02C0FFBE05
S1132F7010E0812F28960FB6F894DEBF0FBECDBFA8
S1132F80DF91CF911F910F91FF90EF90DF90089503
S1132F9082EE0E94620C6BE67AE080E090E00C9492
S1132FA04B0CE0917704EE2351F0F0E0E059FB4F35
S1132FB0129284E0EF36F807D9F710927704089557
S1132FC0CF92DF92EF92FF92CF93DF9380915F04D1
S1132FD0823209F0EFC4E0916004E23051F0E33052
S1132FE0E9F0E13041F581E180935D04E0935C0414
S1132FF0E1C4809161048093B304882331F080910B
S1133000FC048E7F8093FC04D5C4B4DE81EFDF9191
S1133010CF91FF90EF90DF90CF90AECD8091BF0421
S1133020882311F081E801C080E880935D0481E089
S113303080935C04BFC410925C048091B30480311B
S113304009F00DC38091BF048111B4C4E83309F4BD
S11330500EC208F5E03209F40AC278F4E03108F44B
S1133060A9C4E231A8F1E43109F0A4C48091610457
S1133070E093BF048093C0049DC4E23309F4E8C123
S113308018F4E03341F196C4E43309F4E1C1E633C2
S113309009F4DEC18FC4E53609F424C250F4E036E5
S11330A009F4F0C1E43609F409C2EA3309F082C430
S11330B0DEC1E13709F478C220F4E03709F45CC2D8
S11330C079C4E43709F49DC2E53709F4B6C272C481
S11330D0E093BF046FC4E09161048E2F90E0FC0183
S11330E03197ED30F10508F065C4EC5CFF4F809139
S11330F062040C94832490E39093BF0491E0909332
S1133100C0048093C10456C49091630420E32093C7
S1133110BF0422E02093C0048093C1049093C204AE
S113312049C4909164042091630430E33093BF0454
S113313033E03093C0048093C1042093C20490937D
S1133140C30438C4909165042091640430916304ED
S113315040E34093BF0444E04093C0048093C1041F
S11331603093C2042093C3049093C40423C4909165
S1133170660420916504309164044091630450E333
S11331805093BF0455E05093C0048093C10440930E
S1133190C2043093C3042093C4049093C5040AC4A6
S11331A09091670420916604309165044091640411
S11331B05091630460E36093BF0466E06093C004CD
S11331C08093C1045093C2044093C3043093C40455
S11331D02093C5049093C604EDC390916804209194
S11331E067043091660440916504509164046091D1
S11331F0630470E37093BF0477E07093C00480931A
S1133200C1046093C2045093C3044093C404309334
S1133210C5042093C6049093C704CCC39091690459
S113322020916804309167044091660450916504CC
S11332306091640470916304E0E3E093BF04E8E008
S1133240E093C0048093C1047093C2046093C304E8
S11332505093C4044093C5043093C6042093C70418
S11332609093C804A7C390916A0420916904309193
S113327068044091670450916604609165047091FC
S11332806404E0916304F0E3F093BF04F9E0F09385
S1133290C0048093C104E093C2047093C304609398
S11332A0C4045093C5044093C6043093C7042093C8
S11332B0C8049093C9047EC390916B0420916A045E
S11332C030916904409168045091670460916604E8
S11332D070916504E0916404F0916304A0E3A09309
S11332E0BF04AAE0A093C0048093C104F093C20475
S11332F0E093C3047093C4046093C5045093C6045C
S11333004093C7043093C8042093C9049093CA041B
S113331051C390916C0420916B0430916A044091E4
S11333206904509168046091670470916604E091A7
S11333306504F0916404A0916304B0E3B093BF0406
S1133340BBE0B093C0048093C104A093C204F09383
S1133350C304E093C4047093C5046093C6045093FB
S1133360C7044093C8043093C9042093CA049093BB
S1133370CB0420C390916D0420916C0430916B04B4
S113338040916A04509169046091680470916704E3
S1133390E0916604F0916504A0916404B091630423
S11333A0C0E3C093BF04CCE0C093C0048093C104C5
S11333B0B093C204A093C304F093C404E093C5047F
S11333C07093C6046093C7045093C8044093C9041F
S11333D03093CA042093CB049093CC04EBC2909115
S11333E06E0420916D0430916C0440916B045091F3
S11333F06A046091690470916804E0916704F09133
S11334006604A0916504B0916404C0916304D0E3A0
S1133410D093BF04DDE0D093C0048093C104C09373
S1133420C204B093C304A093C404F093C504E0930E
S1133430C6047093C7046093C8045093C9044093AE
S1133440CA043093CB042093CC049093CD04B2C22D
S1133450809163049091620420916104E093BF041D
S11334602093C0049093C1048093C204A3C28091AA
S1133470620490916104E093BF049093C00480932C
S1133480C10498C23091B4042091B5049091B6045B
S11334908091B70430935D0420935E0490935F049D
S11334A0809360041092B4041092B5041092B60490
S11334B01092B70484E080935C047CC260910A0596
S11334C070910B0580910C0590910D050E94962238
S11334D0769567957695679560935D0481E0809312
S11334E05C0468C2C0900205D0900305E090040516
S11334F0F090050520E030E0A901C701B6010E9463
S1133500C72387FD17C0C701B6010E949122C62FA9
S113351070E080E090E00E94C4229B01AC01C701EE
S1133520B6012ED720E030E048EC52E40E94CB23D1
S1133530FDD71AC0F7FAF094F7F8F094C701B60172
S1133540F0D7C62F70E080E090E00E94C4229B0177
S1133550AC01C701B60114D720E030E048EC52E4D6
S11335600E94CB23E3D7C195C0935D0460935E04AE
S113357082E080935C041EC280916104982F917054
S11335809093B20421E0382F327081FF20E0209321
S1133590B104992311F02E9A01C02E98332311F00F
S11335A02F9A08C22F9806C220916104222309F49D
S11335B001C260916204662309F4FCC13AE0639F8E
S11335C0B001112488E893E10E943A246F3F710509
S11335D018F4962F872F02C09FEF80E09093FE048B
S11335E08093FF043AE7239FC001112464E670E04E
S11335F00E943A246F3F710508F06FEF6093FD0459
S1133600D9C18091610480FF04C081E080930301EB
S1133610D1C18091620410920301882341F0809308
S1133620B3008091B00080688093B000C3C18091E2
S1133630B0008F738093B000BDC1C09161048C2F22
S11336408F73809300050E94910CC7FFB3C181E082
S1133650DF91CF91FF90EF90DF90CF908DC38032B8
S113366009F0A8C18E2F90E0FC01E058F109EE307A
S1133670F10508F09FC1EF5BFF4F0C948324809108
S11336806404909165042091620430916304409134
S113369061045091E70445130FC06091D304709105
S11336A0D4042617370741F46091D5047091D604E9
S11336B08617970709F47EC15091BD045160509359
S11336C0BD044093E7043093D4042093D30490932F
S11336D0D6048093D5046EC12091640430916304B0
S11336E040916104509162048091D7049091D80470
S11336F08417950779F48091E80490E0632F032EF2
S1133700000C770B8617970729F48091E904281792
S113371009F450C18091BD0482608093BD0450932C
S1133720D8044093D7043093E8042093E90442C1B9
S11337302091630430916204409161048091EA0411
S113374048130FC08091EB0490E0632F032E000C0C
S1133750770B8617970729F48091EC04281709F44E
S113376029C18091BD0484608093BD044093EA0420
S11337703093EB042093EC041DC180916304909179
S1133780640420916104309162044091D904509101
S1133790DA042417350741F44091DB045091DC042A
S11337A04817590709F406C14091BD044860409385
S11337B0BD043093DA042093D9049093DC048093FD
S11337C0DB04F8C080916204909161042091ED04BF
S11337D0921305C02091EE04821709F4EBC02091E6
S11337E0BD0420612093BD049093ED048093EE0406
S11337F0E1C080916204909163042091610430914E
S1133800EF04231308C04091DD045091DE044817EF
S1133810590709F4CFC03091BD0430623093BD0420
S11338202093EF049093DE048093DD04C3C0809161
S1133830630490916204209161043091F004231395
S113384009C03091F104931305C03091F204831739
S113385009F4B0C03091BD0430643093BD042093AA
S1133860F0049093F1048093F204A4C08091610465
S1133870909162042091DF043091E0042817390705
S113388009F498C02091BD0420682093BD0490934E
S1133890E0048093DF048EC08091620490916104FF
S11338A02091F304921305C02091F404821709F4C3
S11338B081C02091BE0421602093BE049093F30440
S11338C08093F40477C080916404909165042091FE
S11338D0630430916204409161045091F5044513EE
S11338E010C05091F60435130CC05091F704251301
S11338F008C06091E1047091E2046817790709F443
S113390059C05091BE0452605093BE044093F504D4
S11339103093F6042093F7049093E2048093E10437
S113392049C08091640490916504209163043091AE
S11339306204409161045091F80445130FC0509102
S1133940F90435130BC05091FA04251307C0609194
S1133950E3047091E4046817790761F15091BE049F
S113396054605093BE044093F8043093F9042093B8
S1133970FA049093E4048093E3041CC080916304EC
S113398020916104309162044091E5045091E60471
S11339902417350721F49091FB04891759F090916D
S11339A0BE0498609093BE043093E6042093E5042B
S11339B08093FB04DF91CF91FF90EF90DF90CF9045
S11339C00895CF93DF93D62FC42FC574883609F496
S11339D08BC008F042C0803309F47FC048F58031C1
S11339E009F466C0D8F4882309F487C1883009F043
S11339F084C110925B0482E080935A0484E2809331
S1133A006F0484E38093700486E58093710488E7EF
S1133A10809372048AE9809373044AC0803209F463
S1133A205DC0883209F448C0883109F066C141C0DC
S1133A30883409F457C038F4883309F451C0803409
S1133A4009F450C05AC1883509F44CC0803609F4D1
S1133A504BC0803509F446C050C1803A09F429C1ED
S1133A60A8F4803809F44DC038F4803709F441C013
S1133A70883709F43EC041C1803909F442C088390D
S1133A8009F407C1883809F038C103C1883B09F437
S1133A9019C120F4883A09F415C12FC1883C09F4EE
S1133AA02AC1883F09F429C1803C09F424C125C1F5
S1133AB00000E0915B0406C0E0915B0480915A042D
S1133AC0E81758F481E08E0F80935B04F0E0E1592D
S1133AD0FB4F80818093BB0011C163DAC0610EC1CA
S1133AE0C0620CC100000AC140E060E18FE594E0CF
S1133AF038D1D695D0935F0481E080935904C06493
S1133B00FDC0809158048F3009F4BCC090915904D1
S1133B109F3008F0ADC0E92FF0E0E15AFB4FD083AD
S1133B20913009F091C080915F04823209F0A2C003
S1133B301092580410925A0480916004853609F456
S1133B4062C0B0F5803209F46FC0A0F4833009F488
S1133B5054C030F4813009F450C008F461C084C00A
S1133B60803108F487C0823108F45AC0843109F4E2
S1133B707BC080C0863309F45BC068F4823309F4E7
S1133B8057C0843309F454C0803309F073C080E112
S1133B90809358046FC08A3309F446C020F48833F4
S1133BA009F442C067C08036A1F1843631F162C0A5
S1133BB0833809F441C090F4853709F455C040F4C2
S1133BC0813791F1843781F1803709F053C04CC0BB
S1133BD0813891F168F5803899F14CC08B3840F404
S1133BE0893810F5853821F1F8F0883809F142C098
S1133BF08D3830F18D38E1F03DC081E08093580478
S1133C0080935A0437C09093580482E080935A04F6
S1133C1031C081E08093580484E080935A042AC020
S1133C2081E08093580426C083E08093580422C026
S1133C3084E0809358041EC085E0809358041AC021
S1133C4086E08093580416C0923091F480915F040A
S1133C50823281F480916004803361F48091610444
S1133C608F3010F48E5F01C082E08093580402C04C
S1133C709E3060F49F5F9093590480915804891793
S1133C8028F039C0D093610410925904C42FC57030
S1133C9035C0809158048F3009F092D9109259049C
S1133CA01092580440E068E08FE594E05AD0C06474
S1133CB025C0809158048F3009F082D9109259049C
S1133CC0C0641CC010925B0480915C0480935A040D
S1133CD010925C04882331F081E080935B0480912E
S1133CE05D0401C080E08093BB0090915A048091F0
S1133CF05B04891758F6C06401C0C0658C2FDF913E
S1133D00CF910895CF93DF931F92CDB7DEB78FB7CE
S1133D108983F89489810F90DF91CF910895F2DF20
S1133D20E09184009091850020910F053091100559
S1133D3040911105509112058FBFF0E0F92B83E0FB
S1133D40F695E7958A95E1F7A4E6B0E0F1D56E0F14
S1133D507F1F811D911D16D42DEB37E346E855E3F3
S1133D601AC570E06115710531F0FC014193CF0172
S1133D7061507109F7CF0895CF93C82F87FF05C00D
S1133D8061E180E090E00E946027C0FF08C060917C
S1133D9000056F7380E190E0CF910C946027CF9180
S1133DA0089587FF08C080E090E00E945827813181
S1133DB011F080E8E1DF86E18093000508953F92E9
S1133DC04F925F926F927F928F929F92AF92BF9227
S1133DD0CF92DF92EF92FF920F931F93CF93DF93D3
S1133DE0CDB7DEB7A8970FB6F894DEBF0FBECDBF30
S1133DF04B015C0187DFC0900605D0900705E09079
S1133E000805F090090540900A0550900B05609054
S1133E100C0570900D0533B006B18FBF73DF182FFA
S1133E2029E137E642EB53E4C701B601A9D220E009
S1133E3030EA47E85FE3AFD420E030E048EC51E4F7
S1133E40A0D26093020570930305809304059093B8
S1133E5005051FBF80910301882309F46BC020E08E
S1133E6030E84DE654E4C301B201EFD287FF5BC0F2
S1133E7020E030E040E050E4C301B20181D220E010
S1133E8030E84DE654E4E5D220E030E04DE753E479
S1133E9082D420E030E040E050E473D242D3162FC5
S1133EA0E72E862F9E2D20917D0430917E04A9015A
S1133EB04F5F5F4F4817590704F1215031098217AA
S1133EC09307DCF04090790450907A0460907B046E
S1133ED070907C04A3019201C501B40151D220E089
S1133EE030E040E05FE353D418163CF0A3019201A4
S1133EF0C501B401AAD287FF10C01093B300812F6B
S1133F009E2D90937E0480937D04809279049092F8
S1133F107A04A0927B04B0927C048091B000806803
S1133F208093B00007C01092B3008091B0008F73EB
S1133F308093B000E7DE95E0E8EBF4E0DE01119653
S1133F4001900D929A95E1F789809A80AB80BC80AC
S1133F508FBF11E032FAFF24F0F8F12601FBEE24C2
S1133F60E0F8E12602FB002700F91027912F990FB2
S1133F709E29892F8695982780917804292F281BBC
S1133F80092F0370213011F02D3FB1F48D81F0FA27
S1133F9080F9E0FA81F910FB82F9877E202F220F45
S1133FA0220F220F822B8D83887101F58FEF881ADF
S1133FB0980AA80AB80A1AC02F3F11F02330B1F4A6
S1133FC08D81F0FA80F9E0FA81F910FB82F9877E9D
S1133FD0202F220F220F220F822B8D83887188318C
S1133FE029F421E0821A9108A108B1089093780479
S1133FF089DE89829A82AB82BC829D81F0FA90F933
S1134000E0FA91F910FB92F9000F000F000F977E70
S1134010902B9D8395E0FE013196A8EBB4E00190CE
S11340200D929A95E1F78FBF6DDE0091B3049091E4
S1134030FC0490FBFF24F0F8969591708FBF9923B0
S1134040E1F1003121F40E94CF16182F05C000328F
S1134050A1F50E945D0E182FF1102CC08091020171
S1134060882341F1109202010E94DD0C0032D9F440
S113407001E020E840EF60E080E00E946F0488E205
S1134080E1E9F3E0DE01119601900D928A95E1F7E2
S11340900E94B7169C0142E063E0CE0101960E94A3
S11340A014070E94110D2EDE9091FC0492609093EF
S11340B0FC048FBF1111B8CF04C0F11002C010E08E
S11340C0CDCFA8960FB6F894DEBF0FBECDBFDF915B
S11340D0CF911F910F91FF90EF90DF90CF90BF9001
S11340E0AF909F908F907F906F905F904F903F9094
S11340F00895880F816083BF889583B78E7F83BFBF
S113410008951F93CF93DF9384E185B98BEF84B92E
S11341108EE788B988E087B98FEF8BB91AB8C1E008
S1134120C0937E000E9406038BEE8093640061E0DE
S113413080E00E941F03C0937E0086E880937A008B
S113414080EC80937C0080917B00887F84608093E6
S11341507B0080917A00806280937A0080917A005B
S1134160806180937A0080917A00886080937A00DD
S113417080917A00806480937A0013E813BD60E232
S113418080E00E941F0314BC84E085BD16BC17BCEC
S1134190D7E0D5BBC0936E0068E080E00E941F03A7
S11341A082E08093800089E18093810010928500F1
S11341B01092840083E08093870080E280938600DD
S11341C087E286BBC0936F0060E480E00E941F0317
S11341D01092B6001093B00085E08093B100109265
S11341E0B2001092B300D7BBC09370000E940503C5
S11341F084B78093B004982F977011F481112BC069
S113420081DDF89410920E0510920A0510920B05A8
S113421010920C0510920D051092060510920705D8
S1134220109208051092090540E050E068EC71E432
S113423040930205509303056093040570930505AC
S113424090E4909301059091FC049E7F9D7F909350
S1134250FC048FBF02C00E9440078FEFA2DD60E81C
S113426080E00E941F034EDD1092B90092E090930B
S1134270B80094E49093BA001092BD0095E4909332
S1134280BC008FBF789413BC0E94BA168DEF0E94B5
S1134290BC1581E080937F0480917F04882329F0FA
S11342A03EDD8DDD80E025DFF7CF0E94C817F8944E
S11342B080B7806880BF64E080E00E94350362E0DC
S11342C080E00E9435031EDD94E09093BC003C988E
S11342D0449A3D98459A1092BC008FBF60E880E0F4
S11342E00E94350380917A00877F80937A008091C1
S11342F07A008F7D80937A0080917B00887F809301
S11343007B0010927C0061E080E00E943503FADCBF
S1134310C82F10926E0014BC15BC60E280E00E94AD
S113432035032198299810926F0010928000109202
S113433081001092820068E080E00E943503239A95
S11343402B98109270001092B6001092B000109248
S1134350B10060E480E00E943503D4DC5F9350E850
S11343605093610050E0509361005F918FBFCFBFC5
S113437084E0BFDE80E090E0DF91CF911F9108954B
S11343805058BB27AA270ED0B1C1A2D130F0A7D173
S113439020F031F49F3F11F41EF497C10EF4E09520
S11343A0E7FB64C1E92FB3D180F3BA17620773073F
S11343B08407950718F071F49EF5E2C10EF4E095B8
S11343C00B2EBA2FA02D0B01B90190010C01CA01CB
S11343D0A0011124FF27591B99F0593F50F4503E76
S11343E068F11A16F040A22F232F342F4427585F68
S11343F0F3CF469537952795A795F0405395C9F780
S11344007EF41F16BA0B620B730B840BBAF0915037
S1134410A1F0FF0FBB1F661F771F881FC2F70EC0D6
S1134420BA0F621F731F841F48F4879577956795A9
S1134430B795F7959E3F08F0B3CF9395880F08F092
S11344409927EE0F979587950895ECD008F481E0AD
S113445008950CD04BC143D140F03AD130F021F44F
S11344605F3F19F003C151118CC12FC150D198F392
S11344709923C9F35523B1F3951B550BBB27AA27E1
S113448062177307840738F09F5F5F4F220F331F53
S1134490441FAA1FA9F333D00E2E3AF0E0E830D01F
S11344A091505040E695001CCAF729D0FE2F27D022
S11344B0660F771F881FBB1F261737074807AB07F0
S11344C0B0E809F0BB0B802DBF01FF2793585F4F65
S11344D02AF09E3F510568F0C9C053C15F3FECF319
S11344E0983EDCF3869577956795B795F7959F5F2A
S11344F0C9F7880F911D9695879597F90895E1E07E
S1134500660F771F881FBB1F621773078407BA07DC
S113451020F0621B730B840BBA0BEE1F88F7E09537
S1134520089504D06894B1112CC10895F8D088F08E
S11345309F5790F0B92F9927B751A0F0D1F0660F8B
S1134540771F881F991F1AF0BA95C9F712C0B130A6
S113455081F016D1B1E0089513C1672F782F882711
S1134560B85F39F0B93FCCF3869577956795B395E5
S1134570D9F73EF490958095709561957F4F8F4F54
S11345809F4F0895E89409C097FB3EF49095809559
S1134590709561957F4F8F4F9F4F9923A9F0F92F05
S11345A096E9BB279395F695879577956795B79583
S11345B0F111F8CFFAF4BB0F11F460FF1BC06F5F69
S11345C07F4F8F4F9F4F16C0882311F096E911C07B
S11345D0772321F09EE8872F762F05C0662371F09C
S11345E096E8862F70E060E02AF09A95660F771FB0
S11345F0881FDAF7880F9695879597F90895A9D0BB
S113460080F09F3740F491110EF0BBC060E070E081
S113461080E89FEB089526F41B16611D711D811D12
S11346202BC045C0990F0008550FAA0BE0E8FEEF18
S113463016161706E807F907C0F012161306E40762
S1134640F50798F0621B730B840B950B39F40A265B
S113465061F0232B242B252B21F408950A2609F439
S1134660A140A6958FEF811D811D089597F99F673D
S113467080E870E060E00895882371F4772321F0E6
S11346809850872B762F07C0662311F499270DC005
S11346909051862B70E060E02AF09A95660F771FA0
S11346A0881FDAF7880F9695879597F908959F3FA5
S11346B031F0915020F4879577956795B795880FD9
S11346C0911D9695879597F908959FEF80EC08952D
S11346D000240A94161617061806090608950024DD
S11346E00A9412161306140605060895092E039457
S11346F0000C11F4882352F0BB0F40F4BF2B11F4CB
S113470060FF04C06F5F7F4F8F4F9F4F089557FD29
S11347109058440F551F59F05F3F71F04795880F2B
S113472097FB991F61F09F3F79F0879508951216C2
S113473013061406551FF2CF4695F1DF08C016166E
S113474017061806991FF1CF86957105610508941F
S11347500895E5DFA0F0BEE7B91788F4BB279F38BA
S113476060F41616B11D672F782F8827985FF7CF4E
S1134770869577956795B11D93959639C8F30895F5
S1134780E894BB2766277727CB0197F908954ADF7A
S113479008F48FEF08950BD0A9CF9ADF28F09FDF9C
S11347A018F0952309F062CF90CF1124EACFAFDF40
S11347B0A0F3959FD1F3950F50E0551F629FF00130
S11347C0729FBB27F00DB11D639FAA27F00DB11D89
S11347D0AA1F649F6627B00DA11D661F829F222712
S11347E0B00DA11D621F739FB00DA11D621F839F99
S11347F0A00D611D221F749F3327A00D611D231F6F
S1134800849F600D211D822F762F6A2F11249F57BC
S113481050408AF0E1F088234AF0EE0FFF1FBB1FDF
S1134820661F771F881F91505040A9F79E3F51057E
S113483070F01CCFA6CF5F3FECF3983EDCF3869577
S113484077956795B795F795E7959F5FC1F7FE2B29
S1134850880F911D9695879597F90895991B79E08E
S113486004C0991F961708F0961B881F7A95C9F7FC
S113487080950895AA1BBB1B51E107C0AA1FBB1F4B
S1134880A617B70710F0A61BB70B881F991F5A95D8
S1134890A9F780959095BC01CD01089597FB072E4B
S11348A016F4009406D077FD08D0E4DF07FC05D0A9
S11348B03EF4909581959F4F0895709561957F4F33
S11348C00895A1E21A2EAA1BBB1BFD010DC0AA1F4D
S11348D0BB1FEE1FFF1FA217B307E407F50720F065
S11348E0A21BB30BE40BF50B661F771F881F991FE0
S11348F01A9469F760957095809590959B01AC0129
S1134900BD01CF010895EE0FFF1F0590F491E02D36
S11349100994A29FB001B39FC001A39F700D811D94
S11349201124911DB29F700D811D1124911D0895B4
S1134930F0DFA59F900DB49F900DA49F800D911D55
S113494011240895FB01DC0101900D920020E1F790
S11349500895FC016150704001900110D8F78095D2
S113496090958E0F9F1F0895AEE0B0E0E9EBF4E25E
S1134970C3C20D891E898F89988D26E02C831A83E2
S1134980098397FF02C080E090E801979E838D839E
S1134990AE01455E5F4F698D7A8DCE01019611D0CF
S11349A04D815E8157FD0AC02F8138854217530718
S11349B00CF49A01F801E20FF31F10822E96E4E042
S11349C0B7C2ABE0B0E0E6EEF4E288C26C017B0172
S11349D08A01FC0117821682838181FFBFC1CE0147
S11349E001963C01F6019381F70193FD859193FFB4
S11349F081917F01882309F4ADC1853239F493FD97
S1134A00859193FF81917F01853221F4B60190E075
S1134A10B5D1E8CF912C212C312CFFE1F315D8F03E
S1134A208B3279F038F4803279F08332A1F4232D7B
S1134A3020611DC08D3261F0803369F4232D216023
S1134A4016C0832D8260382EE32DE4603E2E2AC0EA
S1134A50F32DF8601DC037FC2DC020ED280F2A303F
S1134A6040F08E32B9F436FC75C1232D2064322E09
S1134A7019C036FE06C08AE0989E200D1124922E9D
S1134A8011C0EAE02E9E200D1124222EF32DF06297
S1134A903F2E08C08C3621F4832D8068382E02C046
S1134AA0883641F4F70193FD859193FF81917F014D
S1134AB08111B3CF982F9F7D9554933028F40C5FC8
S1134AC01F4F9FE399830DC0833631F0833771F014
S1134AD0833509F055C020C0F801808189830E5FB9
S1134AE01F4F88248394912C530112C02801F2E0B3
S1134AF04F0E511CF801A080B18036FE03C0692D11
S1134B0070E002C06FEF7FEFC50123DF4C0182012B
S1134B10F32DFF773F2E15C0280122E0420E511CD1
S1134B20F801A080B18036FE03C0692D70E002C098
S1134B306FEF7FEFC50117D14C01F32DF0683F2EC5
S1134B40820133FC19C0822D90E088169906A0F4E6
S1134B50B60180E290E012D12A94F5CFF50137FC3A
S1134B60859137FE81915F01B60190E007D1211054
S1134B702A9421E0821A91088114910479F7E1C002
S1134B80843611F0893639F5F80137FE07C06081A3
S1134B907181828193810C5F1F4F08C06081718194
S1134BA0072E000C880B990B0E5F1F4FF32DFF7619
S1134BB03F2E97FF09C090958095709561957F4F22
S1134BC08F4F9F4FF0683F2E2AE030E0A30112D1AF
S1134BD0882E861844C0853731F4232D2F7EB22EBB
S1134BE02AE030E025C0932D997FB92E8F36C1F08D
S1134BF018F4883579F0AEC0803719F0883721F081
S1134C00A9C0E92FE061BE2EB4FE0DC0FB2DF460F7
S1134C10BF2E09C034FE0AC0292F2660B22E06C05A
S1134C2028E030E005C020E130E002C020E132E0BD
S1134C30F801B7FE07C060817181828193810C5FA6
S1134C401F4F06C06081718180E090E00E5F1F4FAE
S1134C50A301D0D0882E8618FB2DFF773F2E36FE79
S1134C600DC0232D2E7FA22E891458F434FE0BC0C0
S1134C7032FC09C0832D8E7EA82E05C0B82CA32C2F
S1134C8003C0B82C01C0B92CA4FE0FC0FE01E80D6E
S1134C90F11D8081803321F49A2D997EA92E09C0BB
S1134CA0A2FE06C0B394B39404C08A2D867809F09A
S1134CB0B394A3FC10C0A0FE06C0B21480F4280C68
S1134CC0922C9B180DC0B21458F4B60180E290E007
S1134CD055D0B394F8CFB21418F42B1802C0982C02
S1134CE0212CA4FE0FC0B60180E390E047D0A2FEC1
S1134CF016C0A1FC03C088E790E002C088E590E0FC
S1134D00B6010CC08A2D867851F0A1FE02C08BE258
S1134D1001C080E2A7FC8DE2B60190E02FD0891497
S1134D2030F4B60180E390E029D09A94F8CF8A94C5
S1134D30F301E80DF11D8081B60190E01FD08110D0
S1134D40F6CF222009F44ECEB60180E290E016D0D0
S1134D502A94F7CFF6018681978102C08FEF9FEFE7
S1134D602B96E2E1D7C0FC01059061507040011020
S1134D70D8F7809590958E0F9F1F08950F931F93DA
S1134D80CF93DF93FB01238121FD03C08FEF9FEFBE
S1134D902CC022FF16C046815781248135814217D9
S1134DA0530744F4A081B1819D012F5F3F4F3183AC
S1134DB020838C93268137812F5F3F4F378326834F
S1134DC014C08B01EC01FB010084F185E02D0995F1
S1134DD0892BE1F6D80116968D919C91179701962F
S1134DE017969C938E931697CE01DF91CF911F91C6
S1134DF00F910895FA01AA27283051F1203181F149
S1134E00E8946F936E7F6E5F7F4F8F4F9F4FAF4FCE
S1134E10B1E03ED0B4E03CD0670F781F891F9A1FE1
S1134E20A11D680F791F8A1F911DA11D6A0F711D95
S1134E30811D911DA11D20D009F468943F912AE0A1
S1134E40269F11243019305D3193DEF6CF01089589
S1134E50462F4770405D4193B3E00FD0C9F7F6CFBA
S1134E60462F4F70405D4A3318F0495D31FD405282
S1134E70419302D0A9F7EACFB4E0A6959795879518
S1134E8077956795BA95C9F70097610571050895F7
S1134E909B01AC010A2E06945795479537952795A3
S1134EA0BA95C9F7620F731F841F951FA01D08953B
S1134EB0F999FECF92BD81BDF89A992780B50895DE
S1134EC0262FF999FECF1FBA92BD81BD20BD0FB622
S1134ED0F894FA9AF99A0FBE019608952F923F9288
S1134EE04F925F926F927F928F929F92AF92BF92F6
S1134EF0CF92DF92EF92FF920F931F93CF93DF93A2
S1134F00CDB7DEB7CA1BDB0B0FB6F894DEBF0FBEFE
S1134F10CDBF09942A88398848885F846E847D844B
S1134F208C849B84AA84B984C884DF80EE80FD804D
S1134F300C811B81AA81B981CE0FD11D0FB6F894C3
S1114F40DEBF0FBECDBFED010895F894FFCF84
S1134F4E02010101009E000607207E436C6B537420
S1134F5E6174653A20307800446174652020202005
S1134F6E3A0054696D65202020203A2030303A30C2
S1134F7E302E3030205554430044657669617427D1
S1134F8E6E3A20253034642E2530336420707062DE
S1134F9E0050574D20202020203A202533642E2502
S1134FAE3033642F323536203D2533642E2530338D
S1134FBE6425250050756C6C566F6C743A2025313F
S1134FCE642E253033642056005068617365566F25
S1134FDE6C743A202531642E2530336420560053E8
S1134FEE617455736520203A20576573743D2530DE
S1134FFE326420456173743D2530326420557365E7
S113500E643D2530326420736174730053617420DF
S113501E444F50203A20253032642E25303264001D
S113502E53617453746174653A2046493D25316465
S113503E204D323D25316400536174204C6174203F
S113504E3A202563202025303264256325303264CE
S113505E2E253034642700536174204C6F6E203A31
S113506E20256320253033642563253032642E25B4
S113507E303464270053617420486774203A202525
S113508E3034642E25303164206D005068617365B0
S113509E3A20252B30346425630050686173654FC4
S11350AE66733A00253032643A253032642E253048
S11350BE326400253032642E253032642E2530348D
S11350CE6400253158002531642E253033640025C3
S11350DE2B303464002530326420456173743D25D1
S11350EE30326420557365643D2530326400256387
S11350FE2020253032642563253032642E25303449
S113510E6400256320253033642563253032642EF4
S113511E2530346400253034642E25316400253066
S113512E34642E25303364002533642E25303364E5
S113513E00202532642E25303264200020253034A0
S113514E642E2531642000202563202563202563E9
S113515E20252B30366C643A2564202563004446A2
S113516E3449414820536D6172742D4C43440056AA
S113517E657273696F6E3A20323025336425336459
S113518E004932432D5665723A20307825303278F4
S113519E0054656D702E20203A2078782E78782071
S11351AE202743004C6967687420203A2078787869
S11351BE782E7820414400427574746F6E733A20D1
S11351CE2E202E202E202030303030303A30202D1C
S11351DE003C3D3D3D3D203130204D487A2E2D5230
S11351EE65662E2D4F73632E20536D6172742D4C94
S10D51FE4344203D3D3D3D3E0000CA
S9030000FC
