S0140000536D6172742D4C43445F53572E7372656300
S1130000CCC20000F6C6000017C7000038C70000C5
S113001059C700007AC700009BC70000BCC7000096
S1130020DDC70000FEC700000C946B080C948E081A
S11300300C94B1080C94D4080C945F090C948209B4
S11300400C94A5090C94C8090C94EB090C940E0AA1
S11300500C94310A0C94E10A0C944E0B0C94710B21
S11300600C94940B0C94C60B0000000000000020BC
S1130070202020200020505050000000005050F854
S113008050F850502078A07028F020C0C8102040AC
S113009098186090A040A89068602040000000007C
S11300A010204040402010402010101020400050EC
S11300B020F8205000002020F8202000000000003C
S11300C0602040000000F800000000000000006014
S11300D06000081020408000708898A8C8887020AC
S11300E0602020202070708808102040F8F810202C
S11300F01008887010305090F81010F880F008083C
S11301008870304080F0888870F8081020404040A3
S1130110708888708888707088887808106000609B
S113012060006060000060600060204008102040B3
S11301302010080000F800F8000080402010204043
S1130140807088081020002070880868A8A8707043
S1130150888888F88888F08888F08888F070888093
S113016080808870E09088888890E0F88080F080B3
S113017080F8F88080E08080807088808098887023
S1130180888888F88888887020202020207038107B
S113019010101090608890A0C0A09088808080800B
S11301A08080F888D8A8888888888888C8A898888B
S11301B08870888888888870F08888F0808080704B
S11301C0888888A89068F08888F0A09088788080D3
S11301D0700808F0F820202020202088888888884B
S11301E0887088888888885020888888A8A8D888B3
S11301F08888502050888888885020202020F8083B
S113020010204080F8382020202020380080402012
S1130210100800E02020202020E02050880000006A
S113022000000000000000F8402010000000000062
S11302300070087888788080B0C88888F0000070E2
S1130240808088700808689888887800007088F82A
S11302508070304840E040404000007888780830A2
S11302608080B0C88888882000602020207010001A
S1130270301010906040404850605048602020206A
S11302802020700000D0A8A888880000B0C8888802
S113029088000070888888700000F088F0808000F2
S11302A00068987808080000B0C88080800000705A
S11302B0807008F04040E040404830000088888862
S11302C098680000888888502000008888A8A85072
S11302D0000088502050880000888878087000004A
S11302E0F8102040F810202040202010202020204A
S11302F020202040202010202040205020000000FA
S113030000000000000000002020202020002050D9
S11303105050000000005050F850F850502078A081
S11303207028F020C0C810204098186090A040A801
S113033090686020400000000010204040402010E1
S113034040201010102040005020F82050000020C1
S113035020F820200000000000602040000000F889
S113036000000000000000006060000810204080D1
S113037000708898A8C888702060202020207070A1
S11303808808102040F8F8102010088870103050A9
S113039090F81010F880F008088870304080F088D9
S11303A08870F808102040404070888870888870F1
S11303B070888878081060006060006060000060E9
S11303C06000602040081020402010080000F80061
S11303D0F800008040201020408070880810200021
S11303E02070880868A8A87070888888F88888F0C1
S11303F08888F08888F070888080808870E0908891
S1130400888890E0F88080F08080F8F88080E08030
S1130410808070888080988870888888F888888828
S113042070202020202070381010101090608890C8
S1130430A0C0A09088808080808080F888D8A88818
S11304408888888888C8A8988888708888888888D0
S113045070F08888F080808070888888A89068F020
S11304608888F0A09088788080700808F0F82020B0
S113047020202020888888888888708888888888B0
S11304805020888888A8A8D88888885020508888D0
S113049088885020202020F80810204080F8382038
S11304A0202020203800804020100800E020202058
S11304B02020E02050880000000000000000000020
S11304C0F840201000000000000070087888788050
S11304D080B0C88888F00000708080887008086840
S11304E09888887800007088F88070304840E04030
S11304F04040000078887808308080B0C8888888B8
S113050020006020202070100030101090604040C7
S11305104850605048602020202020700000D0A85F
S1130520A888880000B0C8888888000070888888F7
S1130530700000F088F08080000068987808080057
S113054000B0C8808080000070807008F04040E0F7
S1130550404048300000888888986800008888886F
S1130560502000008888A8A8500000885020508897
S1130570000088887808700000F8102040F81020E7
S11305802040202010202020202020204020201047
S11305902020402050200000000011241FBECFEF77
S11305A0D8E0DEBFCDBF13E0A0E0B1E0E2EEF0E4BE
S11305B002C005900D92A834B107D9F724E0A8E44D
S11305C0B3E001C01D92AC36B207E1F70E94C11935
S11305D00C946F20CF93DF931F92CDB7DEB78FEFCC
S11305E0809364008FB78983F89489815F9350E87E
S11305F05093610050E0509361005F918FBF0F9062
S1130600DF91CF910895CF93DF931F92CDB7DEB7DB
S11306109FB79983F8949981811106C06095809160
S113062064006823609364009FBF0F90DF91CF91B3
S11306300895CF93DF931F92CDB7DEB79FB7998309
S1130640F8949981811105C080916400682B6093AE
S113065064009FBF0F90DF91CF910895FF920F9395
S11306601F93CF93DF93082F842F90E0800F911D69
S1130670813F910514F040EF401B442309F447C027
S1130680162F16951695169538EF3103C0011124CF
S1130690860F911D61E070E001C0660F8A95EAF74C
S11306A0F62E213031F040F0223089F5CFEFC40F1F
S11306B022C0CFEFC40F05C0CFEFC40FD62FD09503
S11306C00DC0DC2FD00F6D2F812FB3D2482F4F29AF
S11306D06D2F812F9CD2C150A0F719C0FC2EF00EB3
S11306E06F2D812FA6D2482F4D236F2D812F8FD2AE
S11306F0C150A0F70CC0DC2FD00F6D2F812F99D2E1
S1130700482F4F256D2F812F82D2C150A0F7DF9142
S1130710CF911F910F91FF900895EF92FF920F9345
S11307201F93CF93DF93942F442309F446C04FEFD4
S1130730460F940F691308C0422FDF91CF911F9188
S11307400F91FF90EF90A8C29F3708F09FE7162FF4
S1130750169516951695092F0695069506956770B4
S1130760EFEFF0E0AF0101C0440F6A95EAF797702C
S113077067E070E0691B71097F0102C0F594E7949A
S11307806A95E2F7101304C04E21682F812F0EC022
S1130790D22FC82F6C2F812F5AD21F5F2D2F1017E5
S11307A010F44FEFF7CF4E2D6C2F802FDF91CF91A8
S11307B01F910F91FF90EF904AC2DF91CF911F914B
S11307C00F91FF90EF9008958F929F92AF92BF92F6
S11307D0CF92DF92EF92FF920F931F93CF93DF9309
S11307E0182FD62E481728F4D22E262F812F142FF7
S11307F0482FC42FD0E0C11BD109E22EF12CED18F3
S1130800F108D7FF06C0D195C195D10999249A94CE
S113081002C099249394F7FE06C0F194E194F10880
S113082088248A9402C088248394EC16FD06BCF4C0
S11308305701AC1ABD0AC12C8C2D90E0C817D907FA
S11308402CF1402F6D2D812F27D2B7FC03C0AC1A99
S1130850BD0AD80CAE0CBF1C190DC394EDCF5E01BC
S1130860AE18BF08C12C8C2D90E0E816F90674F080
S1130870402F6D2D812F10D2B7FC03C0AE18BF08D6
S1130880190DAC0EBD1ED80CC394EDCFDF91CF91E2
S11308901F910F91FF90EF90DF90CF90BF90AF909A
S11308A09F908F900895FF920F931F93CF93DF93A0
S11308B0D82F162FC42FF22E202FD0DE6FEF6F0DFE
S11308C0610F202F4C2F8D2FC9DE202F4F2D612F2C
S11308D08D2F23DF8FEF8C0F202F4F2D612F8D0F46
S11308E0DF91CF911F910F91FF9017CFFF920F933C
S11308F01F93CF93DF93222369F0C22F142FF62E78
S1130900D82FC1506C2F6F0D202F412F8D2FA6DEB5
S1130910C150C0F7DF91CF911F910F91FF900895BF
S11309205F926F927F928F929F92AF92BF92CF927B
S1130930DF92EF92FF920F931F93CF93DF93182FC1
S1130940D62EC42FC22E411111C0422FDF91CF9158
S11309501F910F91FF90EF90DF90CF90BF90AF90D9
S11309609F908F907F906F905F9096C1E42EF12CB2
S1130970F194E194F108EE0CFF1C83E0E80EF11C05
S1130980D0E0802F8170B82E802F8270A82E802F07
S11309908470982E802F8870882E802F8071782EF6
S11309A0802F8072682E802F8074582EBB2031F0E7
S11309B04C2D6D2D6D1B8C2F810F6ED1AA2031F023
S11309C04C2D6D2D6C1B8D2F810F66D1992031F02C
S11309D04C2D6D2D6C1B812F8D1B5ED1882031F029
S11309E04C2D6D2D6D1B812F8C1B56D1772031F032
S11309F04C2D6D2F6D0D812F8C1B4ED1662031F047
S1130A004C2D6C2F6D0D812F8D1B46D1552031F04F
S1130A104C2D6C2F6D0D8D2F810F3ED107FF06C01D
S1130A204C2D6D2F6D0D8C2F810F36D1ED2FF0E0F5
S1130A30F7FE08C0EE0FFF1FEE0FFF1F3696EE0EF7
S1130A40FF1E0AC0EC1BF109EE0FFF1FEE0FFF1F84
S1130A503A96EE0EFF1EC150DF5FCD1708F0A6CF09
S1130A60DF91CF911F910F91FF90EF90DF90CF9086
S1130A70BF90AF909F908F907F906F905F900895FC
S1130A808F929F92AF92BF92CF92DF92EF92FF929A
S1130A900F931F93CF93DF93182FD62EC42FC22EFC
S1130AA041110EC0422FDF91CF911F910F91FF9002
S1130AB0EF90DF90CF90BF90AF909F908F90ECC05D
S1130AC0E42EF12CF194E194F108EE0CFF1C83E088
S1130AD0E80EF11CBB24B394D0E0802F8370A82EC1
S1130AE0802F8C70982E802F8073882E007CAA20F3
S1130AF079F02C2D4B2D6D2D6D1B8C2F810F0DDE60
S1130B002C2D41E04C0F6D2D6C1B8D2F810F05DEBC
S1130B10992079F02C2D4B2D6D2D6D1B812F8C1B65
S1130B20FCDD2C2D41E04C0F6D2D6C1B812F8D1B9A
S1130B30F4DD882069F02C2D4B2D6D2D812F8C1B1D
S1130B40ECDD2C2D41E04C0F6D2D812F8D1BE5DD4F
S1130B50002369F02C2D4B2D6D2D8C2F810FDDDDA5
S1130B602C2D41E04C0F6D2D8D2F810FD6DDED2FF7
S1130B70F0E0F7FE08C0EE0FFF1FEE0FFF1F3696E2
S1130B80EE0EFF1E0AC0EC1BF109EE0FFF1FEE0F65
S1130B90FF1F3A96EE0EFF1EC150DF5FB394CD17D0
S1130BA008F0A5CFDF91CF911F910F91FF90EF90A7
S1130BB0DF90CF90BF90AF909F908F9008950F9348
S1130BC01F93CF93DF938C01862FD42FC22F01154F
S1130BD01105C1F06031B0F4403FA0F472D68D2FFE
S1130BE076D68C2F90E08D0F911D813F910514F0E6
S1130BF0C0EFCD1BCC2331F0F80181918F013FD69A
S1130C00C150F8CFDF91CF911F910F910895CF93E9
S1130C10DF93803158F4603F48F4D42FC62F51D667
S1130C208C2F55D68D2FDF91CF9129C6DF91CF918F
S1130C300895CF93803140F4603F30F4C62F41D6FD
S1130C408C2F45D6CF9128C680E0CF9108950F937D
S1130C501F93CF93DF938031D0F4603FC0F4022F11
S1130C60D42F162FE6DFC82F013041F020F00230D8
S1130C7031F4CD2704C0D095CD2301C0CD2B812FD5
S1130C8026D68C2FDF91CF911F910F91F8C5DF915C
S1130C90CF911F910F910895962F242F803F88F4B0
S1130CA067FD0FC0362F3770E1E0F0E0AF0101C0FF
S1130CB0440F3A95EAF7682F892F8695869586958D
S1130CC0C6CF08959F92AF92BF92CF92DF92EF92D8
S1130CD0FF920F931F93CF93DF93D82FC62ED42E5A
S1130CE0790100E0D90114962C91149713964C9134
S1130CF06D2D8C2DFBDDF701808181113FC0838137
S1130D00E82FE695E695E695877009F0EF5FD70141
S1130D101496CC911497EC9FF00111242D2F30E000
S1130D2015968C911597281B3109E29FC001E39F0A
S1130D30900DF29F900D112411960D911C91129714
S1130D40080F191FDC0E9D2C9C1AF701A380B12CEF
S1130D50D0E08D2F8C0DDA1579F09D2F977021F44A
S1130D60F801B4900F5F1F4FB7FE03C041E0692D37
S1130D7093DFBB0CDF5FEDCFC15029F7DF91CF913B
S1130D801F910F91FF90EF90DF90CF90BF90AF90A5
S1130D909F900895DF92EF92FF920F931F93CF934A
S1130DA0DF93D62ED42F79018C01C62FF8018191BF
S1130DB08F018A3031F4F70184818F5FD80FCD2DF4
S1130DC009C08D3039F097014D2F6C2F7BDFF7016F
S1130DD08381C80FF80180818111E8CFDF91CF9121
S1130DE01F910F91FF90EF90DF9008959895000068
S1130DF008951F920F920FB60F9211242F933F93D1
S1130E004F935F936F937F938F939F93AF93BF930E
S1130E10EF93FF93EBDFFF91EF91BF91AF919F9120
S1130E208F917F916F915F914F913F912F910F908F
S1130E300FBE0F901F9018951F920F920FB60F922E
S1130E4011242F933F934F935F936F937F938F93CB
S1130E509F93AF93BF93EF93FF93C8DFFF91EF91FD
S1130E60BF91AF919F918F917F916F915F914F91BE
S1130E703F912F910F900FBE0F901F9018951F92C6
S1130E800F920FB60F9211242F933F934F935F93BA
S1130E906F937F938F939F93AF93BF93EF93FF933E
S1130EA0A5DFFF91EF91BF91AF919F918F917F91BA
S1130EB06F915F914F913F912F910F900FBE0F90C3
S1130EC01F9018951F920F920FB60F9211242F9313
S1130ED03F934F935F936F937F938F939F93AF93BE
S1130EE0BF93EF93FF9382DFFF91EF91BF91AF9197
S1130EF09F918F917F916F915F914F913F912F912E
S1130F000F900FBE0F901F9018951F920F920FB65F
S1130F100F9211242F933F934F935F936F937F937B
S1130F208F939F93AF93BF93EF93FF935FDFFF91F3
S1130F30EF91BF91AF919F918F917F916F915F914D
S1130F404F913F912F910F900FBE0F901F901895C6
S1130F501F920F920FB60F9211242F933F934F932A
S1130F605F936F937F938F939F93AF93BF93EF930D
S1130F70FF933CDFFF91EF91BF91AF919F918F91D0
S1130F807F916F915F914F913F912F910F900FBE81
S1130F900F901F9018951F920F920FB60F92112465
S1130FA02F933F934F935F936F937F938F939F936D
S1130FB0AF93BF93EF93FF9319DFFF91EF91BF912D
S1130FC0AF919F918F917F916F915F914F913F91DD
S1130FD02F910F900FBE0F901F9018951F920F9294
S1130FE00FB60F9211242F933F934F935F936F93F8
S1130FF07F938F939F93AF93BF93EF93FF93F6DE0B
S1131000FF91EF91BF91AF919F918F917F916F91DC
S11310105F914F913F912F910F900FBE0F901F90B2
S113102018951F920F920FB60F9211242F933F938E
S11310308F939F938091550481FF44C085B18F7332
S1131040909140049F3060F4806490914A03923000
S113105019F09AE79093490392E090934A0324C0CD
S11310609F30C1F420913204309133042D5F3F4FFF
S11310702730310578F4806810924A039091450432
S113108020914803921781F09093480396E090933F
S113109049030AC090914A03911103C09EE19093C1
S11310A0490391E090934A0390914903992339F0BD
S11310B091509093490399E09093590402C010927F
S11310C0590485B99F918F913F912F910F900FBE35
S11310D00F901F9018951F920F920FB60F92112424
S11310E02F933F934F935F936F937F938F939F932C
S11310F0AF93BF93EF93FF9379DEFF91EF91BF918D
S1131100AF919F918F917F916F915F914F913F919B
S11311102F910F900FBE0F901F9018951F920F9252
S11311200FB60F9211242F933F934F935F936F93B6
S11311307F938F939F93AF93BF93EF93FF9356DE69
S1131140FF91EF91BF91AF919F918F917F916F919B
S11311505F914F913F912F910F900FBE0F901F9071
S113116018951F920F920FB60F9211242F933F934D
S11311704F935F936F937F938F939F93AF93BF939B
S1131180EF93FF9333DEFF91EF91BF91AF919F9166
S11311908F917F916F915F914F913F912F910F901C
S11311A00FBE0F901F9018951F920F920FB60F92BB
S11311B011242F933F934F935F936F937F938F9358
S11311C09F93AF93BF938091680490916904A09119
S11311D06A04B0916B040196A11DB11D809368044B
S11311E090936904A0936A04B0936B0480915504AE
S11311F081FF56C040915904442309F451C08091A1
S11312002E0490912F0495958795959587959C012B
S11312102559314F509156048091570490915804A8
S11312205523B1F0821B930B909358048093570479
S1131230823020EC920714F51092560422E030E834
S1131240B901681B790B709358046093570416C056
S1131250820F931F90935804809357048F3F7FE32A
S1131260970764F021E0209356042EEF3FE7B9017D
S1131270681B790B70935804609357042FE030E097
S1131280241B3109809157049091580402C095950C
S113129087952A95E2F79395909389008093880027
S11312A0BF91AF919F918F917F916F915F914F917A
S11312B03F912F910F900FBE0F901F9018951F9282
S11312C00F920FB60F9211242F933F934F935F9376
S11312D06F937F938F939F93AF93BF93EF93FF93FA
S11312E085DDFF91EF91BF91AF919F918F917F9198
S11312F06F915F914F913F912F910F900FBE0F907F
S11313001F9018951F920F920FB60F9211242F93CE
S11313103F934F935F936F937F938F939F93AF9379
S1131320BF93EF93FF9362DDFF91EF91BF91AF9174
S11313309F918F917F916F915F914F913F912F91E9
S11313400F900FBE0F901F9018951F920F920FB61B
S11313500F9211242F933F934F935F936F937F9337
S11313608F939F93AF93BF93EF93FF933FDDFF91D1
S1131370EF91BF91AF919F918F917F916F915F9109
S11313804F913F912F910F900FBE0F901F90189582
S11313901F920F920FB60F9211242F933F934F93E6
S11313A05F936F937F938F939F93AF93BF93EF93C9
S11313B0FF931CDDFF91EF91BF91AF919F918F91AE
S11313C07F916F915F914F913F912F910F900FBE3D
S11313D00F901F9018951F920F920FB60F92112421
S11313E02F933F934F935F936F937F938F939F9329
S11313F0AF93BF93EF93FF93F9DCFF91EF91BF910C
S1131400AF919F918F917F916F915F914F913F9198
S11314102F910F900FBE0F901F9018951F920F924F
S11314200FB60F9211242F933F934F935F936F93B3
S11314307F938F939F93AF93BF93EF93FF93D6DCE8
S1131440FF91EF91BF91AF919F918F917F916F9198
S11314505F914F913F912F910F900FBE0F901F906E
S113146018951F920F920FB60F9211242F933F934A
S11314704F935F936F937F938F939F93AF93BF9398
S1131480EF93FF93B3DCFF91EF91BF91AF919F91E5
S11314908F917F916F915F914F913F912F910F9019
S11314A00FBE0F901F9018958F929F92AF92BF928C
S11314B0CF92DF92EF92FF926B018130E1F5809041
S11314C0630490906404A0906504B090660420E0E6
S11314D030E0A901C501B4010E94591BE12CF12C93
S11314E08823D9F02EEE3CE74FE75FE3C501B40152
S11314F00E94FF1C4B015C01C701B6010E94F61B50
S11315002FE632E143E05BE30E94FF1C9B01AC0148
S1131510C501B4010E94F51A04C0C701B6010E94B6
S1131520F61BF894609363047093640480936504D9
S1131530909366043DC08330D9F580905F04909009
S11315406004A0906104B090620420E030E0A9013E
S1131550C501B4010E94591BE12CF12C8823D9F058
S11315602BE33FED4FE75FE3C501B4010E94FF1C8D
S11315704B015C01C701B6010E94F61B2FE632E164
S113158043E05AE30E94FF1C9B01AC01C501B40176
S11315900E94F51A04C0C701B6010E94F61BF89414
S11315A060935F0470936004809361049093620479
S11315B0FF90EF90DF90CF90BF90AF909F908F906F
S11315C008951F920F920FB60F921124CF92DF92BB
S11315D0EF92FF921F932F933F934F935F936F93D9
S11315E07F938F939F93AF93BF93CF93DF93EF93A7
S11315F0FF9310916704C091780080917900D0E046
S1131600D82B113059F030F0123079F483E0809304
S1131610670410C081E0809367040CC088EC809359
S11316207C0082E08093670405C080EC80937C009A
S1131630109267046091630470916404809165045E
S1131640909166040E94CA1B6B017C0160915F0447
S11316507091600480916104909162040E94CA1B9D
S113166078949B01A601BE01812F1EDFFF91EF91AB
S1131670DF91CF91BF91AF919F918F917F916F91A6
S11316805F914F913F912F911F91FF90EF90DF90C9
S1131690CF900F900FBE0F901F9018951F920F922E
S11316A00FB60F9211242F933F934F935F936F9331
S11316B07F938F939F93AF93BF93EF93FF9396DBA7
S11316C0FF91EF91BF91AF919F918F917F916F9116
S11316D05F914F913F912F910F900FBE0F901F90EC
S11316E018951F920F920FB60F9211242F933F93C8
S11316F04F935F936F937F938F939F93AF93BF9316
S1131700EF93FF9373DBFF91EF91BF91AF919F91A3
S11317108F917F916F915F914F913F912F910F9096
S11317200FBE0F901F9018951F920F920FB60F9235
S113173011242F933F934F935F936F937F938F93D2
S11317409F93AF93BF93CF93DF93EF93FF938091D6
S1131750B9006091BB00CCEBD0E04881887F0E9447
S1131760251785688883FF91EF91DF91CF91BF9111
S1131770AF919F918F917F916F915F914F913F9125
S11317802F910F900FBE0F901F9018951F920F92DC
S11317900FB60F9211242F933F934F935F936F9340
S11317A07F938F939F93AF93BF93EF93FF931EDB2E
S11317B0FF91EF91BF91AF919F918F917F916F9125
S11317C05F914F913F912F910F900FBE0F901F90FB
S11317D01895CF93DF931F92CDB7DEB78FB7898368
S11317E0F89489810F90DF91CF91089504C06150DE
S11317F07109810991096115710581059105B9F78F
S11318000895E7DF982F8FEF8BB91AB828982C9A90
S11318102D9A2D9889B19FBF0895CF93C82FD9DFF2
S1131820CBB99FEF9AB928982C982D9A2D988FBFF1
S1131830CF9108958DE2F1DF84E2EFDF8AEEEDDFF0
S113184081E8EBDF8CE9E9DF88ECE7DF88E8E5DFB6
S113185080E4E3DF80E9E1DF80EBDFDF80E0DDDFF0
S113186080E1DBDF81E080930B048FEED6DF8EEE28
S1131870D4DF84EAD2DF86EAD0DF8FEACECFCF93FB
S1131880C82FA7DFCBB99FEF9AB9289A2C982D9A25
S11318902D988FBFCF9108959CDF982F8FEF8BB930
S11318A01AB8289A2C9A2D9A2D9880910B04882383
S11318B019F089B12D9A2D9889B110920B049FBF0C
S11318C00895806BAADF81E080930B040895CF9381
S11318D0803F58F4C82F8F70A0DF8C2F82958F70B3
S11318E080619BDF81E080930B04CF91089580E0B9
S11318F094DF80E192DF81E080930B04089580EB14
S11319008CDFF5CFCF93DF93C0E08C2F806B85DF26
S113191080E083DF80E181DFD0EF80E0B0DFD15071
S1131920E1F7CF5FC03189F7DF91CF91E8CFFF9224
S11319300F931F93CF93DF936AE071E08BED93E0F5
S11319400E94951D23E031E04BE063E08BED93E0D2
S113195021DA67E171E08BED93E00E94951D23E0AD
S113196031E044E163E08BED93E014DA61E271E08D
S11319708BED93E00E94951D23E031E04DE163E09F
S11319808BED93E007DA1F921F921F921F9288E358
S113199091E09F938F931F9210E31F93CBEDD3E0BD
S11319A0DF93CF930E949C1D23E031E046E263E085
S11319B0CE01F0D91F921F921F921F921F921F9265
S11319C01F921F9280E591E09F938F931F921F9324
S11319D0DF93CF930E949C1D23E031E04FE263E04C
S11319E0CE01D8D91F921F921F921F9283E791E0D4
S11319F09F938F931F921F93DF93CF930E949C1DFD
S1131A008DB79EB782960FB6F8949EBF0FBE8DBF5A
S1131A1023E031E048E363E0CE01BCD91F921F927A
S1131A201F921F9288E891E09F938F931F921F93B8
S1131A30DF93CF930E949C1D23E031E048E36BE7E2
S1131A40CE01A8D91F921F921F921F921F921F921C
S1131A508EE991E09F938F931F921F93DF93CF930F
S1131A600E949C1D23E031E041E463E0CE0192D961
S1131A701F921F921F921F928BEC91E09F938F9362
S1131A801F921F93DF93CF930E949C1D8DB79EB727
S1131A9080960FB6F8949EBF0FBE8DBF23E031E051
S1131AA04AE463E0CE0176D91F921F921F921F92DF
S1131AB08FED91E09F938F931F921F93DF93CF93AA
S1131AC00E949C1D23E031E043E563E0CE0162D92E
S1131AD01F921F921F921F921F920EE70F931F9245
S1131AE01F921F9280E2F82EFF9287EF91E09F935E
S1131AF08F931F921F93DF93CF930E949C1D23E02B
S1131B0031E04CE563E0CE0145D91F921F921F924C
S1131B101F921F920F931F921F921F92FF9286E1B2
S1131B2092E09F938F931F921F93DF93CF930E9412
S1131B309C1D8DB79EB78A960FB6F8949EBF0FBEB4
S1131B408DBF23E031E045E663E0CE0123D91F9247
S1131B501F921F921F9284E392E09F938F931F9290
S1131B601F93DF93CF930E949C1D23E031E04EE648
S1131B7063E0CE010FD91F920F931F921F928AE444
S1131B8092E09F938F931F921F93DF93CF930E94B2
S1131B909C1D23E031E04EE66FE9CE01FBD88DB702
S1131BA09EB744960FB6F8949EBF0FBE8DBF23E038
S1131BB031E047E763E089E592E0DF91CF911F913F
S1131BC00F91FF90E7C83F924F925F926F927F927E
S1131BD08F929F92AF92BF92CF92DF92EF92FF9239
S1131BE00F931F93CF93DF93F4DDC82FF894909154
S1131BF02A0492FF2EC09B7F90932A04809145046F
S1131C001F928F93809144041F928F938091430479
S1131C101F928F9383E692E09F938F931F9280E3AA
S1131C208F938BED93E09F938F930E949C1DCFBF66
S1131C3023E031E04DE16FE38BED93E0ABD88DB75A
S1131C409EB70C960FB6F8949EBF0FBE8DBF8FEF54
S1131C5000C491FF30C09D7F90932A048091310489
S1131C608F93809130048F93809141041F928F93BE
S1131C70809142041F928F9382E792E09F938F9307
S1131C801F9280E38F938BED93E09F938F930E9439
S1131C909C1DCFBF23E031E044E16FE38BED93E083
S1131CA079D88DB79EB70C960FB6F8949EBF0FBE29
S1131CB08DBF8EEFCEC3892F817090FF54C19E7F5C
S1131CC090932A04CFBFC0912E04D0912F04A090EA
S1131CD02C04B0902D0490904004C13596E4D907AB
S1131CE09CF4C03B89EBD8072CF0C53991E1D907A6
S1131CF01CF00FC0C0EBD9EBBE01CC368EEED8077A
S1131D0054F46CE67EEE07C0C0E5D6E460E576E404
S1131D1002C060E576E4072E000C880B990B0E9444
S1131D20F81B20E030EA4CE855E40E945D1B20E0FB
S1131D3030E048E952E40E94FF1C0E94C51B2B01BD
S1131D403C017B0177FF08C036E9832E860ECC2444
S1131D50DD24C61AD70A03C06B0126E9822E1F921E
S1131D609F9281E892E09F938F931F9290E3392E84
S1131D703F920BED13E01F930F930E949C1D23E0F1
S1131D8031E04BE06BE4C80105D8C50168EE73E0AF
S1131D900E946E1D9F938F937F936F9385E892E0CB
S1131DA09F938F931F923F921F930F930E949C1DAA
S1131DB023E031E048E36DEBC8010E94CA06CE017E
S1131DC064E670E00E94821D7F936F938EE892E038
S1131DD09F938F931F923F921F930F930E949C1D7A
S1131DE023E031E04EE669ECC8010E94CA068DB7D3
S1131DF09EB74A960FB6F8949EBF0FBE8DBF8091D2
S1131E005503891122C0C114D104F9F0442D1E14C4
S1131E101F040CF440E0D42DF7FCD0E097E09916B1
S1131E2009F462C0991568F08FEF890D833008F0CA
S1131E3096C001E021E048E96AE78AE40E9476045A
S1131E408EC08FE0981699F08AC000E025E040EA41
S1131E5068E786E40E947604C114D104B9F601E06F
S1131E602CE746E968E786E90E94E40378C0405B12
S1131E7000E025E068E786E40E947604F7FE0FC0E0
S1131E8001E028E7482D6AE7CCEFC80D8C2F0E94AB
S1131E90E4032CE7482D6AE78C2F0E94E40301E059
S1131EA025E04C2D68E7882D0E94760440E54D1B03
S1131EB000E025E068E786E98D0F0E9476041E1491
S1131EC01F040CF04CC0C5E9CD0FD75601E028E73C
S1131ED04C2F6AE78D2F0E94E4032CE74C2F6AE70E
S1131EE08D2F0E94E4033BC0405B00E023E069E7E0
S1131EF086E40E947604F7FE0FC001E029E7482D2E
S1131F006AE7CCEFC80D8C2F0E94E4032BE7482D21
S1131F106AE78C2F0E94E40301E023E04C2D69E77B
S1131F20882D0E94760440E54D1B00E023E069E71C
S1131F3086E98D0F0E9476041E141F0484F4C5E9FB
S1131F40CD0FD75601E029E74C2F6AE78D2F0E9469
S1131F50E4032BE74C2F6AE78D2F0E94E403909251
S1131F6055038DEF76C296FF36C0209101012230D1
S1131F7090F59F7B90932A0480914B041F928F933A
S1131F8080914A041F928F93809149041F928F93EA
S1131F9084E992E09F938F931F9280E38F938BED5C
S1131FA093E09F938F930E949C1DCFBF23E031E069
S1131FB041E46DE58BED93E00E94CA0682E08093D4
S1131FC001018DB79EB70C960FB6F8949EBF0FBE55
S1131FD08DBF81E03EC297FF47C0209101012330AD
S1131FE008F042C080912A048F7780932A042091BC
S1131FF0380430913904C90164E670E00E946E1D12
S11320009F938F93B90180E090E00E94F61B20E03B
S113201030E048EC52E40E945D1B0E94C51B7F9394
S11320206F9385ED91E09F938F931F9280E38F933D
S11320308BED93E09F938F930E949C1DCFBF23E071
S113204031E04AE46FE38BED93E00E94CA0683E03B
S1132050809301018DB79EB70A960FB6F8949EBF80
S11320600FBE8DBF82E0F5C120912B0420FF32C04A
S113207030910101343070F52E7F20932B04809130
S11320804D041F928F9380914C041F928F938CEE7A
S113209091E09F938F931F9280E38F938BED93E056
S11320A09F938F930E949C1DCFBF23E031E043E5B3
S11320B061E58BED93E00E94CA0684E08093010100
S11320C08DB79EB70A960FB6F8949EBF0FBE8DBF0C
S11320D083E0BFC121FF41C0309101013530E8F5F3
S11320E080912B048D7F80932B0480913B048F93EC
S11320F080913A048F93809150041F928F931F9282
S11321008EE78F9380914F041F928F9380914E049A
S11321101F928F938DEA92E09F938F931F9280E397
S11321208F938BED93E09F938F930E949C1DCFBF61
S113213023E031E04CE56FE38BED93E00E94CA06A7
S113214085E0809301018DB79EB740960FB6F89451
S11321509EBF0FBE8DBF84E07CC122FF41C0309181
S113216001013630E8F580912B048B7F80932B049A
S113217080913D048F9380913C048F93809153040C
S11321801F928F931F928EE78F93809152041F9218
S11321908F93809151041F928F9381EC92E09F93CF
S11321A08F931F9280E38F938BED93E09F938F9394
S11321B00E949C1DCFBF23E031E045E66FE38BED29
S11321C093E00E94CA0686E0809301018DB79EB712
S11321D040960FB6F8949EBF0FBE8DBF85E039C1FF
S11321E023FF36C020910101273090F580912B0404
S11321F0877F80932B04809154041F928F93809146
S11322003F048F9380913E048F9384ED92E09F93DB
S11322108F931F9280E38F938BED93E09F938F9323
S11322200E949C1DCFBF23E031E04EE66FE38BEDAF
S113223093E00E94CA0687E0809301018DB79EB7A0
S11322400A960FB6F8949EBF0FBE8DBF86E001C1FB
S113225093FF38C0209101012830A0F580912A0411
S1132260877F80932A04809135048F93809134046E
S11322708F93809133048F93809132048F938DEDEB
S113228092E09F938F931F9280E38F938BED93E063
S11322909F938F930E949C1DCFBF23E031E046E2C1
S11322A06FE38BED93E00E94CA0688E080930101FE
S11322B08DB79EB70A960FB6F8949EBF0FBE8DBF1A
S11322C087E0C7C094FF89C020910101293008F03C
S11322D084C0F09046046091470480912A048F7E64
S11322E080932A04CFBF70E080E090E00E94F81B46
S11322F02B013C0120E030E04AE750E40E94FF1C3F
S11323000E94C51B7F936F931F92FF9207EE12E00A
S11323101F930F931F9280E3B82EBF92CBEDD3E0AF
S1132320DF93CF930E949C1D23E031E04FE26FE3E3
S1132330CE010E94CA066F2D70E080E090E00E94FA
S1132340F61B6B017C0120E030E040E85BE3C30155
S1132350B2010E94FF1C9B01AC01C701B6010E949F
S1132360F51A20E030E048EC5EE30E94FF1C6B01AC
S11323707C010E94331C9B01AC01C701B6010E9481
S1132380F41A20E030E04AE754E40E94FF1C0E9463
S1132390C51B7F936F93C701B6010E94C51B7F9332
S11323A06F931F930F931F92BF92DF93CF930E945B
S11323B09C1D23E031E04FE26DE8CE010E94CA0685
S11323C089E0809301018DB79EB744960FB6F894C7
S11323D09EBF0FBE8DBF88E03CC095FF36C0909174
S11323E001019A3090F580912A048F7D80932A040C
S11323F0809137048F93809136048F9380914804A1
S11324001F928F9385E892E09F938F931F9280E3AE
S11324108F938BED93E09F938F930E949C1DCFBF6E
S113242023E031E048E36FE38BED93E00E94CA06BA
S11324308AE0809301018DB79EB70A960FB6F8948F
S11324409EBF0FBE8DBF89E004C091E0909301014F
S1132450CFBFDF91CF911F910F91FF90EF90DF904D
S1132460CF90BF90AF909F908F907F906F905F9030
S11324704F903F900895EF92FF920F931F93CF9345
S1132480DF9383EC9FEF9093DA038093D90381E089
S11324908093D80320E030E08BE0E82EF12CC0E4F8
S11324A048EFD8EC18ED0FED2115310519F4109211
S11324B0930343C0233031055CF4F901ED56FC4F1E
S11324C040832F5F3F4FF901ED56FC4F108335C019
S11324D0253031052CF4F901ED56FC4F00832DC055
S11324E02B3031052CF4F901ED56FC4F108325C037
S11324F020313105E4F02C33310519F41092CF0367
S11325001CC0C9014097B7010E94821DF901ED5614
S1132510FC4F892B89F4C083C183C28343834483E2
S1132520D58346834783D0874187265F3F4FF90190
S1132530ED56FC4F408301C010822F5F3F4F2D3377
S113254031050CF4B1CFA3E9B3E0E3E9F3E08D91F5
S1132550829383E0E635F807D1F700E028E040EF06
S113256068E780E00E947604DF91CF911F910F917C
S1132570FF90EF900895CF92DF92EF92FF920F9326
S11325808091D803882309F480C1E8D56B017C01CC
S11325902091D0033091D1034091D2035091D303C1
S11325A00E94F41A2AE037ED43E25DE30E94FB1C2B
S11325B087FD5BC0C092D003D092D103E092D203D6
S11325C0F092D3038091D803E091D903F091DA0318
S11325D0E80FF11D87FDFA95F093DA03E093D90330
S11325E0EA3B8FEFF80724F481E08093D80306C018
S11325F0EA3FF1051CF08FEF8093D8038091D80354
S113260087FF1AC0E03FF10540F42DE34E2F6FE041
S113261083E993E00E94DF0528C0CF01CC96CC97D4
S113262020F52DE32E0F40E06FE083E993E08E1B4D
S11326309F0B0E94DF0519C0E03FF10540F42DE334
S11326404E2F6FE086E593E00E94DF050EC0CF01B8
S1132650CC96CC9750F42DE32E0F40E06FE086E546
S113266093E08E1B9F0B0E94DF052091D4033091D1
S1132670D5034091D6035091D703C701B601B4D70F
S113268020E030E040E05FE30E94FB1C87FDC4C013
S1132690C092D403D092D503E092D603F092D7032C
S11326A0A8D597D8C0905B04D0905C04E0905D04FA
S11326B0F0905E048FBF20E030E0A901C701B601AD
S11326C0F8D787FF03C0C12CD12C76012091510388
S11326D0309152034091530350915403C701B60102
S11326E083D79F772AE037ED43E25CE3E2D787FDA7
S11326F03CC0C0925103D0925203E0925303F09233
S1132700540320E030E048EC52E4C701B6010E94D3
S1132710FF1C0E94C51BCB0164E670E00E94821D71
S11327209F938F93C701B6010E94C51B7F936F933C
S113273080EF92E09F938F931F9280E38F938BEDB2
S113274093E09F938F930E949C1D23E031E049E620
S113275060EA8BED93E00E94CA068DB79EB70A9695
S11327600FB6F8949EBF0FBE8DBF33D8C0906304DC
S1132770D0906404E0906504F09066048FBF2091CB
S11327804D0330914E0340914F0350915003C701C4
S1132790B6012AD79F772DEC3CEC4CEC5DE389D74E
S11327A087FD3AC0C0924D03D0924E03E0924F038E
S11327B0F092500320E030E040E251E4C701B6015A
S11327C00E94FF1CE2D7CB016AE070E00E94821DE8
S11327D09F938F93C701B601D8D77F936F9381E0FE
S11327E093E09F938F931F9280E38F938BED93E0FD
S11327F09F938F930E949C1D23E031E04FE560EA94
S11328008BED93E00E94CA068DB79EB70A960FB669
S1132810F8949EBF0FBE8DBF20914B0330914C03A3
S1132820F9013196F0934C03E0934B03809100013E
S1132830223131056CF463E00E94621D2BE12E1BF2
S11328406AE06E0F092F4FEE80E00E94E4031DC082
S1132850E23091E0F9076CF463E00E94621D41E00C
S11328604E1B092F2AE06BE18EEE8E0F0E94E403CB
S11328700CC010924C0310924B038F5F833018F4FA
S11328808093000102C0109200010F91FF90EF901D
S1132890DF90CF900895EF92FF920F931F93CF9301
S11328A0C82F80FD03C0C1FF25C008C010E0812FE0
S11328B00E943F0C1F5F103FD1F7F5CF82E001D893
S11328C016D800E010E087E0E82EF12CC801B7012B
S11328D00E94821D892B19F480E00E943F0CF801AC
S11328E0E851FC4F84910E943F0C0F5F1F4F003F43
S11328F0110561F7C2FF2DC041E068E284E00E9447
S11329004C0641E069E285E00E944C0641E06AE23F
S113291086E00E944C0641E06BE287E00E944C0690
S113292041E06CE286E00E944C0641E06DE285E005
S11329300E944C0641E06EE286E00E944C0641E0B3
S11329406FE287E00E944C0641E060E388E00E9469
S11329504C06C3FF07C001E02FE14FEE60E180E0C9
S11329600E94E403C4FF0DC001E028E248E260E3F2
S113297086E40E94530428E248E260E38AEA0E9463
S11329807604C5FF0DC00FEF21E04AE060E58AE060
S11329900E94900421E04AE060E588E20E9440053C
S11329A0C6FF08C023E031E040E266E48FE093E034
S11329B00E94CA06C7FF0CC05EDD80915504816089
S11329C080935504CF911F910F91FF90EF90D3CD39
S11329D0CF911F910F91FF90EF9008959091400433
S11329E098130EC020912C0430912D04261737071C
S11329F039F420912E0430912F042417350779F0EF
S1132A0090912A04916090932A04809340047093D7
S1132A102D0460932C0450932F0440932E040895A6
S1132A2020913004309131042817390771F4209132
S1132A30410430E0E62F062E000CFF0B2E173F0753
S1132A4021F420914204241769F020912A04226081
S1132A5020932A04909331048093300460934104BA
S1132A604093420408959091430498130EC020911A
S1132A70440430E0E62F062E000CFF0B2E173F0710
S1132A8021F490914504941759F090912A0494608C
S1132A9090932A0480934304609344044093450430
S1132AA0089520913204309133042817390739F4FA
S1132AB020913404309135042617370769F02091AA
S1132AC02A04286020932A049093330480933204C8
S1132AD070933504609334040895909146049813D8
S1132AE004C090914704961749F090912A0490618C
S1132AF090932A0480934604609347040895909128
S1132B004804981307C020913604309137042617DF
S1132B10370759F090912A04906290932A04809385
S1132B2048047093370460933604089590914904DF
S1132B30981308C090914A04961304C090914B04D2
S1132B40941759F090912A04906490932A048093E6
S1132B50490460934A0440934B0408952091380437
S1132B60309139042817390749F020912A04206844
S1132B7020932A0490933904809338040895909103
S1132B804C04981304C090914D04961749F0909109
S1132B902B04916090932B0480934C0460934D0418
S1132BA0089590914E0498130FC090914F0496137A
S1132BB00BC090915004941307C0E0913A04F09133
S1132BC03B04E217F30779F090912B049260909301
S1132BD02B0480934E0460934F044093500430932D
S1132BE03B0420933A0408959091510498130FC024
S1132BF09091520496130BC090915304941307C000
S1132C00E0913C04F0913D04E217F30779F09091D0
S1132C102B04946090932B0480935104609352048A
S1132C204093530430933D0420933C040895209131
S1132C303E0430913F042817390721F420915404AD
S1132C40261759F020912B04286020932B0490938D
S1132C503F0480933E0460935404089583E091E01C
S1132C60089582EE0E940D0C6BE278E680E090E01D
S1132C700E94F60B0E94010C87FD06C00E941A0CEC
S1132C800E94820C80E0089581E0089582EE0E9403
S1132C900D0C6BE67AE080E090E00C94F60B20914A
S1132CA02404222361F0822F90E0FC01E65EFB4FB6
S1132CB010820197D0F720932204109224040895DF
S1132CC08091120490911104923209F0BDC0909148
S1132CD055049E7F90935504853809F46CC0A8F47C
S1132CE0813809F445C028F4813019F1803869F13C
S1132CF00895833809F449C008F058C04091150478
S1132D006091140480911304AECE8A3809F46EC025
S1132D1038F4883809F45AC0893809F45EC0089533
S1132D208C3809F477C008F466C08D3809F481C082
S1132D30089590911904911187C01092120490E1A2
S1132D40909311048093100408954091170450E067
S1132D50542F442780911604482B6091150470E089
S1132D60762F662780911404682B8091130436CE45
S1132D708091140490E0982F8827209113044091A7
S1132D80160460911504822B4BCE6091160470E0FA
S1132D90762F662780911504682B8091140490E0A7
S1132DA0982F882720911304822B7BCE60911404E2
S1132DB08091130492CE6091150470E0762F6627FB
S1132DC080911404682B8091130499CE40911504CA
S1132DD06091140480911304A9CE8091140490E0AE
S1132DE0982F882720911304822BB8CE6091140465
S1132DF080911304C4CE2091170430E0322F22278F
S1132E0080911604282B409115046091140480913C
S1132E101304C7CE2091170430E0322F222780916B
S1132E201604282B40911504609114048091130416
S1132E30DBCE8091140490E0982F8827209113040E
S1132E4060911504822BF3CE08951F93CF93DF93E3
S1132E50D62FC42FC574883609F495C008F045C030
S1132E60803309F486C060F5803109F46DC0F0F454
S1132E70882309F45AC1883009F057C181E080934E
S1132E80230410920F0482E080930E0484E2809362
S1132E901A0484E380931B0486E580931C0488E76A
S1132EA080931D048AE980931E044EC0803209F485
S1132EB063C0883209F44CC0883109F036C145C07A
S1132EC0883409F45DC038F4883309F457C0803479
S1132ED009F456C02AC1883509F452C0803609F471
S1132EE051C0803509F021C14BC0803A09F4E6C0D5
S1132EF0B0F4803809F461C038F4803709F452C062
S1132F00883709F450C011C1803909F457C0883991
S1132F1009F4C0C0883809F008C10000BBC0883B70
S1132F2009F4E6C038F4883A09F4D3C0803B09F4C4
S1132F30D1C0FBC0883C09F4F5C0883F09F4F5C052
S1132F40803C09F0F2C0EEC00000E0910F0406C01E
S1132F50E0910F0480910E04E81758F481E08E0F7D
S1132F6080930F04F0E0E65EFB4F80818093BB000A
S1132F70E2C01092230493DEC061DDC0C062DBC0F6
S1132F800000D9C0000011E01093190440E068E08B
S1132F9081E194E023D1D695D093110410930D04CC
S1132FA0C064C9C0000081E080931904D695D09311
S1132FB0110480930D04C064BEC0000080910C0411
S1132FC08F3009F460C090910D049F3008F05FC009
S1132FD0E92FF0E0EF5EFB4FD083913009F049C058
S1132FE080911104803349F480911204829586956E
S1132FF087708F5F80930C043EC08232E1F510929B
S11330000C0410920E0480911204843811F178F4A7
S1133010803859F148F48823C1F0813061F58093F8
S11330200C0480930E0427C08238D9F416C08B3860
S113303038F4893870F4853881F0883871F01BC011
S11330408D3898F08D3849F016C081E080930C04D7
S113305012C083E080930C040EC084E080930C04BF
S11330600AC085E080930C0406C086E080930C04BB
S113307002C09E3060F49F5F90930D0480910C0415
S1133080891728F024C0D093130410920D04C42F80
S1133090C57051C01092190480910C048F3009F04E
S11330A00FDE10920D0410920C0440E068E081E100
S11330B094E094D010921904C0643DC01092190495
S11330C080910C048F3009F0FBDD10920D04C06474
S11330D032C0000081E08093190410920F04909193
S11330E00E049923A1F080930F048091110410C061
S11330F0E0910F0480910E04E81748F481E08E0FEC
S113310080930F04F0E0EF5EFB4F808101C080E00C
S11331108093BB0090910E0480910F04891708F0EE
S1133120B6CFD5CF10921904D2CF00001092230449
S113313010921904C0658C2FDF91CF911F910895CF
S11331400895CF93DF931F92CDB7DEB78FB78983EE
S1133150F89489810F90DF91CF9108958F929F9277
S1133160AF92BF92CF92DF92EF92FF92EADF9091FB
S1133170840020918500C0906804D0906904E09098
S11331806A04F0906B048FBF892F90E0922BBC01EE
S1133190990F880B990B2CD320E034E244EF5AE4C6
S11331A08CD24B015C01C701B60120D320E030E092
S11331B040E054E424D420E034E244EF5AE47DD2E5
S11331C09B01AC01C501B40110D2FF90EF90DF90D8
S11331D0CF90BF90AF909F908F90089570E061154D
S11331E0710531F0FC014193CF0161507109F7CFB2
S11331F008954F925F926F927F928F929F92AF92B7
S1133200BF92DF92EF92FF920F931F93CF93DF93BE
S1133210CDB7DEB7A8970FB6F894DEBF0FBECDBF0B
S113322090DF40905F04509060046090610470905F
S113323062048090630490906404A0906504B0904C
S113324066041091550410FBEE24E0F816951170F5
S11332508FBF77DFF82E29E137EC4FEA53E4C3013F
S1133260B201C2D120E030EA47E85FE3C8D320E0EE
S113327030E048EC51E4B9D160935B0470935C0492
S113328080935D0490935E04FFBEC501B40182D2B5
S1133290663B23E0720700F580E090E0A7D220E0CF
S11332A030E040E251E4A0D120E030E84DE654E4BF
S11332B004D220E030E045E753E4A1D320E030E03D
S11332C040E251E492D166D26093B3008091B000A1
S11332D080688093B00007C01092B3008091B00062
S11332E08F738093B00088E2D82E112321F00E94BE
S11332F0E30DF82E01C0F12CEE2011F03CD929C0C9
S113330080910201882329F1109202010E94820C0B
S113331001E020E840EF60E080E00E945304E0E236
S1133320F3E0DE0111968D2D01900D928A95E1F75F
S113333095DC9C0142E063E0CE0101960E94CA063E
S11333400E94970CFEDE9091550492609093550470
S11333508FBFF110CACFA8960FB6F894DEBF0FBE88
S1133360CDBFDF91CF911F910F91FF90EF90DF9030
S1133370BF90AF909F908F907F906F905F904F9091
S11333800895CF93DF938EE788B988E087B984E105
S113339085B98BEF84B98FEF8BB91AB8C1E0C093AC
S11333A07E000E94EA028BEE80936400D3E8D3BDD2
S11333B068E080E00E94030382E88093800089E053
S11333C080938100109285001092840010928900ED
S11333D080E880938800C0936F0087E286BB60E436
S11333E080E00E940303D093B00085E08093B10095
S11333F01092B2001092B300C093700087E087BBB4
S11334001092B60061E080E00E940303C0937E0046
S113341087E880937A0080EC80937C0080917A0026
S1133420806180937A0080917A00886080937A002A
S113343080917B00887F866080937B0080917A00F6
S1133440806280937A007CDE84B7982F977011F4A1
S113345081112BC076DEF8941092670410926304F5
S113346010926404109265041092660410925F0432
S113347010926004109261041092620440E050E0E3
S113348068EC71E440935B0450935C0460935D04C6
S113349070935E0490E490935A04909155049E7F37
S11334A09D7F909355048FBF0DC090E0A0E0B0E0E5
S11334B08093260490932704A0932804B0932904AE
S11334C00E94F60660E880E00E9403033ADE109250
S11334D0B90092E09093B80094E49093BA001092EB
S11334E0BD0095E49093BC008FBF789413BCB9DB06
S11334F081EFD1D981E080932504C1E08091250436
S1133500882339F076DEC3BF889583B78E7F83BF67
S1133510F5CFBCDBF89480B7806880BF64E080E0BE
S11335200E94190362E080E00E9419030ADE94E01D
S11335309093BC003C98449A3D98459A1092BC00E4
S11335408FBF60E880E00E94190380917A00877F32
S113355080937A0080917A008F7D80937A008091A5
S11335607B00887F80937B0010927C0010927E0009
S113357061E080E00E941903E4DDC82F60E280E08E
S11335800E941903219829981092800010928100BA
S11335901092820010926F0068E080E00E9419038C
S11335A0239A2B981092B0001092B10010927000E0
S11335B01092B60060E480E00E941903C2DD5F93BC
S11335C050E85093610050E0509361005F918FBFC9
S11335D0CFBF89E083BF889583B78E7F83BF80E0A8
S11335E090E0DF91CF9108955058BB27AA270ED0C1
S11335F0B1C1A2D130F0A7D120F031F49F3F11F432
S11336001EF497C10EF4E095E7FB64C1E92FB3D132
S113361080F3BA17620773078407950718F071F4EB
S11336209EF5E2C10EF4E0950B2EBA2FA02D0B01EE
S1133630B90190010C01CA01A0011124FF27591BF3
S113364099F0593F50F4503E68F11A16F040A22FF9
S1133650232F342F4427585FF3CF4695379527956A
S1133660A795F0405395C9F77EF41F16BA0B620B69
S1133670730B840BBAF09150A1F0FF0FBB1F661FB0
S1133680771F881FC2F70EC0BA0F621F731F841FF3
S113369048F4879577956795B795F7959E3F08F019
S11336A0B3CF9395880F08F09927EE0F97958795D8
S11336B00895ECD008F481E008950CD04BC143D1B7
S11336C040F03AD130F021F45F3F19F003C15111B9
S11336D08CC12FC150D198F39923C9F35523B1F369
S11336E0951B550BBB27AA2762177307840738F06D
S11336F09F5F5F4F220F331F441FAA1FA9F333D0CC
S11337000E2E3AF0E0E830D091505040E695001C7F
S1133710CAF729D0FE2F27D0660F771F881FBB1F3B
S1133720261737074807AB07B0E809F0BB0B802D15
S1133730BF01FF2793585F4F2AF09E3F510568F061
S1133740C9C053C15F3FECF3983EDCF3869577958F
S11337506795B795F7959F5FC9F7880F911D969563
S1133760879597F90895E1E0660F771F881FBB1FBF
S1133770621773078407BA0720F0621B730B840B6C
S1133780BA0BEE1F88F7E095089504D06894B11140
S11337902CC10895F8D088F09F5790F0B92F99273D
S11337A0B751A0F0D1F0660F771F881F991F1AF048
S11337B0BA95C9F712C0B13081F016D1B1E00895BD
S11337C013C1672F782F8827B85F39F0B93FCCF33E
S11337D0869577956795B395D9F73EF4909580953E
S11337E0709561957F4F8F4F9F4F0895E89409C05E
S11337F097FB3EF490958095709561957F4F8F4F20
S11338009F4F9923A9F0F92F96E9BB279395F69535
S1133810879577956795B795F111F8CFFAF4BB0FB3
S113382011F460FF1BC06F5F7F4F8F4F9F4F16C017
S1133830882311F096E911C0772321F09EE8872FA1
S1133840762F05C0662371F096E8862F70E060E05D
S11338502AF09A95660F771F881FDAF7880F9695D6
S1133860879597F90895A9D080F09F3740F4911176
S11338700EF0BBC060E070E080E89FEB089526F492
S11338801B16611D711D811D2BC045C0990F0008B9
S1133890550FAA0BE0E8FEEF16161706E807F9071E
S11338A0C0F012161306E407F50798F0621B730BB9
S11338B0840B950B39F40A2661F0232B242B252B3A
S11338C021F408950A2609F4A140A6958FEF811DDD
S11338D0811D089597F99F6780E870E060E008957E
S11338E0882371F4772321F09850872B762F07C013
S11338F0662311F499270DC09051862B70E060E087
S11339002AF09A95660F771F881FDAF7880F969525
S1133910879597F908959F3F31F0915020F487954A
S113392077956795B795880F911D9695879597F923
S113393008959FEF80EC089500240A941616170644
S113394018060906089500240A941216130614068C
S113395005060895092E0394000C11F4882352F0EF
S1133960BB0F40F4BF2B11F460FF04C06F5F7F4FA7
S11339708F4F9F4F089557FD9058440F551F59F08E
S11339805F3F71F04795880F97FB991F61F09F3F48
S113399079F087950895121613061406551FF2CF71
S11339A04695F1DF08C0161617061806991FF1CFC1
S11339B086957105610508940895E5DFA0F0BEE7DA
S11339C0B91788F4BB279F3860F41616B11D672F0A
S11339D0782F8827985FF7CF869577956795B11DDF
S11339E093959639C8F30895E894BB2766277727FB
S11339F0CB0197F908954ADF08F48FEF08950BD0AF
S1133A00A9CF9ADF28F09FDF18F0952309F062CF41
S1133A1090CF1124EACFAFDFA0F3959FD1F3950F98
S1133A2050E0551F629FF001729FBB27F00DB11D3E
S1133A30639FAA27F00DB11DAA1F649F6627B00DCE
S1133A40A11D661F829F2227B00DA11D621F739FB7
S1133A50B00DA11D621F839FA00D611D221F749FC5
S1133A603327A00D611D231F849F600D211D822F0C
S1133A70762F6A2F11249F5750408AF0E1F0882353
S1133A804AF0EE0FFF1FBB1F661F771F881F915060
S1133A905040A9F79E3F510570F01CCFA6CF5F3F61
S1133AA0ECF3983EDCF3869577956795B795F79593
S1133AB0E7959F5FC1F7FE2B880F911D969587951B
S1133AC097F90895991B79E004C0991F961708F097
S1133AD0961B881F7A95C9F780950895AA1BBB1B6E
S1133AE051E107C0AA1FBB1FA617B70710F0A61BFA
S1133AF0B70B881F991F5A95A9F780959095BC011B
S1133B00CD01089597FB072E16F4009406D077FD97
S1133B1008D0E4DF07FC05D03EF4909581959F4FD3
S1133B200895709561957F4F0895FB01DC01019024
S1133B300D920020E1F70895AEE0B0E0E1EAFDE186
S1133B40A5C20D891E898F89988D26E02C831A833E
S1133B50098397FF02C080E090E801979E838D83DC
S1133B60AE01455E5F4F698D7A8DCE01019611D00D
S1133B704D815E8157FD0AC02F8138854217530756
S1133B800CF49A01F801E20FF31F10822E96E4E080
S1133B9099C2ACE0B0E0EEECFDE16AC27C016B01DD
S1133BA08A01FC0117821682838181FFB0C1CE0194
S1133BB001964C01F7019381F60193FD859193FFE2
S1133BC081916F01882309F49EC1853239F493FDF4
S1133BD0859193FF81916F01853221F4B70190E0C3
S1133BE0B1D1E8CF512C312C20E02032A0F48B321B
S1133BF069F030F4803259F0833269F420612CC0CA
S1133C008D3239F0803339F4216026C0226024607B
S1133C1023C0286021C027FD27C030ED380F3A307B
S1133C2078F426FF06C0FAE05F9E300D1124532E6F
S1133C3013C08AE0389E300D1124332E20620CC04C
S1133C408E3221F426FD5FC1206406C08C3611F447
S1133C50206802C0883641F4F60193FD859193FFF4
S1133C6081916F018111C1CF982F9F7D955493301D
S1133C7028F40C5F1F4FFFE3F9830DC0833631F046
S1133C80833771F0833509F057C021C0F801808172
S1133C9089830E5F1F4F44244394512C540114C054
S1133CA03801F2E06F0E711CF801A080B18026FF8C
S1133CB003C0652D70E002C06FEF7FEFC5012C8754
S1133CC036D12C0183012C852F77222E16C0380182
S1133CD0F2E06F0E711CF801A080B18026FF03C0D2
S1133CE0652D70E002C06FEF7FEFC5012C8714D102
S1133CF02C012C852068222E830123FC19C0832DDE
S1133D0090E048165906A0F4B70180E290E01AD179
S1133D103A94F5CFF50127FC859127FE81915F0147
S1133D20B70190E00FD131103A94F1E04F1A5108E5
S1133D304114510479F7DEC0843611F0893631F527
S1133D40F80127FF07C060817181828193810C5F34
S1133D501F4F08C060817181072E000C880B990BDE
S1133D600E5F1F4F2F76722E97FF09C09095809596
S1133D70709561957F4F8F4F9F4F2068722E2AE078
S1133D8030E0A40117D1A82EA81843C0853729F420
S1133D902F7EB22E2AE030E025C0F22FF97FBF2E0D
S1133DA08F36C1F018F4883579F0ADC0803719F03A
S1133DB0883721F0A8C02F2F2061B22EB4FE0DC089
S1133DC08B2D8460B82E09C024FF0AC09F2F9660F3
S1133DD0B92E06C028E030E005C020E130E002C082
S1133DE020E132E0F801B7FE07C060817181828171
S1133DF093810C5F1F4F06C06081718180E090E069
S1133E000E5F1F4FA401D6D0A82EA818FB2DFF7754
S1133E107F2E76FE0BC0372D3E7FA51450F474FE22
S1133E200AC072FC08C0372D3E7E05C0BA2C372D5F
S1133E3003C0BA2C01C0B52C34FF0DC0FE01EA0D3D
S1133E40F11D8081803311F4397E09C032FF06C030
S1133E50B394B39404C0832F867809F0B39433FDEC
S1133E6012C030FF06C05A2CB31418F4530C5B185C
S1133E70B32CB31460F4B70180E290E03C8762D0C5
S1133E80B3943C85F6CFB31410F43B1801C0312C25
S1133E9034FF11C0B70180E390E03C8753D03C85E8
S1133EA032FF16C031FD03C088E790E002C088E508
S1133EB090E0B7010CC0832F867851F031FF02C027
S1133EC08BE201C080E237FD8DE2B70190E03AD089
S1133ED0A51430F4B70180E390E034D05A94F8CFBD
S1133EE0AA94F401EA0DF11D8081B70190E02AD073
S1133EF0A110F6CF332009F45DCEB70180E290E043
S1133F0021D03A94F7CFF7018681978102C08FEFD1
S1133F109FEF2C96E2E1C8C0FC010590615070400F
S1133F200110D8F7809590958E0F9F1F0895FC017E
S1133F306150704001900110D8F7809590958E0FD4
S1133F409F1F08950F931F93CF93DF93FB0123814A
S1133F5021FD03C08FEF9FEF28C022FF16C04681CA
S1133F605781248135814217530744F4A081B181DC
S1133F709D012F5F3F4F318320838C9326813781AE
S1133F802F5F3F4F3783268310C0EB01092F182F73
S1133F900084F185E02D0995892BE1F68E819F81BE
S1133FA001969F838E83812F902FDF91CF911F9154
S1133FB00F910895FA01AA27283051F1203181F197
S1133FC0E8946F936E7F6E5F7F4F8F4F9F4FAF4F1D
S1133FD0B1E03ED0B4E03CD0670F781F891F9A1F30
S1133FE0A11D680F791F8A1F911DA11D6A0F711DE4
S1133FF0811D911DA11D20D009F468943F912AE0F0
S1134000269F11243019305D3193DEF6CF010895D7
S1134010462F4770405D4193B3E00FD0C9F7F6CF08
S1134020462F4F70405D4A3318F0495D31FD4052D0
S1134030419302D0A9F7EACFB4E0A6959795879566
S113404077956795BA95C9F7009761057105089545
S11340509B01AC010A2E06945795479537952795F1
S1134060BA95C9F7620F731F841F951FA01D089589
S11340702F923F924F925F926F927F928F929F9274
S1134080AF92BF92CF92DF92EF92FF920F931F9362
S1134090CF93DF93CDB7DEB7CA1BDB0B0FB6F89413
S11340A0DEBF0FBECDBF09942A88398848885F8453
S11340B06E847D848C849B84AA84B984C884DF80C4
S11340C0EE80FD800C811B81AA81B981CE0FD11DA8
S11340D00FB6F894DEBF0FBECDBFED010895F8947E
S10540E0FFCF0C
S11340E20201010068000607207E436C6B53746171
S11340F274653A2030780044617465202020203AA7
S11341020054696D65202020203A2030303A303046
S11341122E30302055544300446576696174276E0D
S11341223A20253034642E253033642070706200C6
S113413250574D20202020203A202533642E25304C
S113414233642F323536203D2533642E25303364D3
S113415225250050756C6C566F6C743A20253164B9
S11341622E253033642056005068617365566F6C97
S1134172743A202531642E2530336420560053616D
S11341827455736520203A20576573743D25303287
S11341926420456173743D2530326420557365642F
S11341A23D2530326420736174730053617420447A
S11341B24F50203A20253032642E25303264005389
S11341C2617453746174653A2046493D2531642013
S11341D24D323D25316400536174204C6174203AA0
S11341E22025632020253032642563253032642E55
S11341F2253034642700536174204C6F6E203A20BA
S1134202256320253033642563253032642E25301E
S11342123464270053617420486774203A2025309F
S113422234642E25303164206D0050686173653A20
S113423220252B30346425630050686173654F6612
S1134242733A00253032643A253032642E253032F6
S11342526400253032642E253032642E25303464D5
S113426200253158002531642E2530336400252B76
S1134272303464002530326420456173743D253046
S1134282326420557365643D253032640025632011
S113429220253032642563253032642E253034647F
S11342A200256320253033642563253032642E25AE
S11342B230346400253034642E25316400253034D2
S11342C2642E25303364002533642E253033640094
S11342D220543D20202532642E253032645E432052
S11342E200204C3D2534642E253164204144004491
S11342F2463449414820536D6172742D4C43440045
S11343023C3D3D3D3D203130204D487A2E2D5265B5
S1134312662E2D4F73632E20536D6172742D4C43A0
S10B432244203D3D3D3D3E00F9
S9030000FC
