S0140000536D6172742D4C43445F53572E7372656300
S1130000E7C200000C941B0C0C94F80B0C94D50B59
S11300100C94B20B0C948F0B0C946C0B0C94490B3A
S11300200C94260BF5C600000C94030B0C94E00A08
S11300300C94BD0A87C700000C949A0A0C94770AA2
S11300400C94540A0C94310A0C940E0A0C94EB0987
S11300500C94C8090C94C0080C94A5090C9482094A
S11300600C942D090C945F09C819D219DE19E819EA
S1130070F419021A121A241A3A1A541A721A941AED
S1130080BA1A081B181B261B321B401B4A1BA21B37
S1130090A21B561B621B6C1B761B861B961B000047
S11300A0000000000020202020200020505050009C
S11300B00000005050F850F850502078A07028F0FC
S11300C020C0C810204098186090A040A890686094
S11300D0204000000000102040404020104020102C
S11300E010102040005020F8205000002020F8205C
S11300F0200000000000602040000000F800000024
S1130100000000000060600008102040800070883B
S113011098A8C8887020602020202070708808105B
S11301202040F8F810201008887010305090F81013
S113013010F880F008088870304080F0888870F8E3
S113014008102040404070888870888870708888C3
S1130150780810600060600060600000606000600B
S11301602040081020402010080000F800F800008B
S11301708040201020408070880810200020708863
S11301800868A8A87070888888F88888F08888F03B
S11301908888F070888080808870E0908888889053
S11301A0E0F88080F08080F8F88080E080808070C3
S11301B0888080988870888888F88888887020204B
S11301C020202070381010101090608890A0C0A0DB
S11301D09088808080808080F888D8A888888888E3
S11301E08888C8A898888870888888888870F088E3
S11301F088F080808070888888A89068F08888F06B
S1130200A09088788080700808F0F82020202020B2
S1130210208888888888887088888888885020887A
S11302208888A8A8D88888885020508888888850CA
S113023020202020F80810204080F838202020209A
S1130240203800804020100800E02020202020E0FA
S113025020508800000000000000000000F840204A
S11302601000000000000070087888788080B0C812
S11302708888F000007080808870080868988888F2
S11302807800007088F88070304840E040404000BA
S11302900078887808308080B0C88888882000601A
S11302A020202070100030101090604040485060B2
S11302B05048602020202020700000D0A8A8888802
S11302C00000B0C8888888000070888888700000A2
S11302D0F088F08080000068987808080000B0C8B2
S11302E0808080000070807008F04040E04040480A
S11302F0300000888888986800008888885020002A
S1130300008888A8A85000008850205088000088E1
S1130310887808700000F8102040F8102020402051
S113032020102020202020202040202010202040A9
S113033020502000000000000000000000002020E9
S11303402020200020505050000000005050F85051
S1130350F850502078A07028F020C0C81020409891
S1130360186090A040A89068602040000000001031
S11303702040404020104020101010204000502009
S1130380F8205000002020F8202000000000006029
S11303902040000000F80000000000000000606041
S11303A000081020408000708898A8C888702060D9
S11303B02020202070708808102040F8F8102010A9
S11303C008887010305090F81010F880F0080888F1
S11303D070304080F0888870F808102040404070E9
S11303E088887088887070888878081060006060D9
S11303F00060600000606000602040081020402021
S113040010080000F800F800008040201020408010
S11304107088081020002070880868A8A870708868
S11304208888F88888F08888F08888F070888080C8
S1130430808870E09088888890E0F88080F08080E0
S1130440F8F88080E0808080708880809888708848
S11304508888F88888887020202020207038101020
S1130460101090608890A0C0A090888080808080C8
S113047080F888D8A8888888888888C8A8988888B0
S113048070888888888870F08888F0808080708878
S11304908888A89068F08888F0A090887880807018
S11304A00808F0F820202020202088888888888860
S11304B07088888888885020888888A8A8D88888E0
S11304C088502050888888885020202020F80810E0
S11304D0204080F838202020202038008040201040
S11304E00800E02020202020E020508800000000A8
S11304F0000000000000F840201000000000000090
S113050070087888788080B0C88888F0000070808F
S11305108088700808689888887800007088F88057
S113052070304840E04040400000788878083080CF
S113053080B0C88888882000602020207010003097
S113054010109060404048506050486020202020A7
S113055020700000D0A8A888880000B0C8888888C7
S1130560000070888888700000F088F080800000A7
S113057068987808080000B0C88080800000708007
S11305807008F04040E04040483000008888889877
S1130590680000888888502000008888A8A8500037
S11305A0008850205088000088887808700000F87F
S11305B0102040F81020204020201020202020204F
S11305C02020402020102020402050200000000047
S11305D011241FBECFEFD8E0DEBFCDBF13E0A0E0F3
S11305E0B1E0EAEAFAE402C005900D92A834B1073A
S11305F0D9F724E0A8E4B3E001C01D92AA38B207F9
S1130600E1F70E94721E0C9453250895CF93DF9353
S11306101F92CDB7DEB78FEF809364008FB78983C5
S1130620F89489815F9350E85093610050E05093AF
S113063061005F918FBF0F90DF91CF910895CF93A9
S1130640DF931F92CDB7DEB79FB79983F894998152
S1130650811106C0609580916400682360936400F2
S11306609FBF0F90DF91CF910895CF93DF931F9297
S1130670CDB7DEB79FB79983F8949981811105C0EE
S113068080916400682B609364009FBF0F90DF919A
S1130690CF910895FF920F931F93CF93DF93082F69
S11306A0842F90E0800F911D813F910514F040EF5D
S11306B0401B442309F447C0D62FD695D695D6952A
S11306C070E088E0D89F60197109112481E090E0FE
S11306D001C0880F6A95EAF7F82E213031F040F016
S11306E0223089F5CFEFC40F22C0CFEFC40F05C06D
S11306F0CFEFC40F182F10950DC0102F1C0F612FB2
S11307008D2FAFD24F2D482B612F8D2F98D2C150F2
S1130710A0F719C0F02EFC0E6F2D8D2FA2D2412F01
S113072048236F2D8D2F8BD2C150A0F70CC0102FF2
S11307301C0F612F8D2F95D24F2D4827612F8D2FA0
S11307407ED2C150A0F7DF91CF911F910F91FF90FE
S11307500895EF92FF920F931F93CF93DF93942FFB
S1130760442309F446C04FEF460F940F691308C0A1
S1130770422FDF91CF911F910F91FF90EF90A4C270
S11307809F3708F09FE7162F169516951695092F93
S11307900695069506956770EFEFF0E0AF0101C08E
S11307A0440F6A95EAF7977067E070E0691B710976
S11307B07F0102C0F594E7946A95E2F7101304C030
S11307C04E21682F812F0EC0D22FC82F6C2F812F5E
S11307D056D21F5F2D2F101710F44FEFF7CF4E2D69
S11307E06C2F802FDF91CF911F910F91FF90EF908D
S11307F046C2DF91CF911F910F91FF90EF90089522
S11308008F929F92AF92BF92CF92DF92EF92FF921C
S11308100F931F93CF93DF93182FB62E481728F406
S1130820B22E262F812F142F482FC42FD0E0C11BA6
S1130830D109E22EF12CEB18F108D7FF06C0D195AF
S1130840C195D10999249A9402C099249394F7FEEE
S113085006C0F194E194F10888248A9402C08824A3
S11308608394EC16FD06BCF46701CC1ADD0AA12CB6
S11308708A2D90E0C817D9072CF1402F6B2D812FBA
S113088023D2D7FC03C0CC1ADD0AB80CCE0CDF1C73
S1130890190DA394EDCF6E01CE18DF08A12C8A2D7B
S11308A090E0E816F90674F0402F6B2D812F0CD2DE
S11308B0D7FC03C0CE18DF08190DCC0EDD1EB80C12
S11308C0A394EDCFDF91CF911F910F91FF90EF9003
S11308D0DF90CF90BF90AF909F908F900895FF923C
S11308E00F931F93CF93DF93D82F162FC42FF22E7D
S11308F0202FD0DE6FEF6F0D610F202F4C2F8D2F27
S1130900C9DE202F4F2D612F8D2F23DF8FEF8C0F0A
S1130910202F4F2D612F8D0FDF91CF911F910F91BC
S1130920FF9017CFFF920F931F93CF93DF93222350
S113093069F0142FF62ED82FCFEFC20F6F2D6C0F46
S1130940202F412F8D2FA6DEC150C0F7DF91CF910C
S11309501F910F91FF9008955F926F927F928F92F3
S11309609F92AF92BF92CF92DF92EF92FF920F933A
S11309701F93CF93DF93182FF62EC42FE22E41112D
S113098011C0422FDF91CF911F910F91FF90EF90F3
S1130990DF90CF90BF90AF909F908F907F906F909B
S11309A05F9092C183E090E06C0122E0429FC01806
S11309B0D1081124D0E0802F8170B82E202F22700E
S11309C0A22E802F8470982E202F2870822E802FA4
S11309D08071782E202F2072622E802F8074582EE2
S11309E0BB2031F04E2D6F2D6D1B812F8C0F6CD1E0
S11309F0AA2031F04E2D6F2D6C1B812F8D0F64D1E9
S1130A00992031F04E2D6F2D6C1B812F8D1B5CD1E5
S1130A10882031F04E2D6F2D6D1B812F8C1B54D1EE
S1130A20772031F04E2D6F2D6D0F812F8C1B4CD103
S1130A30662031F04E2D6F2D6C0F812F8D1B44D10C
S1130A40552031F04E2D6F2D6C0F812F8D0F3CD121
S1130A5007FF06C04E2D6F2D6D0F812F8C0F34D1E3
S1130A608D2F90E0D7FE08C0880F991F880F991F1B
S1130A700696C80ED91E0AC08C1B9109880F991FAF
S1130A80880F991F0A96C80ED91EC150DF5FCD1773
S1130A9008F0A6CFDF91CF911F910F91FF90EF90B7
S1130AA0DF90CF90BF90AF909F908F907F906F908A
S1130AB05F9008958F929F92AF92BF92CF92DF92F0
S1130AC0EF92FF920F931F93CF93DF93182FD62E9D
S1130AD0C42FC22E41110EC0422FDF91CF911F911E
S1130AE00F91FF90EF90DF90CF90BF90AF909F90C9
S1130AF08F90EAC083E090E07C0122E0429FE018FE
S1130B00F1081124BB24B394D0E0802F8370A82E65
S1130B10202F2C70922E802F8073882E007CAA2088
S1130B2079F02C2D4B2D6D2D6D1B812F8C0F11DE2B
S1130B302C2D41E04C0F6D2D6C1B812F8D0F09DE88
S1130B40992079F02C2D4B2D6D2D6D1B812F8C1B35
S1130B5000DE2C2D41E04C0F6D2D6C1B812F8D1B65
S1130B60F8DD882069F02C2D4B2D6D2D812F8C1BE9
S1130B70F0DD2C2D41E04C0F6D2D812F8D1BE9DD17
S1130B80002369F02C2D4B2D6D2D812F8C0FE1DD71
S1130B902C2D41E04C0F6D2D812F8D0FDADD8D2F23
S1130BA090E0F7FE08C0880F991F880F991F0696DA
S1130BB0E80EF91E0AC08C1B9109880F991F880F33
S1130BC0991F0A96E80EF91EC150DF5FB394CD1742
S1130BD008F0A5CFDF91CF911F910F91FF90EF9077
S1130BE0DF90CF90BF90AF909F908F9008950F9318
S1130BF01F93CF93DF938C01862FD42FC22F01151F
S1130C001105C1F06031B0F4403FA0F4B3D68D2F8C
S1130C10B9D68C2F90E08D0F911D813F910514F072
S1130C20C0EFCD1BCC2331F0F80181918F0157D651
S1130C30C150F8CFDF91CF911F910F910895CF93B9
S1130C40DF93803158F4603F48F4D42FC62F92D6F6
S1130C508C2F98D68D2FDF91CF9141C6DF91CF9104
S1130C600895CF93803140F4603F30F4C62F82D68C
S1130C708C2F88D6CF9140C680E0CF9108950F93F2
S1130C801F93CF93DF938031D0F4603FC0F4022FE1
S1130C90D42F162FE6DFC82F013041F020F00230A8
S1130CA031F4CD2704C0D095CD2301C0CD2B812FA5
S1130CB069D68C2FDF91CF911F910F9110C6DF91D0
S1130CC0CF911F910F910895962F242F803F88F480
S1130CD067FD0FC0362F377061E070E0AB0101C0D3
S1130CE0440F3A95EAF7682F892F8695869586955D
S1130CF0C6CF08959F92AF92BF92CF92DF92EF92A8
S1130D00FF920F931F93CF93DF93D82FC62ED42E29
S1130D10790100E0F901248143816D2D8C2D02DEDF
S1130D20F7018081811139C08381282F269526956A
S1130D302695877009F02F5FF701C4818D2F90E00D
S1130D403581831B91092C9F90011124829FA0015E
S1130D50839F500D929F500D112401811281040F25
S1130D60151FDC0E9D2C9C1AF701A380B12CD0E03A
S1130D708C2D8D0FAD1679F09D2F977021F4F8010D
S1130D80B4900F5F1F4FB7FE03C041E0692D9CDF95
S1130D90BB0CDF5FEDCFC15029F7DF91CF911F91DD
S1130DA00F91FF90EF90DF90CF90BF90AF909F9006
S1130DB00895DF92EF92FF920F931F93CF93DF93E7
S1130DC0D62ED42F79018C01C62FF80181918F0181
S1130DD08A3031F4F70184818F5FD80FCD2D09C09B
S1130DE08D3039F097014D2F6C2F84DFF70183810B
S1130DF0C80FF80180818111E8CFDF91CF911F9155
S1130E000F91FF90EF90DF9008959895000008955A
S1130E101F920F920FB60F9211242F933F934F936B
S1130E205F936F937F938F939F93AF93BF93EF934E
S1130E30FF938091720481FF74C0809132048032E8
S1130E4009F06FC085B18F7390915D049F3060F499
S1130E50806490914B03923019F09AE790934A037F
S1130E6092E090934B0324C09F30C1F420914F042F
S1130E70309150042D5F3F4F2730310578F480685E
S1130E8010924B039091620420914903921781F0D0
S1130E909093490396E090934A030AC090914B03C0
S1130EA0911103C09EE190934A0391E090934B0308
S1130EB090914A03992339F0915090934A0399E011
S1130EC09093760402C01092760485B98091480309
S1130ED0882321F081508093480323C08CE08093C1
S1130EE0480386B1867090E09595879580FD09C08A
S1130EF0809177048823A9F081508093770411D5D9
S1130F0010C081FD09C0809177048F3350F48F5F46
S1130F108093770406D505C01A9903C081E00E9426
S1130F20781DFF91EF91BF91AF919F918F917F9128
S1130F306F915F914F913F912F910F900FBE0F9042
S1130F401F9018951F920F920FB60F9211242F9392
S1130F503F934F935F936F937F938F939F93AF933D
S1130F60BF938091860490918704A0918804B091E6
S1130F7089040196A11DB11D809386049093870472
S1130F80A0938804B09389048091720481FF56C0B1
S1130F9040917604442309F451C080914B0490910C
S1130FA04C0495958795959587959C012559314FC6
S1130FB05091730480917404909175045523B1F099
S1130FC0821B930B9093750480937404823020ECFD
S1130FD0920714F51092730422E030E8B901681BFB
S1130FE0790B709375046093740416C0820F931F79
S1130FF090937504809374048F3F7FE3970764F0A4
S113100021E0209373042EEF3FE7B901681B790BAD
S113101070937504609374042FE030E0241B31094D
S1131020809174049091750402C0959587952A95D2
S1131030E2F793959093890080938800BF91AF91D4
S11310409F918F917F916F915F914F913F912F91DC
S11310500F900FBE0F901F9018958F929F92AF9292
S1131060BF92CF92DF92EF92FF92CF93DF93EB0187
S11310708130E9F5C0908104D0908204E09083042B
S1131080F090840420E030E0A901C701B6010E9479
S11310900E20AE0160E070E08823D9F0CB01BA01E4
S11310A00E94AB202FE632E143E05BE30E94B421CF
S11310B04B015C012EEE3CE74FE75FE3C701B6014D
S11310C00E94B4219B01AC01C501B4010E94AA1F76
S11310D004C0CB01BA010E94AB20F8946093810450
S11310E07093820480938304909384043EC083307D
S11310F0E1F5C0907D04D0907E04E0907F04F090F0
S1131100800420E030E0A901C701B6010E940E204E
S1131110AE0160E070E08823D9F0CB01BA010E94EF
S1131120AB202FE632E143E05AE30E94B4214B01A5
S11311305C012BE33FED4FE75FE3C701B6010E947B
S1131140B4219B01AC01C501B4010E94AA1F04C0D3
S1131150CB01BA010E94AB20F89460937D04709394
S11311607E0480937F0490938004DF91CF91FF905D
S1131170EF90DF90CF90BF90AF909F908F900895A5
S11311801F920F920FB60F921124CF92DF92EF921B
S1131190FF921F932F933F934F935F936F937F938C
S11311A08F939F93AF93BF93CF93DF93EF93FF936B
S11311B010918504C091780080917900D0E0D82BFB
S11311C0113059F030F0123079F483E080938504C3
S11311D010C081E0809385040CC088EC80937C006F
S11311E082E08093850405C080EC80937C0010929B
S11311F085046091810470918204809183049091AC
S113120084040E947F206B017C0160917D047091B5
S11312107E0480917F04909180040E947F207894C2
S11312209B01A601BE01812F18DFFF91EF91DF9191
S1131230CF91BF91AF919F918F917F916F915F916A
S11312404F913F912F911F91FF90EF90DF90CF909E
S11312500F900FBE0F901F9018951F920F920FB60C
S11312600F9211242F933F934F935F936F937F9328
S11312708F939F93AF93BF93CF93DF93EF93FF939A
S11312808091B9006091BB00CCEBD0E04881887FAD
S11312900E94A81B85688883FF91EF91DF91CF910D
S11312A0BF91AF919F918F917F916F915F914F917A
S11312B03F912F910F900FBE0F901F9018951F9282
S11312C00F920FB60F9211242F933F934F935F9376
S11312D06F937F938F939F93AF93BF93EF93FF93FA
S11312E094DDFF91EF91BF91AF919F918F917F9189
S11312F06F915F914F913F912F910F900FBE0F907F
S11313001F9018951F920F920FB60F9211242F93CE
S11313103F934F935F936F937F938F939F93AF9379
S1131320BF93EF93FF93CBDFFF91EF91BF91AF9109
S11313309F918F917F916F915F914F913F912F91E9
S11313400F900FBE0F901F9018951F920F920FB61B
S11313500F9211242F933F934F935F936F937F9337
S11313608F939F93AF93BF93EF93FF93A8DFFF9166
S1131370EF91BF91AF919F918F917F916F915F9109
S11313804F913F912F910F900FBE0F901F90189582
S11313901F920F920FB60F9211242F933F934F93E6
S11313A05F936F937F938F939F93AF93BF93EF93C9
S11313B0FF9385DFFF91EF91BF91AF919F918F9143
S11313C07F916F915F914F913F912F910F900FBE3D
S11313D00F901F9018951F920F920FB60F92112421
S11313E02F933F934F935F936F937F938F939F9329
S11313F0AF93BF93EF93FF9362DFFF91EF91BF91A0
S1131400AF919F918F917F916F915F914F913F9198
S11314102F910F900FBE0F901F9018951F920F924F
S11314200FB60F9211242F933F934F935F936F93B3
S11314307F938F939F93AF93BF93EF93FF933FDF7C
S1131440FF91EF91BF91AF919F918F917F916F9198
S11314505F914F913F912F910F900FBE0F901F906E
S113146018951F920F920FB60F9211242F933F934A
S11314704F935F936F937F938F939F93AF93BF9398
S1131480EF93FF931CDFFF91EF91BF91AF919F9179
S11314908F917F916F915F914F913F912F910F9019
S11314A00FBE0F901F9018951F920F920FB60F92B8
S11314B011242F933F934F935F936F937F938F9355
S11314C09F93AF93BF93EF93FF93F9DEFF91EF9157
S11314D0BF91AF919F918F917F916F915F914F9148
S11314E03F912F910F900FBE0F901F9018951F9250
S11314F00F920FB60F9211242F933F934F935F9344
S11315006F937F938F939F93AF93BF93EF93FF93C7
S1131510D6DEFF91EF91BF91AF919F918F917F9113
S11315206F915F914F913F912F910F900FBE0F904C
S11315301F9018951F920F920FB60F9211242F939C
S11315403F934F935F936F937F938F939F93AF9347
S1131550BF93EF93FF93B3DEFF91EF91BF91AF91F0
S11315609F918F917F916F915F914F913F912F91B7
S11315700F900FBE0F901F9018951F920F920FB6E9
S11315800F9211242F933F934F935F936F937F9305
S11315908F939F93AF93BF93EF93FF9390DEFF914D
S11315A0EF91BF91AF919F918F917F916F915F91D7
S11315B04F913F912F910F900FBE0F901F90189550
S11315C01F920F920FB60F9211242F933F934F93B4
S11315D05F936F937F938F939F93AF93BF93EF9397
S11315E0FF936DDEFF91EF91BF91AF919F918F912A
S11315F07F916F915F914F913F912F910F900FBE0B
S11316000F901F9018951F920F920FB60F921124EE
S11316102F933F934F935F936F937F938F939F93F6
S1131620AF93BF93EF93FF934ADEFF91EF91BF9186
S1131630AF919F918F917F916F915F914F913F9166
S11316402F910F900FBE0F901F9018951F920F921D
S11316500FB60F9211242F933F934F935F936F9381
S11316607F938F939F93AF93BF93EF93FF9327DE63
S1131670FF91EF91BF91AF919F918F917F916F9166
S11316805F914F913F912F910F900FBE0F901F903C
S113169018951F920F920FB60F9211242F933F9318
S11316A04F935F936F937F938F939F93AF93BF9366
S11316B0EF93FF9304DEFF91EF91BF91AF919F9160
S11316C08F917F916F915F914F913F912F910F90E7
S11316D00FBE0F901F9018951F920F920FB60F9286
S11316E011242F933F934F935F936F937F938F9323
S11316F09F93AF93BF93EF93FF93E1DDFF91EF913E
S1131700BF91AF919F918F917F916F915F914F9115
S11317103F912F910F900FBE0F901F9018951F921D
S11317200F920FB60F9211242F933F934F935F9311
S11317306F937F938F939F93AF93BF93EF93FF9395
S1131740BEDDFF91EF91BF91AF919F918F917F91FA
S11317506F915F914F913F912F910F900FBE0F901A
S11317601F9018951F920F920FB60F9211242F936A
S11317703F934F935F936F937F938F939F93AF9315
S1131780BF93EF93FF939BDDFF91EF91BF91AF91D7
S11317909F918F917F916F915F914F913F912F9185
S11317A00F900FBE0F901F9018951F920F920FB6B7
S11317B00F9211242F933F934F935F936F937F93D3
S11317C08F939F93AF93BF93EF93FF9378DDFF9134
S11317D0EF91BF91AF919F918F917F916F915F91A5
S11317E04F913F912F910F900FBE0F901F9018951E
S11317F01F920F920FB60F9211242F933F934F9382
S11318005F936F937F938F939F93AF93BF93EF9364
S1131810FF9355DDFF91EF91BF91AF919F918F9110
S11318207F916F915F914F913F912F910F900FBED8
S11318300F901F9018951F920F920FB60F921124BC
S11318402F933F934F935F936F937F938F939F93C4
S1131850AF93BF93EF93FF9332DDFF91EF91BF916D
S1131860AF919F918F917F916F915F914F913F9134
S11318702F910F900FBE0F901F901895CF93DF9369
S11318801F92CDB7DEB78FB78983F89489810F9003
S1131890DF91CF91089504C06150710981099109C4
S11318A06115710581059105B9F70895E7DF982F52
S11318B08FEF8BB91AB828982C9A2D9A2D9889B144
S11318C09FBF0895CF93C82FD9DFCBB99FEF9AB9A3
S11318D028982C982D9A2D988FBFCF910895CF9347
S11318E0C82FCCDFCBB99FEF9AB9289A2C982D9AA0
S11318F02D988FBFCF910895C1DF982F8FEF8BB9AB
S11319001AB8289A2C9A2D9A2D9880910C04882321
S113191019F089B12D9A2D9889B110920C049FBFAA
S1131920089581E8CFDF809177048F738068CACFF0
S11319308DE2C8DF84E2C6DF8AEEC4DFF2DF88EC22
S1131940C1DF88E8BFDF80E4BDDF80E9BBDF80EB77
S1131950B9DF80E0B7DF80E1B5DF81E080930C047C
S11319608FEEB0DF8EEEAEDF84EAACDF86EAAADF6C
S11319708FEAA8CF803128F4806BA4DF81E08093C4
S11319800C040895CF93803F58F4C82F8F709ADFCA
S11319908C2F82958F70806195DF81E080930C0499
S11319A0CF91089580E08EDF80E18CDF81E0809329
S11319B00C04089580EB86DFF5CFCF93DF93C0E06E
S11319C08C2F806B7FDF80E07DDF80E17BDFD0EFD9
S11319D080E085DFD150E1F7CF5FC03189F7DF9137
S11319E0CF91E8CFFF920F931F93CF93DF936AE0D9
S11319F071E08CED93E00E94502223E031E04BE053
S1131A0063E08CED93E0D5D967E171E08CED93E070
S1131A100E94502223E031E044E163E08CED93E046
S1131A20C8D961E271E08CED93E00E94502223E07A
S1131A3031E04DE163E08CED93E0BBD91F921F923E
S1131A401F921F9288E391E09F938F931F9210E35C
S1131A501F93CCEDD3E0DF93CF930E94622223E067
S1131A6031E046E263E0CE01A4D91F921F921F9297
S1131A701F921F921F921F921F9280E591E09F93E5
S1131A808F931F921F93DF93CF930E94622223E0D0
S1131A9031E04FE263E0CE018CD91F921F921F9276
S1131AA01F9283E791E09F938F931F921F93DF937D
S1131AB0CF930E9462228DB79EB782960FB6F89498
S1131AC09EBF0FBE8DBF23E031E048E363E0CE014B
S1131AD070D91F921F921F921F9288E891E09F93E2
S1131AE08F931F921F93DF93CF930E94622223E070
S1131AF031E048E36BE7CE015CD91F921F921F923D
S1131B001F921F921F928EE991E09F938F931F92D1
S1131B101F93DF93CF930E94622223E031E041E4DC
S1131B2063E0CE0146D91F921F921F921F928BEC45
S1131B3091E09F938F931F921F93DF93CF930E9403
S1131B4062228DB79EB780960FB6F8949EBF0FBEE3
S1131B508DBF23E031E04AE463E0CE012AD91F922D
S1131B601F921F921F928FED91E09F938F931F926C
S1131B701F93DF93CF930E94622223E031E043E579
S1131B8063E0CE0116D91F921F921F921F921F92DB
S1131B900EE70F931F921F921F9280E2F82EFF927E
S1131BA087EF91E09F938F931F921F93DF93CF93BF
S1131BB00E94622223E031E04CE563E0CE01F9D8D3
S1131BC01F921F921F921F921F920F931F921F9298
S1131BD01F92FF9286E192E09F938F931F921F932F
S1131BE0DF93CF930E9462228DB79EB78A960FB679
S1131BF0F8949EBF0FBE8DBF23E031E045E663E05D
S1131C00CE01D7D81F921F921F921F9284E392E0B5
S1131C109F938F931F921F93DF93CF930E9462220F
S1131C2023E031E04EE663E0CE01C3D81F920F9368
S1131C301F921F928AE492E09F938F931F921F93A7
S1131C40DF93CF930E94622223E031E04EE66FE9F6
S1131C50CE01AFD88DB79EB744960FB6F8949EBF09
S1131C600FBE8DBF23E031E047E763E089E592E0F2
S1131C70DF91CF911F910F91FF909BC83F924F929C
S1131C805F926F927F928F929F92AF92BF92CF9208
S1131C90DF92EF92FF920F931F93CF93DF93EEDDCA
S1131CA0C82F9091330492FF2EC09B7F90933304EE
S1131CB0809162041F928F93809161041F928F938D
S1131CC0809160041F928F9383E692E09F938F9399
S1131CD01F9280E38F938CED93E09F938F930E94E8
S1131CE06222CFBF23E031E04DE16FE38CED93E05E
S1131CF060D88DB79EB70C960FB6F8949EBF0FBEF2
S1131D008DBF8FEFFFC391FF30C09D7F909333044D
S1131D1080914E048F9380914D048F9380915E0443
S1131D201F928F9380915F041F928F9382E792E0BA
S1131D309F938F931F9280E38F938CED93E09F93F7
S1131D408F930E946222CFBF23E031E044E16FE32E
S1131D508CED93E02ED88DB79EB70C960FB6F89401
S1131D609EBF0FBE8DBF8EEFCDC3892F817090FFB4
S1131D7055C19E7F90933304CFBFC0914B04D09143
S1131D804C04A0904904B0904A0490905D04C1357D
S1131D9096E4D9079CF4C03B89EBD8072CF0C539ED
S1131DA091E1D9071CF00FC0C0EBD9EBBE01CC36D2
S1131DB08EEED80754F46CE67EEE07C0C0E5D6E498
S1131DC060E576E402C060E576E4072E000C880B3B
S1131DD0990B0E94AD2020E030EA4CE855E40E94C3
S1131DE0122020E030E048E952E40E94B4210E942D
S1131DF07A202B013C017B0177FF08C036E9832E52
S1131E00860ECC24DD24C61AD70A03C06B0126E94A
S1131E10822E1F929F9281E892E09F938F931F924C
S1131E2090E3392E3F920CED13E01F930F930E9421
S1131E30622223E031E04BE06BE4C8010E94D90642
S1131E40C50168EE73E00E9423229F938F937F93D2
S1131E506F9385E892E09F938F931F923F921F9315
S1131E600F930E94622223E031E048E36DEBC80146
S1131E700E94D906CE0164E670E00E9437227F9367
S1131E806F938EE892E09F938F931F923F921F93DC
S1131E900F930E94622223E031E04EE669ECC80110
S1131EA00E94D9068DB79EB74A960FB6F8949EBF86
S1131EB00FBE8DBF80915603981222C0C114D10465
S1131EC0F9F0442D1E141F040CF440E0D42DF7FC4B
S1131ED0D0E097E0991609F462C0991568F08FEF85
S1131EE0890D833008F096C001E021E048E96AE7F3
S1131EF08AE40E9492048EC08FE0981699F08AC0FA
S1131F0000E025E040EA68E786E40E949204C114F8
S1131F10D104B9F601E02CE746E968E786E90E94B6
S1131F20000478C0405B00E025E068E786E40E9496
S1131F309204F7FE0FC001E028E7482D6AE7CCEFD2
S1131F40C80D8C2F0E9400042CE7482D6AE78C2FC3
S1131F500E94000401E025E04C2D68E7882D0E94D2
S1131F60920440E54D1B00E025E068E786E98D0F0B
S1131F700E9492041E141F040CF04CC0C5E9CD0F3E
S1131F80D75601E028E74C2F6AE78D2F0E94000402
S1131F902CE74C2F6AE78D2F0E9400043BC0405B66
S1131FA000E023E069E786E40E949204F7FE0FC094
S1131FB001E029E7482D6AE7CCEFC80D8C2F0E9479
S1131FC000042BE7482D6AE78C2F0E94000401E0EF
S1131FD023E04C2D69E7882D0E94920440E54D1BB7
S1131FE000E023E069E786E98D0F0E9492041E1445
S1131FF01F0484F4C5E9CD0FD75601E029E74C2F1F
S11320006AE78D2F0E9400042BE74C2F6AE78D2F7F
S11320100E940004909256038DEF74C296FF36C05E
S113202020910101223090F59F7B9093330480919D
S113203068041F928F93809167041F928F938091FD
S113204066041F928F9384E992E09F938F931F926B
S113205080E38F938CED93E09F938F930E94622291
S1132060CFBF23E031E041E46DE58CED93E00E94C5
S1132070D90682E0809301018DB79EB70C960FB606
S1132080F8949EBF0FBE8DBF81E03CC297FF47C04E
S113209020910101233008F042C0809133048F77EE
S11320A0809333042091550430915604C90164E6A9
S11320B070E00E9423229F938F93B90180E090E007
S11320C00E94AB2020E030E048EC52E40E94122051
S11320D00E947A207F936F9385ED91E09F938F9375
S11320E01F9280E38F938CED93E09F938F930E94D4
S11320F06222CFBF23E031E04AE46FE38CED93E04A
S11321000E94D90683E0809301018DB79EB70A9699
S11321100FB6F8949EBF0FBE8DBF82E0F3C120912D
S1132120340420FF32C030910101343070F52E7F29
S11321302093340480916A041F928F9380916904E0
S11321401F928F938CEE91E09F938F931F9280E365
S11321508F938CED93E09F938F930E946222CFBF65
S113216023E031E043E561E58CED93E00E94D9067C
S113217084E0809301018DB79EB70A960FB6F89458
S11321809EBF0FBE8DBF83E0BDC121FF41C0309112
S113219001013530E8F5809134048D7F8093340457
S11321A0809158048F93809157048F9380916D048C
S11321B01F928F931F928EE78F9380916C041F92CE
S11321C08F9380916B041F928F938DEA92E09F937B
S11321D08F931F9280E38F938CED93E09F938F9363
S11321E00E946222CFBF23E031E04CE56FE38CED27
S11321F093E00E94D90685E0809301018DB79EB7D4
S113220040960FB6F8949EBF0FBE8DBF84E07AC18E
S113221022FF41C0309101013630E8F58091340449
S11322208B7F8093340480915A048F938091590456
S11322308F93809170041F928F931F928EE78F93D8
S113224080916F041F928F9380916E041F928F93DD
S113225081EC92E09F938F931F9280E38F938CED98
S113226093E09F938F930E946222CFBF23E031E0DB
S113227045E66FE38CED93E00E94D90686E08093F7
S113228001018DB79EB740960FB6F8949EBF0FBE5E
S11322908DBF85E037C123FF36C02091010127306F
S11322A090F580913404877F809334048091710485
S11322B01F928F9380915C048F9380915B048F9322
S11322C084ED92E09F938F931F9280E38F938CED24
S11322D093E09F938F930E946222CFBF23E031E06B
S11322E04EE66FE38CED93E00E94D90687E080937D
S11322F001018DB79EB70A960FB6F8949EBF0FBE24
S11323008DBF86E0FFC093FF38C0209101012830C3
S1132310A0F580913304877F809333048091520425
S11323208F93809151048F93809150048F93809167
S11323304F048F938DED92E09F938F931F9280E3D0
S11323408F938CED93E09F938F930E946222CFBF73
S113235023E031E046E26FE38CED93E00E94D9067E
S113236088E0809301018DB79EB70A960FB6F89462
S11323709EBF0FBE8DBF87E0C5C094FF87C020916C
S11323800101293008F082C0F09063046091640474
S1132390809133048F7E80933304CFBF70E080E05C
S11323A090E00E94AD202B013C0120E030E04AE7A0
S11323B050E40E94B4210E947A207F936F931F926D
S11323C0FF9207EE12E01F930F931F9280E3B82E43
S11323D0BF92CCEDD3E0DF93CF930E94622223E03F
S11323E031E04FE26FE3CE010E94D9066F2D70E019
S11323F080E090E00E94AB206B017C0120E030E0A3
S113240040E85BE3C301B2010E94B421A701960135
S11324100E94AA1F20E030E048EC5EE30E94B42151
S11324206B017C010E94E8209B01AC01C701B6014D
S11324300E94A91F20E030E04AE754E40E94B4213E
S11324400E947A207F936F93C701B6010E947A207D
S11324507F936F931F930F931F92BF92DF93CF933A
S11324600E94622223E031E04FE26DE8CE010E9437
S1132470D90689E0809301018DB79EB744960FB6C3
S1132480F8949EBF0FBE8DBF88E03CC095FF36C058
S1132490909101019A3090F5809133048F7D80935F
S11324A03304809154048F93809153048F938091CB
S11324B065041F928F9385E892E09F938F931F92F8
S11324C080E38F938CED93E09F938F930E9462221D
S11324D0CFBF23E031E048E36FE38CED93E00E944B
S11324E0D9068AE0809301018DB79EB70A960FB68C
S11324F0F8949EBF0FBE8DBF89E004C091E0909315
S11325000101CFBFDF91CF911F910F91FF90EF9009
S1132510DF90CF90BF90AF909F908F907F906F90FF
S11325205F904F903F900895EF92FF920F931F9307
S1132530CF93DF9383EC9FEF9093DB038093DA03D5
S113254081E08093D90320E030E08BE0E82EF12C89
S1132550C0E448EFD8EC18ED0FED2115310519F45E
S11325601092940343C0233031055CF4F901EC5616
S1132570FC4F40832F5F3F4FF901EC56FC4F108313
S113258035C0253031052CF4F901EC56FC4F00839D
S11325902DC02B3031052CF4F901EC56FC4F10837F
S11325A025C020313105E4F02C33310519F41092A3
S11325B0D0031CC0C9014097B7010E943722F9011A
S11325C0EC56FC4F892B89F4C083C183C2834383B7
S11325D04483D58346834783D0874187265F3F4F13
S11325E0F901EC56FC4F408301C010822F5F3F4F2E
S11325F02D3331050CF4B1CFA4E9B3E0E4E9F3E001
S11326008D91829383E0E735F807D1F700E028E065
S113261040EF68E780E00E949204DF91CF911F9120
S11326200F91FF90EF9008952F923F924F925F92F7
S11326306F927F928F929F92AF92BF92CF92DF92CE
S1132640EF92FF920F931F93CF93DF9317D990913B
S1132650720491708FBF84E9282E83E0382E2AE01B
S1132660A22EB12C31E0E32E33E0F32ECCEDD3E0F7
S113267044E6842E912C50EFC52E52E0D52E13E063
S1132680992309F492C18091D903882309F48DC157
S11326900E94301D2B013C012091D1033091D203C3
S11326A04091D3035091D4030E94A91F2AE037ED2F
S11326B043E25DE30E94B02187FD60C04092D103F4
S11326C05092D2036092D3037092D4032091D90321
S11326D08091DA039091DB03820F911D27FD9A9577
S11326E09093DB038093DA038A3B2FEF920724F461
S11326F0E1E0E093D90306C08A3F91051CF0FFEFA7
S1132700F093D9032091D90327FF1CC0803F910582
S113271040F42DE3482F6FE084E993E00E94F7052D
S11327202DC09C01245C3F4F2C33310538F52DE33B
S1132730280F40E06FE0F101E81BF90BCF010E9484
S1132740F7051CC0803F910540F42DE3482F6FE04E
S113275087E593E00E94F70511C09C01245C3F4F7C
S11327602C33310558F42DE3280F40E06FE0E7E502
S1132770F3E0E81BF90BCF010E94F7052091D50384
S11327803091D6034091D7035091D803C301B201CD
S11327900E94A91F20E030E040E05FE30E94B021E6
S11327A087FDC3C04092D5035092D6036092D703ED
S11327B07092D8030E94981D61D84090790450907B
S11327C07A0460907B0470907C048FBF20E030E03A
S11327D0A901C301B2010E940E2087FF03C0412C4E
S11327E0512C3201209152033091530340915403F0
S11327F050915503C301B2010E94A91F9F772AE09B
S113280037ED43E25CE30E940E2087FD37C040921F
S1132810520350925303609254037092550320E084
S113282030E048EC52E4C301B2010E94B4210E949A
S11328307A20CB01B4010E9437229F938F93C30166
S1132840B2010E947A207F936F93DF92CF921F92FE
S1132850F0E3FF93DF93CF930E94622223E031E001
S113286049E660EA8CED93E00E94D906EDB7FEB725
S11328703A960FB6F894FEBF0FBEEDBF0E943E0C11
S1132880409081045090820460908304709084048A
S11328908FBF20914E0330914F03409150035091CC
S11328A05103C301B2010E94A91F9F772DEC3CEC98
S11328B04CEC5DE30E940E2087FD37C040924E032E
S11328C050924F03609250037092510320E030E025
S11328D040E251E4C301B2010E94B4210E947A2073
S11328E0CB01B5010E9437229F938F93C301B2019C
S11328F00E947A207F936F93FF92EF921F92F0E3EE
S1132900FF93DF93CF930E94622223E031E04FE5EF
S113291060EA8CED93E00E94D906EDB7FEB73A96D3
S11329200FB6F894FEBF0FBEEDBF20914C0330915B
S11329304D03F9013196F0934D03E0934C038091DC
S11329400001223131056CF4612F0E9417222BE122
S11329502E1B6AE06E0F092F4FEE80E00E940004E8
S11329601DC0E23021E0F2076CF4612F0E941722AF
S113297041E04E1B092F2AE06BE18EEE8E0F0E9480
S113298000040CC010924D0310924C038F5F8330EF
S113299018F48093000102C0109200010E943E0CC2
S11329A09091720491708FBF6BCE0E943E0C9091F7
S11329B072049E7F909372048FBFDF91CF911F9119
S11329C00F91FF90EF90DF90CF90BF90AF909F90CA
S11329D08F907F906F905F904F903F902F900895CD
S11329E0EF92FF920F931F93CF93C82F0E943E0C38
S11329F0909172049E7F9D7F909372048FBFC0FD5F
S1132A0003C0C1FF2AC008C010E0812F0E946F0CD0
S1132A101F5F103FD1F7F5CF82EB0E94620C81E07B
S1132A2080930C040E94D20C00E010E087E0E82EB2
S1132A30F12CC801B7010E943722892B19F480E0D8
S1132A400E946F0CF801E25EFB4F84910E946F0CB0
S1132A500F5F1F4F003F110561F7C2FF2DC041E01A
S1132A6068E284E00E94640641E069E285E00E9435
S1132A70640641E06AE286E00E94640641E06BE29B
S1132A8087E00E94640641E06CE286E00E946406EE
S1132A9041E06DE285E00E94640641E06EE286E07A
S1132AA00E94640641E06FE287E00E94640641E010
S1132AB060E388E00E946406C3FF07C001E02FE1E1
S1132AC04FEE60E180E00E940004C4FF0DC001E00D
S1132AD028E248E260E386E40E946F0428E248E2C8
S1132AE060E38AEA0E949204C5FF0DC00FEF21E063
S1132AF04AE060E58AE00E94AC0421E04AE060E537
S1132B0088E20E945A05C6FF08C023E031E040E293
S1132B1066E48FE093E00E94D906C7FF0FC004DD8E
S1132B200E943E0C909172049160909372048FBF46
S1132B30CF911F910F91FF90EF9076CDCF911F9180
S1132B400F91FF90EF9008950F931F93CF93DF930E
S1132B500097A9F0042F162FEC016FEF70E00E948C
S1132B60572281508E3F58F423E031E0402F612FEB
S1132B70CE01DF91CF911F910F910C94D906DF9173
S1132B80CF911F910F910895DF92EF92FF920F93CF
S1132B901F93CF93DF93CDB7DEB728970FB6F89482
S1132BA0DEBF0FBECDBF0E943E0CF82E109135043F
S1132BB0123309F470C0D8F4143109F444C048F451
S1132BC0103109F09DC00E94DD0C10923504FFBE47
S1132BD099C0103209F43FC0103309F091C020911C
S1132BE03604A7E3B4E0CE010196FC0140C01633DD
S1132BF009F467C098F4143309F082C000914604C4
S1132C002091370440913604609148048091470430
S1132C100E946F0410923504FFBE74C0183309F487
S1132C2060C01A3309F06CC00FEF20914604409144
S1132C30360460914804809147040E945A0510921A
S1132C403504FFBE5FC08091360480934604109221
S1132C503504FFBE57C080913604809347048091A9
S1132C6037048093480410923504FFBE4BC03E2FB6
S1132C70381B321718F43D913193F9CFFC01E20F60
S1132C80F11D108240914804609147045DDF109269
S1132C903504FFBE37C0D0903604E090370400916D
S1132CA046042E2D4D2D60914804809147040E94C6
S1132CB00004D0924704E092480410923504FFBE09
S1132CC021C000914604209137044091360460915C
S1132CD04804809147040E94920410923504FFBE78
S1132CE011C00FEF209146044091360460914804CE
S1132CF0809147040E94AC0410923504FFBE02C0C8
S1132D00FFBE10E0812F28960FB6F894DEBF0FBEE9
S1132D10CDBFDF91CF911F910F91FF90EF90DF9086
S1132D200895809335040895E3E3F4E08283638394
S1132D300895E3E3F4E08283638344830895E3E343
S1132D40F4E0828363834483258308950F93E3E34C
S1132D50F4E0828363834483258306830F9108957B
S1132D60EF920F93E3E3F4E0828363834483258348
S1132D700683E7820F91EF900895CF92EF920F931D
S1132D80E3E3F4E082836383448325830683E78259
S1132D90C0860F91EF90CF900895AF92CF92EF92AB
S1132DA00F93E3E3F4E08283638344832583068300
S1132DB0E782C086A1860F91EF90CF90AF900895DF
S1132DC08F92AF92CF92EF920F93CF93DF93CDB7C1
S1132DD0DEB7E3E3F4E082836383448325830683DD
S1132DE0E782C086A1868286DF91CF910F91EF9012
S1132DF0CF90AF908F9008958F92AF92CF92EF9231
S1132E000F93CF93DF93CDB7DEB7E3E3F4E0828390
S1132E106383448325830683E782C086A1868286F2
S1132E208A858387DF91CF910F91EF90CF90AF90F8
S1132E308F9008958F92AF92CF92EF920F93CF938A
S1132E40DF93CDB7DEB7E3E3F4E0828363834483A7
S1132E5025830683E782C086A18682868A85838746
S1132E608B858487DF91CF910F91EF90CF90AF90B6
S1132E708F9008958F92AF92CF92EF920F93CF934A
S1132E80DF93CDB7DEB7E3E3F4E082836383448367
S1132E9025830683E782C086A18682868A85838706
S1132EA08B8584878C858587DF91CF910F91EF90F7
S1132EB0CF90AF908F9008958F92AF92CF92EF9270
S1132EC00F93CF93DF93CDB7DEB7E3E3F4E08283D0
S1132ED06383448325830683E782C086A186828632
S1132EE08A8583878B8584878C8585878D8586876E
S1132EF0DF91CF910F91EF90CF90AF908F90089585
S1132F008F92AF92CF92EF920F93CF93DF93CDB77F
S1132F10DEB7E3E3F4E0828363834483258306839B
S1132F20E782C086A18682868A8583878B8584878B
S1132F308C8585878D8586878E858787DF91CF9160
S1132F400F91EF90CF90AF908F9008958F92AF92A2
S1132F50CF92EF920F93CF93DF93CDB7DEB7E3E336
S1132F60F4E082836383448325830683E782C086F7
S1132F70A18682868A8583878B8584878C858587CD
S1132F808D8586878E8587878F85808BDF91CF910E
S1132F900F91EF90CF90AF908F90089590915D0432
S1132FA098130EC02091490430914A04261737071C
S1132FB039F420914B0430914C042417350779F0EF
S1132FC09091330491609093330480935D047093E3
S1132FD04A046093490450934C0440934B0408956D
S1132FE020914D0430914E042817390771F4209133
S1132FF05E0430E0E62F062E000CFF0B2E173F0771
S113300021F420915F04241769F020913304226095
S11330102093330490934E0480934D0460935E0494
S113302040935F0408959091600498130EC020911A
S1133030610430E0E62F062E000CFF0B2E173F072D
S113304021F490916204941759F0909133049460A0
S1133050909333048093600460936104409362040A
S1133060089520914F04309150042817390739F4FA
S113307020915104309152042617370769F02091AA
S113308033042860209333049093500480934F04B6
S113309070935204609351040895909163049813BB
S11330A004C090916404961749F0909133049061A0
S11330B0909333048093630460936404089590911F
S11330C06504981307C020915304309154042617C3
S11330D0370759F0909133049062909333048093AE
S11330E065047093540460935304089590916604A6
S11330F0981308C090916704961304C090916804D3
S1133100941759F09091330490649093330480930E
S113311066046093670440936804089520915504FD
S1133120309156042817390749F020913304206858
S113313020933304909356048093550408959091FA
S11331406904981304C090916A04961749F0909109
S113315034049160909334048093690460936A0406
S1133160089590916B0498130FC090916C0496137A
S11331700BC090916D04941307C0E0915704F09133
S11331805804E217F30779F0909134049260909315
S1133190340480936B0460936C0440936D04309307
S11331A0580420935704089590916E0498130FC007
S11331B090916F0496130BC090917004941307C000
S11331C0E0915904F0915A04E217F30779F09091D1
S11331D0340494609093340480936E0460936F0479
S11331E04093700430935A04209359040895209115
S11331F05B0430915C042817390721F42091710491
S1133200261759F0209134042860209334049093B5
S11332105C0480935B0460937104089583E091E0FF
S1133220089582EE0E94620C6BE278E680E090E002
S11332300E944B0C0E94560C87FD06C00E94980CFD
S11332400E94DD0C80E0089581E0089580933204AB
S1133250882331F0809172048E7F809372040895E4
S1133260E0DF81EFBDCB82EE0E94620C6BE67AE078
S113327080E090E00C944B0CE0912C04EE2351F090
S1133280F0E0EB5DFB4F129284E0E432F807D9F7EB
S113329010922C0408958F92AF92CF92EF920F93D5
S11332A080911404823209F04DC2E0911504E23099
S11332B051F0E33081F0E130D9F481E180931204DC
S11332C0E09311043FC2809116040F91EF90CF90C8
S11332D0AF908F90BBCF80913504882311F081E8A3
S11332E001C080E88093120481E0809311042AC213
S11332F01092110480913204803109F07AC18091D6
S1133300350481111FC2E23309F45EC190F4E43143
S113331039F150F4E03109F015C280E10F91EF90DA
S1133320CF90AF908F90FDCCE032F1F0E03311F10B
S113333009C2E63309F44EC148F4E43309F002C289
S1133340409117046091160484E326C0E83309F41D
S113335047C1EA3309F0F6C1609116048AE343C118
S11333606091160484E13FC14091170460911604F2
S113337080E212C0E09116048E2F90E0FC01319798
S1133380ED30F10508F0DEC1EC5CFF4F0C944A22ED
S11333904091170461E080E30F91EF90CF90AF90DC
S11333A08F90C7CC209118044091170462E080E309
S11333B00F91EF90CF90AF908F90C1CC00911904F2
S11333C0209118044091170463E080E3BFDCBAC184
S11333D0E0901A04009119042091180440911704F4
S11333E064E080E3BDDCAEC1C0901B04E0901A042D
S11333F000911904209118044091170465E080E3BA
S1133400BCDCA0C1A0901C04C0901B04E0901A0472
S113341000911904209118044091170466E080E398
S1133420BCDC90C180901D04A0901C04C0901B04BF
S1133430E0901A0400911904209118044091170493
S113344067E080E3BDDC7EC180911E048F93809091
S11334501D04A0901C04C0901B04E0901A04009169
S11334601904209118044091170468E080E3C4DC37
S11334700F9068C180911F048F9380911E048F93D5
S113348080901D04A0901C04C0901B04E0901A04BA
S113349000911904209118044091170469E080E315
S11334A0C9DC0F900F904EC1809120048F938091BE
S11334B01F048F9380911E048F9380901D04A0900D
S11334C01C04C0901B04E0901A040091190420917C
S11334D01804409117046AE080E3CCDC0F900F904D
S11334E00F9030C1809121048F93809120048F9399
S11334F080911F048F9380911E048F9380901D04EC
S1133500A0901C04C0901B04E0901A0400911904BC
S113351020911804409117046BE080E3CDDC0F90F8
S11335200F900F900F900EC1809122048F93809181
S113353021048F93809120048F9380911F048F9393
S113354080911E048F9380901D04A0901C04C09051
S11335501B04E0901A04009119042091180440916E
S113356017046CE080E3CCDC0F900F900F900F9069
S11335700F90E8C0809123048F93809122048F934D
S1133580809121048F93809120048F9380911F0454
S11335908F9380911E048F9380901D04A0901C042F
S11335A0C0901B04E0901A0400911904209118049F
S11335B0409117046DE080E3C9DC0F900F900F90E9
S11335C00F900F900F90BEC04091170460911604A5
S11335D082E3E2CE409117046091160486E3DCCEC8
S11335E06091160488E30F91EF90CF90AF908F9085
S11335F09BCB803209F0A6C08E2F90E0FC01E058EE
S1133600F109EE30F10508F09DC0EF5BFF4F42C7B2
S11336104091190450911A04609117047091180490
S1133620809116040F91EF90CF90AF908F90B6CC0D
S11336304091190460911804809116049091170424
S11336400F91EF90CF90AF908F90CACC4091180417
S113365060911704809116040F91EF90CF90AF9072
S11336608F90E1CC60911804709119048091160434
S1133670909117040F91EF90CF90AF908F90F1CC71
S113368060911704809116040F91EF90CF90AF9042
S11336908F9003CD609117047091180480911604E3
S11336A00F91EF90CF90AF908F9009CD4091180477
S11336B060911704809116040F91EF90CF90AF9012
S11336C08F9014CD80911604909117040F91EF9070
S11336D0CF90AF908F9022CD609117048091160403
S11336E00F91EF90CF90AF908F9029CD2091190436
S11336F030911A04409118046091170480911604C3
S11337000F91EF90CF90AF908F902BCD2091190413
S113371030911A04409118046091170480911604A2
S11337200F91EF90CF90AF908F903ECD60911804A1
S113373080911604909117040F91EF90CF90AF9061
S11337408F9055CD0F91EF90CF90AF908F900895BB
S1133750CF93DF93D62FC42FC574883609F48BC05A
S113376008F042C0803309F47FC048F5803109F481
S113377066C0D8F4882309F461C1883009F05EC1B9
S11337801092100482E080930F0484E28093240456
S113379084E38093250486E58093260488E7809358
S11337A027048AE9809328044AC0803209F45DC062
S11337B0883209F448C0883109F040C141C08834D6
S11337C009F457C038F4883309F451C0803409F43B
S11337D050C034C1883509F44CC0803609F44BC05C
S11337E0803509F446C02AC1803A09F403C1A8F41B
S11337F0803809F44DC038F4803709F441C0883763
S113380009F43EC01BC1803909F442C0883909F467
S1133810E1C0883809F012C1DDC0883B09F4F3C067
S113382020F4883A09F4EFC009C1883C09F404C1C2
S1133830883F09F403C1803C09F4FEC0FFC00000C6
S1133840E091100406C0E091100480910F04E81781
S113385058F481E08E0F80931004F0E0EC5DFB4F90
S113386080818093BB00EBC007DDC061E8C0C0620B
S1133870E6C00000E4C040E060E184E194E02DD1C2
S1133880D695D093140481E080930E04C064D7C00D
S113389080910D048F3009F496C090910E049F30EE
S11338A008F087C0E92FF0E0EC5EFB4FD083913045
S11338B009F06BC080911404823209F07CC010922C
S11338C00D0410920F04809115048A3309F46DC01D
S11338D010F5803209F445C078F4823009F465C0EB
S11338E028F48823A1F18130B1F165C0833099F1C6
S11338F0843109F45AC05FC0843399F130F48033C1
S113390009F43FC0823369F156C0863351F18833DC
S113391009F44BC050C0853841F168F4823829F16C
S113392028F4803851F1813821F145C0833809F1F8
S11339308438B9F040C08B3828F4893890F488383A
S1133940A1F039C08D38C8F08D3879F034C081E0E9
S113395080930D0430C081E080930D0480930F04A4
S11339602AC083E080930D0426C084E080930D0474
S113397022C085E080930D041EC086E080930D0470
S11339801AC080E180930D0416C0923091F48091A6
S11339901404823281F480911504803361F480919F
S11339A016048F3010F48E5F01C082E080930D0402
S11339B002C09E3060F49F5F90930E0480910D04CA
S11339C0891728F039C0D093160410920E04C42F1E
S11339D0C57035C080910D048F3009F05CDC109205
S11339E00E0410920D0440E068E084E194E075D088
S11339F0C06425C080910D048F3009F04CDC109216
S1133A000E04C0641CC010921004809111048093B1
S1133A100F0410921104882331F081E08093100484
S1133A208091120401C080E08093BB0090910F0448
S1133A3080911004891758F6C06401C0C0658C2FAA
S1133A40DF91CF910895CF93DF931F92CDB7DEB767
S1133A508FB78983F89489810F90DF91CF9108956E
S1133A608F929F92AF92BF92CF92DF92EF92FF928A
S1133A70EADF6091840090918500C0908604D09024
S1133A808704E0908804F09089048FBF70E0792B5C
S1133A90072E000C880B990B60D320E034E244EF2E
S1133AA05AE4C0D24B015C01C701B60154D320E0F3
S1133AB030E040E054E458D420E034E244EF5AE4E7
S1133AC0B1D2A501940146D2FF90EF90DF90CF9040
S1133AD0BF90AF909F908F90089570E0611571052D
S1133AE031F0FC014193CF0161507109F7CF089582
S1133AF0CF93C82F87FF04C061E180E090E08ED7A8
S1133B00C0FF07C0609177046F7380E190E0CF91AC
S1133B1085C7CF91089587FF07C080E090E076D7EE
S1133B20813111F080E8E4DF86E180937704089521
S1133B308F929F92AF92BF92CF92DF92EF92FF92B9
S1133B400F931F93CF93DF93CDB7DEB7A8970FB62C
S1133B50F894DEBF0FBECDBF76DF80907D049090D9
S1133B607E04A0907F04B0908004C0908104D09023
S1133B708204E0908304F09084048FBF64DF182FE4
S1133B8029E137EC4FEA53E4C501B401E2D120E066
S1133B9030EA47E85FE3E8D320E030E048EC51E462
S1133BA0D9D16093790470937A0480937B049093C1
S1133BB07C041FBFC701B601A2D2663B23E0720793
S1133BC000F580E090E0C7D220E030E040E251E42C
S1133BD0C0D120E030E84DE654E424D220E030E0C7
S1133BE045E753E4C1D320E030E040E251E4B2D1F0
S1133BF086D26093B3008091B00080688093B00057
S1133C0007C01092B3008091B0008F738093B0000E
S1133C101ADF1091320490917204092F0170969565
S1133C2091708FBF992309F446C0103121F40E948A
S1133C30C415F82E06C0103209F03DC00E943E0E95
S1133C40F82E011135C080910201882389F1109268
S1133C5002010E94DD0C103141F401E020E840EF44
S1133C6060E080E00E946F041CC01032D1F401E0D7
S1133C7020E840EF60E080E00E946F0488E2E0E228
S1133C80F3E0DE01119601900D928A95E1F7C6DA10
S1133C909C0142E063E0CE0101960E94D9060E9495
S1133CA0F20CD1DE909172049260909372048FBFF3
S1133CB0F110AECF04C0011102C0F12CC4CFA896FC
S1133CC00FB6F894DEBF0FBECDBFDF91CF911F9129
S1133CD00F91FF90EF90DF90CF90BF90AF909F90A7
S1133CE08F900895CF93DF938EE788B988E087B9E2
S1133CF084E185B98BEF84B98FEF8BB91AB8C1E031
S1133D00C0937E000E9406038BEE80936400D3E888
S1133D10D3BD68E080E00E941F0382E880938000A6
S1133D2089E08093810010928500109284001092A3
S1133D30890080E880938800C0936F0087E286BB87
S1133D4060E480E00E941F03D093B00085E080937C
S1133D50B1001092B2001092B300C093700087E0DB
S1133D6087BB1092B60061E080E00E941F03C093FD
S1133D707E0087E880937A0080EC80937C008091B9
S1133D807A00806180937A0080917A0088608093C1
S1133D907A0080917B00887F866080937B0080918D
S1133DA07A00806280937A000E94050384B7982F7A
S1133DB0977011F481112BC046DEF894109285049B
S1133DC0109281041092820410928304109284044D
S1133DD010927D0410927E0410927F04109280044D
S1133DE040E050E068EC71E44093790450937A0425
S1133DF060937B0470937C0490E490937804909196
S1133E0072049E7F9D7F909372048FBF0DC090E0DB
S1133E10A0E0B0E080932E0490932F04A09330048C
S1133E20B09331040E9405078FEF75DE60E880E0EF
S1133E300E941F0308DE1092B90092E09093B8002C
S1133E4094E49093BA001092BD0095E49093BC0062
S1133E508FBF789413BCE5D981EF0E94F01481E000
S1133E6080932D04C1E080912D04882339F060DE15
S1133E70C3BF889583B78E7F83BFF5CFF4D9F894F9
S1133E8080B7806880BF64E080E00E94350362E010
S1133E9080E00E943503D7DD94E09093BC003C9809
S1133EA0449A3D98459A1092BC008FBF60E880E028
S1133EB00E94350380917A00877F80937A008091F5
S1133EC07A008F7D80937A0080917B00887F809335
S1133ED07B0010927C0010927E0061E080E00E94E2
S1133EE03503B1DDC82F60E280E00E9435032198DC
S1133EF029981092800010928100109282001092F2
S1133F006F0068E080E00E943503239A2B9810929A
S1133F10B0001092B100109270001092B60060E4EC
S1133F2080E00E9435038FDD5F9350E85093610079
S1133F3050E0509361005F918FBFCFBF89E083BF92
S1133F40889583B78E7F83BF80E090E0DF91CF9127
S1133F5008955058BB27AA270ED0B1C1A2D130F082
S1133F60A7D120F031F49F3F11F41EF497C10EF451
S1133F70E095E7FB64C1E92FB3D180F3BA17620778
S1133F8073078407950718F071F49EF5E2C10EF4E7
S1133F90E0950B2EBA2FA02D0B01B90190010C0155
S1133FA0CA01A0011124FF27591B99F0593F50F46D
S1133FB0503E68F11A16F040A22F232F342F4427C5
S1133FC0585FF3CF469537952795A795F0405395BD
S1133FD0C9F77EF41F16BA0B620B730B840BBAF08D
S1133FE09150A1F0FF0FBB1F661F771F881FC2F7F8
S1133FF00EC0BA0F621F731F841F48F4879577950C
S11340006795B795F7959E3F08F0B3CF9395880FC2
S113401008F09927EE0F979587950895ECD008F44A
S113402081E008950CD04BC143D140F03AD130F037
S113403021F45F3F19F003C151118CC12FC150D13C
S113404098F39923C9F35523B1F3951B550BBB275B
S1134050AA2762177307840738F09F5F5F4F220F08
S1134060331F441FAA1FA9F333D00E2E3AF0E0E801
S113407030D091505040E695001CCAF729D0FE2F4D
S113408027D0660F771F881FBB1F261737074807DF
S1134090AB07B0E809F0BB0B802DBF01FF27935895
S11340A05F4F2AF09E3F510568F0C9C053C15F3F7E
S11340B0ECF3983EDCF3869577956795B795F7957D
S11340C09F5FC9F7880F911D9695879597F9089575
S11340D0E1E0660F771F881FBB1F62177307840711
S11340E0BA0720F0621B730B840BBA0BEE1F88F720
S11340F0E095089504D06894B1112CC10895F8D0C6
S113410088F09F5790F0B92F9927B751A0F0D1F0BC
S1134110660F771F881F991F1AF0BA95C9F712C046
S1134120B13081F016D1B1E0089513C1672F782F13
S11341308827B85F39F0B93FCCF3869577956795B2
S1134140B395D9F73EF490958095709561957F4F1E
S11341508F4F9F4F0895E89409C097FB3EF49095C4
S11341608095709561957F4F8F4F9F4F9923A9F04C
S1134170F92F96E9BB279395F695879577956795DB
S1134180B795F111F8CFFAF4BB0F11F460FF1BC01F
S11341906F5F7F4F8F4F9F4F16C0882311F096E9B2
S11341A011C0772321F09EE8872F762F05C0662360
S11341B071F096E8862F70E060E02AF09A95660F19
S11341C0771F881FDAF7880F9695879597F90895D2
S11341D0A9D080F09F3740F491110EF0BBC060E08D
S11341E070E080E89FEB089526F41B16611D711D95
S11341F0811D2BC045C0990F0008550FAA0BE0E89C
S1134200FEEF16161706E807F907C0F01216130694
S1134210E407F50798F0621B730B840B950B39F4D4
S11342200A2661F0232B242B252B21F408950A263A
S113423009F4A140A6958FEF811D811D089597F97A
S11342409F6780E870E060E00895882371F4772325
S113425021F09850872B762F07C0662311F49927F5
S11342600DC09051862B70E060E02AF09A95660F9D
S1134270771F881FDAF7880F9695879597F9089521
S11342809F3F31F0915020F4879577956795B795C6
S1134290880F911D9695879597F908959FEF80EC67
S11342A0089500240A941616170618060906089598
S11342B000240A9412161306140605060895092EFE
S11342C00394000C11F4882352F0BB0F40F4BF2B6D
S11342D011F460FF04C06F5F7F4F8F4F9F4F0895AD
S11342E057FD9058440F551F59F05F3F71F04795A3
S11342F0880F97FB991F61F09F3F79F08795089588
S1134300121613061406551FF2CF4695F1DF08C0A6
S1134310161617061806991FF1CF869571056105C3
S113432008940895E5DFA0F0BEE7B91788F4BB2729
S11343309F3860F41616B11D672F782F8827985F71
S1134340F7CF869577956795B11D93959639C8F300
S11343500895E894BB2766277727CB0197F908953A
S11343604ADF08F48FEF08950BD0A9CF9ADF28F025
S11343709FDF18F0952309F062CF90CF1124EACF84
S1134380AFDFA0F3959FD1F3950F50E0551F629FC7
S1134390F001729FBB27F00DB11D639FAA27F00D9A
S11343A0B11DAA1F649F6627B00DA11D661F829FC1
S11343B02227B00DA11D621F739FB00DA11D621FA6
S11343C0839FA00D611D221F749F3327A00D611DC3
S11343D0231F849F600D211D822F762F6A2F1124A5
S11343E09F5750408AF0E1F088234AF0EE0FFF1FF8
S11343F0BB1F661F771F881F91505040A9F79E3F2F
S1134400510570F01CCFA6CF5F3FECF3983EDCF370
S1134410869577956795B795F795E7959F5FC1F76B
S1134420FE2B880F911D9695879597F90895991BF2
S113443079E004C0991F961708F0961B881F7A9597
S1134440C9F780950895AA1BBB1B51E107C0AA1F99
S1134450BB1FA617B70710F0A61BB70B881F991F21
S11344605A95A9F780959095BC01CD01089597FBC5
S1134470072E16F4009406D077FD08D0E4DF07FC7D
S113448005D03EF4909581959F4F08957095619560
S11344907F4F0895EE0FFF1F0590F491E02D0994CE
S11344A0FB01DC0101900D920020E1F70895FC016D
S11344B06150704001900110D8F7809590958E0F4F
S11344C09F1F0895AEE0B0E0E7E6F2E2C3C20D89B3
S11344D01E898F89988D26E02C831A83098397FF80
S11344E002C080E090E801979E838D83AE01455E13
S11344F05F4F698D7A8DCE01019611D04D815E8119
S113450057FD0AC02F813885421753070CF49A01CE
S1134510F801E20FF31F10822E96E4E0B7C2ABE07D
S1134520B0E0E4E9F2E288C26C017B018A01FC019B
S113453017821682838181FFBFC1CE0101963C019F
S1134540F6019381F70193FD859193FF81917F019A
S1134550882309F4ADC1853239F493FD859193FF25
S113456081917F01853221F4B60190E0B5D1E8CF85
S1134570912C212C312CFFE1F315D8F08B3279F0FA
S113458038F4803279F08332A1F4232D20611DC0E8
S11345908D3261F0803369F4232D216016C0832DA0
S11345A08260382EE32DE4603E2E2AC0F32DF8609D
S11345B01DC037FC2DC020ED280F2A3040F08E326C
S11345C0B9F436FC75C1232D2064322E19C036FE91
S11345D006C08AE0989E200D1124922E11C0EAE0B4
S11345E02E9E200D1124222EF32DF0623F2E08C0A2
S11345F08C3621F4832D8068382E02C0883641F42D
S1134600F70193FD859193FF81917F018111B3CFD0
S1134610982F9F7D9554933028F40C5F1F4F9FE390
S113462099830DC0833631F0833771F0833509F0F7
S113463055C020C0F801808189830E5F1F4F8824F4
S11346408394912C530112C02801F2E04F0E511CA7
S1134650F801A080B18036FE03C0692D70E002C06D
S11346606FEF7FEFC50123DF4C018201F32DFF774C
S11346703F2E15C0280122E0420E511CF801A080F3
S1134680B18036FE03C0692D70E002C06FEF7FEF8A
S1134690C50117D14C01F32DF0683F2E820133FC84
S11346A019C0822D90E088169906A0F4B60180E224
S11346B090E012D12A94F5CFF50137FC859137FEAD
S11346C081915F01B60190E007D121102A9421E085
S11346D0821A91088114910479F7E1C0843611F0AB
S11346E0893639F5F80137FE07C06081718182810E
S11346F093810C5F1F4F08C060817181072E000CED
S1134700880B990B0E5F1F4FF32DFF763F2E97FFFB
S113471009C090958095709561957F4F8F4F9F4FFD
S1134720F0683F2E2AE030E0A30112D1882E8618CB
S113473044C0853731F4232D2F7EB22E2AE030E099
S113474025C0932D997FB92E8F36C1F018F4883582
S113475079F0AEC0803719F0883721F0A9C0E92F6D
S1134760E061BE2EB4FE0DC0FB2DF460BF2E09C067
S113477034FE0AC0292F2660B22E06C028E030E09D
S113478005C020E130E002C020E132E0F801B7FECC
S113479007C060817181828193810C5F1F4F06C0C5
S11347A06081718180E090E00E5F1F4FA301D0D043
S11347B0882E8618FB2DFF773F2E36FE0DC0232D45
S11347C02E7FA22E891458F434FE0BC032FC09C08B
S11347D0832D8E7EA82E05C0B82CA32C03C0B82C24
S11347E001C0B92CA4FE0FC0FE01E80DF11D8081AB
S11347F0803321F49A2D997EA92E09C0A2FE06C009
S1134800B394B39404C08A2D867809F0B394A3FCBE
S113481010C0A0FE06C0B21480F4280C922C9B1881
S11348200DC0B21458F4B60180E290E055D0B394B0
S1134830F8CFB21418F42B1802C0982C212CA4FE23
S11348400FC0B60180E390E047D0A2FE16C0A1FCE1
S113485003C088E790E002C088E590E0B6010CC090
S11348608A2D867851F0A1FE02C08BE201C080E25D
S1134870A7FC8DE2B60190E02FD0891430F4B60184
S113488080E390E029D09A94F8CF8A94F301E80D5C
S1134890F11D8081B60190E01FD08110F6CF222057
S11348A009F44ECEB60180E290E016D02A94F7CFF8
S11348B0F6018681978102C08FEF9FEF2B96E2E18C
S11348C0D7C0FC010590615070400110D8F7809565
S11348D090958E0F9F1F08950F931F93CF93DF938F
S11348E0FB01238121FD03C08FEF9FEF2CC022FF2A
S11348F016C046815781248135814217530744F4F9
S1134900A081B1819D012F5F3F4F318320838C9320
S1134910268137812F5F3F4F3783268314C08B0155
S1134920EC01FB010084F185E02D0995892BE1F66A
S1134930D80116968D919C911797019617969C9382
S11349408E931697CE01DF91CF911F910F91089509
S1134950FA01AA27283051F1203181F1E8946F93AC
S11349606E7F6E5F7F4F8F4F9F4FAF4FB1E03ED052
S1134970B4E03CD0670F781F891F9A1FA11D680FF0
S1134980791F8A1F911DA11D6A0F711D811D911D23
S1134990A11D20D009F468943F912AE0269F112498
S11349A03019305D3193DEF6CF010895462F4770FC
S11349B0405D4193B3E00FD0C9F7F6CF462F4F7057
S11349C0405D4A3318F0495D31FD4052419302D0B5
S11349D0A9F7EACFB4E0A69597958795779567955B
S11349E0BA95C9F700976105710508959B01AC015B
S11349F00A2E06945795479537952795BA95C9F782
S1134A00620F731F841F951FA01D0895F999FECF8F
S1134A1092BD81BDF89A992780B50895262FF999FA
S1134A20FECF1FBA92BD81BD20BD0FB6F894FA9A8D
S1134A30F99A0FBE019608952F923F924F925F927A
S1134A406F927F928F929F92AF92BF92CF92DF929A
S1134A50EF92FF920F931F93CF93DF93CDB7DEB7FF
S1134A60CA1BDB0B0FB6F894DEBF0FBECDBF099493
S1134A702A88398848885F846E847D848C849B84EA
S1134A80AA84B984C884DF80EE80FD800C811B81F8
S1134A90AA81B981CE0FD11D0FB6F894DEBF0FBE27
S10D4AA0CDBFED010895F894FFCF97
S1134AAA020101009E000607207E436C6B53746169
S1134ABA74653A2030780044617465202020203AD5
S1134ACA0054696D65202020203A2030303A303075
S1134ADA2E30302055544300446576696174276E3C
S1134AEA3A20253034642E253033642070706200F5
S1134AFA50574D20202020203A202533642E25307B
S1134B0A33642F323536203D2533642E2530336401
S1134B1A25250050756C6C566F6C743A20253164E7
S1134B2A2E253033642056005068617365566F6CC5
S1134B3A743A202531642E2530336420560053619B
S1134B4A7455736520203A20576573743D253032B5
S1134B5A6420456173743D2530326420557365645D
S1134B6A3D253032642073617473005361742044A8
S1134B7A4F50203A20253032642E253032640053B7
S1134B8A617453746174653A2046493D2531642041
S1134B9A4D323D25316400536174204C6174203ACE
S1134BAA2025632020253032642563253032642E83
S1134BBA253034642700536174204C6F6E203A20E8
S1134BCA256320253033642563253032642E25304D
S1134BDA3464270053617420486774203A202530CE
S1134BEA34642E25303164206D0050686173653A4F
S1134BFA20252B30346425630050686173654F6641
S1134C0A733A00253032643A253032642E25303224
S1134C1A6400253032642E253032642E2530346403
S1134C2A00253158002531642E2530336400252BA4
S1134C3A303464002530326420456173743D253074
S1134C4A326420557365643D25303264002563203F
S1134C5A20253032642563253032642E25303464AD
S1134C6A00256320253033642563253032642E25DC
S1134C7A30346400253034642E2531640025303400
S1134C8A642E25303364002533642E2530336400C2
S1134C9A20543D20202532642E253032645E432080
S1134CAA00204C3D2534642E2531642041440044BF
S1134CBA463449414820536D6172742D4C43440073
S1134CCA3C3D3D3D3D203130204D487A2E2D5265E4
S1134CDA662E2D4F73632E20536D6172742D4C43CF
S10B4CEA44203D3D3D3D3E0028
S9030000FC
