:10000000E7C200000C94730C0C94500C0C942D0C53
:100010000C940A0C0C94E70B0C94C40B0C94A10BDD
:100020000C947E0B4DC700000C945B0B0C94380BAA
:100030000C94150BDFC700000C94F20A0C94CF0A45
:100040000C94AC0A0C94890A0C94660A0C94430A2A
:100050000C94200A0C9418090C94FD090C94DA09EC
:100060000C9485090C94B709481A521A5E1A681A3A
:10007000741A821A921AA41ABA1AD41AF21A141BEF
:100080003A1B881B981BA61BB21BC01BCA1B221C39
:10009000221CD61BE21BEC1BF61B061C161C0000C8
:1000A00000000000002020202020002050505000A0
:1000B0000000005050F850F850502078A07028F000
:1000C00020C0C810204098186090A040A890686098
:1000D0002040000000001020404040201040201030
:1000E00010102040005020F8205000002020F82060
:1000F000200000000000602040000000F800000028
:10010000000000000060600008102040800070883F
:1001100098A8C8887020602020202070708808105F
:100120002040F8F810201008887010305090F81017
:1001300010F880F008088870304080F0888870F8E7
:1001400008102040404070888870888870708888C7
:10015000780810600060600060600000606000600F
:100160002040081020402010080000F800F800008F
:100170008040201020408070880810200020708867
:100180000868A8A87070888888F88888F08888F03F
:100190008888F070888080808870E0908888889057
:1001A000E0F88080F08080F8F88080E080808070C7
:1001B000888080988870888888F88888887020204F
:1001C00020202070381010101090608890A0C0A0DF
:1001D0009088808080808080F888D8A888888888E7
:1001E0008888C8A898888870888888888870F088E7
:1001F00088F080808070888888A89068F08888F06F
:10020000A09088788080700808F0F82020202020B6
:10021000208888888888887088888888885020887E
:100220008888A8A8D88888885020508888888850CE
:1002300020202020F80810204080F838202020209E
:10024000203800804020100800E02020202020E0FE
:1002500020508800000000000000000000F840204E
:100260001000000000000070087888788080B0C816
:100270008888F000007080808870080868988888F6
:100280007800007088F88070304840E040404000BE
:100290000078887808308080B0C88888882000601E
:1002A00020202070100030101090604040485060B6
:1002B0005048602020202020700000D0A8A8888806
:1002C0000000B0C8888888000070888888700000A6
:1002D000F088F08080000068987808080000B0C8B6
:1002E000808080000070807008F04040E04040480E
:1002F000300000888888986800008888885020002E
:10030000008888A8A85000008850205088000088E5
:10031000887808700000F8102040F8102020402055
:1003200020102020202020202040202010202040AD
:1003300020502000000000000000000000002020ED
:100340002020200020505050000000005050F85055
:10035000F850502078A07028F020C0C81020409895
:10036000186090A040A89068602040000000001035
:10037000204040402010402010101020400050200D
:10038000F8205000002020F820200000000000602D
:100390002040000000F80000000000000000606045
:1003A00000081020408000708898A8C888702060DD
:1003B0002020202070708808102040F8F8102010AD
:1003C00008887010305090F81010F880F0080888F5
:1003D00070304080F0888870F808102040404070ED
:1003E00088887088887070888878081060006060DD
:1003F0000060600000606000602040081020402025
:1004000010080000F800F800008040201020408014
:100410007088081020002070880868A8A87070886C
:100420008888F88888F08888F08888F070888080CC
:10043000808870E09088888890E0F88080F08080E4
:10044000F8F88080E080808070888080988870884C
:100450008888F88888887020202020207038101024
:10046000101090608890A0C0A090888080808080CC
:1004700080F888D8A8888888888888C8A8988888B4
:1004800070888888888870F08888F080808070887C
:100490008888A89068F08888F0A09088788080701C
:1004A0000808F0F820202020202088888888888864
:1004B0007088888888885020888888A8A8D88888E4
:1004C00088502050888888885020202020F80810E4
:1004D000204080F838202020202038008040201044
:1004E0000800E02020202020E020508800000000AC
:1004F000000000000000F840201000000000000094
:1005000070087888788080B0C88888F00000708093
:100510008088700808689888887800007088F8805B
:1005200070304840E04040400000788878083080D3
:1005300080B0C8888888200060202020701000309B
:1005400010109060404048506050486020202020AB
:1005500020700000D0A8A888880000B0C8888888CB
:10056000000070888888700000F088F080800000AB
:1005700068987808080000B0C8808080000070800B
:100580007008F04040E0404048300000888888987B
:10059000680000888888502000008888A8A850003B
:1005A000008850205088000088887808700000F883
:1005B000102040F810202040202010202020202053
:1005C000202040202010202040205020000000004B
:1005D00011241FBECFEFD8E0DEBFCDBF13E0A0E0F7
:1005E000B1E0E4E9FBE402C005900D92A834B10744
:1005F000D9F724E0A8E4B3E001C01D92AD38B207FA
:10060000E1F70E94E71E0C94C8250895CF93DF936D
:100610001F92CDB7DEB78FEF809364008FB78983C9
:10062000F89489815F9350E85093610050E05093B3
:1006300061005F918FBF0F90DF91CF910895CF93AD
:10064000DF931F92CDB7DEB79FB79983F894998156
:10065000811106C0609580916400682360936400F6
:100660009FBF0F90DF91CF910895CF93DF931F929B
:10067000CDB7DEB79FB79983F8949981811105C0F2
:1006800080916400682B609364009FBF0F90DF919E
:10069000CF910895FF920F931F93CF93DF93082F6D
:1006A000842F90E0800F911D813F910514F040EF61
:1006B000401B442309F447C0D62FD695D695D6952E
:1006C00070E088E0D89F60197109112481E090E002
:1006D00001C0880F6A95EAF7F82E213031F040F01A
:1006E000223089F5CFEFC40F22C0CFEFC40F05C071
:1006F000CFEFC40F182F10950DC0102F1C0F612FB6
:100700008D2FF0D24F2D482B612F8D2FBBD2C15092
:10071000A0F719C0F02EFC0E6F2D8D2FE3D2412FC4
:1007200048236F2D8D2FAED2C150A0F70CC0102FD3
:100730001C0F612F8D2FD6D24F2D4827612F8D2F63
:10074000A1D2C150A0F7DF91CF911F910F91FF90DF
:100750000895EF92FF920F931F93CF93DF93942FFF
:10076000442309F446C04FEF460F940F691308C0A5
:10077000422FDF91CF911F910F91FF90EF90FCC21C
:100780009F3708F09FE7162F169516951695092F97
:100790000695069506956770EFEFF0E0AF0101C092
:1007A000440F6A95EAF7977067E070E0691B71097A
:1007B0007F0102C0F594E7946A95E2F7101304C034
:1007C0004E21682F812F0EC0D22FC82F6C2F812F62
:1007D000AED21F5F2D2F101710F44FEFF7CF4E2D15
:1007E0006C2F802FDF91CF911F910F91FF90EF9091
:1007F0009EC2DF91CF911F910F91FF90EF900895CE
:100800008F929F92AF92BF92CF92DF92EF92FF9220
:100810000F931F93CF93DF93182FB62E481728F40A
:10082000B22E262F812F142F482FC42FD0E0C11BAA
:10083000D109E22EF12CEB18F108D7FF06C0D195B3
:10084000C195D10999249A9402C099249394F7FEF2
:1008500006C0F194E194F10888248A9402C08824A7
:100860008394EC16FD06BCF46701CC1ADD0AA12CBA
:100870008A2D90E0C817D9072CF1402F6B2D812FBE
:100880007BD2D7FC03C0CC1ADD0AB80CCE0CDF1C1F
:10089000190DA394EDCF6E01CE18DF08A12C8A2D7F
:1008A00090E0E816F90674F0402F6B2D812F64D28A
:1008B000D7FC03C0CE18DF08190DCC0EDD1EB80C16
:1008C000A394EDCFDF91CF911F910F91FF90EF9007
:1008D000DF90CF90BF90AF909F908F900895FF9240
:1008E0000F931F93CF93DF93D82F162FC42FF22E81
:1008F000202FD0DE6FEF6F0D610F202F4C2F8D2F2B
:10090000C9DE202F4F2D612F8D2F23DF8FEF8C0F0E
:10091000202F4F2D612F8D0FDF91CF911F910F91C0
:10092000FF9017CFFF920F931F93CF93DF93222354
:1009300069F0142FF62ED82FCFEFC20F6F2D6C0F4A
:10094000202F412F8D2FA6DEC150C0F7DF91CF9110
:100950001F910F91FF9008955F926F927F928F92F7
:100960009F92AF92BF92CF92DF92EF92FF920F933E
:100970001F93CF93DF93182FF62EC42FE22E411131
:1009800011C0422FDF91CF911F910F91FF90EF90F7
:10099000DF90CF90BF90AF909F908F907F906F909F
:1009A0005F90EAC183E090E06C0122E0429FC018B2
:1009B000D1081124D0E0802F8170B82E202F227012
:1009C000A22E802F8470982E202F2870822E802FA8
:1009D0008071782E202F2072622E802F8074582EE6
:1009E000BB2031F04E2D6F2D6D1B812F8C0FC4D18C
:1009F000AA2031F04E2D6F2D6C1B812F8D0FBCD195
:100A0000992031F04E2D6F2D6C1B812F8D1BB4D191
:100A1000882031F04E2D6F2D6D1B812F8C1BACD19A
:100A2000772031F04E2D6F2D6D0F812F8C1BA4D1AF
:100A3000662031F04E2D6F2D6C0F812F8D1B9CD1B8
:100A4000552031F04E2D6F2D6C0F812F8D0F94D1CD
:100A500007FF06C04E2D6F2D6D0F812F8C0F8CD18F
:100A60008D2F90E0D7FE08C0880F991F880F991F1F
:100A70000696C80ED91E0AC08C1B9109880F991FB3
:100A8000880F991F0A96C80ED91EC150DF5FCD1777
:100A900008F0A6CFDF91CF911F910F91FF90EF90BB
:100AA000DF90CF90BF90AF909F908F907F906F908E
:100AB0005F9008958F929F92AF92BF92CF92DF92F4
:100AC000EF92FF920F931F93CF93DF93182FD62EA1
:100AD000C42FC22E41110EC0422FDF91CF911F9122
:100AE0000F91FF90EF90DF90CF90BF90AF909F90CD
:100AF0008F9042C183E090E07C0122E0429FE018A9
:100B0000F1081124BB24B394D0E0802F8370A82E69
:100B1000202F2C70922E802F8073882E007CAA208C
:100B200079F02C2D4B2D6D2D6D1B812F8C0F11DE2F
:100B30002C2D41E04C0F6D2D6C1B812F8D0F09DE8C
:100B4000992079F02C2D4B2D6D2D6D1B812F8C1B39
:100B500000DE2C2D41E04C0F6D2D6C1B812F8D1B69
:100B6000F8DD882069F02C2D4B2D6D2D812F8C1BED
:100B7000F0DD2C2D41E04C0F6D2D812F8D1BE9DD1B
:100B8000002369F02C2D4B2D6D2D812F8C0FE1DD75
:100B90002C2D41E04C0F6D2D812F8D0FDADD8D2F27
:100BA00090E0F7FE08C0880F991F880F991F0696DE
:100BB000E80EF91E0AC08C1B9109880F991F880F37
:100BC000991F0A96E80EF91EC150DF5FB394CD1746
:100BD00008F0A5CFDF91CF911F910F91FF90EF907B
:100BE000DF90CF90BF90AF909F908F9008950F931C
:100BF0001F93CF93DF938C01862FD42FC22F011523
:100C0000110549F41092490310924803DF91CF91E6
:100C10001F910F9108956031A8F7403F98F702D7D0
:100C20008D2F08D78C2F90E08D0F911D813F91055E
:100C300014F0C0EFCD1BCC2329F3F80181918F0173
:100C4000A6D6C150F8CF803140F4603F30F470E058
:100C500070649B01382BC901089580E090E80895E5
:100C600010924903109248030895CF93C42FEBDFED
:100C700096FF06C09093490380934803C0934A03AC
:100C8000CF9108951F93CF93DF93803178F4603F25
:100C900068F4142FC62FD82FE8DF8D2FC3D68C2FE2
:100CA000C9D6812FDF91CF911F9171C6DF91CF916E
:100CB0001F910895CF93DF93EA01C5DF96FF0EC021
:100CC00020914803309149038217930739F4209704
:100CD00029F080914A03888381E001C080E0DF91A0
:100CE000CF9108950F931F93CF93DF931F92CDB7AA
:100CF000DEB719828031A0F4603F90F4062F182FE0
:100D0000AE014F5F5F4FD6DF81110AC0812F8AD6B7
:100D1000802F90D649D68983482F602F812FA5DF59
:100D200089810F90DF91CF911F910F9108950F93BB
:100D30001F93CF93DF938031D0F4603FC0F4022F34
:100D4000C42F162FD82FCEDF013041F020F0023013
:100D500031F48C2704C0C0958C2301C08C2B482F04
:100D6000612F8D2FDF91CF911F910F918BCFDF914D
:100D7000CF911F910F910895962F242F803F88F4D3
:100D800067FD0FC0362F377061E070E0AB0101C026
:100D9000440F3A95EAF7682F892F869586958695B0
:100DA000C6CF08959F92AF92BF92CF92DF92EF92FB
:100DB000FF920F931F93CF93DF93D82FC62ED42E7D
:100DC000790100E0F901248143816D2D8C2DAADD8C
:100DD000F7018081811139C08381282F26952695BE
:100DE0002695877009F02F5FF701C4818D2F90E061
:100DF0003581831B91092C9F90011124829FA001B2
:100E0000839F500D929F500D112401811281040F78
:100E1000151FDC0E9D2C9C1AF701A380B12CD0E08D
:100E20008C2D8D0FAD1679F09D2F977021F4F80160
:100E3000B4900F5F1F4FB7FE03C041E0692D9CDFE8
:100E4000BB0CDF5FEDCFC15029F7DF91CF911F9130
:100E50000F91FF90EF90DF90CF90BF90AF909F9059
:100E60000895DF92EF92FF920F931F93CF93DF933A
:100E7000D62ED42F79018C01C62FF80181918F01D4
:100E80008A3031F4F70184818F5FD80FCD2D09C0EE
:100E90008D3039F097014D2F6C2F84DFF70183815E
:100EA000C80FF80180818111E8CFDF91CF911F91A8
:100EB0000F91FF90EF90DF900895989500000895AE
:100EC0001F920F920FB60F9211242F933F934F93BF
:100ED0005F936F937F938F939F93AF93BF93EF93A2
:100EE000FF938091750481FF74C080913504803236
:100EF00009F06FC085B18F73909160049F3060F4EA
:100F0000806490914E03923019F09AE790934D03CC
:100F100092E090934E0324C09F30C1F4209152047C
:100F2000309153042D5F3F4F2730310578F48068AE
:100F300010924E039091650420914C03921781F01A
:100F400090934C0396E090934D030AC090914E030A
:100F5000911103C09EE190934D0391E090934E0355
:100F600090914D03992339F0915090934D0399E05E
:100F70009093790402C01092790485B980914B0353
:100F8000882321F0815080934B0323C08CE0809311
:100F90004B0386B1867090E09595879580FD09C0DA
:100FA00080917A048823A9F0815080937A0411D526
:100FB00010C081FD09C080917A048F3350F48F5F97
:100FC00080937A0406D505C01A9903C081E00E9477
:100FD000F81DFF91EF91BF91AF919F918F917F91FC
:100FE0006F915F914F913F912F910F900FBE0F9096
:100FF0001F9018951F920F920FB60F9211242F93E6
:101000003F934F935F936F937F938F939F93AF9390
:10101000BF938091890490918A04A0918B04B09130
:101020008C040196A11DB11D8093890490938A04BC
:10103000A0938B04B0938C048091750481FF56C0FB
:1010400040917904442309F451C080914E04909159
:101050004F0495958795959587959C012559314F16
:101060005091760480917704909178045523B1F0E3
:10107000821B930B9093780480937704823020EC4A
:10108000920714F51092760422E030E8B901681B4B
:10109000790B709378046093770416C0820F931FC6
:1010A00090937804809377048F3F7FE3970764F0F1
:1010B00021E0209376042EEF3FE7B901681B790BFE
:1010C00070937804609377042FE030E0241B31099B
:1010D000809177049091780402C0959587952A9520
:1010E000E2F793959093890080938800BF91AF9128
:1010F0009F918F917F916F915F914F913F912F9130
:101100000F900FBE0F901F9018958F929F92AF92E5
:10111000BF92CF92DF92EF92FF92CF93DF93EB01DA
:101120008130E9F5C0908404D0908504E090860475
:10113000F090870420E030E0A901C701B6010E94C9
:101140008320AE0160E070E08823D9F0CB01BA01C2
:101150000E9420212FE632E143E05BE30E94292236
:101160004B015C012EEE3CE74FE75FE3C701B601A0
:101170000E9429229B01AC01C501B4010E941F20DD
:1011800004C0CB01BA010E942021F894609384042A
:101190007093850480938604909387043EC08330C7
:1011A000E1F5C0908004D0908104E0908204F0903A
:1011B000830420E030E0A901C701B6010E9483202A
:1011C000AE0160E070E08823D9F0CB01BA010E9443
:1011D00020212FE632E143E05AE30E9429224B010D
:1011E0005C012BE33FED4FE75FE3C701B6010E94CF
:1011F00029229B01AC01C501B4010E941F2004C03B
:10120000CB01BA010E942021F8946093800470936E
:1012100081048093820490938304DF91CF91FF90A7
:10122000EF90DF90CF90BF90AF909F908F900895F8
:101230001F920F920FB60F921124CF92DF92EF926E
:10124000FF921F932F933F934F935F936F937F93DF
:101250008F939F93AF93BF93CF93DF93EF93FF93BE
:1012600010918804C091780080917900D0E0D82B4B
:10127000113059F030F0123079F483E08093880413
:1012800010C081E0809388040CC088EC80937C00BF
:1012900082E08093880405C080EC80937C001092EB
:1012A00088046091840470918504809186049091F3
:1012B00087040E94F4206B017C016091800470918E
:1012C000810480918204909183040E94F420789498
:1012D0009B01A601BE01812F18DFFF91EF91DF91E5
:1012E000CF91BF91AF919F918F917F916F915F91BE
:1012F0004F913F912F911F91FF90EF90DF90CF90F2
:101300000F900FBE0F901F9018951F920F920FB65F
:101310000F9211242F933F934F935F936F937F937B
:101320008F939F93AF93BF93CF93DF93EF93FF93ED
:101330008091B9006091BB00CCEBD0E04881887F00
:101340000E94281C85688883FF91EF91DF91CF91DF
:10135000BF91AF919F918F917F916F915F914F91CD
:101360003F912F910F900FBE0F901F9018951F92D5
:101370000F920FB60F9211242F933F934F935F93C9
:101380006F937F938F939F93AF93BF93EF93FF934D
:1013900094DDFF91EF91BF91AF919F918F917F91DC
:1013A0006F915F914F913F912F910F900FBE0F90D2
:1013B0001F9018951F920F920FB60F9211242F9322
:1013C0003F934F935F936F937F938F939F93AF93CD
:1013D000BF93EF93FF93CBDFFF91EF91BF91AF915D
:1013E0009F918F917F916F915F914F913F912F913D
:1013F0000F900FBE0F901F9018951F920F920FB66F
:101400000F9211242F933F934F935F936F937F938A
:101410008F939F93AF93BF93EF93FF93A8DFFF91B9
:10142000EF91BF91AF919F918F917F916F915F915C
:101430004F913F912F910F900FBE0F901F901895D5
:101440001F920F920FB60F9211242F933F934F9339
:101450005F936F937F938F939F93AF93BF93EF931C
:10146000FF9385DFFF91EF91BF91AF919F918F9196
:101470007F916F915F914F913F912F910F900FBE90
:101480000F901F9018951F920F920FB60F92112474
:101490002F933F934F935F936F937F938F939F937C
:1014A000AF93BF93EF93FF9362DFFF91EF91BF91F3
:1014B000AF919F918F917F916F915F914F913F91EC
:1014C0002F910F900FBE0F901F9018951F920F92A3
:1014D0000FB60F9211242F933F934F935F936F9307
:1014E0007F938F939F93AF93BF93EF93FF933FDFD0
:1014F000FF91EF91BF91AF919F918F917F916F91EC
:101500005F914F913F912F910F900FBE0F901F90C1
:1015100018951F920F920FB60F9211242F933F939D
:101520004F935F936F937F938F939F93AF93BF93EB
:10153000EF93FF931CDFFF91EF91BF91AF919F91CC
:101540008F917F916F915F914F913F912F910F906C
:101550000FBE0F901F9018951F920F920FB60F920B
:1015600011242F933F934F935F936F937F938F93A8
:101570009F93AF93BF93EF93FF93F9DEFF91EF91AA
:10158000BF91AF919F918F917F916F915F914F919B
:101590003F912F910F900FBE0F901F9018951F92A3
:1015A0000F920FB60F9211242F933F934F935F9397
:1015B0006F937F938F939F93AF93BF93EF93FF931B
:1015C000D6DEFF91EF91BF91AF919F918F917F9167
:1015D0006F915F914F913F912F910F900FBE0F90A0
:1015E0001F9018951F920F920FB60F9211242F93F0
:1015F0003F934F935F936F937F938F939F93AF939B
:10160000BF93EF93FF93B3DEFF91EF91BF91AF9143
:101610009F918F917F916F915F914F913F912F910A
:101620000F900FBE0F901F9018951F920F920FB63C
:101630000F9211242F933F934F935F936F937F9358
:101640008F939F93AF93BF93EF93FF9390DEFF91A0
:10165000EF91BF91AF919F918F917F916F915F912A
:101660004F913F912F910F900FBE0F901F901895A3
:101670001F920F920FB60F9211242F933F934F9307
:101680005F936F937F938F939F93AF93BF93EF93EA
:10169000FF936DDEFF91EF91BF91AF919F918F917D
:1016A0007F916F915F914F913F912F910F900FBE5E
:1016B0000F901F9018951F920F920FB60F92112442
:1016C0002F933F934F935F936F937F938F939F934A
:1016D000AF93BF93EF93FF934ADEFF91EF91BF91DA
:1016E000AF919F918F917F916F915F914F913F91BA
:1016F0002F910F900FBE0F901F9018951F920F9271
:101700000FB60F9211242F933F934F935F936F93D4
:101710007F938F939F93AF93BF93EF93FF9327DEB6
:10172000FF91EF91BF91AF919F918F917F916F91B9
:101730005F914F913F912F910F900FBE0F901F908F
:1017400018951F920F920FB60F9211242F933F936B
:101750004F935F936F937F938F939F93AF93BF93B9
:10176000EF93FF9304DEFF91EF91BF91AF919F91B3
:101770008F917F916F915F914F913F912F910F903A
:101780000FBE0F901F9018951F920F920FB60F92D9
:1017900011242F933F934F935F936F937F938F9376
:1017A0009F93AF93BF93EF93FF93E1DDFF91EF9191
:1017B000BF91AF919F918F917F916F915F914F9169
:1017C0003F912F910F900FBE0F901F9018951F9271
:1017D0000F920FB60F9211242F933F934F935F9365
:1017E0006F937F938F939F93AF93BF93EF93FF93E9
:1017F000BEDDFF91EF91BF91AF919F918F917F914E
:101800006F915F914F913F912F910F900FBE0F906D
:101810001F9018951F920F920FB60F9211242F93BD
:101820003F934F935F936F937F938F939F93AF9368
:10183000BF93EF93FF939BDDFF91EF91BF91AF912A
:101840009F918F917F916F915F914F913F912F91D8
:101850000F900FBE0F901F9018951F920F920FB60A
:101860000F9211242F933F934F935F936F937F9326
:101870008F939F93AF93BF93EF93FF9378DDFF9187
:10188000EF91BF91AF919F918F917F916F915F91F8
:101890004F913F912F910F900FBE0F901F90189571
:1018A0001F920F920FB60F9211242F933F934F93D5
:1018B0005F936F937F938F939F93AF93BF93EF93B8
:1018C000FF9355DDFF91EF91BF91AF919F918F9164
:1018D0007F916F915F914F913F912F910F900FBE2C
:1018E0000F901F9018951F920F920FB60F92112410
:1018F0002F933F934F935F936F937F938F939F9318
:10190000AF93BF93EF93FF9332DDFF91EF91BF91C0
:10191000AF919F918F917F916F915F914F913F9187
:101920002F910F900FBE0F901F901895CF93DF93BC
:101930001F92CDB7DEB78FB78983F89489810F9056
:10194000DF91CF91089504C0615071098109910917
:101950006115710581059105B9F70895E7DF982FA5
:101960008FEF8BB91AB828982C9A2D9A2D9889B197
:101970009FBF0895CF93C82FD9DFCBB99FEF9AB9F6
:1019800028982C982D9A2D988FBFCF910895CF939A
:10199000C82FCCDFCBB99FEF9AB9289A2C982D9AF3
:1019A0002D988FBFCF910895C1DF982F8FEF8BB9FE
:1019B0001AB8289A2C9A2D9A2D9880910F04882372
:1019C00019F089B12D9A2D9889B110920F049FBFFB
:1019D000089581E8CFDF80917A048F738068CACF41
:1019E0008DE2C8DF84E2C6DF8AEEC4DFF2DF88EC76
:1019F000C1DF88E8BFDF80E4BDDF80E9BBDF80EBCB
:101A0000B9DF80E0B7DF80E1B5DF81E080930F04CC
:101A10008FEEB0DF8EEEAEDF84EAACDF86EAAADFBF
:101A20008FEAA8CF803128F4806BA4DF81E0809317
:101A30000F040895CF93803F58F4C82F8F709ADF1A
:101A40008C2F82958F70806195DF81E080930F04E9
:101A5000CF91089580E08EDF80E18CDF81E080937C
:101A60000F04089580EB86DFF5CFCF93DF93C0E0BE
:101A70008C2F806B7FDF80E07DDF80E17BDFD0EF2C
:101A800080E085DFD150E1F7CF5FC03189F7DF918A
:101A9000CF91E8CFFF920F931F93CF93DF936AE02C
:101AA00071E08FED93E00E94C52223E031E04BE02E
:101AB00063E08FED93E0D5D967E171E08FED93E0BE
:101AC0000E94C52223E031E044E163E08FED93E022
:101AD000C8D961E271E08FED93E00E94C52223E056
:101AE00031E04DE163E08FED93E0BBD91F921F928F
:101AF0001F921F9288E391E09F938F931F9210E3B0
:101B00001F93CFEDD3E0DF93CF930E94D72223E042
:101B100031E046E263E0CE01A4D91F921F921F92EA
:101B20001F921F921F921F921F9280E591E09F9338
:101B30008F931F921F93DF93CF930E94D72223E0AE
:101B400031E04FE263E0CE018CD91F921F921F92C9
:101B50001F9283E791E09F938F931F921F93DF93D0
:101B6000CF930E94D7228DB79EB782960FB6F89476
:101B70009EBF0FBE8DBF23E031E048E363E0CE019E
:101B800070D91F921F921F921F9288E891E09F9335
:101B90008F931F921F93DF93CF930E94D72223E04E
:101BA00031E048E36BE7CE015CD91F921F921F9290
:101BB0001F921F921F928EE991E09F938F931F9225
:101BC0001F93DF93CF930E94D72223E031E041E4BB
:101BD00063E0CE0146D91F921F921F921F928BEC99
:101BE00091E09F938F931F921F93DF93CF930E9457
:101BF000D7228DB79EB780960FB6F8949EBF0FBEC2
:101C00008DBF23E031E04AE463E0CE012AD91F9280
:101C10001F921F921F928FED91E09F938F931F92BF
:101C20001F93DF93CF930E94D72223E031E043E557
:101C300063E0CE0116D91F921F921F921F921F922E
:101C40000EE70F931F921F921F9280E2F82EFF92D1
:101C500087EF91E09F938F931F921F93DF93CF9312
:101C60000E94D72223E031E04CE563E0CE01F9D8B1
:101C70001F921F921F921F921F920F931F921F92EB
:101C80001F92FF9286E192E09F938F931F921F9382
:101C9000DF93CF930E94D7228DB79EB78A960FB657
:101CA000F8949EBF0FBE8DBF23E031E045E663E0B0
:101CB000CE01D7D81F921F921F921F9284E392E009
:101CC0009F938F931F921F93DF93CF930E94D722EE
:101CD00023E031E04EE663E0CE01C3D81F920F93BC
:101CE0001F921F928AE492E09F938F931F921F93FB
:101CF000DF93CF930E94D72223E031E04EE66FE9D5
:101D0000CE01AFD88DB79EB744960FB6F8949EBF5C
:101D10000FBE8DBF23E031E047E763E089E592E045
:101D2000DF91CF911F910F91FF909BC83F924F92EF
:101D30005F926F927F928F929F92AF92BF92CF925B
:101D4000DF92EF92FF920F931F93CF93DF93EEDD1D
:101D5000C82F9091360492FF30C09B7F9093360439
:101D6000809165041F928F93809164041F928F93DA
:101D7000809163041F928F9383E692E09F938F93E9
:101D80001F9280E38F938FED93E09F938F930E9438
:101D9000D722CFBF23E031E04DE16FE38FED93E039
:101DA00060D80E9430068DB79EB70C960FB6F89497
:101DB0009EBF0FBE8DBF8FEF17C491FF32C09D7FB6
:101DC00090933604809151048F93809150048F93A7
:101DD000809161041F928F93809162041F928F9370
:101DE00082E792E09F938F931F9280E38F938FED12
:101DF00093E09F938F930E94D722CFBF23E031E0DF
:101E000044E16FE38FED93E02CD80E9430068DB74C
:101E10009EB70C960FB6F8949EBF0FBE8DBF8EEF87
:101E2000E3C3892F817090FF57C19E7F9093360442
:101E3000CFBFC0914E04D0914F04A0904C04B090FD
:101E40004D0490906004C13596E4D9079CF4C03BE2
:101E500089EBD8072CF0C53991E1D9071CF00FC0E8
:101E6000C0EBD9EBBE01CC368EEED80754F46CE64D
:101E70007EEE07C0C0E5D6E460E576E402C060E52A
:101E800076E4072E000C880B990B0E94222120E09B
:101E900030EA4CE855E40E94872020E030E048E931
:101EA00052E40E9429220E94EF202B013C017B0179
:101EB00077FF08C036E9832E860ECC24DD24C61AAF
:101EC000D70A03C06B0126E9822E1F929F9281E8F8
:101ED00092E09F938F931F9290E3392E3F920FEDE4
:101EE00013E01F930F930E94D72223E031E04BE0D1
:101EF0006BE4C8010E943107C50168EE73E00E94DF
:101F000098229F938F937F936F9385E892E09F939E
:101F10008F931F923F921F930F930E94D72223E02B
:101F200031E048E36DEBC8010E943107CE0164E661
:101F300070E00E94AC227F936F938EE892E09F93B3
:101F40008F931F923F921F930F930E94D72223E0FB
:101F500031E04EE669ECC8010E9431078DB79EB7AB
:101F60004A960FB6F8949EBF0FBE8DBF809159035D
:101F7000981222C0C114D104F9F0442D1E141F047C
:101F80000CF440E0D42DF7FCD0E097E0991609F46A
:101F900062C0991568F08FEF890D833008F096C004
:101FA00001E021E048E96AE78AE40E9492048EC0D9
:101FB0008FE0981699F08AC000E025E040EA68E7D3
:101FC00086E40E949204C114D104B9F601E02CE722
:101FD00046E968E786E90E94000478C0405B00E0BB
:101FE00025E068E786E40E949204F7FE0FC001E056
:101FF00028E7482D6AE7CCEFC80D8C2F0E9400041B
:102000002CE7482D6AE78C2F0E94000401E025E0B0
:102010004C2D68E7882D0E94920440E54D1B00E09E
:1020200025E068E786E98D0F0E9492041E141F04C4
:102030000CF04CC0C5E9CD0FD75601E028E74C2F76
:102040006AE78D2F0E9400042CE74C2F6AE78D2F42
:102050000E9400043BC0405B00E023E069E786E4A7
:102060000E949204F7FE0FC001E029E7482D6AE7BD
:10207000CCEFC80D8C2F0E9400042BE7482D6AE797
:102080008C2F0E94000401E023E04C2D69E7882D8D
:102090000E94920440E54D1B00E023E069E786E9D9
:1020A0008D0F0E9492041E141F0484F4C5E9CD0F05
:1020B000D75601E029E74C2F6AE78D2F0E940004D4
:1020C0002BE74C2F6AE78D2F0E9400049092590352
:1020D0000E9430068DEF88C296FF38C02091010122
:1020E0002230A0F59F7B9093360480916B041F9261
:1020F0008F9380916A041F928F93809169041F923D
:102100008F9384E992E09F938F931F9280E38F9344
:102110008FED93E09F938F930E94D722CFBF23E050
:1021200031E041E46DE58FED93E00E9431070E94BC
:10213000300682E0809301018DB79EB70C960FB6F2
:10214000F8949EBF0FBE8DBF81E04EC297FF49C07D
:1021500020910101233008F044C0809136048F772C
:10216000809336042091580430915904C90164E6E3
:1021700070E00E9498229F938F93B90180E090E0D5
:102180000E94202120E030E048EC52E40E948720A9
:102190000E94EF207F936F9385ED91E09F938F9343
:1021A0001F9280E38F938FED93E09F938F930E9414
:1021B000D722CFBF23E031E04AE46FE38FED93E015
:1021C0000E9431070E94300683E0809301018DB7A1
:1021D0009EB70A960FB6F8949EBF0FBE8DBF82E0E1
:1021E00003C22091370420FF34C030910101343004
:1021F00080F52E7F2093370480916D041F928F937A
:1022000080916C041F928F938CEE91E09F938F933B
:102210001F9280E38F938FED93E09F938F930E94A3
:10222000D722CFBF23E031E043E561E58FED93E0B6
:102230000E9431070E94300684E0809301018DB72F
:102240009EB70A960FB6F8949EBF0FBE8DBF83E06F
:10225000CBC121FF44C030910101353008F03FC0AF
:10226000809137048D7F8093370480915B048F9336
:1022700080915A048F93809170041F928F931F92C4
:102280008EE78F9380916F041F928F9380916E04DD
:102290001F928F938DEA92E09F938F931F9280E31A
:1022A0008F938FED93E09F938F930E94D722CFBFA0
:1022B00023E031E04CE56FE38FED93E00E943107BE
:1022C0000E94300685E0809301018DB79EB740964D
:1022D0000FB6F8949EBF0FBE8DBF84E085C122FF6C
:1022E00044C030910101363008F03FC0809137047E
:1022F0008B7F8093370480915D048F9380915C0481
:102300008F93809173041F928F931F928EE78F9308
:10231000809172041F928F93809171041F928F930A
:1023200081EC92E09F938F931F9280E38F938FEDC8
:1023300093E09F938F930E94D722CFBF23E031E099
:1023400045E66FE38FED93E00E9431070E9430066F
:1023500086E0809301018DB79EB740960FB6F89442
:102360009EBF0FBE8DBF85E03FC123FF38C02091C7
:1023700001012730A0F580913704877F80933704CF
:10238000809174041F928F9380915F048F9380914A
:102390005E048F9384ED92E09F938F931F9280E36E
:1023A0008F938FED93E09F938F930E94D722CFBF9F
:1023B00023E031E04EE66FE38FED93E00E943107BA
:1023C0000E94300687E0809301018DB79EB70A9680
:1023D0000FB6F8949EBF0FBE8DBF86E005C193FF78
:1023E0003AC0209101012830B0F580913604877FF2
:1023F00080933604809155048F93809154048F9379
:10240000809153048F93809152048F938DED92E0CD
:102410009F938F931F9280E38F938FED93E09F9311
:102420008F930E94D722CFBF23E031E046E26FE3D3
:102430008FED93E00E9431070E94300688E0809380
:1024400001018DB79EB70A960FB6F8949EBF0FBED6
:102450008DBF87E0C9C094FF89C020910101293058
:1024600008F084C0F090660460916704809136049F
:102470008F7E80933604CFBF70E080E090E00E94B2
:1024800022212B013C0120E030E04AE750E40E9489
:1024900029220E94EF207F936F931F92FF9207EEF5
:1024A00012E01F930F931F9280E3B82EBF92CFEDDF
:1024B000D3E0DF93CF930E94D72223E031E04FE2B5
:1024C0006FE3CE010E9431076F2D70E080E090E055
:1024D0000E9420216B017C0120E030E040E85BE3BA
:1024E000C301B2010E942922A70196010E941F2068
:1024F00020E030E048EC5EE30E9429226B017C0181
:102500000E945D219B01AC01C701B6010E941E2003
:1025100020E030E04AE754E40E9429220E94EF20A4
:102520007F936F93C701B6010E94EF207F936F9353
:102530001F930F931F92BF92DF93CF930E94D722D6
:1025400023E031E04FE26DE8CE010E9431070E94A6
:10255000300689E0809301018DB79EB744960FB68F
:10256000F8949EBF0FBE8DBF88E03EC095FF38C077
:10257000909101019A30A0F5809136048F7D80936F
:102580003604809157048F93809156048F938091E5
:1025900068041F928F9385E892E09F938F931F9218
:1025A00080E38F938FED93E09F938F930E94D722C8
:1025B000CFBF23E031E048E36FE38FED93E00E946B
:1025C00031070E9430068AE0809301018DB79EB7E3
:1025D0000A960FB6F8949EBF0FBE8DBF89E004C067
:1025E00091E090930101CFBFDF91CF911F910F91A7
:1025F000FF90EF90DF90CF90BF90AF909F908F9023
:102600007F906F905F904F903F900895EF92FF9270
:102610000F931F93CF93DF9383EC9FEF9093DE0391
:102620008093DD0381E08093DC0320E030E08BE0E9
:10263000E82EF12CC0E448EFD8EC18ED0FED211591
:10264000310519F41092970343C0233031055CF42F
:10265000F901E956FC4F40832F5F3F4FF901E956DE
:10266000FC4F108335C0253031052CF4F901E956B3
:10267000FC4F00832DC02B3031052CF4F901E956B5
:10268000FC4F108325C020313105E4F02C33310597
:1026900019F41092D3031CC0C9014097B7010E94DE
:1026A000AC22F901E956FC4F892B89F4C083C18320
:1026B000C28343834483D58346834783D08741873E
:1026C000265F3F4FF901E956FC4F408301C010825D
:1026D0002F5F3F4F2D3331050CF4B1CFA7E9B3E0A5
:1026E000E7E9F3E08D91829383E0EA35F807D1F7CB
:1026F00000E028E040EF68E780E00E949204DF916C
:10270000CF911F910F91FF90EF9008952F923F92DC
:102710004F925F926F927F928F929F92AF92BF92F1
:10272000CF92DF92EF92FF920F931F93CF93DF939D
:10273000FDD89091750491708FBF87E9282E83E0B2
:10274000382E2AE0A22EB12C31E0E32E33E0F32E16
:10275000CFEDD3E044E6842E912C50EFC52E52E00D
:10276000D52E13E0992309F492C18091DC038823CC
:1027700009F48DC10E94B01D2B013C012091D403AE
:102780003091D5034091D6035091D7030E941E206B
:102790002AE037ED43E25DE30E94252287FD60C019
:1027A0004092D4035092D5036092D6037092D7031F
:1027B0002091DC038091DD039091DE03820F911D57
:1027C00027FD9A959093DE038093DD038A3B2FEFDC
:1027D000920724F4E1E0E093DC0306C08A3F910510
:1027E0001CF0FFEFF093DC032091DC0327FF1CC0FB
:1027F000803F910540F42DE3482F6FE087E993E097
:102800000E94F7052DC09C01245C3F4F2C333105FD
:1028100038F52DE3280F40E06FE0F101E81BF90BDC
:10282000CF010E94F7051CC0803F910540F42DE3C5
:10283000482F6FE08AE593E00E94F70511C09C01E4
:10284000245C3F4F2C33310558F42DE3280F40E032
:102850006FE0EAE5F3E0E81BF90BCF010E94F70512
:102860002091D8033091D9034091DA035091DB03D2
:10287000C301B2010E941E2020E030E040E05FE38F
:102880000E94252287FDC3C04092D8035092D903ED
:102890006092DA037092DB030E94181E47D84090C2
:1028A0007C0450907D0460907E0470907F048FBF04
:1028B00020E030E0A901C301B2010E94832087FF1C
:1028C00003C0412C512C3201209155033091560305
:1028D0004091570350915803C301B2010E941E203A
:1028E0009F772AE037ED43E25CE30E94832087FD77
:1028F00037C040925503509256036092570370922E
:10290000580320E030E048EC52E4C301B2010E94D9
:1029100029220E94EF20CB01B4010E94AC229F9398
:102920008F93C301B2010E94EF207F936F93DF92D8
:10293000CF921F92F0E3FF93DF93CF930E94D722B1
:1029400023E031E049E660EA8FED93E00E94310731
:10295000EDB7FEB73A960FB6F894FEBF0FBEEDBFC7
:102960000E94960C409084045090850460908604E8
:10297000709087048FBF2091510330915203409192
:10298000530350915403C301B2010E941E209F774C
:102990002DEC3CEC4CEC5DE30E94832087FD37C0BE
:1029A0004092510350925203609253037092540329
:1029B00020E030E040E251E4C301B2010E9429224C
:1029C0000E94EF20CB01B5010E94AC229F938F9310
:1029D000C301B2010E94EF207F936F93FF92EF92A9
:1029E0001F92F0E3FF93DF93CF930E94D72223E05F
:1029F00031E04FE560EA8FED93E00E943107EDB7DB
:102A0000FEB73A960FB6F894FEBF0FBEEDBF209109
:102A10004F0330915003F9013196F0935003E09346
:102A20004F0380910001223131056CF4612F0E9427
:102A30008C222BE12E1B6AE06E0F092F4FEE80E0F7
:102A40000E9400041DC0E23021E0F2076CF4612F07
:102A50000E948C2241E04E1B092F2AE06BE18EEE92
:102A60008E0F0E9400040CC01092500310924F036E
:102A70008F5F833018F48093000102C01092000130
:102A80000E94960C9091750491708FBF6BCE0E943E
:102A9000960C909175049E7F909375048FBFDF9183
:102AA000CF911F910F91FF90EF90DF90CF90BF904B
:102AB000AF909F908F907F906F905F904F903F90DE
:102AC0002F900895EF92FF920F931F93CF93C82FEB
:102AD0000E94960C909175049E7F9D7F9093750443
:102AE0008FBFC0FD03C0C1FF2AC008C010E0812F06
:102AF0000E94C70C1F5F103FD1F7F5CF82EB0E94F9
:102B0000BA0C81E080930F040E942A0D00E010E0CF
:102B100087E0E82EF12CC801B7010E94AC22892B76
:102B200019F480E00E94C70CF801E25EFB4F84912B
:102B30000E94C70C0F5F1F4F003F110561F7C2FFD6
:102B40002DC041E068E284E00E94BC0641E069E2F9
:102B500085E00E94BC0641E06AE286E00E94BC0675
:102B600041E06BE287E00E94BC0641E06CE286E057
:102B70000E94BC0641E06DE285E00E94BC0641E097
:102B80006EE286E00E94BC0641E06FE287E00E94B0
:102B9000BC0641E060E388E00E94BC06C3FF07C0BA
:102BA00001E02FE14FEE60E180E00E940004C4FFED
:102BB0000DC001E028E248E260E386E40E946F0471
:102BC00028E248E260E38AEA0E949204C5FF0DC051
:102BD0000FEF21E04AE060E58AE00E94AC0421E0CA
:102BE0004AE060E588E20E945A05C6FF08C023E07B
:102BF00031E040E266E48FE093E00E943107C7FFD6
:102C00000FC004DD0E94960C909175049160909322
:102C100075048FBFCF911F910F91FF90EF9076CDEC
:102C2000CF911F910F91FF90EF9008950F931F93F5
:102C3000CF93DF930097A9F0042F162FEC016FEFCD
:102C400070E00E94CC2281508E3F58F423E031E0A6
:102C5000402F612FCE01DF91CF911F910F910C94E6
:102C60003107DF91CF911F910F910895DF92EF927D
:102C7000FF920F931F93CF93DF93CDB7DEB72897C3
:102C80000FB6F894DEBF0FBECDBF0E94960CF82E93
:102C900010913804123309F478C0E8F4143109F4BF
:102CA0004AC058F4103109F0ABC00E9430060E94AF
:102CB000350D10923804FFBEA5C0103209F443C090
:102CC000103309F09DC020913904AAE3B4E0CE018D
:102CD0000196FC0144C0163309F46FC0A8F4143304
:102CE00009F08EC00091490420913A0440913904C2
:102CF00060914B0480914A040E946F040E94300648
:102D000010923804FFBE7EC0183309F468C01A332D
:102D100009F076C00FEF2091490440913904609189
:102D20004B0480914A040E945A050E94300610927A
:102D30003804FFBE67C08091390480934904109223
:102D40003804FFBE5FC08091390480934A048091AB
:102D50003A0480934B0410923804FFBE53C03E2FB8
:102D6000381B321718F43D913193F9CFFC01E20F73
:102D7000F11D108240914B0460914A0457DF0E947C
:102D8000300610923804FFBE3DC0D0903904E09068
:102D90003A04009149042E2D4D2D60914B048091F1
:102DA0004A040E9400040E943006D0924A04E09235
:102DB0004B0410923804FFBE25C0009149042091B5
:102DC0003A044091390460914B0480914A040E9476
:102DD00092040E94300610923804FFBE13C00FEF19
:102DE000209149044091390460914B0480914A0438
:102DF0000E94AC040E94300610923804FFBE02C04C
:102E0000FFBE10E0812F28960FB6F894DEBF0FBEEC
:102E1000CDBFDF91CF911F910F91FF90EF90DF9089
:102E20000895809338040895E6E3F4E08283638391
:102E30000895E6E3F4E08283638344830895E6E340
:102E4000F4E0828363834483258308950F93E6E34C
:102E5000F4E0828363834483258306830F9108957E
:102E6000EF920F93E6E3F4E0828363834483258348
:102E70000683E7820F91EF900895CF92EF920F9320
:102E8000E6E3F4E082836383448325830683E78259
:102E9000C0860F91EF90CF900895AF92CF92EF92AE
:102EA0000F93E6E3F4E08283638344832583068300
:102EB000E782C086A1860F91EF90CF90AF900895E2
:102EC0008F92AF92CF92EF920F93CF93DF93CDB7C4
:102ED000DEB7E6E3F4E082836383448325830683DD
:102EE000E782C086A1868286DF91CF910F91EF9015
:102EF000CF90AF908F9008958F92AF92CF92EF9234
:102F00000F93CF93DF93CDB7DEB7E6E3F4E0828390
:102F10006383448325830683E782C086A1868286F5
:102F20008A858387DF91CF910F91EF90CF90AF90FB
:102F30008F9008958F92AF92CF92EF920F93CF938D
:102F4000DF93CDB7DEB7E6E3F4E0828363834483A7
:102F500025830683E782C086A18682868A85838749
:102F60008B858487DF91CF910F91EF90CF90AF90B9
:102F70008F9008958F92AF92CF92EF920F93CF934D
:102F8000DF93CDB7DEB7E6E3F4E082836383448367
:102F900025830683E782C086A18682868A85838709
:102FA0008B8584878C858587DF91CF910F91EF90FA
:102FB000CF90AF908F9008958F92AF92CF92EF9273
:102FC0000F93CF93DF93CDB7DEB7E6E3F4E08283D0
:102FD0006383448325830683E782C086A186828635
:102FE0008A8583878B8584878C8585878D85868771
:102FF000DF91CF910F91EF90CF90AF908F90089588
:103000008F92AF92CF92EF920F93CF93DF93CDB782
:10301000DEB7E6E3F4E0828363834483258306839B
:10302000E782C086A18682868A8583878B8584878E
:103030008C8585878D8586878E858787DF91CF9163
:103040000F91EF90CF90AF908F9008958F92AF92A5
:10305000CF92EF920F93CF93DF93CDB7DEB7E6E336
:10306000F4E082836383448325830683E782C086FA
:10307000A18682868A8583878B8584878C858587D0
:103080008D8586878E8587878F85808BDF91CF9111
:103090000F91EF90CF90AF908F9008959091600432
:1030A00098130EC020914C0430914D042617370719
:1030B00039F420914E0430914F042417350779F0EC
:1030C00090913604916090933604809360047093DD
:1030D0004D0460934C0450934F0440934E04089564
:1030E00020915004309151042817390771F4209130
:1030F000610430E0E62F062E000CFF0B2E173F0771
:1031000021F420916204241769F020913604226092
:10311000209336049093510480935004609361048B
:103120004093620408959091630498130EC0209117
:10313000640430E0E62F062E000CFF0B2E173F072D
:1031400021F490916504941759F09091360494609D
:103150009093360480936304609364044093650401
:10316000089520915204309153042817390739F4F7
:1031700020915404309155042617370769F02091A7
:1031800036042860209336049093530480935204AD
:1031900070935504609354040895909166049813B5
:1031A00004C090916704961749F09091360490619D
:1031B0009093360480936604609367040895909119
:1031C0006804981307C020915604309157042617BD
:1031D000370759F0909136049062909336048093AB
:1031E000680470935704609356040895909169049D
:1031F000981308C090916A04961304C090916B04D0
:10320000941759F09091360490649093360480930B
:10321000690460936A0440936B04089520915804F4
:10322000309159042817390749F020913604206855
:1032300020933604909359048093580408959091F4
:103240006C04981304C090916D04961749F0909106
:10325000370491609093370480936C0460936D04FD
:10326000089590916E0498130FC090916F04961377
:103270000BC090917004941307C0E0915A04F09130
:103280005B04E217F30779F0909137049260909312
:10329000370480936E0460936F04409370043093FE
:1032A0005B0420935A0408959091710498130FC001
:1032B0009091720496130BC090917304941307C0FD
:1032C000E0915C04F0915D04E217F30779F09091CE
:1032D0003704946090933704809371046093720470
:1032E0004093730430935D0420935C04089520910F
:1032F0005E0430915F042817390721F4209174048B
:10330000261759F0209137042860209337049093B2
:103310005F0480935E0460937404089583E091E0F9
:10332000089582EE0E94BA0C6BE278E680E090E0AD
:103330000E94A30C0E94AE0C87FD06C00E94F00CF8
:103340000E94350D80E0089581E008958093350452
:10335000882331F0809175048E7F809375040895E1
:10336000E0DF81EFAFCB82EE0E94BA0C6BE67AE031
:1033700080E090E00C94A30CE0912F04EE2351F038
:10338000F0E0E85DFB4F129284E0E732F807D9F7EE
:1033900010922F0408958F92AF92CF92EF920F93D5
:1033A00080911704823209F04DC2E0911804E23096
:1033B00051F0E33081F0E130D9F481E180931504DC
:1033C000E09314043FC2809119040F91EF90CF90C5
:1033D000AF908F90BBCF80913804882311F081E8A3
:1033E00001C080E88093150481E0809314042AC210
:1033F0001092140480913504803109F07AC18091D3
:10340000380481111FC2E23309F45EC190F4E43143
:1034100039F150F4E03109F015C280E10F91EF90DD
:10342000CF90AF908F90FDCCE032F1F0E03311F10E
:1034300009C2E63309F44EC148F4E43309F002C28C
:1034400040911A046091190484E326C0E83309F41A
:1034500047C1EA3309F0F6C1609119048AE343C118
:103460006091190484E13FC140911A0460911904EC
:1034700080E212C0E09119048E2F90E0FC01319798
:10348000ED30F10508F0DEC1EC5CFF4F0C94BF227B
:1034900040911A0461E080E30F91EF90CF90AF90DC
:1034A0008F90C7CC20911B0440911A0462E080E306
:1034B0000F91EF90CF90AF908F90C1CC00911C04F2
:1034C00020911B0440911A0463E080E3BFDCBAC181
:1034D000E0901D0400911C0420911B0440911A04EB
:1034E00064E080E3BDDCAEC1C0901E04E0901D042A
:1034F00000911C0420911B0440911A0465E080E3B4
:10350000BCDCA0C1A0901F04C0901E04E0901D046C
:1035100000911C0420911B0440911A0466E080E392
:10352000BCDC90C180902004A0901F04C0901E04B9
:10353000E0901D0400911C0420911B0440911A048A
:1035400067E080E3BDDC7EC1809121048F93809091
:103550002004A0901F04C0901E04E0901D04009160
:103560001C0420911B0440911A0468E080E3C4DC31
:103570000F9068C1809122048F93809121048F93D2
:1035800080902004A0901F04C0901E04E0901D04B1
:1035900000911C0420911B0440911A0469E080E30F
:1035A000C9DC0F900F904EC1809123048F938091BE
:1035B00022048F93809121048F9380902004A09007
:1035C0001F04C0901E04E0901D0400911C04209173
:1035D0001B0440911A046AE080E3CCDC0F900F904A
:1035E0000F9030C1809124048F93809123048F9396
:1035F000809122048F93809121048F9380902004E6
:10360000A0901F04C0901E04E0901D0400911C04B3
:1036100020911B0440911A046BE080E3CDDC0F90F5
:103620000F900F900F900EC1809125048F93809181
:1036300024048F93809123048F93809122048F938D
:10364000809121048F9380902004A0901F04C0904B
:103650001E04E0901D0400911C0420911B04409165
:103660001A046CE080E3CCDC0F900F900F900F9069
:103670000F90E8C0809126048F93809125048F934A
:10368000809124048F93809123048F93809122044E
:103690008F93809121048F9380902004A0901F0429
:1036A000C0901E04E0901D0400911C0420911B0496
:1036B00040911A046DE080E3C9DC0F900F900F90E9
:1036C0000F900F900F90BEC040911A0460911904A2
:1036D00082E3E2CE40911A046091190486E3DCCEC5
:1036E0006091190488E30F91EF90CF90AF908F9085
:1036F0009BCB803209F0A6C08E2F90E0FC01E058F1
:10370000F109EE30F10508F09DC0EF5BFF4F37C7C0
:1037100040911C0450911D0460911A0470911B0487
:10372000809119040F91EF90CF90AF908F90B6CC0D
:1037300040911C0460911B048091190490911A041B
:103740000F91EF90CF90AF908F90CACC40911B0417
:1037500060911A04809119040F91EF90CF90AF906F
:103760008F90E1CC60911B0470911C04809119042E
:1037700090911A040F91EF90CF90AF908F90F1CC71
:1037800060911A04809119040F91EF90CF90AF903F
:103790008F9003CD60911A0470911B0480911904DD
:1037A0000F91EF90CF90AF908F9009CD40911B0477
:1037B00060911A04809119040F91EF90CF90AF900F
:1037C0008F9014CD8091190490911A040F91EF906D
:1037D000CF90AF908F9022CD60911A048091190400
:1037E0000F91EF90CF90AF908F9029CD20911C0436
:1037F00030911D0440911B0460911A0480911904BA
:103800000F91EF90CF90AF908F902BCD20911C0413
:1038100030911D0440911B0460911A048091190499
:103820000F91EF90CF90AF908F903ECD60911B04A1
:103830008091190490911A040F91EF90CF90AF905E
:103840008F9055CD0F91EF90CF90AF908F900895BE
:10385000CF93DF93D62FC42FC574883609F48BC05D
:1038600008F042C0803309F47FC048F5803109F484
:1038700066C0D8F4882309F461C1883009F05EC1BC
:103880001092130482E08093120484E28093270450
:1038900084E38093280486E58093290488E7809355
:1038A0002A048AE980932B044AC0803209F45DC05F
:1038B000883209F448C0883109F040C141C08834D9
:1038C00009F457C038F4883309F451C0803409F43E
:1038D00050C034C1883509F44CC0803609F44BC05F
:1038E000803509F446C02AC1803A09F403C1A8F41E
:1038F000803809F44DC038F4803709F441C0883766
:1039000009F43EC01BC1803909F442C0883909F46A
:10391000E1C0883809F012C1DDC0883B09F4F3C06A
:1039200020F4883A09F4EFC009C1883C09F404C1C5
:10393000883F09F403C1803C09F4FEC0FFC00000C9
:10394000E091130406C0E091130480911204E8177B
:1039500058F481E08E0F80931304F0E0E95DFB4F93
:1039600080818093BB00EBC007DDC061E8C0C0620E
:10397000E6C00000E4C040E060E187E194E02DD1C2
:10398000D695D093170481E080931104C064D7C00A
:10399000809110048F3009F496C0909111049F30EB
:1039A00008F087C0E92FF0E0E95EFB4FD08391304B
:1039B00009F06BC080911704823209F07CC010922C
:1039C000100410921204809118048A3309F46DC017
:1039D00010F5803209F445C078F4823009F465C0EE
:1039E00028F48823A1F18130B1F165C0833099F1C9
:1039F000843109F45AC05FC0843399F130F48033C4
:103A000009F43FC0823369F156C0863351F18833DF
:103A100009F44BC050C0853841F168F4823829F16F
:103A200028F4803851F1813821F145C0833809F1FB
:103A30008438B9F040C08B3828F4893890F488383D
:103A4000A1F039C08D38C8F08D3879F034C081E0EC
:103A50008093100430C081E080931004809312049E
:103A60002AC083E08093100426C084E08093100471
:103A700022C085E0809310041EC086E0809310046D
:103A80001AC080E18093100416C0923091F48091A6
:103A90001704823281F480911804803361F480919C
:103AA00019048F3010F48E5F01C082E080931004FF
:103AB00002C09E3060F49F5F9093110480911004C7
:103AC000891728F039C0D093190410921104C42F1B
:103AD000C57035C0809110048F3009F05CDC109205
:103AE00011041092100440E068E087E194E075D082
:103AF000C06425C0809110048F3009F04CDC109216
:103B00001104C0641CC010921304809114048093AB
:103B1000120410921404882331F081E0809313047E
:103B20008091150401C080E08093BB009091120445
:103B300080911304891758F6C06401C0C0658C2FAA
:103B4000DF91CF910895CF93DF931F92CDB7DEB76A
:103B50008FB78983F89489810F90DF91CF91089571
:103B60008F929F92AF92BF92CF92DF92EF92FF928D
:103B7000EADF6091840090918500C0908904D09024
:103B80008A04E0908B04F0908C048FBF70E0792B56
:103B9000072E000C880B990B55D320E034E244EF3C
:103BA0005AE4B5D24B015C01C701B60149D320E00C
:103BB00030E040E054E44DD420E034E244EF5AE4F5
:103BC000A6D2A50194013BD2FF90EF90DF90CF9059
:103BD000BF90AF909F908F90089570E06115710530
:103BE00031F0FC014193CF0161507109F7CF089585
:103BF000CF93C82F87FF04C061E180E090E083D7B6
:103C0000C0FF07C060917A046F7380E190E0CF91AC
:103C10007AC7CF91089587FF07C080E090E06BD707
:103C2000813111F080E8E4DF86E180937A04089521
:103C30008F929F92AF92BF92CF92DF92EF92FF92BC
:103C40000F931F93CF93DF93CDB7DEB7A8970FB62F
:103C5000F894DEBF0FBECDBF76DF809080049090D9
:103C60008104A0908204B0908304C0908404D0901A
:103C70008504E0908604F09087048FBF64DF182FDE
:103C800029E137EC4FEA53E4C501B401D7D120E074
:103C900030EA47E85FE3DDD320E030E048EC51E470
:103CA000CED160937C0470937D0480937E049093C6
:103CB0007F041FBFC701B60197D2663B23E072079E
:103CC00000F580E090E0BCD220E030E040E251E43A
:103CD000B5D120E030E84DE654E419D220E030E0E0
:103CE00045E753E4B6D320E030E040E251E4A7D109
:103CF0007BD26093B3008091B00080688093B00065
:103D000007C01092B3008091B0008F738093B00011
:103D10001ADF009135049091750490FBFF24F0F8B0
:103D2000969591708FBF9923D9F1003121F40E94AB
:103D30003616182F05C0003299F50E94960E182FDE
:103D4000F1102BC080910201882339F110920201F9
:103D50000E94350D0032D1F401E020E840EF60E030
:103D600080E00E946F0488E2E0E2F3E0DE01119659
:103D700001900D928A95E1F7D1DA9C0142E063E06F
:103D8000CE0101960E9431070E944A0DDCDE90911F
:103D900075049260909375048FBF1111B9CF04C060
:103DA000F11002C010E0CECFA8960FB6F894DEBF97
:103DB0000FBECDBFDF91CF911F910F91FF90EF907C
:103DC000DF90CF90BF90AF909F908F900895CF934A
:103DD000DF938EE788B988E087B984E185B98BEFF6
:103DE00084B98FEF8BB91AB8C1E0C0937E000E94EE
:103DF00006038BEE80936400D3E8D3BD68E080E0D7
:103E00000E941F0382E88093800089E080938100F4
:103E100010928500109284001092890080E88093AF
:103E20008800C0936F0087E286BB60E480E00E9458
:103E30001F03D093B00085E08093B1001092B200D0
:103E40001092B300C093700087E087BB1092B60059
:103E500061E080E00E941F03C0937E0087E88093AA
:103E60007A0080EC80937C0080917A00806180935E
:103E70007A0080917A00886080937A0080917B003C
:103E8000887F866080937B0080917A008062809337
:103E90007A000E94050384B7982F977011F481115E
:103EA0002BC051DEF8941092880410928404109272
:103EB0008504109286041092870410928004109258
:103EC0008104109282041092830440E050E068EC78
:103ED00071E440937C0450937D0460937E0470935E
:103EE0007F0490E490937B04909175049E7F9D7F66
:103EF000909375048FBF0DC090E0A0E0B0E0809378
:103F0000310490933204A0933304B09334040E949C
:103F10005D078FEF80DE60E880E00E941F0313DE04
:103F20001092B90092E09093B80094E49093BA0094
:103F30001092BD0095E49093BC008FBF789413BCA1
:103F4000F0D981EF0E94621581E080933004C1E0D6
:103F500080913004882339F06BDEC3BF889583B726
:103F60008E7F83BFF5CFFFD9F89480B7806880BF7C
:103F700064E080E00E94350362E080E00E94350347
:103F8000E2DD94E09093BC003C98449A3D98459AB9
:103F90001092BC008FBF60E880E00E9435038091E2
:103FA0007A00877F80937A0080917A008F7D80935A
:103FB0007A0080917B00887F80937B0010927C0048
:103FC00010927E0061E080E00E943503BCDDC82FC6
:103FD00060E280E00E9435032198299810928000C9
:103FE000109281001092820010926F0068E080E0D1
:103FF0000E943503239A2B981092B0001092B100C2
:10400000109270001092B60060E480E00E943503C8
:104010009ADD5F9350E85093610050E05093610047
:104020005F918FBFCFBF89E083BF889583B78E7FB5
:1040300083BF80E090E0DF91CF9108955058BB2777
:10404000AA270ED0B1C1A2D130F0A7D120F031F40F
:104050009F3F11F41EF497C10EF4E095E7FB64C195
:10406000E92FB3D180F3BA17620773078407950766
:1040700018F071F49EF5E2C10EF4E0950B2EBA2F04
:10408000A02D0B01B90190010C01CA01A00111245E
:10409000FF27591B99F0593F50F4503E68F11A160A
:1040A000F040A22F232F342F4427585FF3CF46959B
:1040B00037952795A795F0405395C9F77EF41F16BD
:1040C000BA0B620B730B840BBAF09150A1F0FF0F87
:1040D000BB1F661F771F881FC2F70EC0BA0F621F73
:1040E000731F841F48F4879577956795B795F79563
:1040F0009E3F08F0B3CF9395880F08F09927EE0FF5
:10410000979587950895ECD008F481E008950CD038
:104110004BC143D140F03AD130F021F45F3F19F068
:1041200003C151118CC12FC150D198F39923C9F308
:104130005523B1F3951B550BBB27AA2762177307AD
:10414000840738F09F5F5F4F220F331F441FAA1F61
:10415000A9F333D00E2E3AF0E0E830D09150504021
:10416000E695001CCAF729D0FE2F27D0660F771FCF
:10417000881FBB1F261737074807AB07B0E809F0B1
:10418000BB0B802DBF01FF2793585F4F2AF09E3F46
:10419000510568F0C9C053C15F3FECF3983EDCF3B2
:1041A000869577956795B795F7959F5FC9F7880FBF
:1041B000911D9695879597F90895E1E0660F771F11
:1041C000881FBB1F621773078407BA0720F0621BA2
:1041D000730B840BBA0BEE1F88F7E095089504D09B
:1041E0006894B1112CC10895F8D088F09F5790F0D1
:1041F000B92F9927B751A0F0D1F0660F771F881F0C
:10420000991F1AF0BA95C9F712C0B13081F016D1D2
:10421000B1E0089513C1672F782F8827B85F39F070
:10422000B93FCCF3869577956795B395D9F73EF46A
:1042300090958095709561957F4F8F4F9F4F089512
:10424000E89409C097FB3EF4909580957095619530
:104250007F4F8F4F9F4F9923A9F0F92F96E9BB27E6
:104260009395F695879577956795B795F111F8CF62
:10427000FAF4BB0F11F460FF1BC06F5F7F4F8F4FCD
:104280009F4F16C0882311F096E911C0772321F0C3
:104290009EE8872F762F05C0662371F096E8862F5B
:1042A00070E060E02AF09A95660F771F881FDAF7B2
:1042B000880F9695879597F90895A9D080F09F3734
:1042C00040F491110EF0BBC060E070E080E89FEB1D
:1042D000089526F41B16611D711D811D2BC045C05C
:1042E000990F0008550FAA0BE0E8FEEF1616170607
:1042F000E807F907C0F012161306E407F50798F06F
:10430000621B730B840B950B39F40A2661F0232B87
:10431000242B252B21F408950A2609F4A140A69503
:104320008FEF811D811D089597F99F6780E870E0E8
:1043300060E00895882371F4772321F09850872B4B
:10434000762F07C0662311F499270DC09051862B54
:1043500070E060E02AF09A95660F771F881FDAF701
:10436000880F9695879597F908959F3F31F0915062
:1043700020F4879577956795B795880F911D969549
:10438000879597F908959FEF80EC089500240A948B
:104390001616170618060906089500240A94121620
:1043A0001306140605060895092E0394000C11F453
:1043B000882352F0BB0F40F4BF2B11F460FF04C000
:1043C0006F5F7F4F8F4F9F4F089557FD9058440F59
:1043D000551F59F05F3F71F04795880F97FB991F64
:1043E00061F09F3F79F08795089512161306140621
:1043F000551FF2CF4695F1DF08C0161617061806AE
:10440000991FF1CF86957105610508940895E5DF40
:10441000A0F0BEE7B91788F4BB279F3860F41616E2
:10442000B11D672F782F8827985FF7CF86957795EE
:104430006795B11D93959639C8F30895E894BB2705
:1044400066277727CB0197F908954ADF08F48FEFA5
:1044500008950BD0A9CF9ADF28F09FDF18F095239D
:1044600009F062CF90CF1124EACFAFDFA0F3959F80
:10447000D1F3950F50E0551F629FF001729FBB274B
:10448000F00DB11D639FAA27F00DB11DAA1F649FF7
:104490006627B00DA11D661F829F2227B00DA11DAA
:1044A000621F739FB00DA11D621F839FA00D611D30
:1044B000221F749F3327A00D611D231F849F600D51
:1044C000211D822F762F6A2F11249F5750408AF08A
:1044D000E1F088234AF0EE0FFF1FBB1F661F771F16
:1044E000881F91505040A9F79E3F510570F01CCF96
:1044F000A6CF5F3FECF3983EDCF386957795679502
:10450000B795F795E7959F5FC1F7FE2B880F911D33
:104510009695879597F90895991B79E004C0991F9E
:10452000961708F0961B881F7A95C9F7809508950D
:10453000AA1BBB1B51E107C0AA1FBB1FA617B707C9
:1045400010F0A61BB70B881F991F5A95A9F78095E5
:104550009095BC01CD01089597FB072E16F40094A9
:1045600006D077FD08D0E4DF07FC05D03EF4909537
:1045700081959F4F0895709561957F4F0895EE0F37
:10458000FF1F0590F491E02D0994FB01DC010190DF
:104590000D920020E1F70895FC01615070400190F8
:1045A0000110D8F7809590958E0F9F1F0895AEE06B
:1045B000B0E0ECEDF2E2C3C20D891E898F89988DBF
:1045C00026E02C831A83098397FF02C080E090E8DD
:1045D00001979E838D83AE01455E5F4F698D7A8D15
:1045E000CE01019611D04D815E8157FD0AC02F8109
:1045F0003885421753070CF49A01F801E20FF31FB4
:1046000010822E96E4E0B7C2ABE0B0E0E9E0F3E25E
:1046100088C26C017B018A01FC01178216828381AA
:1046200081FFBFC1CE0101963C01F6019381F701E4
:1046300093FD859193FF81917F01882309F4ADC19A
:10464000853239F493FD859193FF81917F01853205
:1046500021F4B60190E0B5D1E8CF912C212C312C7A
:10466000FFE1F315D8F08B3279F038F4803279F02D
:104670008332A1F4232D20611DC08D3261F080337F
:1046800069F4232D216016C0832D8260382EE32D1E
:10469000E4603E2E2AC0F32DF8601DC037FC2DC00B
:1046A00020ED280F2A3040F08E32B9F436FC75C167
:1046B000232D2064322E19C036FE06C08AE0989E53
:1046C000200D1124922E11C0EAE02E9E200D1124FF
:1046D000222EF32DF0623F2E08C08C3621F4832D5C
:1046E0008068382E02C0883641F4F70193FD859129
:1046F00093FF81917F018111B3CF982F9F7D9554B6
:10470000933028F40C5F1F4F9FE399830DC08336CD
:1047100031F0833771F0833509F055C020C0F801BE
:10472000808189830E5F1F4F88248394912C5301CD
:1047300012C02801F2E04F0E511CF801A080B18098
:1047400036FE03C0692D70E002C06FEF7FEFC50138
:1047500023DF4C018201F32DFF773F2E15C0280186
:1047600022E0420E511CF801A080B18036FE03C049
:10477000692D70E002C06FEF7FEFC50117D14C01CA
:10478000F32DF0683F2E820133FC19C0822D90E09A
:1047900088169906A0F4B60180E290E012D12A941E
:1047A000F5CFF50137FC859137FE81915F01B601A8
:1047B00090E007D121102A9421E0821A91088114F7
:1047C000910479F7E1C0843611F0893639F5F801A2
:1047D00037FE07C060817181828193810C5F1F4F1A
:1047E00008C060817181072E000C880B990B0E5F49
:1047F0001F4FF32DFF763F2E97FF09C090958095B0
:10480000709561957F4F8F4F9F4FF0683F2E2AE044
:1048100030E0A30112D1882E861844C0853731F4C8
:10482000232D2F7EB22E2AE030E025C0932D997FD4
:10483000B92E8F36C1F018F4883579F0AEC08037C4
:1048400019F0883721F0A9C0E92FE061BE2EB4FE2F
:104850000DC0FB2DF460BF2E09C034FE0AC0292F05
:104860002660B22E06C028E030E005C020E130E02E
:1048700002C020E132E0F801B7FE07C0608171811B
:10488000828193810C5F1F4F06C06081718180E03F
:1048900090E00E5F1F4FA301D0D0882E8618FB2D0D
:1048A000FF773F2E36FE0DC0232D2E7FA22E8914BA
:1048B00058F434FE0BC032FC09C0832D8E7EA82E26
:1048C00005C0B82CA32C03C0B82C01C0B92CA4FE81
:1048D0000FC0FE01E80DF11D8081803321F49A2D77
:1048E000997EA92E09C0A2FE06C0B394B39404C059
:1048F0008A2D867809F0B394A3FC10C0A0FE06C0F0
:10490000B21480F4280C922C9B180DC0B21458F4E9
:10491000B60180E290E055D0B394F8CFB21418F409
:104920002B1802C0982C212CA4FE0FC0B60180E3E6
:1049300090E047D0A2FE16C0A1FC03C088E790E03B
:1049400002C088E590E0B6010CC08A2D867851F04F
:10495000A1FE02C08BE201C080E2A7FC8DE2B6019D
:1049600090E02FD0891430F4B60180E390E029D094
:104970009A94F8CF8A94F301E80DF11D8081B60175
:1049800090E01FD08110F6CF222009F44ECEB60160
:1049900080E290E016D02A94F7CFF60186819781C5
:1049A00002C08FEF9FEF2B96E2E1D7C0FC0105908C
:1049B000615070400110D8F7809590958E0F9F1F21
:1049C00008950F931F93CF93DF93FB01238121FD64
:1049D00003C08FEF9FEF2CC022FF16C04681578186
:1049E000248135814217530744F4A081B1819D0190
:1049F0002F5F3F4F318320838C93268137812F5F38
:104A00003F4F3783268314C08B01EC01FB010084E8
:104A1000F185E02D0995892BE1F6D80116968D9147
:104A20009C911797019617969C938E931697CE019B
:104A3000DF91CF911F910F910895FA01AA27283095
:104A400051F1203181F1E8946F936E7F6E5F7F4F5B
:104A50008F4F9F4FAF4FB1E03ED0B4E03CD0670FD7
:104A6000781F891F9A1FA11D680F791F8A1F911D2A
:104A7000A11D6A0F711D811D911DA11D20D009F47A
:104A800068943F912AE0269F11243019305D3193BC
:104A9000DEF6CF010895462F4770405D4193B3E0A5
:104AA0000FD0C9F7F6CF462F4F70405D4A3318F04C
:104AB000495D31FD4052419302D0A9F7EACFB4E0FD
:104AC000A6959795879577956795BA95C9F70097B5
:104AD0006105710508959B01AC010A2E0694579556
:104AE000479537952795BA95C9F7620F731F841FAD
:104AF000951FA01D0895F999FECF92BD81BDF89A2A
:104B0000992780B50895262FF999FECF1FBA92BD37
:104B100081BD20BD0FB6F894FA9AF99A0FBE01969E
:104B200008952F923F924F925F926F927F928F9251
:104B30009F92AF92BF92CF92DF92EF92FF920F932C
:104B40001F93CF93DF93CDB7DEB7CA1BDB0B0FB636
:104B5000F894DEBF0FBECDBF09942A8839884888F3
:104B60005F846E847D848C849B84AA84B984C88489
:104B7000DF80EE80FD800C811B81AA81B981CE0F80
:104B8000D11D0FB6F894DEBF0FBECDBFED01089565
:044B9000F894FFCFC7
:104B9400020101009E000607207E436C6B53746182
:104BA40074653A2030780044617465202020203AEE
:104BB4000054696D65202020203A2030303A30308E
:104BC4002E30302055544300446576696174276E55
:104BD4003A20253034642E2530336420707062000E
:104BE40050574D20202020203A202533642E253094
:104BF40033642F323536203D2533642E253033641B
:104C040025250050756C6C566F6C743A2025316400
:104C14002E253033642056005068617365566F6CDE
:104C2400743A202531642E253033642056005361B4
:104C34007455736520203A20576573743D253032CE
:104C44006420456173743D25303264205573656476
:104C54003D253032642073617473005361742044C1
:104C64004F50203A20253032642E253032640053D0
:104C7400617453746174653A2046493D253164205A
:104C84004D323D25316400536174204C6174203AE7
:104C94002025632020253032642563253032642E9C
:104CA400253034642700536174204C6F6E203A2001
:104CB400256320253033642563253032642E253066
:104CC4003464270053617420486774203A202530E7
:104CD40034642E25303164206D0050686173653A68
:104CE40020252B30346425630050686173654F665A
:104CF400733A00253032643A253032642E2530323E
:104D04006400253032642E253032642E253034641C
:104D140000253158002531642E2530336400252BBD
:104D2400303464002530326420456173743D25308D
:104D3400326420557365643D253032640025632058
:104D440020253032642563253032642E25303464C6
:104D540000256320253033642563253032642E25F5
:104D640030346400253034642E2531640025303419
:104D7400642E25303364002533642E2530336400DB
:104D840020543D20202532642E253032645E432099
:104D940000204C3D2534642E2531642041440044D8
:104DA400463449414820536D6172742D4C4344008C
:104DB4003C3D3D3D3D203130204D487A2E2D5265FD
:104DC400662E2D4F73632E20536D6172742D4C43E8
:084DD40044203D3D3D3D3E0041
:00000001FF
