S0140000536D6172742D4C43445F53572E7372656300
S113000086C30000D6C70000F7C700000C941F0881
S11300100C9442080C9465080C9488080C94AB0862
S11300200C94CE080C94F1080C9414090C94370920
S11300300C945A090C947D090C94A2090C94C509DA
S11300400C94E8090C940B0A0C942E0A0C94510A93
S11300500C94740A0C94200B0C948E0B0C94B10B1E
S11300600C94D40B0C94050C8112BA13BA13BA1362
S1130070BA13BA13BA13BA139512BA13BA13BA133A
S1130080BA13BA13BA13BA139612BA13BA13BA1329
S1130090BA13BA13BA13BA13A312BA13BA13BA130C
S11300A0BA13BA13BA13BA13A512BA13BA13BA13FA
S11300B0BA13BA13BA13BA13BB12BA13BA13BA13D4
S11300C0BA13BA13BA13BA13C012BA13BA13BA13BF
S11300D0BA13BA13BA13BA13BA13BA13BA13BA13B4
S11300E0BA13BA13BA13BA13BA13BA13BA13BA13A4
S11300F0BA13BA13BA13BA13BA13BA13BA13BA1394
S1130100BA13BA13BA13BA13BA13BA13BA13BA1383
S1130110BA13BA13BA13BA13C212BA13BA13BA136C
S1130120BA13BA13BA13BA13C312BA13BA13BA135B
S1130130BA13BA13BA13BA13D212BA13BA13BA133C
S1130140BA13BA13BA13BA13D312BA13BA13BA132B
S1130150BA13BA13BA13BA13DD12BA13BA13BA1311
S1130160BA13BA13BA13BA134B13BA13BA13BA1392
S1130170BA13BA13BA13BA13DE12BA13BA13BA13F0
S1130180BA13BA13BA13BA134C13BA13BA13BA1371
S1130190BA13BA13BA13BA136413BA13BA13BA1349
S11301A0BA13BA13BA13BA137313BA13BA13BA132A
S11301B0BA13BA13BA13BA137413BA13BA13BA1319
S11301C0BA13BA13BA13BA139213BA13BA13BA13EB
S11301D0BA13BA13BA13BA13AE13BA13BA13BA13BF
S11301E0BA13BA13BA13BA13B6130000000000000E
S11301F000202020202000205050500000000050FB
S113020050F850F850502078A07028F020C0C81042
S1130210204098186090A040A8906860204000009A
S113022000001020404040201040201010102040BA
S1130230005020F8205000002020F820200000006A
S11302400000602040000000F800000000000000F2
S113025000606000081020408000708898A8C8885A
S11302607020602020202070708808102040F8F84A
S113027010201008887010305090F81010F880F09A
S113028008088870304080F0888870F80810204092
S113029040407088887088887070888878081060FA
S11302A00060600060600000606000602040081032
S11302B020402010080000F800F8000080402010C2
S11302C02040807088081020002070880868A8A842
S11302D07070888888F88888F08888F08888F0703A
S11302E0888080808870E09088888890E0F880809A
S11302F0F08080F8F88080E080808070888080982A
S11303008870888888F88888887020202020207049
S1130310381010101090608890A0C0A09088808041
S113032080808080F888D8A8888888888888C8A829
S113033098888870888888888870F08888F0808099
S11303408070888888A89068F08888F0A090887861
S11303508080700808F0F8202020202020888888D9
S11303608888887088888888885020888888A8A881
S1130370D888888850205088888888502020202059
S1130380F80810204080F8382020202020380080F1
S11303904020100800E02020202020E02050880089
S11303A0000000000000000000F8402010000000E1
S11303B000000070087888788080B0C88888F000D1
S11303C000708080887008086898888878000070B9
S11303D088F88070304840E04040400000788878D9
S11303E008308080B0C88888882000602020207071
S11303F01000301010906040404850605048602019
S113040020202020700000D0A8A888880000B0C850
S1130410888888000070888888700000F088F080E0
S113042080000068987808080000B0C880808000C8
S11304300070807008F04040E04040483000008880
S1130440888898680000888888502000008888A8D8
S1130450A8500000885020508800008888780870D0
S11304600000F8102040F810202040202010202008
S113047020202020204020201020204000000000C8
S113048000000020202020200020505050000000B8
S1130490005050F850F850502078A07028F020C038
S11304A0C810204098186090A040A8906860204030
S11304B00000000010204040402010402010101088
S11304C02040005020F8205000002020F820200078
S11304D000000000602040000000F8000000000060
S11304E0000000606000081020408000708898A818
S11304F0C888702060202020207070880810204058
S1130500F8F810201008887010305090F81010F887
S113051080F008088870304080F0888870F80810EF
S11305202040404070888870888870708888780877
S11305301060006060006060000060600060204047
S1130540081020402010080000F800F80000804047
S113055020102040807088081020002070880868CF
S1130560A8A87070888888F88888F08888F08888B7
S1130570F070888080808870E09088888890E0F8A7
S11305808080F08080F8F88080E0808080708880AF
S113059080988870888888F888888870202020202F
S11305A02070381010101090608890A0C0A090881F
S11305B0808080808080F888D8A888888888888807
S11305C0C8A898888870888888888870F08888F097
S11305D080808070888888A89068F08888F0A090CF
S11305E088788080700808F0F82020202020208857
S11305F0888888888870888888888850208888882F
S1130600A8A8D888888850205088888888502020B6
S11306102020F80810204080F8382020202020389E
S113062000804020100800E02020202020E02050FE
S11306308800000000000000000000F840201000C6
S1130640000000000070087888788080B0C888882E
S1130650F0000070808088700808689888887800A6
S1130660007088F88070304840E0404040000078D6
S1130670887808308080B0C888888820006020206E
S11306802070100030101090604040485060504876
S1130690602020202020700000D0A8A888880000B6
S11306A0B0C8888888000070888888700000F08846
S11306B0F08080000068987808080000B0C8808046
S11306C080000070807008F04040E04040483000F6
S11306D000888888986800008888885020000088EE
S11306E088A8A85000008850205088000088887886
S11306F008700000F8102040F8102020402020103E
S113070020202020202020402020102020401124C0
S11307101FBECFEFD8E0DEBFCDBF12E0A0E0B1E056
S1130720E8E6F7E302C005900D92A838B107D9F7BF
S113073023E0A8E8B2E001C01D92AE38B207E1F7A9
S11307400E943D150C94B21BCF93DF931F92CDB73B
S1130750DEB78FEF809364008FB78983F894898123
S11307605F9350E85093610050E0509361005F91B3
S11307708FBF0F90DF91CF910895CF93DF931F9296
S1130780CDB7DEB79FB79983F8949981811106C0DC
S1130790E4E6F0E060958081682360839FBF0F905A
S11307A0DF91CF910895CF93DF931F92CDB7DEB73A
S11307B09FB79983F8949981811105C0E4E6F0E02C
S11307C08081682B60839FBF0F90DF91CF91089544
S11307D0FF920F931F93CF93DF93E42FF0E0E80F82
S11307E0F11DE13FF1051CF0C0EF4C2F481B4423E1
S11307F009F453C0D62FD695D695D695ED2FF0E0B3
S1130800F195E195F109EE0FFF1FEE0FFF1FEE0FBB
S1130810FF1FDF01A60FB11DBD01E1E0F0E0DF0124
S113082002C0AA0FBB1F6A95E2F7FA2E213021F00D
S113083098F0223019F131C0C42F1FEF180F012F87
S11308400C0F602F8D2FE0D2482F4F29602F8D2F52
S1130850CBD2C150A1F721C0C42F1FEF180FFA2E1D
S1130860F094012F0C0F602F8D2FCED2482F4F21E3
S1130870602F8D2FB9D2C150A1F70FC0C42F1FEF25
S1130880180F012F0C0F602F8D2FBED2482F4F252C
S1130890602F8D2FA9D2C150A1F7DF91CF911F9165
S11308A00F91FF900895EF92FF920F931F93CF93B0
S11308B0DF93442309F446C0122FD82F9FEF960FDD
S11308C0940F691303C0422FD2D23CC09F3708F063
S11308D09FE7C62FC695C695C695092F069506951A
S11308E0069567702FEF30E0A90102C0440F551F31
S11308F06A95E2F7977067E070E0FB01E91BF10984
S1130900790102C0F594E794EA95E2F7C01306C0B2
S11309104E21212F6D2F8C2F87D214C0212F6D2FA4
S11309208C2F82D2CF5FC01740F4212F4FEF6D2F51
S11309308C2F7AD2CF5FC017C0F3212F4E2D6D2F8D
S1130940802F72D2DF91CF911F910F91FF90EF9082
S113095008958F929F92AF92BF92CF92DF92EF92BF
S1130960FF920F931F93CF93DF93C82FD62F48176F
S113097028F4D22F262F8C2FC42F482FE42EF12CAD
S1130980EC1AF108A22EB12CAD1AB108FF202CF4F8
S1130990F194E194F1081FEF01C011E0BB200CF0C9
S11309A048C0882499248A189B088E149F04FCF458
S11309B0540188248A9402C0882483946501CE1843
S11309C0DF08FF20DCF1912C402F6D2F8C2F4FD2AC
S11309D0DD201CF0CE18DF08D80DCA0CDB1CC10FBB
S11309E09394892D90E0E816F90674F727C06701FF
S11309F0CA0CDB1C992014F1AA24AA94B12C402F10
S1130A006D2F8C2F34D2DD201CF0C818D908C10FEB
S1130A10CE0CDF1CDA0DB3948B2D90E0881699066A
S1130A2074F70CC06701CA18DB084501AA24A39413
S1130A30E5CFAE14BF040CF4BFCFF4CFDF91CF9158
S1130A401F910F91FF90EF90DF90CF90BF90AF90E8
S1130A509F908F900895FF920F931F93CF93DF93EE
S1130A60D82F162FC42FF22E202FB2DE6FEF6F0D6A
S1130A70610F202F4C2F8D2FABDE202F4F2D612F98
S1130A808D2F11DF8FEF8C0F202F4F2D612F8D0FA6
S1130A900ADFDF91CF911F910F91FF900895FF928C
S1130AA00F931F93CF93DF93222369F0C22FF42E69
S1130AB0182FDFEFD60F6D2F6C0F202F4F2D812FA6
S1130AC087DEC150C1F7DF91CF911F910F91FF9045
S1130AD008952F923F924F925F926F927F928F92DE
S1130AE09F92AF92BF92CF92DF92EF92FF920F93B9
S1130AF01F93CF93DF9300D01F92CDB7DEB7882E1C
S1130B00962E4A83A22E411103C0422FB0D189C030
S1130B102A81E22EF12CEE0CFF1CF194E194F108F1
S1130B2083E0E80EF11CC62ED82C182DB62E1B829D
S1130B30902F9170292EE02FE2703E2EF02FF4704A
S1130B404F2E202F2870522E802F8071682E902FC8
S1130B509072792EE02FE074E983222029F04A2D47
S1130B606C2D8A81880D83D1332031F04A2D692D73
S1130B70FA816F1B812F7BD1442031F04A2D692DDE
S1130B802A81621B8D2D73D1552031F04A2D6C2D95
S1130B90882D9A81891B6BD1662031F04A2D6B2DEB
S1130BA0882DEA818E1B63D1772029F04A2D6A8132
S1130BB0690D8D2D5CD1F981FF2329F04A2D6A81BD
S1130BC0690D812F54D100232CF44A2D6B2D8A8179
S1130BD0880D4DD1FF205CF42B81822F90E0880F8B
S1130BE0991F880F991F0696E80EF91E0FC0EB8116
S1130BF08E2F90E0FA818F1B9109880F991F880F1F
S1130C00991F0A96E80EF91EF150FA832B812F5F83
S1130C102B83B3941F5FDA94CA948A81821708F0F5
S1130C209CCF0F900F900F90DF91CF911F910F9158
S1130C30FF90EF90DF90CF90BF90AF909F908F90F8
S1130C407F906F905F904F903F902F9008955F92A8
S1130C506F927F928F929F92AF92BF92CF92DF92C8
S1130C60EF92FF920F931F93CF93DF93882E962ECC
S1130C70C42FA22E411103C0422FF9D073C0E42E19
S1130C80F12CEE0CFF1CF194E194F10883E0E80EE2
S1130C90F11CB62EC82CD82C11E0D0E0802F837024
S1130CA0582E802F8C70682E802F8073782E007CB5
S1130CB0552069F02A2D412F6B2D8C2F880DF3DDE3
S1130CC02A2D41E04C0F692D6C1B8D2DECDD662027
S1130CD069F02A2D412F6B2D882D8C1BE4DD2A2DE4
S1130CE041E04C0F692D6C1B8C2DDDDD772061F00C
S1130CF02A2D412F692D882D8C1BD5DD2A2D41E00D
S1130D004C0F692D8C2DCFDD002361F02A2D412F4E
S1130D10692D8C2F880DC7DD2A2D41E04C0F692DDC
S1130D208D2DC1DDFF2054F48D2F90E0880F991F85
S1130D30880F991F0696E80EF91E0CC0ED2FF0E0FF
S1130D40EC1BF109EE0FFF1FEE0FFF1F3A96EE0E9C
S1130D50FF1EC150DF5F1F5FD394CA94BA94CD17AE
S1130D6008F0A6CFDF91CF911F910F91FF90EF90E4
S1130D70DF90CF90BF90AF909F908F907F906F90B7
S1130D805F900895EF92FF920F931F93CF93DF9399
S1130D907C01C42F122F892B01F16031F0F4403F04
S1130DA0E0F4862FDFD58C2FE3D5812F90E08C0FD4
S1130DB0911D813F910514F010EF1C1B112369F064
S1130DC0E7011150012F10E00F5F1F4F0E0D1F1D83
S1130DD0899169D5C017D107D9F7DF91CF911F91B8
S1130DE00F91FF90EF900895CF93DF93803148F4F3
S1130DF0603F38F4D42FC62FB5D58C2FB9D58D2F9D
S1130E0052D5DF91CF910895CF93803140F4603F64
S1130E1040F4C62FA7D58C2FABD55AD503C080E09C
S1130E2001C080E0CF9108950F931F93CF93DF9378
S1130E308031C0F4603FB0F4D22F142FC62FE4DF0A
S1130E40082FD13041F018F0D23039F007C0412FCB
S1130E504095042303C0012B01C001278C2F88D5A2
S1130E60802F21D5DF91CF911F910F910895803F5D
S1130E7098F466238CF0242F962F682F892F87707F
S1130E8041E050E002C0440F551F8A95E2F7892FD4
S1130E90869586958695C8CF08959F92AF92BF9206
S1130EA0CF92DF92EF92FF920F931F93CF93DF9332
S1130EB0C82FE62EB42E690100E0F9012481438194
S1130EC06B2D8E2DECDDF601808181113AC083817A
S1130ED0282F269526952695877009F02F5FF60111
S1130EE0A4802A9D900111248C2F90E04581841BBD
S1130EF09109289FA001299F500D389F500D11245E
S1130F0001811281040F151F912CF601F380FF203B
S1130F10A1F0D92DC92D8C2F8E0D9C2F977021F403
S1130F20F801D4910F5F1F4FDD231CF441E06B2DBA
S1130F309EDFDD0FCF5FCF11EECFB394AA94A11043
S1130F40E4CFDF91CF911F910F91FF90EF90DF904D
S1130F50CF90BF90AF909F900895DF92EF92FF9251
S1130F600F931F93CF93DF93042F7901EC01162F76
S1130F70D62E89918A3031F4F70184818F5F080F6E
S1130F801D2D09C08D3039F09701402F612F85DF69
S1130F90F7018381180F88818111EBCFDF91CF9105
S1130FA01F910F91FF90EF90DF90089598950000A6
S1130FB008951F920F920FB60F9211242F933F930F
S1130FC04F935F936F937F938F939F93AF93BF934D
S1130FD0EF93FF93EBDFFF91EF91BF91AF919F915F
S1130FE08F917F916F915F914F913F912F910F90CE
S1130FF00FBE0F901F9018951F920F920FB60F926D
S113100011242F933F934F935F936F937F938F9309
S11310109F93AF93BF93EF93FF93C8DFFF91EF913B
S1131020BF91AF919F918F917F916F915F914F91FC
S11310303F912F910F900FBE0F901F9018951F9204
S11310400F920FB60F9211242F933F934F935F93F8
S11310506F937F938F939F93AF93BF93EF93FF937C
S1131060A5DFFF91EF91BF91AF919F918F917F91F8
S11310706F915F914F913F912F910F900FBE0F9001
S11310801F9018951F920F920FB60F9211242F9351
S11310903F934F935F936F937F938F939F93AF93FC
S11310A0BF93EF93FF9382DFFF91EF91BF91AF91D5
S11310B09F918F917F916F915F914F913F912F916C
S11310C00F900FBE0F901F9018951F920F920FB69E
S11310D00F9211242F933F934F935F936F937F93BA
S11310E08F939F93AF93BF93EF93FF935FDFFF9132
S11310F0EF91BF91AF919F918F917F916F915F918C
S11311004F913F912F910F900FBE0F901F90189504
S11311101F920F920FB60F9211242F933F934F9368
S11311205F936F937F938F939F93AF93BF93EF934B
S1131130FF933CDFFF91EF91BF91AF919F918F910E
S11311407F916F915F914F913F912F910F900FBEBF
S11311500F901F9018951F920F920FB60F921124A3
S11311602F933F934F935F936F937F938F939F93AB
S1131170AF93BF93EF93FF9319DFFF91EF91BF916B
S1131180AF919F918F917F916F915F914F913F911B
S11311902F910F900FBE0F901F9018951F920F92D2
S11311A00FB60F9211242F933F934F935F936F9336
S11311B07F938F939F93AF93BF93EF93FF93F6DE49
S11311C0FF91EF91BF91AF919F918F917F916F911B
S11311D05F914F913F912F910F900FBE0F901F90F1
S11311E018951F920F920FB60F9211242F933F93CD
S11311F04F935F936F937F938F939F93AF93BF931B
S1131200EF93FF93D3DEFF91EF91BF91AF919F9145
S11312108F917F916F915F914F913F912F910F909B
S11312200FBE0F901F9018951F920F920FB60F923A
S113123011242F933F934F935F936F937F938F93D7
S11312409F93AF93BF93EF93FF93B0DEFF91EF9122
S1131250BF91AF919F918F917F916F915F914F91CA
S11312603F912F910F900FBE0F901F9018951F92D2
S11312700F920FB60F9211242F933F934F935F93C6
S11312806F937F938F939F93AF93BF93EF93FF934A
S11312908DDEFF91EF91BF91AF919F918F917F91DF
S11312A06F915F914F913F912F910F900FBE0F90CF
S11312B01F9018951F920F920FB60F9211242F931F
S11312C03F934F935F936F937F938F939F93AF93CA
S11312D0BF93EF93FF936ADEFF91EF91BF91AF91BC
S11312E09F918F917F916F915F914F913F912F913A
S11312F00F900FBE0F901F9018951F920F920FB66C
S11313000F9211248F939F93AF93BF9380918A037D
S113131090918B03A0918C03B0918D030196A11D34
S1131320B11D80938A0390938B03A0938C03B09395
S11313308D03BF91AF919F918F910F900FBE0F902E
S11313401F9018951F920F920FB60F9211242F938E
S11313503F934F935F936F937F938F939F93AF9339
S1131360BF93EF93FF9322DEFF91EF91BF91AF9173
S11313709F918F917F916F915F914F913F912F91A9
S11313800F900FBE0F901F9018951F920F920FB6DB
S11313900F9211242F933F934F935F936F937F93F7
S11313A08F939F93AF93BF93EF93FF93FFDDFF91D1
S11313B0EF91BF91AF919F918F917F916F915F91C9
S11313C04F913F912F910F900FBE0F901F90189542
S11313D01F920F920FB60F9211242F933F934F93A6
S11313E05F936F937F938F939F93AF93BF93EF9389
S11313F0FF93DCDDFF91EF91BF91AF919F918F91AE
S11314007F916F915F914F913F912F910F900FBEFC
S11314100F901F9018951F920F920FB60F921124E0
S11314202F933F934F935F936F937F938F939F93E8
S1131430AF93BF93EF93FF93B9DDFF91EF91BF910A
S1131440AF919F918F917F916F915F914F913F9158
S11314502F910F900FBE0F901F9018951F920F920F
S11314600FB60F9211242F933F934F935F936F9373
S11314707F938F939F93AF93BF93EF93FF9396DDE7
S1131480FF91EF91BF91AF919F918F917F916F9158
S11314905F914F913F912F910F900FBE0F901F902E
S11314A018951F920F920FB60F9211242F933F930A
S11314B04F935F936F937F938F939F93AF93BF9358
S11314C0EF93FF9373DDFF91EF91BF91AF919F91E4
S11314D08F917F916F915F914F913F912F910F90D9
S11314E00FBE0F901F9018951F920F920FB60F9278
S11314F011242F933F934F935F936F937F938F9315
S11315009F93AF93BF93EF93FF9350DDFF91EF91C0
S1131510BF91AF919F918F917F916F915F914F9107
S11315203F912F910F900FBE0F901F901895CF925F
S1131530DF92EF92FF92CF93DF93EB018130E1F5DD
S1131540C0908503D0908603E0908703F0908803D1
S113155020E030E0A901C701B6010E94FC168823EF
S1131560E1F02EEE3CE74FE75FE3C701B6010E94CE
S11315704F186B017C01BE0180E090E00E94991736
S11315802FE632E143E05BE30E944F189B01AC017C
S1131590C701B6010E94981605C0BE0180E090E024
S11315A00E949917F894609385037093860380933F
S11315B08703909388033DC08330D9F5C0907D03A1
S11315C0D0907E03E0907F03F090800320E030E031
S11315D0A901C701B6010E94FC168823E1F02BE3A0
S11315E03FED4FE75FE3C701B6010E944F186B015F
S11315F07C01BE0180E090E00E9499172FE632E161
S113160043E05AE30E944F189B01AC01C701B601A5
S11316100E94981605C0BE0180E090E00E949917D0
S1131620F89460937D0370937E0380937F0390937B
S11316308003DF91CF91FF90EF90DF90CF900895DA
S11316401F920F920FB60F921124CF92DF92EF9256
S1131650FF921F932F933F934F935F936F937F93C7
S11316608F939F93AF93BF93CF93DF93EF93FF93A6
S113167010918903C091780080917900D0E0D82B33
S1131680113041F018F0123061F00FC081E0809306
S1131690890310C088EC80937C0082E080938903E6
S11316A009C083E08093890305C080EC80937C00AB
S11316B0109289036091850370918603809187035A
S11316C0909188030E946D176B017C0160917D03EA
S11316D070917E0380917F03909180030E946D1727
S11316E078949B01A601BE01812F21DFFF91EF9128
S11316F0DF91CF91BF91AF919F918F917F916F9126
S11317005F914F913F912F911F91FF90EF90DF9048
S1131710CF900F900FBE0F901F9018951F920F92AD
S11317200FB60F9211242F933F934F935F936F93B0
S11317307F938F939F93AF93BF93EF93FF9336DC85
S1131740FF91EF91BF91AF919F918F917F916F9195
S11317505F914F913F912F910F900FBE0F901F906B
S113176018951F920F920FB60F9211242F933F9347
S11317704F935F936F937F938F939F93AF93BF9395
S1131780EF93FF9313DCFF91EF91BF91AF919F9182
S11317908F917F916F915F914F913F912F910F9016
S11317A00FBE0F901F9018951F920F920FB60F92B5
S11317B011242F933F934F935F936F937F938F9352
S11317C09F93AF93BF93CF93DF93EF93FF93809156
S11317D0B9006091BB00CCEBD0E04881887F80D613
S11317E085688883FF91EF91DF91CF91BF91AF918D
S11317F09F918F917F916F915F914F913F912F9125
S11318000F900FBE0F901F9018951F920F920FB656
S11318100F9211242F933F934F935F936F937F9372
S11318208F939F93AF93BF93EF93FF93BFDBFF918E
S1131830EF91BF91AF919F918F917F916F915F9144
S11318404F913F912F910F900FBE0F901F901895BD
S1131850CF93DF931F92CDB7DEB78FB78983F89408
S113186099818FEF8BB91AB828982C9A2D9A2D98B4
S113187089B19FBF0F90DF91CF910895CF93DF93EC
S11318801F92CDB7DEB79FB79983F89499818BB92E
S11318908FEF8AB928982C982D9A2D989FBF0F9076
S11318A0DF91CF910895CF93DF931F92CDB7DEB729
S11318B09FB79983F89499818BB98FEF8AB9289A45
S11318C02C982D9A2D989FBF0F90DF91CF9108955A
S11318D0CF93DF931F92CDB7DEB78FB78983F89488
S11318E099818FEF8BB91AB8289A2C9A2D9A2D9832
S11318F080914403882319F089B12D9A2D9889B1D8
S1131900109244039FBF0F90DF91CF9108958111EE
S113191003C08EEAB3CF08958DE2B0DF84E2AEDF78
S11319208AEEACDF81E8AADF8CE9A8DF88ECA6DFC9
S113193088E8A4DF80E4A2DF80E9A0DF80EB9EDFFB
S113194080E09CDF80E19ADF81E0809344038FEEA6
S113195095DF8EEE93DF84EA91DF86EA8FDF8FEAEC
S11319608DCF0895806B8ADF81E0809344030895CE
S1131970CF93803F58F4C82F8F7080DF8C2F8295CF
S11319808F7080617BDF81E080934403CF91089561
S113199080E074DF80E172DF81E080934403089586
S11319A080EB6CDFF5CF08951F93CF93DF93D0E0E6
S11319B010EF8D2F806B62DF80E060DF80E15EDFFF
S11319C0C12F80E070DFC150E1F7DF5FD03189F7CC
S11319D0E7DFDF91CF911F910895CF92DF92EF92CD
S11319E0FF920F931F93CF93DF9383EC9FEF90931A
S11319F013038093120381E08093110320E030E00D
S1131A000F2EFBE0EF2EF12CF02D6894DD24D6F898
S1131A10F8EF0F2EF8ECCF2EF02D18ED0FEDCCECE7
S1131A20D2E0E1E040E02115310521F418822E2FA7
S1131A30342FF9CF233031055CF4D901A453BD4FC1
S1131A40FC932F5F3F4FD901A453BD4F1C934EC04D
S1131A50253031052CF4D901A453BD4F0C9346C055
S1131A602B3031052CF4D901A453BD4F1C933EC037
S1131A70203131052CF4D901A453BD4FFC9336C059
S1131A802C33310519F41092080336C0C90140976C
S1131A90B7010E94B218892B29F5D901A453BD4F6F
S1131AA0DC921196DC9211971296DC92129713969F
S1131AB0FC9313971496FC9314971596CC92159750
S1131AC01696FC9316971796FC9317971896CC9234
S1131AD018971996FC93265F3F4FD901A453BD4F25
S1131AE0FC9304C0D901A453BD4F1C922F5F3F4FF8
S1131AF02D3331050CF497CFACECB2E0ECECF2E012
S1131B002FE832E08D918293E217F307D9F700E0D2
S1131B1028E040EF68E780E00E944F05DF91CF9115
S1131B201F910F91FF90EF90DF90CF900895CF9287
S1131B30DF92EF92FF920F93CF93DF931F92CDB773
S1131B40DEB780911103882309F43DC11BD66B01D4
S1131B507C012091090330910A0340910B035091B9
S1131B600C030E9497162AE037ED43E25DE30E94DE
S1131B704B1888230CF458C0C0920903D0920A036E
S1131B80E0920B03F0920C0380911103E091120395
S1131B90F0911303E80FF11D87FDFA95F0931303F9
S1131BA0E0931203EA3B2FEFF20724F481E08093E1
S1131BB0110323C0EA3FF10524F08FEF8093110352
S1131BC004C0809111038823C4F4E03FF10538F484
S1131BD02DE34E2F6FE08CEC92E0D4D825C0CF01DA
S1131BE0CC96CC9708F52DE32E0F40E06FE08CECFB
S1131BF092E08E1B9F0BC6D817C0E03FF10538F466
S1131C002DE34E2F6FE08FE892E0BCD80DC0CF01DA
S1131C10CC96CC9748F42DE32E0F40E06FE08FE88C
S1131C2092E08E1B9F0BAED820910D0330910E03D2
S1131C3040910F0350911003C701B6010E949716FB
S1131C4020E030E040E05FE30E944B1888230CF46E
S1131C5074C0C0920D03D0920E03E0920F03F09271
S1131C601003E2D580917303882309F466C08FB70B
S1131C708983F8948981C0907503D0907603E090AD
S1131C807703F09078038FBF20E030E0A901C7010B
S1131C90B6010E94FC1688231CF4C12CD12C7601B9
S1131CA020918B0230918C0240918D0250918E02D2
S1131CB0C701B6010E9497169F772AE037ED43E2E9
S1131CC05CE30E94FC168823C4F1C0928B02D0927C
S1131CD08C02E0928D02F0928E0220E030E048EC1B
S1131CE052E4C701B6010E944F180E946817CB0145
S1131CF064E670E00E94B2189F938F93C701B60107
S1131D000E9468177F936F9388E091E09F938F936D
S1131D101F9280E38F9384E193E09F938F930E94BB
S1131D20DF1821E031E046E464EB84E193E015D967
S1131D300FB6F894DEBF0FBECDBF2091890230915B
S1131D408A02C901019690938A0280938902223102
S1131D503105A4F4009188029BEA099F912D112476
S1131D609695292F220F920F091B2BE1281B6AE05D
S1131D70680F4FEE80E00E94A90425C0823021E064
S1131D8092079CF4009188029BEA099F912D1124EB
S1131D909695292F220F920F091B41E0481B2AE038
S1131DA06BE182510E94A9040EC010928A02109223
S1131DB08902809188028F5F833018F480938802AF
S1131DC002C0109288020F90DF91CF910F91FF9083
S1131DD0EF90DF90CF900895FF920F931F93CF93CE
S1131DE0DF93F82E80FF06C0C0E08C2F5CDDCF5F50
S1131DF0C03FD9F7F1FE18C082E0B4DDC9DDC0E010
S1131E00D0E007E010E0CE01B8010E94B218892B9F
S1131E1011F480E048DDFE01ED59FA4F849143DD71
S1131E202196C03FD10579F7F2FE25C041E068E272
S1131E3084E01DD841E069E285E019D841E06AE216
S1131E4086E015D841E06BE287E011D841E06CE20E
S1131E5086E00DD841E06DE285E009D841E06EE20C
S1131E6086E005D841E06FE287E001D841E060E315
S1131E7088E00E943707F3FE07C001E02FE14FEE30
S1131E8060E180E00E94A904F4FE0DC001E028E2B4
S1131E9048E260E386E40E942B0528E248E260E31E
S1131EA08AEA0E944F05F5FE0DC00FEF21E04AE0DB
S1131EB060E58AE00E94690521E04AE060E588E285
S1131EC00E942706F6FE07C021E031E040E266E406
S1131ED087E191E042D8FF202CF47FDD81E08093FC
S1131EE0730325DEDF91CF911F910F91FF90089529
S1131EF0EF92FF920F93CF93DF93C82F603B89EB50
S1131F00780714F460EB79EB613596E4790714F003
S1131F1060E576E4072E000C880B990B0E949B1752
S1131F2020E030EA4CE856E46BD720E030E044EBA4
S1131F3052E40E944F18CCD77B0177233CF4D6E9B6
S1131F40D60FEE24FF24E61AF70A01C0D6E91F9241
S1131F50CF9328E231E03F932F931F9290E39F9316
S1131F6024E133E03F932F930E94DF1821E031E016
S1131F7040E160E084E193E00E94AD0721E031E0BC
S1131F8048E760E088E391E00E94AD0700E027E0C5
S1131F9044EB68E78CE30E944F058DB79EB7089623
S1131FA00FB6F8949EBF0FBE8DBFE114F10409F182
S1131FB0C73079F020F4C150C33098F021C0CF303D
S1131FC0F9F401E027E04E2D68E78D2F0E944F05BC
S1131FD017C001E027E04E2D68E78D2F0E942B05E6
S1131FE00FC001E023E044EB68E78CE30E944F0557
S1131FF007C001E02DE746E969E786E90E94A904E4
S1132000DF91CF910F91FF90EF9008959F938F935D
S1132010862F062E000C990B9F936F931F924F935C
S113202082E491E09F938F931F9280E38F9384E1E6
S113203093E09F938F930E94DF1821E031E048E101
S113204060E084E193E00E94AD078DB79EB70C96E3
S11320500FB6F8949EBF0FBE8DBF08951F924F9385
S1132060262F062E000C330B3F936F931F928F93F2
S11320708BE591E09F938F931F9280E38F9384E18C
S113208093E09F938F930E94DF1821E031E040E2B8
S113209060E084E193E00E94AD078DB79EB70C9693
S11320A00FB6F8949EBF0FBE8DBF08957F936F93B4
S11320B09F938F9384E791E09F938F931F9280E384
S11320C08F9384E193E09F938F930E94DF1821E024
S11320D031E048E260E084E193E00E94AD078DB70F
S11320E09EB70A960FB6F8949EBF0FBE8DBF089593
S11320F01F926F931F928F938CE891E09F938F931D
S11321001F9280E38F9384E193E09F938F930E94C7
S1132110DF1821E031E040E360E084E193E00E94D5
S1132120AD078DB79EB70A960FB6F8949EBF0FBE43
S11321308DBF08957F936F931F928F9388EA91E0E8
S11321409F938F931F9280E38F9384E193E09F93F7
S11321508F930E94DF1821E031E048E360E084E1DE
S113216093E00E94AD078DB79EB70A960FB6F89418
S11321709EBF0FBE8DBF08951F924F931F926F9302
S11321801F928F938DEB91E09F938F931F9280E327
S11321908F9384E193E09F938F930E94DF1821E053
S11321A031E040E460E084E193E00E94AD078DB744
S11321B09EB70C960FB6F8949EBF0FBE8DBF0895C0
S11321C0BC0180E090E0B5D620E030E048EC52E479
S11321D017D69F938F937F936F9381EE91E09F9394
S11321E08F931F9280E38F9384E193E09F938F9367
S11321F0E6D721E031E048E460E084E193E00E9426
S1132200AD078DB79EB70A960FB6F8949EBF0FBE62
S11322108DBF08951F926F931F928F9381EF91E06A
S11322209F938F931F9280E38F9384E193E09F9316
S11322308F93C5D721E031E040E560E084E193E08D
S11322400E94AD078DB79EB70A960FB6F8949EBF4D
S11322500FBE8DBF08953F932F931F924F931F92EC
S11322606F931F928F9389E092E09F938F931F92B5
S113227080E38F9384E193E09F938F93A0D721E031
S113228031E048E560E084E193E00E94AD078DB75A
S11322909EB70E960FB6F8949EBF0FBE8DBF0895DD
S11322A03F932F931F924F931F926F931F928F937D
S11322B087E292E09F938F931F9280E38F9384E150
S11322C093E09F938F937BD721E031E040E660E079
S11322D084E193E00E94AD078DB79EB70E960FB6CA
S11322E0F8949EBF0FBE8DBF08959F938F9384E48F
S11322F092E09F938F931F9280E38F9384E193E006
S11323009F938F935CD721E031E048E660E084E15D
S113231093E00E94AD078DB79EB708960FB6F89468
S11323209EBF0FBE8DBF089581E091E0089582EEB7
S1132330A5DA80E090E001968B3228E69207D9F77F
S113234087DA88232CF081E0E2DA2EDB80E008953E
S113235081E0089582EE92DA80E090E001968B3677
S11323602AE09207D9F7089520915D03222371F0A2
S1132370E22FF0E0EC5AFC4F83E593E01292E81769
S1132380F907E1F720935B0310925D030895CF935F
S1132390DF9300D000D0CDB7DEB7FC0121813081BE
S11323A0323209F096C0253809F45CC068F421384B
S11323B0C1F128F42130E1F0203851F18AC02338EA
S11323C009F43EC0C0F14AC02A3809F461C038F4A7
S11323D0283809F450C0293809F452C07AC02C387E
S11323E009F465C008F458C02D3809F46BC071C0F5
S11323F080915203811109C0EAE4F3E08A81818368
S113240080E1808381E0809349031092730361C06B
S1132410648170E0762F66278381682B828168DD72
S113242058C0838190E0982F882722814581648158
S1132430822BECDD4EC04481638182810FDE49C072
S1132440658170E0762F66278481682B838190E014
S1132450982F88272281822B29DE3BC063818281C9
S113246047DE37C0648170E0762F66278381682B4E
S1132470828160DE2EC04481638182817DDE29C039
S1132480838190E0982F88272281822B99DE21C0B6
S113249063818281BFDE1DC0268130E0322F222776
S11324A08581282B448163818281D5DE12C02681F7
S11324B030E0322F22278581282B44816381828159
S11324C0EFDE07C0838190E0982F88272281822B3A
S11324D00CDF0F900F900F900F90DF91CF91089524
S11324E00F931F93CF93DF93D62FC42F082F10E0A1
S11324F0F8013897E13CF10508F03CC1EC5CFF4F72
S113250044C681E080935C031092480382E0809388
S11325104703E3E5F3E084E2808384E3818386E593
S1132520828388E783838AE984830000E0914803F7
S113253081E08E0F80934803F0E0ED5AFC4F8081D8
S11325408093BB0018C1C06116C1E091480380911B
S11325504703E81758F481E08E0F80934803F0E0B6
S1132560ED5AFC4F80818093BB0005C1C06110927D
S11325705C03FADE00C1C06110925C03F5DEFBC0AF
S1132580C062F9C0000011E01093520340E068E01B
S11325908AE493E03FD1D695D0934A03109346033F
S11325A0C064E9C0000081E080935203D695D093C3
S11325B04A0380934603C064DEC000008091450353
S11325C0873009F462C080914603873028F4E82FED
S11325D0F0E0E65BFC4FD083813009F047C0909176
S11325E04A03903339F4D295D695D770DF5FD093F0
S11325F045033EC09232E1F590914B03943811F1BA
S113260058F4903819F128F49923A1F09130B1F0DD
S113261029C09238F9F41AC09B3838F4993890F4E8
S11326209538A1F0983891F01DC09D38B8F09D38C8
S113263049F018C091E0909345031AC092E090933A
S1132640450316C093E09093450312C094E0909321
S113265045030EC095E0909345030AC096E090931D
S1132660450306C09EE09093450302C0863058F4AB
S11326708F5F8093460390914503981710F0C064D0
S11326807AC0CF7B78C0CF7B76C0D0934C03CF7B0E
S11326901092460370C000001092520380914503CB
S11326A0873029F0609146038AE493E070DE10924B
S11326B046031092450340E068E08AE493E0AAD020
S11326C010925203C06457C0109252038091450384
S11326D0873029F0609146038AE493E058DEC064B1
S11326E01092460348C0000081E080935203109288
S11326F048038091490380934703882331F081E0A4
S11327008093480380914A0301C080E08093BB001A
S11327109091470380914803891710F4C0642BC03B
S1132720CF7B29C0E091480380914703E81748F420
S113273081E08E0F80934803F0E0E65BFC4F8081DC
S113274001C080E08093BB009091470380914803CF
S1132750891710F4C0640FC0CF7B0DC0C064109201
S11327604803109247031092520305C0C0641092AC
S1132770520301C000008C2FDF91CF911F910F9164
S1132780089508958F929F92AF92BF92CF92DF9255
S1132790EF92FF92CF93DF931F92CDB7DEB78FB73F
S11327A08983F89499818091840020918500C09058
S11327B08A03D0908B03E0908C03F0908D039FBF2D
S11327C090E0922BBC01990F880B990BB4D320E0B5
S11327D034E244EF5AE414D34B015C01C701B6015F
S11327E0A8D320E030E040E054E459D420E034E2BF
S11327F044EF5AE405D3A50194019AD20F90DF91D6
S1132800CF91FF90EF90DF90CF90BF90AF909F90CB
S11328108F900895662339F0FC01860F911D419332
S1132820E817F907E1F708954F925F926F927F924C
S11328308F929F92AF92BF92CF92DF92EF92FF92CC
S1132840CF93DF93CDB7DEB7E0970FB6F894DEBF32
S11328500FBECDBF8FB78CA7F8948CA5C09085030D
S1132860D0908603E0908703F09088032091810341
S113287030918203409183035091840380907D03BF
S113288090907E03A0907F03B090800340907903E2
S113289050907A0360907B0370907C038FBFC701D4
S11328A0B60145D26DA77EA78FA798AB20E030E094
S11328B040E05FEBA1D2181664F420E030E040E081
S11328C05FE36DA57EA58FA598A9E5D388230CF4B5
S11328D063C0C701B60101D36DA77EA78FA798ABCC
S11328E02DA53EA5263B83E0380708F5B90180E015
S11328F090E01FD320E030E040E251E418D220E021
S113290030E84DE654E47CD220E030E045E753E47F
S1132910C6D320E030E040E251E40AD2DED2609334
S1132920B300E0EBF0E080818068808307C0109200
S1132930B300E0EBF0E080818F73808380917303B8
S11329408823E9F09EA59F932DA52F9384E592E01B
S11329509F938F931F9280E18F938EE593E09F93D3
S11329608F932DD4E1DC9C014CE364EB8EE593E082
S11329700E94AD070FB6F894DEBF0FBECDBF8FB770
S11329808BA7F8948BA5C0928103D0928203E09226
S11329908303F09284038FBFA3019201C501B401A4
S11329A0C6D16B017C012AE037ED43EA5BEB24D20C
S11329B018164CF42AE037ED43EA5BE3C701B6018D
S11329C06AD3882334F18FB78AA7F894FAA429E14B
S11329D037EC4FEA53E4C501B401A9D120E030EA51
S11329E047E85FE35CD320E030E048EC51E4A0D159
S11329F060937503709376038093770390937803C1
S1132A008092790390927A03A0927B03B0927C0324
S1132A10FFBE80917303882311F089D819C0809177
S1132A2000018823A9F0109200010E94D40C89E2CD
S1132A30EFE5F2E0DE01119601900D928A95E1F73F
S1132A4073DC9C0140E060E0CE0101960E94AD077A
S1132A50E0960FB6F894DEBF0FBECDBFDF91CF91E5
S1132A60FF90EF90DF90CF90BF90AF909F908F90AA
S1132A707F906F905F904F900895EF92FF920F9325
S1132A801F93CF93DF9300D000D01F92CDB7DEB752
S1132A908EE788B988E087B984E185B98BEF84B97A
S1132AA08FEF8BB91AB80F2EFEE7EF2EF12CF02D15
S1132AB011E0F70110830E94A4038BEE809364005D
S1132AC003E803BD68E080E00E94BD0382E88093D0
S1132AD0800089E080938100109285001092840028
S1132AE0109389001092880010936F0087E286BBD0
S1132AF060E480E00E94BD030093B00085E0809311
S1132B00B1001092B2001092B3001092700087E0EE
S1132B1087BB1092B60061E080E00E94BD03F7011C
S1132B201083EAE7F0E087E8808380EC80937C0000
S1132B30808180618083808188608083ABE7B0E09E
S1132B408C91887F86608C9380818062808319DE7B
S1132B5084B7982F977011F4811139C08FB78D8382
S1132B60F8948D8110928903109285031092860344
S1132B7010928703109288031092810310928203AB
S1132B80109283031092840310927D0310927E03AB
S1132B9010927F03109280031092790310927A03AB
S1132BA010927B0310927C0340E050E068EC71E4E7
S1132BB0409375035093760360937703709378037F
S1132BC090E490937403109273038FBF0DC090E050
S1132BD0A0E0B0E080936F0390937003A09371031F
S1132BE0B09372030E94D60760E880E00E94BD03A0
S1132BF08FB78C83F8948C811092B90092E09093F3
S1132C00B80094E49093BA001092BD0095E49093B8
S1132C10BC008FBF789413BC8ADB81EFDDD881E0E0
S1132C2080936E0311E000DE13BF889583B78E7F17
S1132C3083BF80916E038111F6CF8CDBF89480B74B
S1132C40806880BF64E080E00E94D30362E080E09B
S1132C500E94D3038FB78B83F8948B81ECEBF0E065
S1132C6094E090833C98449A3D98459A10828FBF93
S1132C7060E880E00E94D303EAE7F0E08081877F88
S1132C80808380818F7D8083EBE7F0E08081887F83
S1132C90808310927C0010927E0061E080E00E94AC
S1132CA0D3038FB78983F894198160E280E00E948E
S1132CB0D3032198299810928000109281001092D9
S1132CC0820010926F0068E080E00E94D303239A90
S1132CD02B981092B0001092B100109270001092D4
S1132CE0B60060E480E00E94D3038FB78A83F8942F
S1132CF08A815F9350E85093610050E050936100E3
S1132D005F918FBF1FBF89E083BF889583B78E7F94
S1132D1083BF80E090E00F900F900F900F900F9082
S1132D20DF91CF911F910F91FF90EF90089550582C
S1132D30BB27AA270ED075C166D130F06BD120F025
S1132D4031F49F3F11F41EF45BC10EF4E095E7FBF0
S1132D5051C1E92F77D180F3BA176207730784074B
S1132D60950718F071F49EF58FC10EF4E0950B2EC3
S1132D70BA2FA02D0B01B90190010C01CA01A001C9
S1132D801124FF27591B99F0593F50F4503E68F124
S1132D901A16F040A22F232F342F4427585FF3CF65
S1132DA0469537952795A795F0405395C9F77EF436
S1132DB01F16BA0B620B730B840BBAF09150A1F07F
S1132DC0FF0FBB1F661F771F881FC2F70EC0BA0F05
S1132DD0621F731F841F48F4879577956795B7958D
S1132DE0F7959E3F08F0B3CF9395880F08F0992785
S1132DF0EE0F979587950895D9D008F481E008954A
S1132E000CD00FC107D140F0FED030F021F45F3F69
S1132E1019F0F0C0511139C1F3C014D198F39923BA
S1132E20C9F35523B1F3951B550BBB27AA2762178A
S1132E307307840738F09F5F5F4F220F331F441FCF
S1132E40AA1FA9F333D00E2E3AF0E0E830D0915007
S1132E505040E695001CCAF729D0FE2F27D0660FF4
S1132E60771F881FBB1F261737074807AB07B0E833
S1132E7009F0BB0B802DBF01FF2793585F4F2AF049
S1132E809E3F510568F0B6C000C15F3FECF3983E29
S1132E90DCF3869577956795B795F7959F5FC9F7A6
S1132EA0880F911D9695879597F90895E1E0660F2F
S1132EB0771F881FBB1F621773078407BA0720F0A8
S1132EC0621B730B840BBA0BEE1F88F7E095089511
S1132ED004D06894B111D9C00895BCD088F09F572C
S1132EE090F0B92F9927B751A0F0D1F0660F771F52
S1132EF0881F991F1AF0BA95C9F712C0B13081F032
S1132F00C3D0B1E00895C0C0672F782F8827B85F79
S1132F1039F0B93FCCF3869577956795B395D9F792
S1132F203EF490958095709561957F4F8F4F9F4F9C
S1132F300895E89409C097FB3EF4909580957095A8
S1132F4061957F4F8F4F9F4F9923A9F0F92F96E9F1
S1132F50BB279395F695879577956795B795F11166
S1132F60F8CFFAF4BB0F11F460FF1BC06F5F7F4F03
S1132F708F4F9F4F16C0882311F096E911C0772315
S1132F8021F09EE8872F762F05C0662371F096E81E
S1132F90862F70E060E02AF09A95660F771F881FED
S1132FA0DAF7880F9695879597F90895990F000891
S1132FB0550FAA0BE0E8FEEF16161706E807F90707
S1132FC0C0F012161306E407F50798F0621B730BA2
S1132FD0840B950B39F40A2661F0232B242B252B23
S1132FE021F408950A2609F4A140A6958FEF811DC6
S1132FF0811D089597F99F6780E870E060E0089567
S11330009FEF80EC089500240A94161617061806FC
S11330100906089500240A941216130614060506D8
S11330200895092E0394000C11F4882352F0BB0F69
S113303040F4BF2B11F460FF04C06F5F7F4F8F4FCC
S11330409F4F089557FD9058440F551F59F05F3F07
S113305071F04795880F97FB991F61F09F3F79F0B6
S113306087950895121613061406551FF2CF469538
S1133070F1DF08C0161617061806991FF1CF8695BA
S11330807105610508940895E894BB27662777279E
S1133090CB0197F908958ADF08F48FEF08950BD0D8
S11330A0C0CFB1DF28F0B6DF18F0952309F0A2CF26
S11330B0A7CF1124EACFC6DFA0F3959FD1F3950FD4
S11330C050E0551F629FF001729FBB27F00DB11DA8
S11330D0639FAA27F00DB11DAA1F649F6627B00D38
S11330E0A11D661F829F2227B00DA11D621F739F21
S11330F0B00DA11D621F839FA00D611D221F749F2F
S11331003327A00D611D231F849F600D211D822F75
S1133110762F6A2F11249F5750408AF0E1F08823BC
S11331204AF0EE0FFF1FBB1F661F771F881F9150C9
S11331305040A9F79E3F510570F05CCFA6CF5F3F8A
S1133140ECF3983EDCF3869577956795B795F795FC
S1133150E7959F5FC1F7FE2B880F911D9695879584
S113316097F9089597FB072E16F4009406D077FD7F
S113317008D011D007FC05D03EF4909581959F4F5F
S11331800895709561957F4F0895EE0FFF1F059088
S1133190F491E02D0994AA1BBB1B51E107C0AA1F9F
S11331A0BB1FA617B70710F0A61BB70B881F991FE4
S11331B05A95A9F780959095BC01CD010895AEE08C
S11331C0B0E0E4EEF8E1A5C20D891E898F89988DDF
S11331D026E02C831A83098397FF02C080E090E8DD
S11331E001979E838D83AE01455E5F4F698D7A8D15
S11331F0CE01019611D04D815E8157FD0AC02F8109
S11332003885421753070CF49A01F801E20FF31FB3
S113321010822E96E4E099C2ACE0B0E0E1E1F9E17D
S11332206AC27C016B018A01FC01178216828381C8
S113323081FFB0C1CE0101964C01F7019381F601E3
S113324093FD859193FF81916F01882309F49EC1B9
S1133250853239F493FD859193FF81916F01853215
S113326021F4B70190E0B1D1E8CF512C312C20E00A
S11332702032A0F48B3269F030F4803259F083327A
S113328069F420612CC08D3239F0803339F4216027
S113329026C02260246023C0286021C027FD27C0E7
S11332A030ED380F3A3078F426FF06C0FAE05F9E1E
S11332B0300D1124532E13C08AE0389E300D112492
S11332C0332E20620CC08E3221F426FD5FC12064AF
S11332D006C08C3611F4206802C0883641F4F60129
S11332E093FD859193FF81916F018111C1CF982F37
S11332F09F7D9554933028F40C5F1F4FFFE3F983AF
S11333000DC0833631F0833771F0833509F057C02F
S113331021C0F801808189830E5F1F4F44244394A8
S1133320512C540114C03801F2E06F0E711CF801E5
S1133330A080B18026FF03C0652D70E002C06FEF4E
S11333407FEFC5012C8736D12C0183012C852F7783
S1133350222E16C03801F2E06F0E711CF801A08015
S1133360B18026FF03C0652D70E002C06FEF7FEFD0
S1133370C5012C8714D12C012C852068222E8301B1
S113338023FC19C0832D90E048165906A0F4B70118
S113339080E290E01AD13A94F5CFF50127FC8591AB
S11333A027FE81915F01B70190E00FD131103A946B
S11333B0F1E04F1A51084114510479F7DEC0843604
S11333C011F0893631F5F80127FF07C0608171815A
S11333D0828193810C5F1F4F08C060817181072E29
S11333E0000C880B990B0E5F1F4F2F76722E97FFE0
S11333F009C090958095709561957F4F8F4F9F4F31
S11334002068722E2AE030E0A40117D1A82EA81853
S113341043C0853729F42F7EB22E2AE030E025C040
S1133420F22FF97FBF2E8F36C1F018F4883579F06A
S1133430ADC0803719F0883721F0A8C02F2F206144
S1133440B22EB4FE0DC08B2D8460B82E09C024FFAB
S11334500AC09F2F9660B92E06C028E030E005C050
S113346020E130E002C020E132E0F801B7FE07C0FD
S113347060817181828193810C5F1F4F06C06081DE
S1133480718180E090E00E5F1F4FA401D6D0A82E7A
S1133490A818FB2DFF777F2E76FE0BC0372D3E7FBD
S11334A0A51450F474FE0AC072FC08C0372D3E7E89
S11334B005C0BA2C372D03C0BA2C01C0B52C34FF7B
S11334C00DC0FE01EA0DF11D8081803311F4397EB7
S11334D009C032FF06C0B394B39404C0832F867826
S11334E009F0B39433FD12C030FF06C05A2CB31454
S11334F018F4530C5B18B32CB31460F4B70180E2D6
S113350090E03C8762D0B3943C85F6CFB31410F4BA
S11335103B1801C0312C34FF11C0B70180E390E0A7
S11335203C8753D03C8532FF16C031FD03C088E789
S113353090E002C088E590E0B7010CC0832F867844
S113354051F031FF02C08BE201C080E237FD8DE211
S1133550B70190E03AD0A51430F4B70180E390E0CD
S113356034D05A94F8CFAA94F401EA0DF11D808165
S1133570B70190E02AD0A110F6CF332009F45DCE34
S1133580B70180E290E021D03A94F7CFF701868129
S1133590978102C08FEF9FEF2C96E2E1C8C0FC0137
S11335A00590615070400110D8F7809590958E0F6A
S11335B09F1F0895FC016150704001900110D8F7DD
S11335C0809590958E0F9F1F08950F931F93CF930F
S11335D0DF93FB01238121FD03C08FEF9FEF28C000
S11335E022FF16C046815781248135814217530733
S11335F044F4A081B1819D012F5F3F4F318320832B
S11336008C93268137812F5F3F4F3783268310C0E9
S1133610EB01092F182F0084F185E02D0995892BE2
S1133620E1F68E819F8101969F838E83812F902F57
S1133630DF91CF911F910F910895FA01AA272830A5
S113364051F1203181F1E8946F936E7F6E5F7F4F6B
S11336508F4F9F4FAF4FB1E03ED0B4E03CD0670FE7
S1133660781F891F9A1FA11D680F791F8A1F911D3A
S1133670A11D6A0F711D811D911DA11D20D009F48A
S113368068943F912AE0269F11243019305D3193CC
S1133690DEF6CF010895462F4770405D4193B3E0B5
S11336A00FD0C9F7F6CF462F4F70405D4A3318F05C
S11336B0495D31FD4052419302D0A9F7EACFB4E00D
S11336C0A6959795879577956795BA95C9F70097C5
S11336D06105710508959B01AC010A2E0694579566
S11336E0479537952795BA95C9F7620F731F841FBD
S11336F0951FA01D08952F923F924F925F926F9253
S11337007F928F929F92AF92BF92CF92DF92EF926D
S1133710FF920F931F93CF93DF93CDB7DEB7CA1BEE
S1133720DB0B0FB6F894DEBF0FBECDBF09942A8819
S1133730398848885F846E847D848C849B84AA84C1
S1133740B984C884DF80EE80FD800C811B81AA814E
S1133750B981CE0FD11D0FB6F894DEBF0FBECDBF19
S10B3760ED010895F894FFCF78
S11337680100EA010607207D20543D2532642E25F8
S11337783032645E43200044463449414820536D46
S11337886172742D4C434400436C6B5374617465CB
S11337983A2030782531580050686173652020201C
S11337A83A0044617465202020203A202530326490
S11337B82E253032642E253034640055544320209D
S11337C82020203A20253032643A253032642E25D0
S11337D8303264005072656369732E203A20252DB7
S11337E833692E253034642070706D0050574D2095
S11337F8202020203A202533642E25303364202FBE
S1133808203235362025250050756C6C566F6C7443
S11338183A202531642E25303364205600536174D0
S113382855736520203A20573D2530326420453DA4
S11338382530326420553D25303264207361747319
S11338480053617420444F50203A2025322E3366A9
S11338580053617453746174653A2046493D2531B7
S113386864204D323D25316400536174204C6174E9
S1133878203A2025632020253032645E25303264C6
S11338882E253034642700536174204C6F6E203A1F
S113389820256320253033645E253032642E25309C
S11338A83464270053617420486774203A2025350E
S11338B864206D00204C3D25346420414420003CA4
S11338C83D3D3D3D203130204D487A2E2D526566D0
S11338D82E2D4F73632E2020536D6172742D4C432B
S10B38E844203D3D3D3D3E003E
S9030000FC
