S0140000536D6172742D4C43445F53572E7372656300
S1130000BEC300000C9411080C9434080C945708D7
S11300100C947A080C949D080C94C0080C94E30882
S11300200C9406090C9429090C944C090C946F093E
S11300300C9492090C94B5090C94DA090C94FD09FA
S11300400C94200A0C94430A0C94660A0C94890AB2
S11300500C94AC0A0C94580B0C94C60B0C94E90B3E
S11300600C940C0C0C943E0CBB16C916C916C9167C
S1130070C916C916C916C9167515C916C916C916D9
S1130080C916C916C916C9168915C916C916C916B5
S1130090C916C916C916C9168A15C916C916C916A4
S11300A0C916C916C916C9169715C916C916C91687
S11300B0C916C916C916C9169915C916C916C91675
S11300C0C916C916C916C916AF15C916C916C9164F
S11300D0C916C916C916C916B415C916C916C9163A
S11300E0C916C916C916C916B615C916C916C91628
S11300F0C916C916C916C916B815C916C916C91616
S1130100C916C916C916C916BA15C916C916C91603
S1130110C916C916C916C916BC15C916C916C916F1
S1130120C916C916C916C916BE15C916C916C916DF
S1130130C916C916C916C916BF15C916C916C916CE
S1130140C916C916C916C916CF15C916C916C916AE
S1130150C916C916C916C916D015C916C916C9169D
S1130160C916C916C916C916DB15C916C916C91682
S1130170C916C916C916C9165016C916C916C916FC
S1130180C916C916C916C916DC15C916C916C91661
S1130190C916C916C916C9165116C916C916C916DB
S11301A0C916C916C916C9166916C916C916C916B3
S11301B0C916C916C916C9167816C916C916C91694
S11301C0C916C916C916C9167916C916C916C91683
S11301D0C916C916C916C9169616C916C916C91656
S11301E0C916C916C916C916B316C916C916C91629
S11301F0C916C916C916C916B716C916C916C91615
S1130200C916C916C916C916C916C916C916C916F2
S1130210C916C916C916C916C916C916C916C916E2
S1130220C916C916C916C916C916C916C916C916D2
S1130230C916C916C916C916C916C916C916C916C2
S1130240C916C916C916C916C916C916C916C916B2
S1130250C916C916C916C916C21600000000000046
S1130260002020202020002050505000000000508A
S113027050F850F850502078A07028F020C0C810D2
S1130280204098186090A040A8906860204000002A
S1130290000010204040402010402010101020404A
S11302A0005020F8205000002020F82020000000FA
S11302B00000602040000000F80000000000000082
S11302C000606000081020408000708898A8C888EA
S11302D07020602020202070708808102040F8F8DA
S11302E010201008887010305090F81010F880F02A
S11302F008088870304080F0888870F80810204022
S11303004040708888708888707088887808106089
S113031000606000606000006060006020400810C1
S113032020402010080000F800F800008040201051
S11303302040807088081020002070880868A8A8D1
S11303407070888888F88888F08888F08888F070C9
S1130350888080808870E09088888890E0F8808029
S1130360F08080F8F88080E08080807088808098B9
S11303708870888888F888888870202020202070D9
S1130380381010101090608890A0C0A090888080D1
S113039080808080F888D8A8888888888888C8A8B9
S11303A098888870888888888870F08888F0808029
S11303B08070888888A89068F08888F0A0908878F1
S11303C08080700808F0F820202020202088888869
S11303D08888887088888888885020888888A8A811
S11303E0D8888888502050888888885020202020E9
S11303F0F80810204080F838202020202038008081
S11304004020100800E02020202020E02050880018
S1130410000000000000000000F840201000000070
S113042000000070087888788080B0C88888F00060
S11304300070808088700808689888887800007048
S113044088F88070304840E0404040000078887868
S113045008308080B0C88888882000602020207000
S113046010003010109060404048506050486020A8
S113047020202020700000D0A8A888880000B0C8E0
S1130480888888000070888888700000F088F08070
S113049080000068987808080000B0C88080800058
S11304A00070807008F04040E04040483000008810
S11304B0888898680000888888502000008888A868
S11304C0A850000088502050880000888878087060
S11304D00000F8102040F810202040202010202098
S11304E02020202020402020102020400000000058
S11304F00000002020202020002050505000000048
S1130500005050F850F850502078A07028F020C0C7
S1130510C810204098186090A040A89068602040BF
S11305200000000010204040402010402010101017
S11305302040005020F8205000002020F820200007
S113054000000000602040000000F80000000000EF
S1130550000000606000081020408000708898A8A7
S1130560C8887020602020202070708808102040E7
S1130570F8F810201008887010305090F81010F817
S113058080F008088870304080F0888870F808107F
S11305902040404070888870888870708888780807
S11305A010600060600060600000606000602040D7
S11305B0081020402010080000F800F800008040D7
S11305C0201020408070880810200020708808685F
S11305D0A8A87070888888F88888F08888F0888847
S11305E0F070888080808870E09088888890E0F837
S11305F08080F08080F8F88080E08080807088803F
S113060080988870888888F88888887020202020BE
S11306102070381010101090608890A0C0A09088AE
S1130620808080808080F888D8A888888888888896
S1130630C8A898888870888888888870F08888F026
S113064080808070888888A89068F08888F0A0905E
S113065088788080700808F0F820202020202088E6
S113066088888888887088888888885020888888BE
S1130670A8A8D88888885020508888888850202046
S11306802020F80810204080F8382020202020382E
S113069000804020100800E02020202020E020508E
S11306A08800000000000000000000F84020100056
S11306B0000000000070087888788080B0C88888BE
S11306C0F000007080808870080868988888780036
S11306D0007088F88070304840E040404000007866
S11306E0887808308080B0C88888882000602020FE
S11306F02070100030101090604040485060504806
S1130700602020202020700000D0A8A88888000045
S1130710B0C8888888000070888888700000F088D5
S1130720F08080000068987808080000B0C88080D5
S113073080000070807008F04040E0404048300085
S1130740008888889868000088888850200000887D
S113075088A8A85000008850205088000088887815
S113076008700000F8102040F810202040202010CD
S11307702020202020202040202010202040112450
S11307801FBECFEFD8E0DEBFCDBF12E0A0E0B1E0E6
S1130790E8E4FDE302C005900D92A839B107D9F74A
S11307A023E0A8E9B2E001C01D92AF3BB207E1F734
S11307B00E9429180C94A21ECF93DF931F92CDB7E9
S11307C0DEB78FEF809364008FB78983F8948981B3
S11307D05F9350E85093610050E0509361005F9143
S11307E08FBF0F90DF91CF910895CF93DF931F9226
S11307F0CDB7DEB79FB79983F8949981811106C06C
S1130800E4E6F0E060958081682360839FBF0F90E9
S1130810DF91CF910895CF93DF931F92CDB7DEB7C9
S11308209FB79983F8949981811105C0E4E6F0E0BB
S11308308081682B60839FBF0F90DF91CF910895D3
S1130840FF920F931F93CF93DF93E42FF0E0E80F11
S1130850F11DE13FF1051CF0C0EF4C2F481B442370
S113086009F453C0D62FD695D695D695ED2FF0E042
S1130870F195E195F109EE0FFF1FEE0FFF1FEE0F4B
S1130880FF1FDF01A60FB11DBD01E1E0F0E0DF01B4
S113089002C0AA0FBB1F6A95E2F7FA2E213021F09D
S11308A098F0223019F131C0C42F1FEF180F012F17
S11308B00C0F602F8D2FE0D2482F4F29602F8D2FE2
S11308C0CBD2C150A1F721C0C42F1FEF180FFA2EAD
S11308D0F094012F0C0F602F8D2FCED2482F4F2173
S11308E0602F8D2FB9D2C150A1F70FC0C42F1FEFB5
S11308F0180F012F0C0F602F8D2FBED2482F4F25BC
S1130900602F8D2FA9D2C150A1F7DF91CF911F91F4
S11309100F91FF900895EF92FF920F931F93CF933F
S1130920DF93442309F446C0122FD82F9FEF960F6C
S1130930940F691303C0422FD2D23CC09F3708F0F2
S11309409FE7C62FC695C695C695092F06950695A9
S1130950069567702FEF30E0A90102C0440F551FC0
S11309606A95E2F7977067E070E0FB01E91BF10913
S1130970790102C0F594E794EA95E2F7C01306C042
S11309804E21212F6D2F8C2F87D214C0212F6D2F34
S11309908C2F82D2CF5FC01740F4212F4FEF6D2FE1
S11309A08C2F7AD2CF5FC017C0F3212F4E2D6D2F1D
S11309B0802F72D2DF91CF911F910F91FF90EF9012
S11309C008958F929F92AF92BF92CF92DF92EF924F
S11309D0FF920F931F93CF93DF93C82FD62F4817FF
S11309E028F4D22F262F8C2FC42F482FE42EF12C3D
S11309F0EC1AF108A22EB12CAD1AB108FF202CF488
S1130A00F194E194F1081FEF01C011E0BB200CF058
S1130A1048C0882499248A189B088E149F04FCF4E7
S1130A20540188248A9402C0882483946501CE18D2
S1130A30DF08FF20DCF1912C402F6D2F8C2F4FD23B
S1130A40DD201CF0CE18DF08D80DCA0CDB1CC10F4A
S1130A509394892D90E0E816F90674F727C067018E
S1130A60CA0CDB1C992014F1AA24AA94B12C402F9F
S1130A706D2F8C2F34D2DD201CF0C818D908C10F7B
S1130A80CE0CDF1CDA0DB3948B2D90E088169906FA
S1130A9074F70CC06701CA18DB084501AA24A394A3
S1130AA0E5CFAE14BF040CF4BFCFF4CFDF91CF91E8
S1130AB01F910F91FF90EF90DF90CF90BF90AF9078
S1130AC09F908F900895FF920F931F93CF93DF937E
S1130AD0D82F162FC42FF22E202FB2DE6FEF6F0DFA
S1130AE0610F202F4C2F8D2FABDE202F4F2D612F28
S1130AF08D2F11DF8FEF8C0F202F4F2D612F8D0F36
S1130B000ADFDF91CF911F910F91FF900895FF921B
S1130B100F931F93CF93DF93222369F0C22FF42EF8
S1130B20182FDFEFD60F6D2F6C0F202F4F2D812F35
S1130B3087DEC150C1F7DF91CF911F910F91FF90D4
S1130B4008952F923F924F925F926F927F928F926D
S1130B509F92AF92BF92CF92DF92EF92FF920F9348
S1130B601F93CF93DF9300D01F92CDB7DEB7882EAB
S1130B70962E4A83A22E411103C0422FB0D189C0C0
S1130B802A81E22EF12CEE0CFF1CF194E194F10881
S1130B9083E0E80EF11CC62ED82C182DB62E1B822D
S1130BA0902F9170292EE02FE2703E2EF02FF470DA
S1130BB04F2E202F2870522E802F8071682E902F58
S1130BC09072792EE02FE074E983222029F04A2DD7
S1130BD06C2D8A81880D83D1332031F04A2D692D03
S1130BE0FA816F1B812F7BD1442031F04A2D692D6E
S1130BF02A81621B8D2D73D1552031F04A2D6C2D25
S1130C00882D9A81891B6BD1662031F04A2D6B2D7A
S1130C10882DEA818E1B63D1772029F04A2D6A81C1
S1130C20690D8D2D5CD1F981FF2329F04A2D6A814C
S1130C30690D812F54D100232CF44A2D6B2D8A8108
S1130C40880D4DD1FF205CF42B81822F90E0880F1A
S1130C50991F880F991F0696E80EF91E0FC0EB81A5
S1130C608E2F90E0FA818F1B9109880F991F880FAE
S1130C70991F0A96E80EF91EF150FA832B812F5F13
S1130C802B83B3941F5FDA94CA948A81821708F085
S1130C909CCF0F900F900F90DF91CF911F910F91E8
S1130CA0FF90EF90DF90CF90BF90AF909F908F9088
S1130CB07F906F905F904F903F902F9008955F9238
S1130CC06F927F928F929F92AF92BF92CF92DF9258
S1130CD0EF92FF920F931F93CF93DF93882E962E5C
S1130CE0C42FA22E411103C0422FF9D073C0E42EA9
S1130CF0F12CEE0CFF1CF194E194F10883E0E80E72
S1130D00F11CB62EC82CD82C11E0D0E0802F8370B3
S1130D10582E802F8C70682E802F8073782E007C44
S1130D20552069F02A2D412F6B2D8C2F880DF3DD72
S1130D302A2D41E04C0F692D6C1B8D2DECDD6620B6
S1130D4069F02A2D412F6B2D882D8C1BE4DD2A2D73
S1130D5041E04C0F692D6C1B8C2DDDDD772061F09B
S1130D602A2D412F692D882D8C1BD5DD2A2D41E09C
S1130D704C0F692D8C2DCFDD002361F02A2D412FDE
S1130D80692D8C2F880DC7DD2A2D41E04C0F692D6C
S1130D908D2DC1DDFF2054F48D2F90E0880F991F15
S1130DA0880F991F0696E80EF91E0CC0ED2FF0E08F
S1130DB0EC1BF109EE0FFF1FEE0FFF1F3A96EE0E2C
S1130DC0FF1EC150DF5F1F5FD394CA94BA94CD173E
S1130DD008F0A6CFDF91CF911F910F91FF90EF9074
S1130DE0DF90CF90BF90AF909F908F907F906F9047
S1130DF05F900895EF92FF920F931F93CF93DF9329
S1130E007C01C42F122F892B01F16031F0F4403F93
S1130E10E0F4862FE0D58C2FE4D5812F90E08C0F61
S1130E20911D813F910514F010EF1C1B112369F0F3
S1130E30E7011150012F10E00F5F1F4F0E0D1F1D12
S1130E4089916AD5C017D107D9F7DF91CF911F9146
S1130E500F91FF90EF900895CF93DF93803148F482
S1130E60603F38F4D42FC62FB6D58C2FBAD58D2F2A
S1130E7053D5DF91CF910895CF93803140F4603FF3
S1130E8040F4C62FA8D58C2FACD55BD503C080E029
S1130E9001C080E0CF9108950F931F93CF93DF9308
S1130EA08031C0F4603FB0F4D22F142FC62FE4DF9A
S1130EB0082FD13041F018F0D23039F007C0412F5B
S1130EC04095042303C0012B01C001278C2F89D531
S1130ED0802F22D5DF91CF911F910F910895803FEC
S1130EE098F466238CF0242F962F682F892F87700F
S1130EF041E050E002C0440F551F8A95E2F7892F64
S1130F00869586958695C8CF08959F92AF92BF9295
S1130F10CF92DF92EF92FF920F931F93CF93DF93C1
S1130F20C82FE62EB42E690100E0F9012481438123
S1130F306B2D8E2DECDDF601808181113AC0838109
S1130F40282F269526952695877009F02F5FF601A0
S1130F50A4802A9D900111248C2F90E04581841B4C
S1130F609109289FA001299F500D389F500D1124ED
S1130F7001811281040F151F912CF601F380FF20CB
S1130F80A1F0D92DC92D8C2F8E0D9C2F977021F493
S1130F90F801D4910F5F1F4FDD231CF441E06B2D4A
S1130FA09EDFDD0FCF5FCF11EECFB394AA94A110D3
S1130FB0E4CFDF91CF911F910F91FF90EF90DF90DD
S1130FC0CF90BF90AF909F900895DF92EF92FF92E1
S1130FD00F931F93CF93DF93042F7901EC01162F06
S1130FE0D62E89918A3031F4F70184818F5F080FFE
S1130FF01D2D09C08D3039F09701402F612F85DFF9
S1131000F7018381180F88818111EBCFDF91CF9194
S11310101F910F91FF90EF90DF9008959895000035
S113102008951F920F920FB60F9211242F933F939E
S11310304F935F936F937F938F939F93AF93BF93DC
S1131040EF93FF93EBDFFF91EF91BF91AF919F91EE
S11310508F917F916F915F914F913F912F910F905D
S11310600FBE0F901F9018951F920F920FB60F92FC
S113107011242F933F934F935F936F937F938F9399
S11310809F93AF93BF93EF93FF93C8DFFF91EF91CB
S1131090BF91AF919F918F917F916F915F914F918C
S11310A03F912F910F900FBE0F901F9018951F9294
S11310B00F920FB60F9211242F933F934F935F9388
S11310C06F937F938F939F93AF93BF93EF93FF930C
S11310D0A5DFFF91EF91BF91AF919F918F917F9188
S11310E06F915F914F913F912F910F900FBE0F9091
S11310F01F9018951F920F920FB60F9211242F93E1
S11311003F934F935F936F937F938F939F93AF938B
S1131110BF93EF93FF9382DFFF91EF91BF91AF9164
S11311209F918F917F916F915F914F913F912F91FB
S11311300F900FBE0F901F9018951F920F920FB62D
S11311400F9211242F933F934F935F936F937F9349
S11311508F939F93AF93BF93EF93FF935FDFFF91C1
S1131160EF91BF91AF919F918F917F916F915F911B
S11311704F913F912F910F900FBE0F901F90189594
S11311801F920F920FB60F9211242F933F934F93F8
S11311905F936F937F938F939F93AF93BF93EF93DB
S11311A0FF933CDFFF91EF91BF91AF919F918F919E
S11311B07F916F915F914F913F912F910F900FBE4F
S11311C00F901F9018951F920F920FB60F92112433
S11311D02F933F934F935F936F937F938F939F933B
S11311E0AF93BF93EF93FF9319DFFF91EF91BF91FB
S11311F0AF919F918F917F916F915F914F913F91AB
S11312002F910F900FBE0F901F9018951F920F9261
S11312100FB60F9211242F933F934F935F936F93C5
S11312207F938F939F93AF93BF93EF93FF93F6DED8
S1131230FF91EF91BF91AF919F918F917F916F91AA
S11312405F914F913F912F910F900FBE0F901F9080
S113125018951F920F920FB60F9211242F933F935C
S11312604F935F936F937F938F939F93AF93BF93AA
S1131270EF93FF93D3DEFF91EF91BF91AF919F91D5
S11312808F917F916F915F914F913F912F910F902B
S11312900FBE0F901F9018951F920F920FB60F92CA
S11312A011242F933F934F935F936F937F938F9367
S11312B09F93AF93BF93EF93FF93B0DEFF91EF91B2
S11312C0BF91AF919F918F917F916F915F914F915A
S11312D03F912F910F900FBE0F901F9018951F9262
S11312E00F920FB60F9211242F933F934F935F9356
S11312F06F937F938F939F93AF93BF93EF93FF93DA
S11313008DDEFF91EF91BF91AF919F918F917F916E
S11313106F915F914F913F912F910F900FBE0F905E
S11313201F9018951F920F920FB60F9211242F93AE
S11313303F934F935F936F937F938F939F93AF9359
S1131340BF93EF93FF936ADEFF91EF91BF91AF914B
S11313509F918F917F916F915F914F913F912F91C9
S11313600F900FBE0F901F9018951F920F920FB6FB
S11313700F9211248F939F93AF93BF938091BB03DC
S11313809091BC03A091BD03B091BE030196A11D31
S1131390B11D8093BB039093BC03A093BD03B09392
S11313A0BE03BF91AF919F918F910F900FBE0F908D
S11313B01F9018951F920F920FB60F9211242F931E
S11313C03F934F935F936F937F938F939F93AF93C9
S11313D0BF93EF93FF9322DEFF91EF91BF91AF9103
S11313E09F918F917F916F915F914F913F912F9139
S11313F00F900FBE0F901F9018951F920F920FB66B
S11314000F9211242F933F934F935F936F937F9386
S11314108F939F93AF93BF93EF93FF93FFDDFF9160
S1131420EF91BF91AF919F918F917F916F915F9158
S11314304F913F912F910F900FBE0F901F901895D1
S11314401F920F920FB60F9211242F933F934F9335
S11314505F936F937F938F939F93AF93BF93EF9318
S1131460FF93DCDDFF91EF91BF91AF919F918F913D
S11314707F916F915F914F913F912F910F900FBE8C
S11314800F901F9018951F920F920FB60F92112470
S11314902F933F934F935F936F937F938F939F9378
S11314A0AF93BF93EF93FF93B9DDFF91EF91BF919A
S11314B0AF919F918F917F916F915F914F913F91E8
S11314C02F910F900FBE0F901F9018951F920F929F
S11314D00FB60F9211242F933F934F935F936F9303
S11314E07F938F939F93AF93BF93EF93FF9396DD77
S11314F0FF91EF91BF91AF919F918F917F916F91E8
S11315005F914F913F912F910F900FBE0F901F90BD
S113151018951F920F920FB60F9211242F933F9399
S11315204F935F936F937F938F939F93AF93BF93E7
S1131530EF93FF9373DDFF91EF91BF91AF919F9173
S11315408F917F916F915F914F913F912F910F9068
S11315500FBE0F901F9018951F920F920FB60F9207
S113156011242F933F934F935F936F937F938F93A4
S11315709F93AF93BF93EF93FF9350DDFF91EF9150
S1131580BF91AF919F918F917F916F915F914F9197
S11315903F912F910F900FBE0F901F901895CF92EF
S11315A0DF92EF92FF92CF93DF93EB018130E1F56D
S11315B0C090B603D090B703E090B803F090B9039D
S11315C020E030E0A901C701B6010E94DD1988239B
S11315D0E1F02EEE3CE74FE75FE3C701B6010E945E
S11315E0301B6B017C01BE0180E090E00E947A1AFE
S11315F02FE632E143E05BE30E94301B9B01AC0128
S1131600C701B6010E94791905C0BE0180E090E0CF
S11316100E947A1AF8946093B6037093B703809388
S1131620B8039093B9033DC08330D9F5C090B20399
S1131630D090B303E090B403F090B50320E030E021
S1131640A901C701B6010E94DD198823E1F02BE34B
S11316503FED4FE75FE3C701B6010E94301B6B010A
S11316607C01BE0180E090E00E947A1A2FE632E10C
S113167043E05AE30E94301B9B01AC01C701B60151
S11316800E94791905C0BE0180E090E00E947A1A98
S1131690F8946093B2037093B3038093B40390936C
S11316A0B503DF91CF91FF90EF90DF90CF90089535
S11316B01F920F920FB60F921124CF92DF92EF92E6
S11316C0FF921F932F933F934F935F936F937F9357
S11316D08F939F93AF93BF93CF93DF93EF93FF9336
S11316E01091BA03C091780080917900D0E0D82B92
S11316F0113041F018F0123061F00FC081E0809396
S1131700BA0310C088EC80937C0082E08093BA0313
S113171009C083E08093BA0305C080EC80937C0009
S11317201092BA036091B6037091B7038091B80325
S11317309091B9030E944E1A6B017C016091B2032F
S11317407091B3038091B4039091B5030E944E1A33
S113175078949B01A601BE01812F21DFFF91EF91B7
S1131760DF91CF91BF91AF919F918F917F916F91B5
S11317705F914F913F912F911F91FF90EF90DF90D8
S1131780CF900F900FBE0F901F9018951F920F923D
S11317900FB60F9211242F933F934F935F936F9340
S11317A07F938F939F93AF93BF93EF93FF9336DC15
S11317B0FF91EF91BF91AF919F918F917F916F9125
S11317C05F914F913F912F910F900FBE0F901F90FB
S11317D018951F920F920FB60F9211242F933F93D7
S11317E04F935F936F937F938F939F93AF93BF9325
S11317F0EF93FF9313DCFF91EF91BF91AF919F9112
S11318008F917F916F915F914F913F912F910F90A5
S11318100FBE0F901F9018951F920F920FB60F9244
S113182011242F933F934F935F936F937F938F93E1
S11318309F93AF93BF93CF93DF93EF93FF938091E5
S1131840B9006091BB00CCEBD0E04881887F0E9456
S1131850641585688883FF91EF91DF91CF91BF91E3
S1131860AF919F918F917F916F915F914F913F9134
S11318702F910F900FBE0F901F9018951F920F92EB
S11318800FB60F9211242F933F934F935F936F934F
S11318907F938F939F93AF93BF93EF93FF93BEDB9D
S11318A0FF91EF91BF91AF919F918F917F916F9134
S11318B05F914F913F912F910F900FBE0F901F900A
S11318C01895CF93DF931F92CDB7DEB78FB7898377
S11318D0F89499818FEF8BB91AB828982C9A2D9A7D
S11318E02D9889B19FBF0F90DF91CF910895CF9329
S11318F0DF931F92CDB7DEB79FB79983F894998190
S11319008BB98FEF8AB928982C982D9A2D989FBF60
S11319100F90DF91CF910895CF93DF931F92CDB7AE
S1131920DEB79FB79983F89499818BB98FEF8AB901
S1131930289A2C982D9A2D989FBF0F90DF91CF91C4
S11319400895CF93DF931F92CDB7DEB78FB7898306
S1131950F89499818FEF8BB91AB8289A2C9A2D9AFA
S11319602D9880915503882319F089B12D9A2D98CB
S113197089B1109255039FBF0F90DF91CF910895C5
S1131980811103C08EEAB3CF08958DE2B0DF84E203
S1131990AEDF8AEEACDF81E8AADF8CE9A8DF88EC51
S11319A0A6DF88E8A4DF80E4A2DF80E9A0DF80EB83
S11319B09EDF80E09CDF80E19ADF81E08093550325
S11319C08FEE95DF8EEE93DF84EA91DF86EA8FDF78
S11319D08FEA8DCF0895806B8ADF81E08093550371
S11319E00895CF93803F58F4C82F8F7080DF8C2FD9
S11319F082958F7080617BDF81E080935503CF9166
S1131A00089580E074DF80E172DF81E08093550304
S1131A10089580EB6CDFF5CF08951F93CF93DF9388
S1131A20D0E010EF8D2F806B62DF80E060DF80E11B
S1131A305EDFC12F80E070DFC150E1F7DF5FD0319E
S1131A4089F7E7DFDF91CF911F9108957F928F92FD
S1131A509F92AF92BF92CF92DF92EF92FF920F9339
S1131A601F93CF93DF931F92CDB7DEB78FB78983D0
S1131A70F8941981F8949091840392FF2AC0E4E8C1
S1131A80F3E0892F8B7F8083818D1F928F93808DCC
S1131A901F928F9387891F928F9389E091E09F9380
S1131AA08F931F9280E38F9385E293E09F938F93AC
S1131AB00E94CF1B1FBF22E031E04DE163E085E2CD
S1131AC093E083DA0FB6F894DEBF0FBECDBF8FEF7D
S1131AD066C391FF2BC0E4E8F3E080818D7F8083AF
S1131AE085818F9384818F9385891F928F938689B3
S1131AF01F928F9382E291E09F938F931F9280E3D2
S1131B008F9385E293E09F938F930E94CF1B1FBF17
S1131B1022E031E044E163E085E293E056DA0FB677
S1131B20F894DEBF0FBECDBF8EEF39C3892F81700D
S1131B3090FF22C1E4E8F3E080818E7F80831FBFA1
S1131B40148962817381603BF9EB7F0714F460EBC5
S1131B5079EB613586E4780714F060E576E4072EC6
S1131B60000C880B990B0E947C1A20E030EA4CE8A8
S1131B7056E40E94E11920E030E048E952E40E9472
S1131B80301B0E94491A6B017C015B01772354F4DA
S1131B900F2EF6E97F2EF02D760E88249924861ACE
S1131BA0970A05C04B010F2EF6E97F2EF02D1F92E8
S1131BB01F932BE331E03F932F931F9280E38F9386
S1131BC025E233E03F932F930E94CF1B22E031E0C4
S1131BD04BE063E085E293E0F8D922E031E047E7A7
S1131BE063E08BE491E0F1D90FB6F894DEBF0FBE49
S1131BF0CDBF80919F02181305C08114910409F48C
S1131C00C6C20BC000E025E040EA68E786E40E9413
S1131C1087058114910409F4A4C04C2D1A141B04E3
S1131C200CF440E0BB200CF4C12C173009F44EC076
S1131C3030F48FEF810F833008F48BC099C01F30CC
S1131C4009F096C0405B00E025E068E786E40E9466
S1131C508705BB2094F401E028E7472D6AE70F2E9F
S1131C60FCEFFF2EF02DF70C8F2D0E94E1042CE7E2
S1131C70472D6AE78F2D0E94E10401E025E0482DFD
S1131C8068E7872D0E94870540E54C1900E025E0B0
S1131C9068E786E98C0D0E9487051A141B040CF072
S1131CA067C00F2EF5E9FF2EF02DFC0CF9E9CF0EDD
S1131CB001E028E74F2D6AE78C2D0E94E1042CE710
S1131CC04F2D6AE78C2D0E94E10452C0405B00E076
S1131CD023E069E786E40E948705BB2094F401E0D1
S1131CE029E7472D6AE70F2EFCEFFF2EF02DF70CA6
S1131CF08F2D0E94E1042BE7472D6AE78F2D0E9468
S1131D00E10401E023E0482D69E7872D0E9487055F
S1131D1040E54C1900E023E069E786E98C0D0E9458
S1131D2087051A141B0424F50F2EF5E9FF2EF02D58
S1131D30FC0C89E9C80E01E029E74F2D6AE78C2DD8
S1131D400E94E1042BE74F2D6AE78C2D0E94E104E9
S1131D500FC001E021E048E96AE78AE40E948705B0
S1131D6007C001E02CE746E968E786E90E94E10440
S1131D7010939F028DEF13C296FF31C02091000192
S1131D80223068F5E4E8F3E080818F7B8083878DDF
S1131D901F928F93868D1F928F93858D1F928F93A1
S1131DA085E591E09F938F931F9280E38F9385E263
S1131DB093E09F938F930E94CF1B1FBF22E031E0DB
S1131DC041E463E085E293E000D982E0809300017E
S1131DD00FB6F894DEBF0FBECDBF81E0E0C19923FA
S1131DE00CF050C020910001233008F04BC0E4E80F
S1131DF0F3E080818F778083448555859A013695F9
S1131E00279536952795ABE7B4E10E94AC1B9695D0
S1131E10879564E6689F9001699F300D1124CA017B
S1131E20821B930B9F938F93BA0180E090E00E94F2
S1131E307A1A20E030E048EC52E40E94E1190E9452
S1131E40491A7F936F9382E891E09F938F931F9237
S1131E5080E38F9385E293E09F938F930E94CF1B3F
S1131E601FBF22E031E04AE463E085E293E0ADD8AD
S1131E7083E0809300010FB6F894DEBF0FBECDBFA0
S1131E8082E08DC12091850320FF30C03091000194
S1131E90343060F5E5E8F3E0822F8E7F8083E4E858
S1131EA0F3E081A11F928F9380A11F928F9386E903
S1131EB091E09F938F931F9280E38F9385E293E049
S1131EC09F938F930E94CF1B1FBF22E031E043E515
S1131ED063E085E293E079D884E0809300010FB653
S1131EE0F894DEBF0FBECDBF83E059C121FF37C0D8
S1131EF030910001353098F5E5E8F3E080818D7F7D
S1131F008083E4E8F3E087858F9386858F9384A1AB
S1131F101F928F9383A11F928F9382A11F928F93FD
S1131F208EEA91E09F938F931F9280E38F9385E2D3
S1131F3093E09F938F930E94CF1B1FBF22E031E059
S1131F404CE563E085E293E040D885E080930001AE
S1131F500FB6F894DEBF0FBECDBF84E020C122FFD0
S1131F6037C030910001363098F5E5E8F3E0808120
S1131F708B7F8083E4E8F3E081898F9380898F935A
S1131F8087A11F928F9386A11F928F9385A11F9281
S1131F908F938CEC91E09F938F931F9280E38F93A8
S1131FA085E293E09F938F930E94CF1B1FBF22E093
S1131FB031E045E663E085E293E007D886E080936C
S1131FC000010FB6F894DEBF0FBECDBF85E0E7C0B9
S1131FD023FF2FC020910001273058F5E5E8F3E0F6
S1131FE08081877F8083E4E8F3E083898F9382890B
S1131FF08F9389EE91E09F938F931F9280E38F9349
S113200085E293E09F938F930E94CF1B1FBF22E032
S113201031E04EE663E085E293E00E94E50787E065
S1132020809300010FB6F894DEBF0FBECDBF86E0EB
S1132030B6C093FF31C020910001283068F5E4E870
S1132040F3E08081877F808381858F9380858F9360
S113205087818F9386818F938AEF91E09F938F93EB
S11320601F9280E38F9385E293E09F938F930E9466
S1132070CF1B1FBF22E031E046E263E085E293E03C
S11320800E94E50788E0809300010FB6F894DEBF54
S11320900FBECDBF87E083C094FF42C020910001F2
S11320A02930F0F50F2EF4E8EF2EF3E0FF2EF02D9B
S11320B0F70180818F7E8083638D70E080E090E003
S11320C00E947C1A20E030E04AE750E40E94301B72
S11320D00E94491A7F936F93F701828D1F928F9309
S11320E083E192E09F938F931F9280E38F9385E225
S11320F093E09F938F930E94CF1B1FBF22E031E098
S11321004FE263E085E293E00E94E50789E0809373
S113211000010FB6F894DEBF0FBECDBF88E03FC00C
S113212095FF30C0909100019A3060F5E4E8F3E047
S113213080818F7D808383858F9382858F93848D27
S11321401F928F938FE292E09F938F931F9280E36D
S11321508F9385E293E09F938F930E94CF1B1FBFC1
S113216022E031E048E363E085E293E00E94E50782
S11321708AE0809300010FB6F894DEBF0FBECDBF96
S113218089E00DC091E0909300011FBF08C000E0FA
S113219025E040EA68E786E40E948705E2CD0F90D7
S11321A0DF91CF911F910F91FF90EF90DF90CF902F
S11321B0BF90AF909F908F907F900895CF92DF92C1
S11321C0EF92FF920F931F93CF93DF9383EC9FEFD4
S11321D0909324038093230381E08093220320E0DF
S11321E030E00F2EFBE0EF2EF12CF02D6894DD246F
S11321F0D6F8F8EF0F2EF8ECCF2EF02D18ED0FEDEA
S1132200CDEDD2E0E1E040E02115310521F4188262
S11322102E2F342FF9CF233031055CF4D901A3528A
S1132220BD4FFC932F5F3F4FD901A352BD4F1C9369
S11322304EC0253031052CF4D901A352BD4F0C9367
S113224046C02B3031052CF4D901A352BD4F1C9349
S11322503EC0203131052CF4D901A352BD4FFC936B
S113226036C02C33310519F41092190336C0C90154
S11322704097B7010E94931B892B29F5D901A352DA
S1132280BD4FDC921196DC9211971296DC92129754
S11322901396FC9313971496FC9314971596CC926B
S11322A015971696FC9316971796FC9317971896FE
S11322B0CC9218971996FC93265F3F4FD901A352ED
S11322C0BD4FFC9304C0D901A352BD4F1C922F5F94
S11322D03F4F2D3331050CF497CFADEDB2E0EDED6A
S11322E0F2E020EA32E08D918293E217F307D9F706
S11322F000E028E040EF68E780E00E948705DF9176
S1132300CF911F910F91FF90EF90DF90CF900895A0
S1132310CF92DF92EF92FF920F93CF93DF931F92AE
S1132320CDB7DEB780912203882309F43AC13ED5A4
S11323306B017C0120911A0330911B0340911C0313
S113234050911D03D5D72AE037ED43E25DE30E94A7
S11323502C1B88230CF45CC0C0921A03D0921B037C
S1132360E0921C03F0921D0380912203E091230369
S1132370F0912403E80FF11D87FDFA95F0932403EF
S1132380E0932303EA3B2FEFF20724F481E08093E8
S1132390220325C0EA3FF10524F08FEF8093220346
S11323A004C0809122038823D4F4E03FF10540F473
S11323B02DE34E2F6FE08DED92E00E94FA0628C0C7
S11323C0CF01CC96CC9720F52DE32E0F40E06FE0A3
S11323D08DED92E08E1B9F0B0E94FA0619C0E03F20
S11323E0F10540F42DE34E2F6FE080EA92E00E9465
S11323F0FA060EC0CF01CC96CC9750F42DE32E0FE5
S113240040E06FE080EA92E08E1B9F0B0E94FA0688
S113241020911E0330911F0340912003509121030A
S1132420C701B60165D720E030E040E05FE30E94D9
S11324302C1B88230CF46FC0C0921E03D0921F0380
S1132440E0922003F092210303D58091AC0380FF36
S113245062C08FB78983F8948981C090AE03D0900D
S1132460AF03E090B003F090B1038FBF20E030E001
S1132470A901C701B601A1D788231CF4C12CD12C12
S1132480760120919B0230919C0240919D025091D3
S11324909E02C701B6012CD79F772AE037ED43E2AD
S11324A05CE38BD78823BCF1C0929B02D0929C0240
S11324B0E0929D02F0929E0220E030E048EC52E46B
S11324C0C701B6010E94301BE4D7CB0164E670E07B
S11324D00E94931B9F938F93C701B601DAD77F9312
S11324E06F9384E492E09F938F931F9280E38F9382
S11324F085E293E09F938F930E94CF1B22E031E00B
S113250049E660EA85E293E00E94E5070FB6F89495
S1132510DEBF0FBECDBF2091990230919A02C9014E
S1132520019690939A028093990222313105A4F482
S1132530009198029BEA099F912D11249695292FC9
S1132540220F920F091B2BE1281B6AE0680F4FEE44
S113255080E00E94E10425C0823021E092079CF4CF
S1132560009198029BEA099F912D11249695292F99
S1132570220F920F091B41E0481B2AE06BE18251B4
S11325800E94E1040EC010929A0210929902809166
S113259098028F5F833018F48093980202C01092DF
S11325A098020F90DF91CF910F91FF90EF90DF9001
S11325B0CF900895FF920F931F93CF93DF93F82E3C
S11325C080FF06C0C0E08C2FA7D9CF5FC03FD9F7EA
S11325D0F1FE18C082E0FFD914DAC0E0D0E007E0D1
S11325E010E0CE01B8010E94931B892B11F480E006
S11325F093D9FE01ED52FA4F84918ED92196C03FB2
S1132600D10579F7F2FE2DC041E068E284E00E9432
S11326106F0741E069E285E00E946F0741E06AE2EA
S113262086E00E946F0741E06BE287E00E946F073B
S113263041E06CE286E00E946F0741E06DE285E0D4
S11326400E946F0741E06EE286E00E946F0741E05E
S11326506FE287E00E946F0741E060E388E00E9438
S11326606F07F3FE07C001E02FE14FEE60E180E069
S11326700E94E104F4FE0DC001E028E248E260E3B8
S113268086E40E94630528E248E260E38AEA0E9445
S11326908705F5FE0DC00FEF21E04AE060E58AE012
S11326A00E94A10521E04AE060E588E20E945F06FD
S11326B0F6FE08C022E031E040E266E483E592E001
S11326C00E94E507FF203CF479DD8091AC03816032
S11326D08093AC031DDEDF91CF911F910F91FF908A
S11326E0089590919803981307C020918603309120
S11326F087032617370741F0E4E8F3E090819160FF
S11327009083848B7383628308952091880330912E
S113271089032817390771F42091990330E0E62FD3
S1132720062E000CFF0B2E173F0721F420919A036D
S1132730241749F0E4E8F3E02081226020839583A4
S11327408483658B468B089590919B0398130EC0E8
S113275020919C0330E0E62F062E000CFF0B2E1771
S11327603F0721F490919D03941741F0E4E8F3E0CE
S1132770908194609083878B608F418F089520911E
S11327808A0330918B032817390739F420918C037D
S113279030918D032617370749F0E4E8F3E02081F0
S11327A0286020839783868371876087089590913A
S11327B09E03981304C090919F03961739F0E4E8A0
S11327C0F3E0908190619083828F638F089590915C
S11327D0A003981307C020918E0330918F0326170E
S11327E0370741F0E4E8F3E0908190629083848FAE
S11327F07387628708959091A103981308C09091FC
S1132800A203961304C09091A303941741F0E4E843
S1132810F3E0908190649083858F668F478F08954D
S113282020919003309191032817390739F0E4E897
S1132830F3E0208120682083958784870895909110
S1132840A403981304C09091A503961749F0E5E8F2
S1132850F3E0908191609083E4E8F3E080A361A3C6
S113286008959091A60398130FC09091A70396130F
S11328700BC09091A803941307C0E0919203F091C8
S11328809303E217F30761F0E5E8F3E090819260C7
S11328909083E4E8F3E082A363A344A33787268705
S11328A008959091A90398130FC09091AA039613C9
S11328B00BC09091AB03941307C0E0919403F09183
S11328C09503E217F30761F0E5E8F3E09081946083
S11328D09083E4E8F3E085A366A347A3318B208BC0
S11328E0089520919603309197032817390749F0EA
S11328F0E5E8F3E020812860208390939703809398
S11329009603089582E091E0089582EE0E94770C88
S113291080E090E001968B3228E69207D9F70E9476
S1132920610C88232CF081E02BD877D880E00895BF
S113293081E0089582EE0E94770C80E090E0019699
S11329408B362AE09207D9F7089520916E0322234B
S113295071F0E22FF0E0EB59FC4F84E693E0129221
S1132960E817F907E1F720936C0310926E030895BA
S1132970CF93DF9300D000D0CDB7DEB7FC01218127
S11329803081323209F099C08091AC038E7F8093FC
S1132990AC03253809F45AC068F42138B1F128F49D
S11329A02130E1F0203841F188C0233809F43CC0DB
S11329B0B0F148C02A3809F45FC038F4283809F463
S11329C04EC0293809F450C078C02C3809F463C0CB
S11329D008F456C02D3809F469C06FC080916303B0
S11329E081116BC0EBE5F3E08A81818380E1808310
S11329F081E080935A0361C0648170E0762F66277A
S1132A008381682B82816DDE58C0838190E0982F8A
S1132A108827228145816481822B77DE4EC04481E0
S1132A206381828191DE49C0658170E0762F6627DB
S1132A308481682B838190E0982F88272281822BC0
S1132A409EDE3BC063818281B2DE37C0648170E068
S1132A50762F66278381682B8281B9DE2EC044815C
S1132A6063818281C8DE29C0838190E0982F882702
S1132A702281822BD5DE21C063818281E0DE1DC0EC
S1132A80268130E0322F22278581282B44816381DF
S1132A908281E7DE12C0268130E0322F2227858131
S1132AA0282B448163818281FCDE07C0838190E00E
S1132AB0982F88272281822B14DF0F900F900F907C
S1132AC00F90DF91CF9108950F931F93CF93DF93CE
S1132AD0C42FC574082F10E0093F110508F059C12F
S1132AE0D62FF801EC5CFF4F31C681E080936D0373
S1132AF01092590382E080935803E4E6F3E084E201
S1132B00808384E3818386E5828388E783838AE9FB
S1132B1084830000E091590381E08E0F8093590370
S1132B20F0E0EC59FC4F80818093BB0038C1C06158
S1132B3036C1E091590380915803E81758F481E0B5
S1132B408E0F80935903F0E0EC59FC4F8081809301
S1132B50BB0025C1C06110926D03F7DE20C1C061C6
S1132B6010926D03F2DE1BC1C06219C1000017C1CF
S1132B70000015C1000013C1000011C1000011E0E4
S1132B801093630340E068E08BE593E057D16D2F29
S1132B90669560935B0310935703C06400C1000003
S1132BA081E0809363036D2F669560935B0380934C
S1132BB05703C064F4C00000809156038F3009F4B9
S1132BC068C0809157038F3028F4E82FF0E0E55A6D
S1132BD0FC4FD083813009F04BC090915B0390335C
S1132BE049F490915C039295969597709F5F9093AA
S1132BF0560340C09232F1F51092560310925803D6
S1132C0090915C03943821F158F4903829F128F418
S1132C109923A1F09130B1F02BC0923809F51CC072
S1132C209B3838F49938A0F49538B1F09838A1F06D
S1132C301FC09D38C8F09D3859F01AC091E0909398
S1132C40560318C091E0909356039093580312C012
S1132C5093E0909356030EC094E0909356030AC0F9
S1132C6095E09093560306C096E09093560302C0F5
S1132C708E3060F48F5F80935703909156039817BA
S1132C8010F0C0648CC0C42FC57089C0C42FC57037
S1132C9086C0D0935D03C42FC570109257037FC0C4
S1132CA0000010926303809156038F3029F06091E5
S1132CB057038BE593E05CDE1092570310925603A2
S1132CC040E068E08BE593E0B9D010926303C06400
S1132CD066C010926303809156038F3029F060918F
S1132CE057038BE593E044DEC0641092570357C04A
S1132CF0000081E08093630310925903809158038C
S1132D00882331F081E08093590380915B0301C0F3
S1132D1080E08093BB0090915803809159038917F8
S1132D2010F4C0643CC0C42FC57039C0E09159038D
S1132D3080915803E81748F481E08E0F809359037B
S1132D40F0E0E55AFC4F808101C080E08093BB0035
S1132D509091580380915903891710F4C0641FC0DF
S1132D60C42FC5701CC0C0641092630318C0C06433
S1132D701092630314C00000C06510926D0310929A
S1132D8063030DC00000C06510926D0310926303CD
S1132D9006C00000C06510926D03109263038C2F6F
S1132DA0DF91CF911F910F91089508958F929F9273
S1132DB0AF92BF92CF92DF92EF92FF92CF93DF93C5
S1132DC01F92CDB7DEB78FB78983F894998180912C
S1132DD0840020918500C090BB03D090BC03E09098
S1132DE0BD03F090BE039FBF90E0922BBC01990FEE
S1132DF0880B990B81D320E034E244EF5AE4E1D20A
S1132E004B015C01C701B60175D320E030E040E01E
S1132E1054E426D420E034E244EF5AE4D2D2A501AB
S1132E20940167D20F90DF91CF91FF90EF90DF90E4
S1132E30CF90BF90AF909F908F900895662339F004
S1132E40FC01860F911D4193E817F907E1F70895F6
S1132E502F923F924F925F926F927F928F929F92A6
S1132E60AF92BF92CF92DF92EF92FF920F931F9394
S1132E70CF93DF93CDB7DEB7AB970FB6F894DEBF31
S1132E800FBECDBF10E00F2EF0EBEF2EF12CF02D86
S1132E906894222424F80F2EFFE6CF2EF3E0DF2ED1
S1132EA0F02D0F2EF8E23F2EF02D8FB78BA7F8945C
S1132EB08BA54090B6035090B7036090B803709010
S1132EC0B9038090B2039090B303A090B403B09080
S1132ED0B5038FBF8091AC0381FF03C00E94260D10
S1132EE0182FC301B201DAD22B013C0186EB48163C
S1132EF083E0580608F5B20180E090E0FBD220E0C0
S1132F0030E040E251E4F4D120E030E84DE654E40E
S1132F1058D220E030E045E753E4A2D320E030E08B
S1132F2040E251E4E6D1BAD2A3EBB0E06C93F701EE
S1132F3080818068808307C0A3EBB0E01C92F70116
S1132F4080818F7380838091AC0380FF17C05F9270
S1132F504F92A4E6B2E0BF93AF931F922F92DF92F9
S1132F60CF921DD4CFDC9C014FE560EAC6010E94DC
S1132F70E5070FB6F894DEBF0FBECDBF8FB78AA7A3
S1132F80F8948AA58FBF11111EC08FB789A7F89432
S1132F9079A429E137EC4FEA53E4C501B401A8D17F
S1132FA020E030EA47E85FE35BD320E030E048EC20
S1132FB051E49FD16093AE037093AF038093B00349
S1132FC09093B1037FBE8091AC0380FF02C0A0D96F
S1132FD025C080910101882309F1109201010E940A
S1132FE00D0D01E020E840EF60E080E00E94630501
S1132FF0EFE6F2E0DE011196832D01900D928A95A1
S1133000E1F780DC9C0142E063E0CE0101960E947E
S1133010E5078091AC0382608093AC03111145CF26
S1133020AB960FB6F894DEBF0FBECDBFDF91CF9144
S11330301F910F91FF90EF90DF90CF90BF90AF90D2
S11330409F908F907F906F905F904F903F902F90C4
S11330500895EF92FF920F931F93CF93DF9300D0C5
S113306000D01F92CDB7DEB78EE788B988E087B964
S113307084E185B98BEF84B98FEF8BB91AB80F2E21
S1133080FEE7EF2EF12CF02D11E0F70110830E94E2
S1133090DC038BEE8093640003E803BD68E080E00A
S11330A00E94F50382E88093800089E08093810088
S11330B01092850010928400109389001092880069
S11330C010936F0087E286BB60E480E00E94F50302
S11330D00093B00085E08093B1001092B20010928A
S11330E0B3001092700087E087BB1092B60061E0D5
S11330F080E00E94F503F7011083EAE7F0E087E837
S1133100808380EC80937C008081806180838081D7
S113311088608083ABE7B0E08C91887F86608C9375
S113312080818062808341DE84B7982F977011F488
S113313081112EC08FB78D83F8949D81F8941092DD
S1133140BA031092B6031092B7031092B803109208
S1133150B9031092B2031092B3031092B403109205
S1133160B50340E050E068EC71E44093AE03509343
S1133170AF036093B0037093B10380E48093AD0315
S11331808091AC038E7F8D7F8093AC039FBF0DC075
S113319090E0A0E0B0E08093800390938103A0933B
S11331A08203B09383030E940E0860E880E00E94CB
S11331B0F5038FB78C83F8948C811092B90092E058
S11331C09093B80094E49093BA001092BD0095E4F3
S11331D09093BC008FBF789413BC97DB81EFEAD93E
S11331E081E080937F0311E033DE13BF889583B7BA
S11331F08E7F83BF80917F038111F6CF9BDBF89490
S113320080B7806880BF64E080E00E940B0462E0C5
S113321080E00E940B048FB78B83F8948B81ECEBD6
S1133220F0E094E090833C98449A3D98459A10824B
S11332308FBF60E880E00E940B04EAE7F0E0808141
S1133240877F808380818F7D8083EBE7F0E08081BE
S1133250887F808310927C0010927E0061E080E081
S11332600E940B048FB78983F894198160E280E08F
S11332700E940B04219829981092800010928100DA
S11332801092820010926F0068E080E00E940B04AC
S1133290239A2B981092B0001092B10010927000F3
S11332A01092B60060E480E00E940B048FB78A831A
S11332B0F8948A815F9350E85093610050E05093F2
S11332C061005F918FBF1FBF89E083BF889583B77B
S11332D08E7F83BF80E090E00F900F900F900F904F
S11332E00F90DF91CF911F910F91FF90EF90089570
S11332F05058BB27AA270ED075C166D130F06BD1C8
S113330020F031F49F3F11F41EF45BC10EF4E095FC
S1133310E7FB51C1E92F77D180F3BA17620773072E
S11333208407950718F071F49EF58FC10EF4E095AB
S11333300B2EBA2FA02D0B01B90190010C01CA016B
S1133340A0011124FF27591B99F0593F50F4503E16
S113335068F11A16F040A22F232F342F4427585F08
S1133360F3CF469537952795A795F0405395C9F720
S11333707EF41F16BA0B620B730B840BBAF09150D8
S1133380A1F0FF0FBB1F661F771F881FC2F70EC077
S1133390BA0F621F731F841F48F48795779567954A
S11333A0B795F7959E3F08F0B3CF9395880F08F033
S11333B09927EE0F979587950895D9D008F481E061
S11333C008950CD00FC107D140F0FED030F021F4A5
S11333D05F3F19F0F0C0511139C1F3C014D198F313
S11333E09923C9F35523B1F3951B550BBB27AA2782
S11333F062177307840738F09F5F5F4F220F331FF4
S1133400441FAA1FA9F333D00E2E3AF0E0E830D0BF
S113341091505040E695001CCAF729D0FE2F27D0C2
S1133420660F771F881FBB1F261737074807AB0790
S1133430B0E809F0BB0B802DBF01FF2793585F4F05
S11334402AF09E3F510568F0B6C000C15F3FECF31F
S1133450983EDCF3869577956795B795F7959F5FCA
S1133460C9F7880F911D9695879597F90895E1E01E
S1133470660F771F881FBB1F621773078407BA077D
S113348020F0621B730B840BBA0BEE1F88F7E095D8
S1133490089504D06894B111D9C00895BCD088F0BF
S11334A09F5790F0B92F9927B751A0F0D1F0660F2C
S11334B0771F881F991F1AF0BA95C9F712C0B13047
S11334C081F0C3D0B1E00895C0C0672F782F88275A
S11334D0B85F39F0B93FCCF3869577956795B39586
S11334E0D9F73EF490958095709561957F4F8F4FF5
S11334F09F4F0895E89409C097FB3EF490958095FA
S1133500709561957F4F8F4F9F4F9923A9F0F92FA5
S113351096E9BB279395F695879577956795B79523
S1133520F111F8CFFAF4BB0F11F460FF1BC06F5F09
S11335307F4F8F4F9F4F16C0882311F096E911C01B
S1133540772321F09EE8872F762F05C0662371F03C
S113355096E8862F70E060E02AF09A95660F771F50
S1133560881FDAF7880F9695879597F90895990F2C
S11335700008550FAA0BE0E8FEEF16161706E80739
S1133580F907C0F012161306E407F50798F0621B5A
S1133590730B840B950B39F40A2661F0232B242B2F
S11335A0252B21F408950A2609F4A140A6958FEF4E
S11335B0811D811D089597F99F6780E870E060E0A0
S11335C008959FEF80EC089500240A9416161706B8
S11335D018060906089500240A9412161306140600
S11335E005060895092E0394000C11F4882352F063
S11335F0BB0F40F4BF2B11F460FF04C06F5F7F4F1B
S11336008F4F9F4F089557FD9058440F551F59F001
S11336105F3F71F04795880F97FB991F61F09F3FBB
S113362079F087950895121613061406551FF2CFE4
S11336304695F1DF08C0161617061806991FF1CF34
S113364086957105610508940895E894BB2766275B
S11336507727CB0197F908958ADF08F48FEF08954F
S11336600BD0C0CFB1DF28F0B6DF18F0952309F0F6
S1133670A2CFA7CF1124EACFC6DFA0F3959FD1F341
S1133680950F50E0551F629FF001729FBB27F00D0C
S1133690B11D639FAA27F00DB11DAA1F649F662761
S11336A0B00DA11D661F829F2227B00DA11D621FB0
S11336B0739FB00DA11D621F839FA00D611D221F6A
S11336C0749F3327A00D611D231F849F600D211D4E
S11336D0822F762F6A2F11249F5750408AF0E1F0F1
S11336E088234AF0EE0FFF1FBB1F661F771F881F3A
S11336F091505040A9F79E3F510570F05CCFA6CF82
S11337005F3FECF3983EDCF3869577956795B79524
S1133710F795E7959F5FC1F7FE2B880F911D96954E
S1133720879597F9089597FB072E16F4009406D011
S113373077FD08D020D007FC05D03EF49095819504
S11337409F4F0895709561957F4F0895EE0FFF1F69
S11337500590F491E02D0994A29FB001B39FC0019C
S1133760A39F700D811D1124911DB29F700D811DA9
S11337701124911D0895AA1BBB1B51E107C0AA1F68
S1133780BB1FA617B70710F0A61BB70B881F991FFE
S11337905A95A9F780959095BC01CD010895AEE0A6
S11337A0B0E0E4EDFBE1A5C20D891E898F89988DF7
S11337B026E02C831A83098397FF02C080E090E8F7
S11337C001979E838D83AE01455E5F4F698D7A8D2F
S11337D0CE01019611D04D815E8157FD0AC02F8123
S11337E03885421753070CF49A01F801E20FF31FCE
S11337F010822E96E4E099C2ACE0B0E0E1E0FCE196
S11338006AC27C016B018A01FC01178216828381E2
S113381081FFB0C1CE0101964C01F7019381F601FD
S113382093FD859193FF81916F01882309F49EC1D3
S1133830853239F493FD859193FF81916F0185322F
S113384021F4B70190E0B1D1E8CF512C312C20E024
S11338502032A0F48B3269F030F4803259F0833294
S113386069F420612CC08D3239F0803339F4216041
S113387026C02260246023C0286021C027FD27C001
S113388030ED380F3A3078F426FF06C0FAE05F9E38
S1133890300D1124532E13C08AE0389E300D1124AC
S11338A0332E20620CC08E3221F426FD5FC12064C9
S11338B006C08C3611F4206802C0883641F4F60143
S11338C093FD859193FF81916F018111C1CF982F51
S11338D09F7D9554933028F40C5F1F4FFFE3F983C9
S11338E00DC0833631F0833771F0833509F057C04A
S11338F021C0F801808189830E5F1F4F44244394C3
S1133900512C540114C03801F2E06F0E711CF801FF
S1133910A080B18026FF03C0652D70E002C06FEF68
S11339207FEFC5012C8736D12C0183012C852F779D
S1133930222E16C03801F2E06F0E711CF801A0802F
S1133940B18026FF03C0652D70E002C06FEF7FEFEA
S1133950C5012C8714D12C012C852068222E8301CB
S113396023FC19C0832D90E048165906A0F4B70132
S113397080E290E01AD13A94F5CFF50127FC8591C5
S113398027FE81915F01B70190E00FD131103A9485
S1133990F1E04F1A51084114510479F7DEC084361E
S11339A011F0893631F5F80127FF07C06081718174
S11339B0828193810C5F1F4F08C060817181072E43
S11339C0000C880B990B0E5F1F4F2F76722E97FFFA
S11339D009C090958095709561957F4F8F4F9F4F4B
S11339E02068722E2AE030E0A40117D1A82EA8186E
S11339F043C0853729F42F7EB22E2AE030E025C05B
S1133A00F22FF97FBF2E8F36C1F018F4883579F084
S1133A10ADC0803719F0883721F0A8C02F2F20615E
S1133A20B22EB4FE0DC08B2D8460B82E09C024FFC5
S1133A300AC09F2F9660B92E06C028E030E005C06A
S1133A4020E130E002C020E132E0F801B7FE07C017
S1133A5060817181828193810C5F1F4F06C06081F8
S1133A60718180E090E00E5F1F4FA401D6D0A82E94
S1133A70A818FB2DFF777F2E76FE0BC0372D3E7FD7
S1133A80A51450F474FE0AC072FC08C0372D3E7EA3
S1133A9005C0BA2C372D03C0BA2C01C0B52C34FF95
S1133AA00DC0FE01EA0DF11D8081803311F4397ED1
S1133AB009C032FF06C0B394B39404C0832F867840
S1133AC009F0B39433FD12C030FF06C05A2CB3146E
S1133AD018F4530C5B18B32CB31460F4B70180E2F0
S1133AE090E03C8762D0B3943C85F6CFB31410F4D5
S1133AF03B1801C0312C34FF11C0B70180E390E0C2
S1133B003C8753D03C8532FF16C031FD03C088E7A3
S1133B1090E002C088E590E0B7010CC0832F86785E
S1133B2051F031FF02C08BE201C080E237FD8DE22B
S1133B30B70190E03AD0A51430F4B70180E390E0E7
S1133B4034D05A94F8CFAA94F401EA0DF11D80817F
S1133B50B70190E02AD0A110F6CF332009F45DCE4E
S1133B60B70180E290E021D03A94F7CFF701868143
S1133B70978102C08FEF9FEF2C96E2E1C8C0FC0151
S1133B800590615070400110D8F7809590958E0F84
S1133B909F1F0895FC016150704001900110D8F7F7
S1133BA0809590958E0F9F1F08950F931F93CF9329
S1133BB0DF93FB01238121FD03C08FEF9FEF28C01A
S1133BC022FF16C04681578124813581421753074D
S1133BD044F4A081B1819D012F5F3F4F3183208345
S1133BE08C93268137812F5F3F4F3783268310C004
S1133BF0EB01092F182F0084F185E02D0995892BFD
S1133C00E1F68E819F8101969F838E83812F902F71
S1133C10DF91CF911F910F910895FA01AA272830BF
S1133C2051F1203181F1E8946F936E7F6E5F7F4F85
S1133C308F4F9F4FAF4FB1E03ED0B4E03CD0670F01
S1133C40781F891F9A1FA11D680F791F8A1F911D54
S1133C50A11D6A0F711D811D911DA11D20D009F4A4
S1133C6068943F912AE0269F11243019305D3193E6
S1133C70DEF6CF010895462F4770405D4193B3E0CF
S1133C800FD0C9F7F6CF462F4F70405D4A3318F076
S1133C90495D31FD4052419302D0A9F7EACFB4E027
S1133CA0A6959795879577956795BA95C9F70097DF
S1133CB06105710508959B01AC010A2E0694579580
S1133CC0479537952795BA95C9F7620F731F841FD7
S1133CD0951FA01D08952F923F924F925F926F926D
S1133CE07F928F929F92AF92BF92CF92DF92EF9288
S1133CF0FF920F931F93CF93DF93CDB7DEB7CA1B09
S1133D00DB0B0FB6F894DEBF0FBECDBF09942A8833
S1133D10398848885F846E847D848C849B84AA84DB
S1133D20B984C884DF80EE80FD800C811B81AA8168
S1133D30B981CE0FD11D0FB6F894DEBF0FBECDBF33
S10B3D40ED010895F894FFCF92
S1133D480101005A020607207D55544320202020F3
S1133D58203A20253032643A253032642E25303218
S1133D68640044617465202020203A2025303264A0
S1133D782E253032642E2530346400436C6B537422
S1133D886174653A2030782531580050686173654C
S1133D982020203A0053617455736520203A205737
S1133DA86573743D2530326420456173743D253054
S1133DB8326420557365643D253032642073617420
S1133DC8730053617420444F50203A2025303364E3
S1133DD82E253032640053617453746174653A203B
S1133DE846493D253164204D323D253164005361F7
S1133DF874204C6174203A202563202025303264D5
S1133E085E253032642E25303464270053617420D3
S1133E184C6F6E203A20256320253033645E2530AC
S1133E2832642E2530346427005361742048677443
S1133E38203A2025303464206D0044657669617425
S1133E482E203A20253034642E25303364207070B7
S1133E5862200050574D20202020203A202533642A
S1133E682E25303364202F20323536202525005066
S1133E78756C6C566F6C743A202531642E2530337A
S1133E886420560020543D2532642E253032645E69
S1133E9843200044463449414820536D6172742DCF
S1133EA84C434400204C3D25346420414420003CCC
S1133EB83D3D3D3D203130204D487A2E2D526566DA
S1133EC82E2D4F73632E20536D6172742D4C434411
S10B3ED8203D3D3D3D3E00008C
S9030000FC
