S0140000536D6172742D4C43445F53572E7372656300
S11300003DC2000078C6000099C60000BAC60000D0
S1130010DBC60000FCC600001DC700003EC7000090
S11300205FC7000080C70000A1C70000C2C700006E
S1130030E3C700000C941F080C942A080C944D0884
S11300400C9470080C9493080C94B6080C94D9087A
S11300500C94FC080C9484090C94CD090C94F009BC
S11300600C94130A0C943F0A7F0D480E480E480E58
S1130070480E480E480E480E840D480E480E480E91
S1130080480E480E480E480E840D480E480E480E81
S1130090480E480E480E480E900D480E480E480E65
S11300A0480E480E480E480E930D480E480E480E52
S11300B0480E480E480E480EAB0D480E480E480E2A
S11300C0480E480E480E480EB10D480E480E480E14
S11300D0480E480E480E480E480E480E480E480E6C
S11300E0480E480E480E480E480E480E480E480E5C
S11300F0480E480E480E480E480E480E480E480E4C
S1130100480E480E480E480E480E480E480E480E3B
S1130110480E480E480E480EB40D480E480E480EC0
S1130120480E480E480E480EB40D480E480E480EB0
S1130130480E480E480E480EBC0D480E480E480E98
S1130140480E480E480E480EBC0D480E480E480E88
S1130150480E480E480E480EC40D480E480E480E70
S1130160480E480E480E480EF50D480E480E480E2F
S1130170480E480E480E480EC40D480E480E480E50
S1130180480E480E480E480EF50D480E480E480E0F
S1130190480E480E480E480E010E480E480E480EF2
S11301A0480E480E480E480E0A0E480E480E480ED9
S11301B0480E480E480E480E0A0E480E480E480EC9
S11301C0480E480E480E480E220E480E480E480EA1
S11301D0480E480E480E480E3B0E480E480E480E78
S11301E0480E480E480E480E440E00000000000061
S11301F000202020202000205050500000000050FB
S113020050F850F850502078A07028F020C0C81042
S1130210204098186090A040A8906860204000009A
S113022000001020404040201040201010102040BA
S1130230005020F8205000002020F820200000006A
S11302400000602040000000F800000000000000F2
S113025000606000081020408000708898A8C8885A
S11302607020602020202070708808102040F8F84A
S113027010201008887010305090F81010F880F09A
S113028008088870304080F0888870F80810204092
S113029040407088887088887070888878081060FA
S11302A00060600060600000606000602040081032
S11302B020402010080000F800F8000080402010C2
S11302C02040807088081020002070880868A8A842
S11302D07070888888F88888F08888F08888F0703A
S11302E0888080808870E09088888890E0F880809A
S11302F0F08080F8F88080E080808070888080982A
S11303008870888888F88888887020202020207049
S1130310381010101090608890A0C0A09088808041
S113032080808080F888D8A8888888888888C8A829
S113033098888870888888888870F08888F0808099
S11303408070888888A89068F08888F0A090887861
S11303508080700808F0F8202020202020888888D9
S11303608888887088888888885020888888A8A881
S1130370D888888850205088888888502020202059
S1130380F80810204080F8382020202020380080F1
S11303904020100800E02020202020E02050880089
S11303A0000000000000000000F8402010000000E1
S11303B000000070087888788080B0C88888F000D1
S11303C000708080887008086898888878000070B9
S11303D088F88070304840E04040400000788878D9
S11303E008308080B0C88888882000602020207071
S11303F01000301010906040404850605048602019
S113040020202020700000D0A8A888880000B0C850
S1130410888888000070888888700000F088F080E0
S113042080000068987808080000B0C880808000C8
S11304300070807008F04040E04040483000008880
S1130440888898680000888888502000008888A8D8
S1130450A8500000885020508800008888780870D0
S11304600000F8102040F810202040202010202008
S113047020202020204020201020204011241FBEB6
S1130480CFEFD8E0DEBFCDBF11E0A0E0B1E0E0E403
S1130490F4E202C005900D92A831B107D9F721E02A
S11304A0A8E1B1E001C01D92A335B207E1F70E94B3
S11304B02C0F0C941E12CF93DF931F92CDB7DEB78F
S11304C08FEF809364008FB78983F89489815F9359
S11304D050E85093610050E0509361005F918FBFEA
S11304E00F90DF91CF910895CF93DF931F92CDB7F3
S11304F0DEB79FB79983F8949981811106C0E4E629
S1130500F0E060958081682360839FBF0F90DF9146
S1130510CF910895FF920F931F93CF93DF93E42F0E
S1130520F0E0E80FF11DE13FF1051CF0C0EF4C2FA6
S1130530481B442309F453C0D62FD695D695D69597
S1130540ED2FF0E0F195E195F109EE0FFF1FEE0FAD
S1130550FF1FEE0FFF1FDF01A60FB11DBD01E1E07C
S1130560F0E0DF0102C0AA0FBB1F6A95E2F7FA2E82
S1130570213021F098F0223019F131C0C42F1FEF3F
S1130580180F012F0C0F602F8D2FE0D2482F4F2909
S1130590602F8D2FCBD2C150A1F721C0C42F1FEFE4
S11305A0180FFA2EF094012F0C0F602F8D2FCED23E
S11305B0482F4F21602F8D2FB9D2C150A1F70FC002
S11305C0C42F1FEF180F012F0C0F602F8D2FBED2D9
S11305D0482F4F25602F8D2FA9D2C150A1F7DF914D
S11305E0CF911F910F91FF900895EF92FF920F9377
S11305F01F93CF93DF93442309F446C0122FD82FBF
S11306009FEF960F940F691303C0422FD2D23CC0C0
S11306109F3708F09FE7C62FC695C695C695092F44
S113062006950695069567702FEF30E0A90102C084
S1130630440F551F6A95E2F7977067E070E0FB017D
S1130640E91BF109790102C0F594E794EA95E2F710
S1130650C01306C04E21212F6D2F8C2F87D214C0BA
S1130660212F6D2F8C2F82D2CF5FC01740F4212F02
S11306704FEF6D2F8C2F7AD2CF5FC017C0F3212F8D
S11306804E2D6D2F802F72D2DF91CF911F910F913C
S1130690FF90EF9008958F929F92AF92BF92CF9266
S11306A0DF92EF92FF920F931F93CF93DF93C82FA4
S11306B0D62F481728F4D22F262F8C2FC42F482F3B
S11306C0E42EF12CEC1AF108A22EB12CAD1AB108CB
S11306D0FF202CF4F194E194F1081FEF01C011E024
S11306E0BB200CF048C0882499248A189B088E14D7
S11306F09F04FCF4540188248A9402C088248394BF
S11307006501CE18DF08FF20DCF1912C402F6D2FFE
S11307108C2F4FD2DD201CF0CE18DF08D80DCA0C68
S1130720DB1CC10F9394892D90E0E816F90674F749
S113073027C06701CA0CDB1C992014F1AA24AA94CF
S1130740B12C402F6D2F8C2F34D2DD201CF0C81813
S1130750D908C10FCE0CDF1CDA0DB3948B2D90E0B9
S11307608816990674F70CC06701CA18DB0845019E
S1130770AA24A394E5CFAE14BF040CF4BFCFF4CFE6
S1130780DF91CF911F910F91FF90EF90DF90CF9069
S1130790BF90AF909F908F900895FF920F931F93F7
S11307A0CF93DF93D82F162FC42FF22E202FB2DE33
S11307B06FEF6F0D610F202F4C2F8D2FABDE202F8D
S11307C04F2D612F8D2F11DF8FEF8C0F202F4F2D89
S11307D0612F8D0F0ADFDF91CF911F910F91FF9051
S11307E00895FF920F931F93CF93DF93222369F011
S11307F0C22FF42E182FDFEFD60F6D2F6C0F202F82
S11308004F2D812F87DEC150C1F7DF91CF911F910A
S11308100F91FF9008952F923F924F925F926F92A3
S11308207F928F929F92AF92BF92CF92DF92EF927C
S1130830FF920F931F93CF93DF9300D01F92CDB7F6
S1130840DEB7882E962E4A83A22E411103C0422F72
S1130850B0D189C02A81E22EF12CEE0CFF1CF19458
S1130860E194F10883E0E80EF11CC62ED82C182D73
S1130870B62E1B82902F9170292EE02FE2703E2E0F
S1130880F02FF4704F2E202F2870522E802F80715D
S1130890682E902F9072792EE02FE074E983222045
S11308A029F04A2D6C2D8A81880D83D1332031F0B3
S11308B04A2D692DFA816F1B812F7BD1442031F0A1
S11308C04A2D692D2A81621B8D2D73D1552031F05B
S11308D04A2D6C2D882D9A81891B6BD1662031F0AD
S11308E04A2D6B2D882DEA818E1B63D1772029F048
S11308F04A2D6A81690D8D2D5CD1F981FF2329F080
S11309004A2D6A81690D812F54D100232CF44A2D7C
S11309106B2D8A81880D4DD1FF205CF42B81822FB1
S113092090E0880F991F880F991F0696E80EF91E0C
S11309300FC0EB818E2F90E0FA818F1B9109880FF5
S1130940991F880F991F0A96E80EF91EF150FA8331
S11309502B812F5F2B83B3941F5FDA94CA948A810F
S1130960821708F09CCF0F900F900F90DF91CF91DA
S11309701F910F91FF90EF90DF90CF90BF90AF90B9
S11309809F908F907F906F905F904F903F902F90AB
S113099008955F926F927F928F929F92AF92BF92CF
S11309A0CF92DF92EF92FF920F931F93CF93DF9337
S11309B0882E962EC42FA22E411103C0422FF9D0A7
S11309C073C0E42EF12CEE0CFF1CF194E194F108B9
S11309D083E0E80EF11CB62EC82CD82C11E0D0E030
S11309E0802F8370582E802F8C70682E802F8073F8
S11309F0782E007C552069F02A2D412F6B2D8C2FE9
S1130A00880DF3DD2A2D41E04C0F692D6C1B8D2DD3
S1130A10ECDD662069F02A2D412F6B2D882D8C1B6F
S1130A20E4DD2A2D41E04C0F692D6C1B8C2DDDDD9E
S1130A30772061F02A2D412F692D882D8C1BD5DD5F
S1130A402A2D41E04C0F692D8C2DCFDD002361F060
S1130A502A2D412F692D8C2F880DC7DD2A2D41E0C9
S1130A604C0F692D8D2DC1DDFF2054F48D2F90E0A6
S1130A70880F991F880F991F0696E80EF91E0CC05F
S1130A80ED2FF0E0EC1BF109EE0FFF1FEE0FFF1F3F
S1130A903A96EE0EFF1EC150DF5F1F5FD394CA94D7
S1130AA0BA94CD1708F0A6CFDF91CF911F910F9183
S1130AB0FF90EF90DF90CF90BF90AF909F908F907A
S1130AC07F906F905F900895EF92FF920F931F9322
S1130AD0CF93DF937C01C42F122F892B01F1603156
S1130AE0F0F4403FE0F4862F55D58C2F59D5812F53
S1130AF090E08C0F911D813F910514F010EF1C1BA9
S1130B00112369F0E7011150012F10E00F5F1F4F0F
S1130B100E0D1F1D899104D5C017D107D9F7DF9198
S1130B20CF911F910F91FF90EF900895CF93DF9392
S1130B30803148F4603F38F4D42FC62F2BD58C2F46
S1130B402FD58D2FEDD4DF91CF910895CF938031A0
S1130B5040F4603F40F4C62F1DD58C2F21D5F7D427
S1130B6003C080E001C080E0CF9108950F931F93EC
S1130B70CF93DF938031C0F4603FB0F4D22F142FB1
S1130B80C62FE4DF082FD13041F018F0D23039F00D
S1130B9007C0412F4095042303C0012B01C0012746
S1130BA08C2FFED4802FBCD4DF91CF911F910F9155
S1130BB00895803F98F466238CF0242F962F682F95
S1130BC0892F877041E050E002C0440F551F8A9579
S1130BD0E2F7892F869586958695C8CF08959F92CA
S1130BE0AF92BF92CF92DF92EF92FF920F931F9337
S1130BF0CF93DF93C82FE62EB42E690100E0F901EC
S1130C00248143816B2D8E2DECDDF60180818111D1
S1130C103AC08381282F269526952695877009F05A
S1130C202F5FF601A4802A9D900111248C2F90E05F
S1130C304581841B9109289FA001299F500D389F4D
S1130C40500D112401811281040F151F912CF601FE
S1130C50F380FF20A1F0D92DC92D8C2F8E0D9C2F50
S1130C60977021F4F801D4910F5F1F4FDD231CF41A
S1130C7041E06B2D9EDFDD0FCF5FCF11EECFB3943C
S1130C80AA94A110E4CFDF91CF911F910F91FF900F
S1130C90EF90DF90CF90BF90AF909F900895DF9238
S1130CA0EF92FF920F931F93CF93DF93042F790159
S1130CB0EC01162FD62E89918A3031F4F701848104
S1130CC08F5F080F1D2D09C08D3039F09701402F1B
S1130CD0612F85DFF7018381180F88818111EBCFA4
S1130CE0DF91CF911F910F91FF90EF90DF900895C6
S1130CF09895000008951F920F920FB60F92112439
S1130D002F933F934F935F936F937F938F939F930F
S1130D10AF93BF93EF93FF93EBDFFF91EF91BF91FD
S1130D20AF919F918F917F916F915F914F913F917F
S1130D302F910F900FBE0F901F9018951F920F9236
S1130D400FB60F9211242F933F934F935F936F939A
S1130D507F938F939F93AF93BF93EF93FF93C8DFDA
S1130D60FF91EF91BF91AF919F918F917F916F917F
S1130D705F914F913F912F910F900FBE0F901F9055
S1130D8018951F920F920FB60F9211242F933F9331
S1130D904F935F936F937F938F939F93AF93BF937F
S1130DA0EF93FF93A5DFFF91EF91BF91AF919F91D7
S1130DB08F917F916F915F914F913F912F910F9000
S1130DC00FBE0F901F9018951F920F920FB60F929F
S1130DD011242F933F934F935F936F937F938F933C
S1130DE09F93AF93BF93EF93FF9382DFFF91EF91B4
S1130DF0BF91AF919F918F917F916F915F914F912F
S1130E003F912F910F900FBE0F901F9018951F9236
S1130E100F920FB60F9211242F933F934F935F932A
S1130E206F937F938F939F93AF93BF93EF93FF93AE
S1130E305FDFFF91EF91BF91AF919F918F917F9170
S1130E406F915F914F913F912F910F900FBE0F9033
S1130E501F9018951F920F920FB60F9211242F9383
S1130E603F934F935F936F937F938F939F93AF932E
S1130E70BF93EF93FF933CDFFF91EF91BF91AF914D
S1130E809F918F917F916F915F914F913F912F919E
S1130E900F900FBE0F901F9018951F920F920FB6D0
S1130EA00F9211242F933F934F935F936F937F93EC
S1130EB08F939F93AF93BF93EF93FF9319DFFF91AA
S1130EC0EF91BF91AF919F918F917F916F915F91BE
S1130ED04F913F912F910F900FBE0F901F90189537
S1130EE01F920F920FB60F9211242F933F934F939B
S1130EF05F936F937F938F939F93AF93BF93EF937E
S1130F00FF93F6DEFF91EF91BF91AF919F918F9187
S1130F107F916F915F914F913F912F910F900FBEF1
S1130F200F901F9018951F920F920FB60F921124D5
S1130F302F933F934F935F936F937F938F939F93DD
S1130F40AF93BF93EF93FF93D3DEFF91EF91BF91E4
S1130F50AF919F918F917F916F915F914F913F914D
S1130F602F910F900FBE0F901F9018951F920F9204
S1130F700FB60F9211242F933F934F935F936F9368
S1130F807F938F939F93AF93BF93EF93FF93B0DEC1
S1130F90FF91EF91BF91AF919F918F917F916F914D
S1130FA05F914F913F912F910F900FBE0F901F9023
S1130FB018951F920F920FB60F9211242F933F93FF
S1130FC04F935F936F937F938F939F93AF93BF934D
S1130FD0EF93FF938DDEFF91EF91BF91AF919F91BE
S1130FE08F917F916F915F914F913F912F910F90CE
S1130FF00FBE0F901F9018951F920F920FB60F926D
S113100011242F933F934F935F936F937F938F9309
S11310109F93AF93BF93EF93FF936ADEFF91EF919A
S1131020BF91AF919F918F917F916F915F914F91FC
S11310303F912F910F900FBE0F901F9018951F9204
S11310400F920FB60F92112400000F900FBE0F9055
S11310501F9018951F920F920FB60F9211242F9381
S11310603F934F935F936F937F938F939F93AF932C
S1131070BF93EF93FF933CDEFF91EF91BF91AF914C
S11310809F918F917F916F915F914F913F912F919C
S11310900F900FBE0F901F9018951F920F920FB6CE
S11310A00F9211242F933F934F935F936F937F93EA
S11310B08F939F93AF93BF93EF93FF9319DEFF91A9
S11310C0EF91BF91AF919F918F917F916F915F91BC
S11310D04F913F912F910F900FBE0F901F90189535
S11310E01F920F920FB60F9211242F933F934F9399
S11310F05F936F937F938F939F93AF93BF93EF937C
S1131100FF93F6DDFF91EF91BF91AF919F918F9186
S11311107F916F915F914F913F912F910F900FBEEF
S11311200F901F9018951F920F920FB60F921124D3
S11311302F933F934F935F936F937F938F939F93DB
S1131140AF93BF93EF93FF93D3DDFF91EF91BF91E3
S1131150AF919F918F917F916F915F914F913F914B
S11311602F910F900FBE0F901F9018951F920F9202
S11311700FB60F9211242F933F934F935F936F9366
S11311807F938F939F93AF93BF93EF93FF93B0DDC0
S1131190FF91EF91BF91AF919F918F917F916F914B
S11311A05F914F913F912F910F900FBE0F901F9021
S11311B018951F920F920FB60F9211242F933F93FD
S11311C04F935F936F937F938F939F93AF93BF934B
S11311D0EF93FF938DDDFF91EF91BF91AF919F91BD
S11311E08F917F916F915F914F913F912F910F90CC
S11311F00FBE0F901F9018951F920F920FB60F926B
S113120011242F933F934F935F936F937F938F9307
S11312109F93AF93BF93EF93FF936ADDFF91EF9199
S1131220BF91AF919F918F917F916F915F914F91FA
S11312303F912F910F900FBE0F901F901895CF9252
S1131240DF92EF92FF92CF93DF93EB01813051F560
S113125026E636E646E65FE360914E0170914F0163
S113126080915001909151010E948E116B017C017B
S1131270BE0180E090E09CD72DEC3CEC4CEC5DE3AF
S11312800E948E119B01AC01C701B60190D6F8945F
S113129060934E0170934F018093500190935101DC
S11312A078942BC0833049F52BE33FED4FE75FE3A0
S11312B060914601709147018091480190914901E4
S11312C00E948E116B017C01BE0180E090E070D71A
S11312D02FE632E143E05AE30E948E119B01AC01F8
S11312E0C701B60164D6F894609346017093470130
S11312F080934801909349017894DF91CF91FF90B6
S1131300EF90DF90CF9008951F920F920FB60F9237
S113131011242F933F934F935F936F937F938F93F6
S11313209F93AF93BF93EF93FF938091520160918A
S113133078009091790070E0792BB09A90915201E5
S1131340913041F018F0923061F00FC091E0909329
S1131350520110C098EC90937C0092E0909352015B
S113136009C093E09093520105C090EC90937C00E7
S113137010925201789463DFFF91EF91BF91AF9186
S11313809F918F917F916F915F914F913F912F9199
S11313900F900FBE0F901F9018951F920F920FB6CB
S11313A00F9211242F933F934F935F936F937F93E7
S11313B08F939F93AF93BF93EF93FF9399DCFF9128
S11313C0EF91BF91AF919F918F917F916F915F91B9
S11313D04F913F912F910F900FBE0F901F90189532
S11313E01F920F920FB60F9211242F933F934F9396
S11313F05F936F937F938F939F93AF93BF93EF9379
S1131400FF9376DCFF91EF91BF91AF919F918F9104
S11314107F916F915F914F913F912F910F900FBEEC
S11314200F901F9018951F920F920FB60F921124D0
S11314302F933F934F935F936F937F938F939F93D8
S1131440AF93BF93EF93FF938091B9006091BB007A
S11314507894807F49D380E88093BC00FF91EF911A
S1131460BF91AF919F918F917F916F915F914F91B8
S11314703F912F910F900FBE0F901F9018951F92C0
S11314800F920FB60F9211242F933F934F935F93B4
S11314906F937F938F939F93AF93BF93EF93FF9338
S11314A027DCFF91EF91BF91AF919F918F917F9135
S11314B06F915F914F913F912F910F900FBE0F90BD
S11314C01F901895CF93DF931F92CDB7DEB78FB7D8
S11314D08983F89499818FEF8BB91AB828982C9A3C
S11314E02D9A00002D98000089B19FBF0F90DF91C5
S11314F0CF910895CF93DF931F92CDB7DEB79FB7F7
S11315009983F89499818BB98FEF8AB928982C988C
S11315102D9A00002D989FBF0F90DF91CF910895D1
S1131520CF93DF931F92CDB7DEB79FB79983F8941B
S113153099818BB98FEF8AB9289A2C982D9A00003B
S11315402D9800009FBF0F90DF91CF910895CF9306
S1131550DF931F92CDB7DEB78FB78983F894998153
S11315608FEF8BB91AB8289A2C9A2D9A00002D98CF
S1131570000080911A01882339F089B12D9A000066
S11315802D98000010921A0189B19FBF0F90DF912E
S1131590CF910895806BAEDF81E080931A010895A6
S11315A0CF93803F58F4C82F8F70A4DF8C2F82957F
S11315B08F7080619FDF81E080931A01CF9108953D
S11315C080E098DF80E196DF81E080931A0108953E
S11315D080EB90DFF5CF08951F93CF93DF93D0E096
S11315E010EF8D2F806B86DF80E084DF80E182DF67
S11315F0C12F80E095DFC150E1F7DF5FD03189F77B
S1131600E7DFDF91CF911F9108952F923F924F9280
S11316105F926F927F928F929F92AF92BF92CF927E
S1131620DF92EF92FF920F931F93CF93DF93CDB787
S1131630DEB72A970FB6F894DEBF0FBECDBF0DB745
S11316401EB782EE57DF80E090E001968B3228E6E9
S11316509207D9F737DF88230CF4D7C18DE24ADF2C
S113166084E248DF8AEE46DF81E844DF8CE942DF2A
S113167088EC40DF88E83EDF80E43CDF80E93ADF45
S113168080EB38DF80E036DF80E134DF81E0809377
S11316901A018FEE2FDF8EEE2DDF84EA2BDF86EA30
S11316A029DF8FEA27DF98DF10E0812F39DF1F5F02
S11316B0103FD9F701E028E248E260E386E46DD800
S11316C028E248E260E38AEA8CD80FEF21E04AE09E
S11316D060E58AE0A0D821E04AE060E588E259D9D3
S11316E020E031E040E266E487E091E0D8DA8DB7AB
S11316F09EB7CD970FB6F8949EBF0FBE8DBF0DB7A2
S11317001EB70F5F1F4F4801EDB7FEB7FD970FB629
S1131710F894FEBF0FBEEDBFCC977C019A878987F2
S113172020E030E00F2EFBE04F2E512CF02D68947A
S1131730DD24D6F848EF0F2EF8ECBF2EF02D0F2E37
S1131740F8EDCF2EF02D0F2EFFED6F2EF02D772418
S11317507394A12C2115310529F4F4011082272D4D
S11317603A2DF8CF233031055CF4F401E20FF31F76
S113177040832F5F3F4FF401E20FF31FC0823CC050
S1131780253031052CF4F401E20FF31F608234C0DC
S11317902B3031052CF4F401E20FF31FC0822CC06E
S11317A0203131052CF4F401E20FF31F408324C0EF
S11317B02C33310519F4F80114AE24C0C901409743
S11317C0B2010FD6892BA1F4F401E20FF31FD082EA
S11317D0D182D28243834483B58246834783B086D1
S11317E04187265F3F4FF401E20FF31F408304C09B
S11317F0F401E20FF31F10822F5F3F4F2D333105A9
S11318000CF4A8CFF801D701DD9681918E93AE1523
S1131810BF05D9F700E028E040EF68E780E00E94C8
S1131820F1033324339480E090E00F2EF3ECEF2E99
S1131830FF24FA94F02D0F2EF6E0AF2EB12CF02DEC
S11318400F2EFCE22F2EF02D1AE16C01FFEFCF1AC0
S1131850DF0AB501C6D5892B09F049C0E30CF11C98
S113186037FCFA942AEBE2162FEFF2061CF18AEF0A
S1131870E816F1041CF43320FCF402C033243A9437
S1131880E0EFEE16F10430F42DE34E2D6FE0C401C9
S11318901BD92DC09701245C3F4F2C33310538F5FB
S11318A02DE32E0D40E06FE0F401EE19FF09CF01A6
S11318B00BD91DC033243394F0EFEF16F10438F440
S11318C02DE34E2D6FE089859A85FED810C09701CF
S11318D0245C3F4F2C33310550F42DE32E0D40E0B2
S11318E06FE0E985FA85EE19FF09CF01EDD8C6014D
S11318F064E170E076D5892B09F057C0CCD18FB75D
S11319008887F89488854090420150904301609004
S11319104401709045018FBF20E030E0A901C3016C
S1131920B201A9D388231CF4412C512C320120E0AC
S113193030E040E251E4C301B201A1D308D4CB01A9
S11319406AE070E04ED5805D8983C301B201FFD3A4
S1131950CB016AE070E045D5805D8A832B8220E06C
S113196030E040E251E4C301B201D8D4F0D3CB015A
S11319706AE070E036D5805D8C8320E030E048EC8E
S113198052E4C301B201CAD4E2D3CB016AE070E0ED
S113199028D5805D8D83F3E4FE831F8220E031E04F
S11319A041E468E7CE0101967AD9809118019091BB
S11319B019010196909319018093180162E170E076
S11319C010D5382FCB0163E070E00BD5212F231BFA
S11319D06AE0630F082F4FEE80E00E944B03809172
S11319E01801909119018115984424F0109219015D
S11319F01092180120E030E000002F5F3F4F283E96
S1131A0083E03807C9F7C60120CF81E00FB6F89408
S1131A101EBF0FBE0DBF2A960FB6F894DEBF0FBED1
S1131A20CDBFDF91CF911F910F91FF90EF90DF9089
S1131A30CF90BF90AF909F908F907F906F905F906A
S1131A404F903F902F900895CF93DF931F92CDB77F
S1131A50DEB79FB79983F8949981882331F0ECEB32
S1131A60F0E080818064808305C0ECEBF0E080814D
S1131A708F7B80839FBF0F90DF91CF910895CF9389
S1131A80DF931F92CDB7DEB79FB79983F8949981FE
S1131A908093BC009FBF0F90DF91CF910895CF93A7
S1131AA0DF931F92CDB7DEB79FB79983F8949981DE
S1131AB08093BB009FBF0F90DF91CF910895209139
S1131AC03201222381F0E22FF0E0E75DFE4F88E24D
S1131AD091E01292E817F907E1F720933001109290
S1131AE0320185EEDCCF0895CF9390E0FC01389766
S1131AF0E13CF10508F0CCC0EC5CFF4F85C481E00B
S1131B008093310110921E01E0911E0181E08E0F3D
S1131B1080931E01F0E0E85DFE4F8081C0DFB8C015
S1131B2085E9ADDFB5C0E0911E0180911D01E81784
S1131B3060F481E08E0F80931E01F0E0E85DFE4FBB
S1131B408081ADDF85EC9BDFA3C085ED98DF10922B
S1131B503101B5DF9DC085E992DF10923101AFDF1D
S1131B6097C085EE8CDF94C081E080932701609359
S1131B701F0180931C018CC081E080932701609336
S1131B801F0180931C0184C080911B01873061F484
S1131B906093210180911C018F5F80931C0180E080
S1131BA053DF10921B0174C080911C01883028F40B
S1131BB0E82FF0E0E15EFE4F6083813039F46295F6
S1131BC0669567706F5F60931B0102C0873018F4DD
S1131BD08F5F80931C0181E020911C0190911B0177
S1131BE0921708F480E030DF53C080911B018730E6
S1131BF029F480911C018F5F80931C0110922701AE
S1131C0047C085EC3CDF10921C0110921B0110921E
S1131C1027013EC081E08093270110921E01C091EC
S1131C201D01CC2329F080931E0180911F0101C066
S1131C308C2F35DF81E090911E019C1708F080E025
S1131C4003DF26C0C0911D01E0911E01EC1748F48A
S1131C5081E08E0F80931E01F0E0E15EFE4F8081F3
S1131C6001C080E01CDF81E090911E019C1708F008
S1131C7080E0EADE0DC080E0E7DE10921E011092E3
S1131C801D011092270104C085ECF9DE1092270192
S1131C90CF91089508954F925F926F927F928F92A1
S1131CA09F92AF92BF92CF92DF92EF92FF92CF9327
S1131CB0DF9300D000D0CDB7DEB78FB78C83F89414
S1131CC08C81C0904E01D0904F01E0905001F09073
S1131CD05101409046015090470160904801709036
S1131CE049018FBF809133018F5F809333018093CB
S1131CF0B30020E030E040E85FE3C701B6010AD357
S1131D00882304F1A701960160E070E48CE995E46E
S1131D10B6D14B015C0120E030E04AE754E4ABD19A
S1131D208823DCF420E030E04AE754E4C501B40140
S1131D30A6D120E030E045E653E4F0D20DD28AE1AA
S1131D40860F0CC00F2E812CF0E49F2EFCE1AF2EE9
S1131D50F6E4BF2EF02D80E001C080E080923901CE
S1131D6090923A01A0923B01B0923C01C09235019D
S1131D70D0923601E0923701F092380180933D0110
S1131D808FB78B83F8948B81C0924A01D0924B0118
S1131D90E0924C01F0924D018FBF29E137EC4FEAFC
S1131DA053E4C301B20102D120E030EA47E85FE323
S1131DB0B5D220E030E048EC51E4F9D06B017C016D
S1131DC08FB78983F894898120913E0130913F0136
S1131DD04091400150914101C0924201D09243018F
S1131DE0E0924401F09245018FBFC701B601DED0F5
S1131DF0AED19B01772324F422273327261B370BEC
S1131E00B901330F880B990BD5D120E030E040E8BD
S1131E105FE380D218166CF48FB78A83F8948A81B2
S1131E20C0923E01D0923F01E0924001F092410104
S1131E308FBF0F900F900F900F90DF91CF91FF9075
S1131E40EF90DF90CF90BF90AF909F908F907F9056
S1131E506F905F904F900895CF93DF931F92CDB70B
S1131E60DEB78EE788B988E087B984E185B98BEF5E
S1131E7084B98FEF8BB91AB80F2EFEE7EF2EF12C31
S1131E80F02D01E0F70100830E945B028BEE80934A
S1131E90640013E813BD68E080E00E9474021093AC
S1131EA0800089E080938100109285001092840064
S1131EB082E0809389001092880010926F0087E27C
S1131EC086BB60E480E00E9474021093B00087E057
S1131ED08093B1001092B20090E49093B3001092FA
S1131EE0700087BB1092B60061E080E00E9474022B
S1131EF0F7010083EAE7F0E087E8808380EC8093D1
S1131F007C00808180618083808188608083ABE7EE
S1131F10B0E08C91887F86608C938081806280831E
S1131F20B9DE84B7982F977011F4811134C08FB73C
S1131F308983F89489811092520110924E01109273
S1131F404F01109250011092510110924A011092C7
S1131F504B0110924C0110924D0140E050E06FEAA9
S1131F6073E4409346015093470160934801709392
S1131F7049011092420110924301109244011092BF
S1131F80450110923E0110923F01109240011092BF
S1131F9041018FBF03C00E9478060000789413BCEF
S1131FA034DB81E08093340176DEFECF5058BB27CA
S1131FB0AA270ED075C166D130F06BD120F031F470
S1131FC09F3F11F41EF45BC10EF4E095E7FB51C191
S1131FD0E92F77D180F3BA1762077307840795074F
S1131FE018F071F49EF58FC10EF4E0950B2EBA2F04
S1131FF0A02D0B01B90190010C01CA01A00111240B
S1132000FF27591B99F0593F50F4503E68F11A16B6
S1132010F040A22F232F342F4427585FF3CF469547
S113202037952795A795F0405395C9F77EF41F1669
S1132030BA0B620B730B840BBAF09150A1F0FF0F33
S1132040BB1F661F771F881FC2F70EC0BA0F621F1F
S1132050731F841F48F4879577956795B795F7950F
S11320609E3F08F0B3CF9395880F08F09927EE0FA1
S1132070979587950895D9D008F481E008950CD0F8
S11320800FC107D140F0FED030F021F45F3F19F0CA
S1132090F0C0511139C1F3C014D198F39923C9F395
S11320A05523B1F3951B550BBB27AA27621773075A
S11320B0840738F09F5F5F4F220F331F441FAA1F0E
S11320C0A9F333D00E2E3AF0E0E830D091505040CE
S11320D0E695001CCAF729D0FE2F27D0660F771F7C
S11320E0881FBB1F261737074807AB07B0E809F05E
S11320F0BB0B802DBF01FF2793585F4F2AF09E3FF3
S1132100510568F0B6C000C15F3FECF3983EDCF3C4
S1132110869577956795B795F7959F5FC9F7880F6B
S1132120911D9695879597F90895E1E0660F771FBD
S1132130881FBB1F621773078407BA0720F0621B4E
S1132140730B840BBA0BEE1F88F7E095089504D047
S11321506894B111D9C00895BCD088F09F5790F00D
S1132160B92F9927B751A0F0D1F0660F771F881FB8
S1132170991F1AF0BA95C9F712C0B13081F0C3D0D3
S1132180B1E00895C0C0672F782F8827B85F39F071
S1132190B93FCCF3869577956795B395D9F73EF417
S11321A090958095709561957F4F8F4F9F4F0895BF
S11321B0E89409C097FB3EF49095809570956195DD
S11321C07F4F8F4F9F4F9923A9F0F92F96E9BB2793
S11321D09395F695879577956795B795F111F8CF0F
S11321E0FAF4BB0F11F460FF1BC06F5F7F4F8F4F7A
S11321F09F4F16C0882311F096E911C0772321F070
S11322009EE8872F762F05C0662371F096E8862F07
S113221070E060E02AF09A95660F771F881FDAF75E
S1132220880F9695879597F90895990F0008550F8B
S1132230AA0BE0E8FEEF16161706E807F907C0F048
S113224012161306E407F50798F0621B730B840B50
S1132250950B39F40A2661F0232B242B252B21F42A
S113226008950A2609F4A140A6958FEF811D811DCA
S1132270089597F99F6780E870E060E008959FEF04
S113228080EC089500240A94161617061806090609
S1132290089500240A9412161306140605060895D8
S11322A0092E0394000C11F4882352F0BB0F40F460
S11322B0BF2B11F460FF04C06F5F7F4F8F4F9F4FA0
S11322C0089557FD9058440F551F59F05F3F71F022
S11322D04795880F97FB991F61F09F3F79F0879589
S11322E00895121613061406551FF2CF4695F1DF12
S11322F008C0161617061806991FF1CF86957105A2
S1132300610508940895E894BB2766277727CB01D5
S113231097F908958ADF08F48FEF08950BD0C0CFA2
S1132320B1DF28F0B6DF18F0952309F0A2CFA7CFCC
S11323301124EACFC6DFA0F3959FD1F3950F50E0A7
S1132340551F629FF001729FBB27F00DB11D639F63
S1132350AA27F00DB11DAA1F649F6627B00DA11D09
S1132360661F829F2227B00DA11D621F739FB00DAF
S1132370A11D621F839FA00D611D221F749F33271F
S1132380A00D611D231F849F600D211D822F762FB8
S11323906A2F11249F5750408AF0E1F088234AF0B5
S11323A0EE0FFF1FBB1F661F771F881F9150504001
S11323B0A9F79E3F510570F05CCFA6CF5F3FECF3C9
S11323C0983EDCF3869577956795B795F795E795ED
S11323D09F5FC1F7FE2B880F911D9695879597F9FE
S11323E0089597FB072E16F4009406D077FD08D0C5
S11323F011D007FC05D03EF4909581959F4F089528
S1132400709561957F4F0895EE0FFF1F0590F4912D
S1132410E02D0994AA1BBB1B51E107C0AA1FBB1FD7
S1132420A617B70710F0A61BB70B881F991F5A955C
S1132430A9F780959095BC01CD010895F894FFCF3C
S113244000EA010607207D44463449414820536D83
S10B24506172742D4C43440039
S9030000FC
