:1000000033C000004CC000004AC0000048C00000DF
:1000100046C0000044C0000042C0000040C00000D4
:100020003EC000003CC000003AC0000038C00000E4
:1000300036C0000034C0000032C0000030C00000F4
:100040002EC000002CC000002AC0000028C0000004
:1000500026C000009CC0000022C0000020C000009C
:100060001EC000001CC0000011241FBECFEFD8E04E
:10007000DEBFCDBF11E0A0E0B1E0E4E0F7E002C0F8
:1000800005900D92A030B107D9F721E0A0E0B1E0D2
:1000900001C01D92A530B207E1F79FD031C3B0CFA8
:1000A000CF93DF931F92CDB7DEB78FEF80936400BD
:1000B0008FB78983F89489815F9350E850936100EA
:1000C00050E0509361005F918FBF0F90DF91CF910F
:1000D0000895CF93DF931F92CDB7DEB79FB7998373
:1000E000F8949981811106C0E4E6F0E06095808182
:1000F000682360839FBF0F90DF91CF910895CF93C6
:10010000DF931F92CDB7DEB79FB79983F89499819B
:10011000811105C0E4E6F0E08081682B60839FBF19
:100120000F90DF91CF910895219A239A209A2898D1
:10013000249A2C9A259A2D983B9A43983E98469853
:10014000469A509858985898519859985998529852
:100150005A985A9853985B985B9854985C985C9816
:1001600055985D985D9856985E985E9857985F98F8
:100170005F98269A2E98279A2F9822982A9839982D
:1001800041983A98429838983C983D9808951F9223
:100190000F920FB60F9211242F934F935F938F936B
:1001A0009F938091780020917900409103015091B4
:1001B0000401509302014093010190E0922B90932F
:1001C0000401809303019F918F915F914F912F9133
:1001D0000F900FBE0F901F9018958F929F92AF9225
:1001E000BF92DF92EF92FF920F931F93CF93DF9313
:1001F00000D0CDB7DEB754DF8FB78A83F8948A81F9
:100200005F9350E85093610050E0509361005F911C
:100210008FBF0F2EF3E8FF2EF02DF3BC04E610E0A5
:10022000F801808165E06BDFF801808163E051DFD8
:10023000F092800089E080938100109282001092F9
:1002400085001092840082E08093890010928800DB
:1002500010926F0087E286BBF801808166E039DF8B
:10026000F092B00087E08093B1001092B20090E469
:100270009093B3001092700087BB1092B600F80103
:10028000808160E026DFEAE7F0E087E880838FB7CF
:100290008983F894998181E080937E0080EC80933B
:1002A0007C00ABE7B0E08C91887F86608C93808186
:1002B000886080839FBF38DF84B7877059F0789457
:1002C0001092040110920301109202011092010198
:1002D000F89401C09895789481E083BDD12C0F2EBD
:1002E000F8E8EF2EF3E1FF2EF02D03EB10E032C023
:1002F00078948091010190910201609103017091C5
:100300000401F8946817790729F161157105E9F07E
:10031000C701E2D180E090E0CAD04B015C0120E04F
:1003200030E04AE754E42BD088238CF420E030E01E
:100330004AE754E4C501B40126D020E030E045E6A8
:1003400053E467D188D0665E03C06D2D01C06D2D6A
:10035000F8016083909100019111CACFF89480E078
:1003600090E00F900F90DF91CF911F910F91FF9030
:10037000EF90DF90BF90AF909F908F900895D4D072
:1003800008F481E008950CD00AC102D140F0F9D000
:1003900030F021F45F3F19F0EBC0511134C1EEC0D1
:1003A0000FD198F39923C9F35523B1F3951B550B3E
:1003B000BB27AA2762177307840738F09F5F5F4F38
:1003C000220F331F441FAA1FA9F333D00E2E3AF079
:1003D000E0E830D091505040E695001CCAF729D093
:1003E000FE2F27D0660F771F881FBB1F26173707E2
:1003F0004807AB07B0E809F0BB0B802DBF01FF2712
:1004000093585F4F2AF09E3F510568F0B1C0FBC082
:100410005F3FECF3983EDCF3869577956795B7954B
:10042000F7959F5FC9F7880F911D9695879597F966
:100430000895E1E0660F771F881FBB1F62177307DF
:100440008407BA0720F0621B730B840BBA0BEE1FF4
:1004500088F7E0950895BCD088F09F5790F0B92FA9
:100460009927B751A0F0D1F0660F771F881F991F09
:100470001AF0BA95C9F712C0B13081F0C3D0B1E01B
:100480000895C0C0672F782F8827B85F39F0B93F2B
:10049000CCF3869577956795B395D9F73EF490950B
:1004A0008095709561957F4F8F4F9F4F0895E89489
:1004B00009C097FB3EF490958095709561957F4FAC
:1004C0008F4F9F4F9923A9F0F92F96E9BB2793955A
:1004D000F695879577956795B795F111F8CFFAF46A
:1004E000BB0F11F460FF1BC06F5F7F4F8F4F9F4F9B
:1004F00016C0882311F096E911C0772321F09EE8F9
:10050000872F762F05C0662371F096E8862F70E05E
:1005100060E02AF09A95660F771F881FDAF7880F38
:100520009695879597F90895990F0008550FAA0B8E
:10053000E0E8FEEF16161706E807F907C0F01216F6
:100540001306E407F50798F0621B730B840B950BF9
:1005500039F40A2661F0232B242B252B21F408954E
:100560000A2609F4A140A6958FEF811D811D0895EB
:1005700097F99F6780E870E060E008959FEF80EC56
:10058000089500240A9416161706180609060895F9
:1005900000240A9412161306140605060895092E5F
:1005A0000394000C11F4882352F0BB0F40F4BF2BCE
:1005B00011F460FF04C06F5F7F4F8F4F9F4F08950E
:1005C00057FD9058440F551F59F05F3F71F0479504
:1005D000880F97FB991F61F09F3F79F087950895E9
:1005E000121613061406551FF2CF4695F1DF08C008
:1005F000161617061806991FF1CF86957105610525
:1006000008940895E894BB2766277727CB0197F9CC
:1006100008950BD0C4CFB5DF28F0BADF18F09523CA
:1006200009F0A6CFABCF1124EECFCADFA0F3959F80
:10063000D1F3950F50E0551F629FF001729FBB27C9
:10064000F00DB11D639FAA27F00DB11DAA1F649F75
:100650006627B00DA11D661F829F2227B00DA11D28
:10066000621F739FB00DA11D621F839FA00D611DAE
:10067000221F749F3327A00D611D231F849F600DCF
:10068000211D822F762F6A2F11249F5750408AF008
:10069000E1F088234AF0EE0FFF1FBB1F661F771F94
:1006A000881F91505040A9F79E3F510570F060CFD0
:1006B000AACF5F3FECF3983EDCF38695779567957C
:1006C000B795F795E7959F5FC1F7FE2B880F911DB2
:1006D0009695879597F90895AA1BBB1B51E107C012
:1006E000AA1FBB1FA617B70710F0A61BB70B881FC2
:1006F000991F5A95A9F780959095BC01CD01089551
:04070000F894FFCF9B
:00000001FF
