:1000000033C0000092C000009BC00000A4C00000EC
:10001000ADC00000B6C00000BFC00000C8C00000F6
:10002000D1C00000DAC00000E3C00000ECC0000056
:10003000F5C00000FEC0000007C1000010C10000B4
:1000400019C1000022C100002BC1000034C1000012
:100050003DC10000A3C10000E7C10000F0C10000E5
:10006000F9C1000002C2000011241FBECFEFD8E08A
:10007000DEBFCDBF11E0A0E0B1E0EAEFFCE002C0DE
:1000800005900D92A030B107D9F721E0A0E0B1E0D2
:1000900001C01D92A631B207E1F721D22CC6CF9341
:1000A000DF931F92CDB7DEB78FEF809364008FB7D9
:1000B0008983F89489815F9350E85093610050E000
:1000C000509361005F918FBF0F90DF91CF910895A2
:1000D000CF93DF931F92CDB7DEB79FB79983F89484
:1000E0009981811106C0E4E6F0E060958081682383
:1000F00060839FBF0F90DF91CF910895CF93DF93DF
:100100001F92CDB7DEB79FB79983F894998181117B
:1001100005C0E4E6F0E08081682B60839FBF0F900C
:10012000DF91CF910895989508951F920F920FB681
:100130000F92112498950F900FBE0F901F90189555
:100140001F920F920FB60F92112498950F900FBE29
:100150000F901F9018951F920F920FB60F921124B7
:1001600098950F900FBE0F901F9018951F920F92A9
:100170000FB60F92112498950F900FBE0F901F90FD
:1001800018951F920F920FB60F92112498950F9009
:100190000FBE0F901F9018951F920F920FB60F92DF
:1001A000112498950F900FBE0F901F9018951F92D5
:1001B0000F920FB60F92112498950F900FBE0F90CB
:1001C0001F9018951F920F920FB60F9211249895B9
:1001D0000F900FBE0F901F9018951F920F920FB6A1
:1001E0000F92112498950F900FBE0F901F901895A5
:1001F0001F920F920FB60F92112498950F900FBE79
:100200000F901F9018951F920F920FB60F92112406
:1002100098950F900FBE0F901F9018951F920F92F8
:100220000FB60F92112498950F900FBE0F901F904C
:1002300018951F920F920FB60F92112498950F9058
:100240000FBE0F901F9018951F920F920FB60F922E
:10025000112498950F900FBE0F901F9018951F9224
:100260000F920FB60F92112498950F900FBE0F901A
:100270001F9018951F920F920FB60F921124989508
:100280000F900FBE0F901F9018951F920F920FB6F0
:100290000F92112498950F900FBE0F901F901895F4
:1002A0001F920F920FB60F92112498950F900FBEC8
:1002B0000F901F9018951F920F920FB60F92112456
:1002C00098950F900FBE0F901F9018951F920F9248
:1002D0000FB60F92112498950F900FBE0F901F909C
:1002E0001895CF92DF92EF92FF92CF93DF93EB01BD
:1002F000813031F526E636E646E65FE3609111018E
:1003000070911201809113019091140191D46B01AD
:100310007C01BE0180E090E0D5D32DEC3CEC4CECB0
:100320005DE386D49B01AC01C701B601CAD26093DC
:10033000110170931201809313019093140127C04F
:10034000833029F52CEE31E548E75FE36091090140
:1003500070910A0180910B0190910C0169D46B019D
:100360007C01BE0180E090E0ADD32FE832EC45EF98
:100370005CE35ED49B01AC01C701B601A2D26093DD
:10038000090170930A0180930B0190930C01DF9196
:10039000CF91FF90EF90DF90CF9008951F920F9232
:1003A0000FB60F9211242F933F934F935F936F9348
:1003B0007F938F939F93AF93BF93EF93FF9380911E
:1003C0001501609178009091790070E0792B81306F
:1003D00041F018F0823061F00FC091E09093150168
:1003E00010C098EC90937C0092E09093150109C0A6
:1003F00093E09093150105C090EC90937C001092CF
:10040000150178946EDFFF91EF91BF91AF919F91AD
:100410008F917F916F915F914F913F912F910F90AD
:100420000FBE0F901F9018951F920F920FB60F924C
:10043000112498950F900FBE0F901F9018951F9242
:100440000F920FB60F92112498950F900FBE0F9038
:100450001F9018951F920F920FB60F921124989526
:100460000F900FBE0F901F9018951F920F920FB60E
:100470000F92112498950F900FBE0F901F90189512
:1004800021982998239A2B98209A2898249A2C9A74
:10049000259A2D983B9A43983E98469A509858989A
:1004A0005198599852985A9853985B9854985C98D8
:1004B00055985D9856985E9857985F98269A2E980A
:1004C000279A2F9822982A98399841983A984298D2
:1004D000389840983C98409A3D98409A08956F9279
:1004E0007F928F929F92AF92BF92CF92DF92EF92C4
:1004F000FF920F931F93CF93DF93CDB7DEB72F9764
:100500000FB6F894DEBF0FBECDBFC9DD8FB78A87A7
:10051000F8940A858FB78B87F8948B855F9350E8A2
:100520005093610050E0509361005F918FBF13E8DA
:1005300013BD65E080E0E2DD63E080E0C9DD10939B
:10054000800089E0809381001092820010928500E3
:100550001092840082E080938900109288001092AB
:100560006F0087E286BB66E080E0B2DD1093B000EA
:1005700087E08093B1001092B20090E49093B300B2
:100580001092700087BB1092B6000FBF60E080E051
:100590009FDDEAE7F0E087E880838FB78987F894EA
:1005A000998581E080937E0080EC80937C00ABE7AE
:1005B000B0E08C91887F86608C9380818860808396
:1005C0009FBF80B7806880BF5BDF84B7877081F191
:1005D0008FB78887F89488851092150110921101C1
:1005E00010921201109213011092140110920D0139
:1005F00010920E0110920F01109210011092090139
:1006000010920A0110920B0110920C011092050138
:100610001092060110920701109208011092010138
:100620001092020110920301109204018FBF01C0C9
:100630007ADD67E080E04CDD789481E083BD8091D5
:100640000001882309F4CDC003EB10E0612C77246E
:1006500073948FB78E83F8948E81C0901101D090DF
:100660001201E0901301F090140120910D013091DE
:100670000E0140910F01509110018090090190905E
:100680000A01A0900B01B0900C018FBFC701B60109
:1006900017D1E7D19B01772324F422273327261B88
:1006A000370BB901330F880B990B0ED220E030E0E5
:1006B00040E05FE3B9D288230CF43EC020E030E094
:1006C00040E85FE3C701B601AFD288231CF1A70160
:1006D000960160E070E48CE995E45BD16C877D87DE
:1006E0008E879F8720E030E04AE754E44ED188238C
:1006F0009CF420E030E04AE754E46C857D858E85EB
:100700009F8547D120E030E045E653E491D2AED159
:10071000665E03C0662D01C0662DF80160838FB749
:100720008F83F8948F81C0920D01D0920E01E092D8
:100730000F01F09210018FBF29E137E24DEA53E437
:10074000C501B401BDD020E030EA47E85FE370D2D4
:1007500020E030E048EC51E4B4D06B017C018FB76D
:100760008C83F8948C812091010130910201409199
:10077000030150910401C0920501D0920601E0925C
:100780000701F09208018FBFC701B60199D069D166
:100790009B01772324F422273327261B370BB9012B
:1007A000330F880B990B90D120E030E040E85FE3F5
:1007B0003BD218166CF48FB78D83F8948D81C0925C
:1007C0000101D0920201E0920301F09204018FBF77
:1007D00073BE889583B78E7F83BF8091000181119E
:1007E00038CFF89480B7806880BF62E080E086DC14
:1007F00061E080E083DC67E080E080DC8FB78B83A2
:10080000F8941B81EAE7F0E08081877F8083EBE743
:10081000F0E08081887F808310927C0010927E00BF
:1008200060E080E06BDC1FBF8FB78983F89419818B
:1008300065E080E063DC2198299810928000109296
:1008400081001092820010926F0063E080E056DC1D
:10085000239A2B981092B0001092B1001092700061
:100860001092B60066E080E049DC8FB78A83F89486
:100870008A815F9350E85093610050E0509361008B
:100880005F918FBF1FBF89E083BF889583B78E7F3D
:1008900083BF80E090E02F960FB6F894DEBF0FBEC6
:1008A000CDBFDF91CF911F910F91FF90EF90DF901F
:1008B000CF90BF90AF909F908F907F906F90089552
:1008C0005058BB27AA270ED075C166D130F06BD126
:1008D00020F031F49F3F11F41EF45BC10EF4E0955B
:1008E000E7FB51C1E92F77D180F3BA17620773078D
:1008F0008407950718F071F49EF58FC10EF4E0950A
:100900000B2EBA2FA02D0B01B90190010C01CA01C9
:10091000A0011124FF27591B99F0593F50F4503E74
:1009200068F11A16F040A22F232F342F4427585F66
:10093000F3CF469537952795A795F0405395C9F77E
:100940007EF41F16BA0B620B730B840BBAF0915036
:10095000A1F0FF0FBB1F661F771F881FC2F70EC0D5
:10096000BA0F621F731F841F48F4879577956795A8
:10097000B795F7959E3F08F0B3CF9395880F08F091
:100980009927EE0F979587950895D9D008F481E0BF
:1009900008950CD00FC107D140F0FED030F021F403
:1009A0005F3F19F0F0C0511139C1F3C014D198F371
:1009B0009923C9F35523B1F3951B550BBB27AA27E0
:1009C00062177307840738F09F5F5F4F220F331F52
:1009D000441FAA1FA9F333D00E2E3AF0E0E830D01E
:1009E00091505040E695001CCAF729D0FE2F27D021
:1009F000660F771F881FBB1F261737074807AB07EF
:100A0000B0E809F0BB0B802DBF01FF2793585F4F63
:100A10002AF09E3F510568F0B6C000C15F3FECF37D
:100A2000983EDCF3869577956795B795F7959F5F28
:100A3000C9F7880F911D9695879597F90895E1E07C
:100A4000660F771F881FBB1F621773078407BA07DB
:100A500020F0621B730B840BBA0BEE1F88F7E09536
:100A6000089504D06894B111D9C00895BCD088F01D
:100A70009F5790F0B92F9927B751A0F0D1F0660F8A
:100A8000771F881F991F1AF0BA95C9F712C0B130A5
:100A900081F0C3D0B1E00895C0C0672F782F8827B8
:100AA000B85F39F0B93FCCF3869577956795B395E4
:100AB000D9F73EF490958095709561957F4F8F4F53
:100AC0009F4F0895E89409C097FB3EF49095809558
:100AD000709561957F4F8F4F9F4F9923A9F0F92F04
:100AE00096E9BB279395F695879577956795B79582
:100AF000F111F8CFFAF4BB0F11F460FF1BC06F5F68
:100B00007F4F8F4F9F4F16C0882311F096E911C079
:100B1000772321F09EE8872F762F05C0662371F09A
:100B200096E8862F70E060E02AF09A95660F771FAE
:100B3000881FDAF7880F9695879597F90895990F8A
:100B40000008550FAA0BE0E8FEEF16161706E80797
:100B5000F907C0F012161306E407F50798F0621BB8
:100B6000730B840B950B39F40A2661F0232B242B8D
:100B7000252B21F408950A2609F4A140A6958FEFAC
:100B8000811D811D089597F99F6780E870E060E0FE
:100B900008959FEF80EC089500240A941616170616
:100BA00018060906089500240A941216130614065E
:100BB00005060895092E0394000C11F4882352F0C1
:100BC000BB0F40F4BF2B11F460FF04C06F5F7F4F79
:100BD0008F4F9F4F089557FD9058440F551F59F060
:100BE0005F3F71F04795880F97FB991F61F09F3F1A
:100BF00079F087950895121613061406551FF2CF43
:100C00004695F1DF08C0161617061806991FF1CF92
:100C100086957105610508940895E894BB276627B9
:100C20007727CB0197F908958ADF08F48FEF0895AD
:100C30000BD0C0CFB1DF28F0B6DF18F0952309F054
:100C4000A2CFA7CF1124EACFC6DFA0F3959FD1F39F
:100C5000950F50E0551F629FF001729FBB27F00D6A
:100C6000B11D639FAA27F00DB11DAA1F649F6627BF
:100C7000B00DA11D661F829F2227B00DA11D621F0E
:100C8000739FB00DA11D621F839FA00D611D221FC8
:100C9000749F3327A00D611D231F849F600D211DAC
:100CA000822F762F6A2F11249F5750408AF0E1F04F
:100CB00088234AF0EE0FFF1FBB1F661F771F881F98
:100CC00091505040A9F79E3F510570F05CCFA6CFE0
:100CD0005F3FECF3983EDCF3869577956795B79583
:100CE000F795E7959F5FC1F7FE2B880F911D9695AD
:0A0CF000879597F90895F894FFCF57
:00000001FF
