S0140000536D6172742D4C43445F53572E7372656300
S113000033C000004CC000004AC0000048C00000DB
S113001046C0000044C0000042C0000040C00000D0
S11300203EC000003CC000003AC0000038C00000E0
S113003036C0000034C0000032C0000030C00000F0
S11300402EC000002CC000002AC0000028C0000000
S113005026C0000024C0000022C0000020C0000010
S11300601EC000001CC0000011241FBECFEFD8E04A
S1130070DEBFCDBF11E0A0E0B1E0EAE1F1E002C0F3
S113008005900D92A030B107D9F721E0A0E0B1E0CE
S113009001C01D92A130B207E1F71CD03CC0B0CF23
S11300A0CF93DF931F92CDB7DEB78FEF80936400B9
S11300B08FB78983F89489815F9350E850936100E6
S11300C050E0509361005F918FBF0F90DF91CF910B
S11300D008950895CF93DF931F92CDB7DEB7E0DF85
S11300E085E880937A008FB78983F8949981ECE747
S11300F0F0E08081807F80839FBF7894EADF84B7BB
S1130100809100018111FECFF89480E090E00F907F
S10D0110DF91CF910895F894FFCF1A
S9030000FC
