S0140000536D6172742D4C43445F53572E7372656300
S1130000BEC300000C9411080C9434080C945708D7
S11300100C947A080C949D080C94C0080C94E30882
S11300200C9406090C9429090C944C090C946F093E
S11300300C9492090C94B5090C94DA090C94FD09FA
S11300400C94200A0C94430A0C94660A0C94890AB2
S11300500C94AC0A0C94580B0C94C60B0C94E90B3E
S11300600C940C0C0C943D0C4D1457145714571449
S113007057145714571457140E135714571457146E
S1130080571457145714571422135714571457144A
S11300905714571457145714231357145714571439
S11300A0571457145714571430135714571457141C
S11300B0571457145714571432135714571457140A
S11300C057145714571457144813571457145714E4
S11300D057145714571457144D13571457145714CF
S11300E057145714571457144F13571457145714BD
S11300F057145714571457145113571457145714AB
S11301005714571457145714531357145714571498
S11301105714571457145714551357145714571486
S11301205714571457145714571357145714571474
S11301305714571457145714581357145714571463
S11301405714571457145714671357145714571444
S11301505714571457145714681357145714571433
S11301605714571457145714721357145714571419
S11301705714571457145714E21357145714571499
S113018057145714571457147313571457145714F8
S11301905714571457145714E31357145714571478
S11301A05714571457145714FB1357145714571450
S11301B057145714571457140A1457145714571430
S11301C057145714571457140B145714571457141F
S11301D057145714571457142914571457145714F1
S11301E057145714571457144514571457145714C5
S11301F057145714571457144914571457145714B1
S11302005714571457145714571457145714571492
S11302105714571457145714571457145714571482
S11302205714571457145714571457145714571472
S11302305714571457145714571457145714571462
S11302405714571457145714571457145714571452
S11302505714571457145714521400000000000088
S1130260002020202020002050505000000000508A
S113027050F850F850502078A07028F020C0C810D2
S1130280204098186090A040A8906860204000002A
S1130290000010204040402010402010101020404A
S11302A0005020F8205000002020F82020000000FA
S11302B00000602040000000F80000000000000082
S11302C000606000081020408000708898A8C888EA
S11302D07020602020202070708808102040F8F8DA
S11302E010201008887010305090F81010F880F02A
S11302F008088870304080F0888870F80810204022
S11303004040708888708888707088887808106089
S113031000606000606000006060006020400810C1
S113032020402010080000F800F800008040201051
S11303302040807088081020002070880868A8A8D1
S11303407070888888F88888F08888F08888F070C9
S1130350888080808870E09088888890E0F8808029
S1130360F08080F8F88080E08080807088808098B9
S11303708870888888F888888870202020202070D9
S1130380381010101090608890A0C0A090888080D1
S113039080808080F888D8A8888888888888C8A8B9
S11303A098888870888888888870F08888F0808029
S11303B08070888888A89068F08888F0A0908878F1
S11303C08080700808F0F820202020202088888869
S11303D08888887088888888885020888888A8A811
S11303E0D8888888502050888888885020202020E9
S11303F0F80810204080F838202020202038008081
S11304004020100800E02020202020E02050880018
S1130410000000000000000000F840201000000070
S113042000000070087888788080B0C88888F00060
S11304300070808088700808689888887800007048
S113044088F88070304840E0404040000078887868
S113045008308080B0C88888882000602020207000
S113046010003010109060404048506050486020A8
S113047020202020700000D0A8A888880000B0C8E0
S1130480888888000070888888700000F088F08070
S113049080000068987808080000B0C88080800058
S11304A00070807008F04040E04040483000008810
S11304B0888898680000888888502000008888A868
S11304C0A850000088502050880000888878087060
S11304D00000F8102040F810202040202010202098
S11304E02020202020402020102020400000000058
S11304F00000002020202020002050505000000048
S1130500005050F850F850502078A07028F020C0C7
S1130510C810204098186090A040A89068602040BF
S11305200000000010204040402010402010101017
S11305302040005020F8205000002020F820200007
S113054000000000602040000000F80000000000EF
S1130550000000606000081020408000708898A8A7
S1130560C8887020602020202070708808102040E7
S1130570F8F810201008887010305090F81010F817
S113058080F008088870304080F0888870F808107F
S11305902040404070888870888870708888780807
S11305A010600060600060600000606000602040D7
S11305B0081020402010080000F800F800008040D7
S11305C0201020408070880810200020708808685F
S11305D0A8A87070888888F88888F08888F0888847
S11305E0F070888080808870E09088888890E0F837
S11305F08080F08080F8F88080E08080807088803F
S113060080988870888888F88888887020202020BE
S11306102070381010101090608890A0C0A09088AE
S1130620808080808080F888D8A888888888888896
S1130630C8A898888870888888888870F08888F026
S113064080808070888888A89068F08888F0A0905E
S113065088788080700808F0F820202020202088E6
S113066088888888887088888888885020888888BE
S1130670A8A8D88888885020508888888850202046
S11306802020F80810204080F8382020202020382E
S113069000804020100800E02020202020E020508E
S11306A08800000000000000000000F84020100056
S11306B0000000000070087888788080B0C88888BE
S11306C0F000007080808870080868988888780036
S11306D0007088F88070304840E040404000007866
S11306E0887808308080B0C88888882000602020FE
S11306F02070100030101090604040485060504806
S1130700602020202020700000D0A8A88888000045
S1130710B0C8888888000070888888700000F088D5
S1130720F08080000068987808080000B0C88080D5
S113073080000070807008F04040E0404048300085
S1130740008888889868000088888850200000887D
S113075088A8A85000008850205088000088887815
S113076008700000F8102040F810202040202010CD
S11307702020202020202040202010202040112450
S11307801FBECFEFD8E0DEBFCDBF12E0A0E0B1E0E6
S1130790E8EDF8E302C005900D92A639B107D9F748
S11307A023E0A6E9B2E001C01D92AC39B207E1F73B
S11307B00E94E2150C946A1CCF93DF931F92CDB76D
S11307C0DEB78FEF809364008FB78983F8948981B3
S11307D05F9350E85093610050E0509361005F9143
S11307E08FBF0F90DF91CF910895CF93DF931F9226
S11307F0CDB7DEB79FB79983F8949981811106C06C
S1130800E4E6F0E060958081682360839FBF0F90E9
S1130810DF91CF910895CF93DF931F92CDB7DEB7C9
S11308209FB79983F8949981811105C0E4E6F0E0BB
S11308308081682B60839FBF0F90DF91CF910895D3
S1130840FF920F931F93CF93DF93E42FF0E0E80F11
S1130850F11DE13FF1051CF0C0EF4C2F481B442370
S113086009F453C0D62FD695D695D695ED2FF0E042
S1130870F195E195F109EE0FFF1FEE0FFF1FEE0F4B
S1130880FF1FDF01A60FB11DBD01E1E0F0E0DF01B4
S113089002C0AA0FBB1F6A95E2F7FA2E213021F09D
S11308A098F0223019F131C0C42F1FEF180F012F17
S11308B00C0F602F8D2FE0D2482F4F29602F8D2FE2
S11308C0CBD2C150A1F721C0C42F1FEF180FFA2EAD
S11308D0F094012F0C0F602F8D2FCED2482F4F2173
S11308E0602F8D2FB9D2C150A1F70FC0C42F1FEFB5
S11308F0180F012F0C0F602F8D2FBED2482F4F25BC
S1130900602F8D2FA9D2C150A1F7DF91CF911F91F4
S11309100F91FF900895EF92FF920F931F93CF933F
S1130920DF93442309F446C0122FD82F9FEF960F6C
S1130930940F691303C0422FD2D23CC09F3708F0F2
S11309409FE7C62FC695C695C695092F06950695A9
S1130950069567702FEF30E0A90102C0440F551FC0
S11309606A95E2F7977067E070E0FB01E91BF10913
S1130970790102C0F594E794EA95E2F7C01306C042
S11309804E21212F6D2F8C2F87D214C0212F6D2F34
S11309908C2F82D2CF5FC01740F4212F4FEF6D2FE1
S11309A08C2F7AD2CF5FC017C0F3212F4E2D6D2F1D
S11309B0802F72D2DF91CF911F910F91FF90EF9012
S11309C008958F929F92AF92BF92CF92DF92EF924F
S11309D0FF920F931F93CF93DF93C82FD62F4817FF
S11309E028F4D22F262F8C2FC42F482FE42EF12C3D
S11309F0EC1AF108A22EB12CAD1AB108FF202CF488
S1130A00F194E194F1081FEF01C011E0BB200CF058
S1130A1048C0882499248A189B088E149F04FCF4E7
S1130A20540188248A9402C0882483946501CE18D2
S1130A30DF08FF20DCF1912C402F6D2F8C2F4FD23B
S1130A40DD201CF0CE18DF08D80DCA0CDB1CC10F4A
S1130A509394892D90E0E816F90674F727C067018E
S1130A60CA0CDB1C992014F1AA24AA94B12C402F9F
S1130A706D2F8C2F34D2DD201CF0C818D908C10F7B
S1130A80CE0CDF1CDA0DB3948B2D90E088169906FA
S1130A9074F70CC06701CA18DB084501AA24A394A3
S1130AA0E5CFAE14BF040CF4BFCFF4CFDF91CF91E8
S1130AB01F910F91FF90EF90DF90CF90BF90AF9078
S1130AC09F908F900895FF920F931F93CF93DF937E
S1130AD0D82F162FC42FF22E202FB2DE6FEF6F0DFA
S1130AE0610F202F4C2F8D2FABDE202F4F2D612F28
S1130AF08D2F11DF8FEF8C0F202F4F2D612F8D0F36
S1130B000ADFDF91CF911F910F91FF900895FF921B
S1130B100F931F93CF93DF93222369F0C22FF42EF8
S1130B20182FDFEFD60F6D2F6C0F202F4F2D812F35
S1130B3087DEC150C1F7DF91CF911F910F91FF90D4
S1130B4008952F923F924F925F926F927F928F926D
S1130B509F92AF92BF92CF92DF92EF92FF920F9348
S1130B601F93CF93DF9300D01F92CDB7DEB7882EAB
S1130B70962E4A83A22E411103C0422FB0D189C0C0
S1130B802A81E22EF12CEE0CFF1CF194E194F10881
S1130B9083E0E80EF11CC62ED82C182DB62E1B822D
S1130BA0902F9170292EE02FE2703E2EF02FF470DA
S1130BB04F2E202F2870522E802F8071682E902F58
S1130BC09072792EE02FE074E983222029F04A2DD7
S1130BD06C2D8A81880D83D1332031F04A2D692D03
S1130BE0FA816F1B812F7BD1442031F04A2D692D6E
S1130BF02A81621B8D2D73D1552031F04A2D6C2D25
S1130C00882D9A81891B6BD1662031F04A2D6B2D7A
S1130C10882DEA818E1B63D1772029F04A2D6A81C1
S1130C20690D8D2D5CD1F981FF2329F04A2D6A814C
S1130C30690D812F54D100232CF44A2D6B2D8A8108
S1130C40880D4DD1FF205CF42B81822F90E0880F1A
S1130C50991F880F991F0696E80EF91E0FC0EB81A5
S1130C608E2F90E0FA818F1B9109880F991F880FAE
S1130C70991F0A96E80EF91EF150FA832B812F5F13
S1130C802B83B3941F5FDA94CA948A81821708F085
S1130C909CCF0F900F900F90DF91CF911F910F91E8
S1130CA0FF90EF90DF90CF90BF90AF909F908F9088
S1130CB07F906F905F904F903F902F9008955F9238
S1130CC06F927F928F929F92AF92BF92CF92DF9258
S1130CD0EF92FF920F931F93CF93DF93882E962E5C
S1130CE0C42FA22E411103C0422FF9D073C0E42EA9
S1130CF0F12CEE0CFF1CF194E194F10883E0E80E72
S1130D00F11CB62EC82CD82C11E0D0E0802F8370B3
S1130D10582E802F8C70682E802F8073782E007C44
S1130D20552069F02A2D412F6B2D8C2F880DF3DD72
S1130D302A2D41E04C0F692D6C1B8D2DECDD6620B6
S1130D4069F02A2D412F6B2D882D8C1BE4DD2A2D73
S1130D5041E04C0F692D6C1B8C2DDDDD772061F09B
S1130D602A2D412F692D882D8C1BD5DD2A2D41E09C
S1130D704C0F692D8C2DCFDD002361F02A2D412FDE
S1130D80692D8C2F880DC7DD2A2D41E04C0F692D6C
S1130D908D2DC1DDFF2054F48D2F90E0880F991F15
S1130DA0880F991F0696E80EF91E0CC0ED2FF0E08F
S1130DB0EC1BF109EE0FFF1FEE0FFF1F3A96EE0E2C
S1130DC0FF1EC150DF5F1F5FD394CA94BA94CD173E
S1130DD008F0A6CFDF91CF911F910F91FF90EF9074
S1130DE0DF90CF90BF90AF909F908F907F906F9047
S1130DF05F900895EF92FF920F931F93CF93DF9329
S1130E007C01C42F122F892B01F16031F0F4403F93
S1130E10E0F4862FDFD58C2FE3D5812F90E08C0F63
S1130E20911D813F910514F010EF1C1B112369F0F3
S1130E30E7011150012F10E00F5F1F4F0E0D1F1D12
S1130E40899169D5C017D107D9F7DF91CF911F9147
S1130E500F91FF90EF900895CF93DF93803148F482
S1130E60603F38F4D42FC62FB5D58C2FB9D58D2F2C
S1130E7052D5DF91CF910895CF93803140F4603FF4
S1130E8040F4C62FA7D58C2FABD55AD503C080E02C
S1130E9001C080E0CF9108950F931F93CF93DF9308
S1130EA08031C0F4603FB0F4D22F142FC62FE4DF9A
S1130EB0082FD13041F018F0D23039F007C0412F5B
S1130EC04095042303C0012B01C001278C2F88D532
S1130ED0802F21D5DF91CF911F910F910895803FED
S1130EE098F466238CF0242F962F682F892F87700F
S1130EF041E050E002C0440F551F8A95E2F7892F64
S1130F00869586958695C8CF08959F92AF92BF9295
S1130F10CF92DF92EF92FF920F931F93CF93DF93C1
S1130F20C82FE62EB42E690100E0F9012481438123
S1130F306B2D8E2DECDDF601808181113AC0838109
S1130F40282F269526952695877009F02F5FF601A0
S1130F50A4802A9D900111248C2F90E04581841B4C
S1130F609109289FA001299F500D389F500D1124ED
S1130F7001811281040F151F912CF601F380FF20CB
S1130F80A1F0D92DC92D8C2F8E0D9C2F977021F493
S1130F90F801D4910F5F1F4FDD231CF441E06B2D4A
S1130FA09EDFDD0FCF5FCF11EECFB394AA94A110D3
S1130FB0E4CFDF91CF911F910F91FF90EF90DF90DD
S1130FC0CF90BF90AF909F900895DF92EF92FF92E1
S1130FD00F931F93CF93DF93042F7901EC01162F06
S1130FE0D62E89918A3031F4F70184818F5F080FFE
S1130FF01D2D09C08D3039F09701402F612F85DFF9
S1131000F7018381180F88818111EBCFDF91CF9194
S11310101F910F91FF90EF90DF9008959895000035
S113102008951F920F920FB60F9211242F933F939E
S11310304F935F936F937F938F939F93AF93BF93DC
S1131040EF93FF93EBDFFF91EF91BF91AF919F91EE
S11310508F917F916F915F914F913F912F910F905D
S11310600FBE0F901F9018951F920F920FB60F92FC
S113107011242F933F934F935F936F937F938F9399
S11310809F93AF93BF93EF93FF93C8DFFF91EF91CB
S1131090BF91AF919F918F917F916F915F914F918C
S11310A03F912F910F900FBE0F901F9018951F9294
S11310B00F920FB60F9211242F933F934F935F9388
S11310C06F937F938F939F93AF93BF93EF93FF930C
S11310D0A5DFFF91EF91BF91AF919F918F917F9188
S11310E06F915F914F913F912F910F900FBE0F9091
S11310F01F9018951F920F920FB60F9211242F93E1
S11311003F934F935F936F937F938F939F93AF938B
S1131110BF93EF93FF9382DFFF91EF91BF91AF9164
S11311209F918F917F916F915F914F913F912F91FB
S11311300F900FBE0F901F9018951F920F920FB62D
S11311400F9211242F933F934F935F936F937F9349
S11311508F939F93AF93BF93EF93FF935FDFFF91C1
S1131160EF91BF91AF919F918F917F916F915F911B
S11311704F913F912F910F900FBE0F901F90189594
S11311801F920F920FB60F9211242F933F934F93F8
S11311905F936F937F938F939F93AF93BF93EF93DB
S11311A0FF933CDFFF91EF91BF91AF919F918F919E
S11311B07F916F915F914F913F912F910F900FBE4F
S11311C00F901F9018951F920F920FB60F92112433
S11311D02F933F934F935F936F937F938F939F933B
S11311E0AF93BF93EF93FF9319DFFF91EF91BF91FB
S11311F0AF919F918F917F916F915F914F913F91AB
S11312002F910F900FBE0F901F9018951F920F9261
S11312100FB60F9211242F933F934F935F936F93C5
S11312207F938F939F93AF93BF93EF93FF93F6DED8
S1131230FF91EF91BF91AF919F918F917F916F91AA
S11312405F914F913F912F910F900FBE0F901F9080
S113125018951F920F920FB60F9211242F933F935C
S11312604F935F936F937F938F939F93AF93BF93AA
S1131270EF93FF93D3DEFF91EF91BF91AF919F91D5
S11312808F917F916F915F914F913F912F910F902B
S11312900FBE0F901F9018951F920F920FB60F92CA
S11312A011242F933F934F935F936F937F938F9367
S11312B09F93AF93BF93EF93FF93B0DEFF91EF91B2
S11312C0BF91AF919F918F917F916F915F914F915A
S11312D03F912F910F900FBE0F901F9018951F9262
S11312E00F920FB60F9211242F933F934F935F9356
S11312F06F937F938F939F93AF93BF93EF93FF93DA
S11313008DDEFF91EF91BF91AF919F918F917F916E
S11313106F915F914F913F912F910F900FBE0F905E
S11313201F9018951F920F920FB60F9211242F93AE
S11313303F934F935F936F937F938F939F93AF9359
S1131340BF93EF93FF936ADEFF91EF91BF91AF914B
S11313509F918F917F916F915F914F913F912F91C9
S11313600F900FBE0F901F9018951F920F920FB6FB
S11313700F9211248F939F93AF93BF9380919803FF
S113138090919903A0919A03B0919B030196A11D9A
S1131390B11D8093980390939903A0939A03B093FB
S11313A09B03BF91AF919F918F910F900FBE0F90B0
S11313B01F9018951F920F920FB60F9211242F931E
S11313C03F934F935F936F937F938F939F93AF93C9
S11313D0BF93EF93FF9322DEFF91EF91BF91AF9103
S11313E09F918F917F916F915F914F913F912F9139
S11313F00F900FBE0F901F9018951F920F920FB66B
S11314000F9211242F933F934F935F936F937F9386
S11314108F939F93AF93BF93EF93FF93FFDDFF9160
S1131420EF91BF91AF919F918F917F916F915F9158
S11314304F913F912F910F900FBE0F901F901895D1
S11314401F920F920FB60F9211242F933F934F9335
S11314505F936F937F938F939F93AF93BF93EF9318
S1131460FF93DCDDFF91EF91BF91AF919F918F913D
S11314707F916F915F914F913F912F910F900FBE8C
S11314800F901F9018951F920F920FB60F92112470
S11314902F933F934F935F936F937F938F939F9378
S11314A0AF93BF93EF93FF93B9DDFF91EF91BF919A
S11314B0AF919F918F917F916F915F914F913F91E8
S11314C02F910F900FBE0F901F9018951F920F929F
S11314D00FB60F9211242F933F934F935F936F9303
S11314E07F938F939F93AF93BF93EF93FF9396DD77
S11314F0FF91EF91BF91AF919F918F917F916F91E8
S11315005F914F913F912F910F900FBE0F901F90BD
S113151018951F920F920FB60F9211242F933F9399
S11315204F935F936F937F938F939F93AF93BF93E7
S1131530EF93FF9373DDFF91EF91BF91AF919F9173
S11315408F917F916F915F914F913F912F910F9068
S11315500FBE0F901F9018951F920F920FB60F9207
S113156011242F933F934F935F936F937F938F93A4
S11315709F93AF93BF93EF93FF9350DDFF91EF9150
S1131580BF91AF919F918F917F916F915F914F9197
S11315903F912F910F900FBE0F901F901895CF92EF
S11315A0DF92EF92FF92CF93DF93EB018130E1F56D
S11315B0C0909303D0909403E0909503F090960329
S11315C020E030E0A901C701B6010E94A5178823D5
S11315D0E1F02EEE3CE74FE75FE3C701B6010E945E
S11315E0F8186B017C01BE0180E090E00E94421873
S11315F02FE632E143E05BE30E94F8189B01AC0163
S1131600C701B6010E94411705C0BE0180E090E009
S11316100E944218F8946093930370939403809308
S11316209503909396033DC08330D9F5C0908B0306
S1131630D0908C03E0908D03F0908E0320E030E096
S1131640A901C701B6010E94A5178823E1F02BE385
S11316503FED4FE75FE3C701B6010E94F8186B0145
S11316607C01BE0180E090E00E9442182FE632E146
S113167043E05AE30E94F8189B01AC01C701B6018C
S11316800E94411705C0BE0180E090E00E9442180C
S1131690F89460938B0370938C0380938D039093E1
S11316A08E03DF91CF91FF90EF90DF90CF9008955C
S11316B01F920F920FB60F921124CF92DF92EF92E6
S11316C0FF921F932F933F934F935F936F937F9357
S11316D08F939F93AF93BF93CF93DF93EF93FF9336
S11316E010919703C091780080917900D0E0D82BB5
S11316F0113041F018F0123061F00FC081E0809396
S1131700970310C088EC80937C0082E08093970359
S113171009C083E08093970305C080EC80937C002C
S113172010929703609193037091940380919503B1
S1131730909196030E9416186B017C0160918B03B3
S113174070918C0380918D0390918E030E941618E2
S113175078949B01A601BE01812F21DFFF91EF91B7
S1131760DF91CF91BF91AF919F918F917F916F91B5
S11317705F914F913F912F911F91FF90EF90DF90D8
S1131780CF900F900FBE0F901F9018951F920F923D
S11317900FB60F9211242F933F934F935F936F9340
S11317A07F938F939F93AF93BF93EF93FF9336DC15
S11317B0FF91EF91BF91AF919F918F917F916F9125
S11317C05F914F913F912F910F900FBE0F901F90FB
S11317D018951F920F920FB60F9211242F933F93D7
S11317E04F935F936F937F938F939F93AF93BF9325
S11317F0EF93FF9313DCFF91EF91BF91AF919F9112
S11318008F917F916F915F914F913F912F910F90A5
S11318100FBE0F901F9018951F920F920FB60F9244
S113182011242F933F934F935F936F937F938F93E1
S11318309F93AF93BF93CF93DF93EF93FF938091E5
S1131840B9006091BB00CCEBD0E04881887FD6D64C
S113185085688883FF91EF91DF91CF91BF91AF911C
S11318609F918F917F916F915F914F913F912F91B4
S11318700F900FBE0F901F9018951F920F920FB6E6
S11318800F9211242F933F934F935F936F937F9302
S11318908F939F93AF93BF93EF93FF93BFDBFF911E
S11318A0EF91BF91AF919F918F917F916F915F91D4
S11318B04F913F912F910F900FBE0F901F9018954D
S11318C0CF93DF931F92CDB7DEB78FB78983F89498
S11318D099818FEF8BB91AB828982C9A2D9A2D9844
S11318E089B19FBF0F90DF91CF910895CF93DF937C
S11318F01F92CDB7DEB79FB79983F89499818BB9BE
S11319008FEF8AB928982C982D9A2D989FBF0F9005
S1131910DF91CF910895CF93DF931F92CDB7DEB7B8
S11319209FB79983F89499818BB98FEF8AB9289AD4
S11319302C982D9A2D989FBF0F90DF91CF910895E9
S1131940CF93DF931F92CDB7DEB78FB78983F89417
S113195099818FEF8BB91AB8289A2C9A2D9A2D98C1
S113196080915203882319F089B12D9A2D9889B159
S1131970109252039FBF0F90DF91CF910895811170
S113198003C08EEAB3CF08958DE2B0DF84E2AEDF08
S11319908AEEACDF81E8AADF8CE9A8DF88ECA6DF59
S11319A088E8A4DF80E4A2DF80E9A0DF80EB9EDF8B
S11319B080E09CDF80E19ADF81E0809352038FEE28
S11319C095DF8EEE93DF84EA91DF86EA8FDF8FEA7C
S11319D08DCF0895806B8ADF81E080935203089550
S11319E0CF93803F58F4C82F8F7080DF8C2F82955F
S11319F08F7080617BDF81E080935203CF910895E3
S1131A0080E074DF80E172DF81E080935203089507
S1131A1080EB6CDFF5CF08951F93CF93DF93D0E075
S1131A2010EF8D2F806B62DF80E060DF80E15EDF8E
S1131A30C12F80E070DFC150E1F7DF5FD03189F75B
S1131A40E7DFDF91CF911F910895CF92DF92EF925C
S1131A50FF920F931F93CF93DF9383EC9FEF9093A9
S1131A6021038093200381E080931F0320E030E072
S1131A700F2EFBE0EF2EF12CF02D6894DD24D6F828
S1131A80F8EF0F2EF8ECCF2EF02D18ED0FEDCAED78
S1131A90D2E0E1E040E02115310521F418822E2F37
S1131AA0342FF9CF233031055CF4D901A652BD4F50
S1131AB0FC932F5F3F4FD901A652BD4F1C934EC0DC
S1131AC0253031052CF4D901A652BD4F0C9346C0E4
S1131AD02B3031052CF4D901A652BD4F1C933EC0C6
S1131AE0203131052CF4D901A652BD4FFC9336C0E8
S1131AF02C33310519F41092160336C0C9014097EE
S1131B00B7010E945B19892B29F5D901A652BD4F53
S1131B10DC921196DC9211971296DC92129713962E
S1131B20FC9313971496FC9314971596CC921597DF
S1131B301696FC9316971796FC9317971896CC92C3
S1131B4018971996FC93265F3F4FD901A652BD4FB3
S1131B50FC9304C0D901A652BD4F1C922F5F3F4F86
S1131B602D3331050CF497CFAAEDB2E0EAEDF2E0A3
S1131B702DE932E08D918293E217F307D9F700E063
S1131B8028E040EF68E780E00E948705DF91CF916D
S1131B901F910F91FF90EF90DF90CF900895CF9217
S1131BA0DF92EF92FF920F93CF93DF931F92CDB703
S1131BB0DEB780911F03882309F43CC183D66B01EF
S1131BC07C0120911703309118034091190350911F
S1131BD01A030E9440172AE037ED43E25DE30E94B6
S1131BE0F41888230CF458C0C0921703D092180339
S1131BF0E0921903F0921A0380911F03E0912003ED
S1131C00F0912103E80FF11D87FDFA95F09321036C
S1131C10E0932003EA3B2FEFF20724F481E0809362
S1131C201F0323C0EA3FF10524F08FEF80931F03C5
S1131C3004C080911F038823C4F4E03FF10538F405
S1131C402DE34E2F6FE08AED92E0D4D825C0CF016A
S1131C50CC96CC9708F52DE32E0F40E06FE08AED8B
S1131C6092E08E1B9F0BC6D817C0E03FF10538F4F5
S1131C702DE34E2F6FE08DE992E0BCD80DC0CF016B
S1131C80CC96CC9748F42DE32E0F40E06FE08DE91D
S1131C9092E08E1B9F0BAED820911B0330911C0346
S1131CA040911D0350911E03C701B6010E944017C5
S1131CB020E030E040E05FE30E94F41888230CF455
S1131CC073C0C0921B03D0921C03E0921D03F092D8
S1131CD01E034AD68091810380FF66C08FB7898333
S1131CE0F8948981C0908303D0908403E0908503A5
S1131CF0F09086038FBF20E030E0A901C701B60150
S1131D000E94A51788231CF4C12CD12C76012091A4
S1131D10990230919A0240919B0250919C02C70112
S1131D20B6010E9440179F772AE037ED43E25CE357
S1131D300E94A5178823C4F1C0929902D0929A02F6
S1131D40E0929B02F0929C0220E030E048EC52E4E6
S1131D50C701B6010E94F8180E941118CB0164E66D
S1131D6070E00E945B199F938F93C701B6010E9494
S1131D7011187F936F9388E091E09F938F931F9244
S1131D8080E38F9382E293E09F938F930E9497194D
S1131D9021E031E046E464EB82E293E016D90FB629
S1131DA0F894DEBF0FBECDBF209197023091980208
S1131DB0C9010196909398028093970222313105CC
S1131DC0A4F4009196029BEA099F912D1124969503
S1131DD0292F220F920F091B2BE1281B6AE0680FA1
S1131DE04FEE80E00E94E10425C0823021E092079A
S1131DF09CF4009196029BEA099F912D11249695DB
S1131E00292F220F920F091B41E0481B2AE06BE1A6
S1131E1082510E94E1040EC010929802109297021F
S1131E20809196028F5F833018F48093960202C0EB
S1131E30109296020F90DF91CF910F91FF90EF9047
S1131E40DF90CF900895FF920F931F93CF93DF936A
S1131E50F82E80FF06C0C0E08C2F5DDDCF5FC03F51
S1131E60D9F7F1FE18C082E0B5DDCADDC0E0D0E0EC
S1131E7007E010E0CE01B8010E945B19892B11F430
S1131E8080E049DDFE01ED52FA4F849144DD219654
S1131E90C03FD10579F7F2FE25C041E068E284E055
S1131EA01ED841E069E285E01AD841E06AE286E0A2
S1131EB016D841E06BE287E012D841E06CE286E09C
S1131EC00ED841E06DE285E00AD841E06EE286E09A
S1131ED006D841E06FE287E002D841E060E388E0A1
S1131EE00E946F07F3FE07C001E02FE14FEE60E1AF
S1131EF080E00E94E104F4FE0DC001E028E248E223
S1131F0060E386E40E94630528E248E260E38AEA2B
S1131F100E948705F5FE0DC00FEF21E04AE060E561
S1131F208AE00E94A10521E04AE060E588E20E947F
S1131F305F06F6FE07C021E031E040E266E487E197
S1131F4091E043D8FF203CF480DD809181038160DF
S1131F508093810324DEDF91CF911F910F91FF9035
S1131F600895EF92FF920F93CF93DF93C82F603BB6
S1131F7089EB780714F460EB79EB613596E4790723
S1131F8014F060E576E4072E000C880B990B0E9490
S1131F90441820E030EA4CE856E4DBD720E030E097
S1131FA044EB52E40E94F8180E9411187B01772335
S1131FB03CF4D6E9D60FEE24FF24E61AF70A01C052
S1131FC0D6E91F92CF9328E231E03F932F931F92DB
S1131FD090E39F9322E233E03F932F930E9497195B
S1131FE021E031E040E160E082E293E00E94E50715
S1131FF021E031E048E760E088E391E00E94E507F2
S113200000E027E044EB68E78CE30E9487058DB786
S11320109EB708960FB6F8949EBF0FBE8DBFE1140D
S1132020F10409F1C73079F020F4C150C33098F0BD
S113203021C0CF30F9F401E027E04E2D68E78D2F61
S11320400E94870517C001E027E04E2D68E78D2F19
S11320500E9463050FC001E023E044EB68E78CE3D2
S11320600E94870507C001E02DE746E969E786E994
S11320700E94E104DF91CF910F91FF90EF900895BA
S11320809F938F93862F062E000C990B9F936F932B
S11320901F924F9382E491E09F938F931F9280E36A
S11320A08F9382E293E09F938F930E94971921E08C
S11320B031E048E160E082E293E00E94E5078DB7F9
S11320C09EB70C960FB6F8949EBF0FBE8DBF0895B1
S11320D01F924F93262F062E000C330B3F936F93C2
S11320E01F928F938BE591E09F938F931F9280E3D0
S11320F08F9382E293E09F938F930E94971921E03C
S113210031E040E260E082E293E00E94E5078DB7AF
S11321109EB70C960FB6F8949EBF0FBE8DBF089560
S11321207F936F939F938F9384E791E09F938F9313
S11321301F9280E38F9382E293E09F938F930E9498
S1132140971921E031E048E260E082E293E00E94E6
S1132150E5078DB79EB70A960FB6F8949EBF0FBEDB
S11321608DBF08951F926F931F928F938CE891E017
S11321709F938F931F9280E38F9382E293E09F93C8
S11321808F930E94971921E031E040E360E082E2FE
S113219093E00E94E5078DB79EB70A960FB6F894B0
S11321A09EBF0FBE8DBF08957F936F931F928F9331
S11321B088EA91E09F938F931F9280E38F9382E24A
S11321C093E09F938F930E94971921E031E048E3B5
S11321D060E082E293E00E94E5078DB79EB70A961D
S11321E00FB6F8949EBF0FBE8DBF08951F924F93F4
S11321F01F926F931F928F938DEB91E09F938F9318
S11322001F9280E38F9382E293E09F938F930E94C7
S1132210971921E031E040E460E082E293E00E941B
S1132220E5078DB79EB70C960FB6F8949EBF0FBE08
S11322308DBF0895AC019C01369527953695279559
S1132240ABE7B4E10E9474199695879564E6689F9C
S11322509001699F300D1124CA01821B930B9F9337
S11322608F93BA0180E090E00DD720E030E048EC95
S113227052E46FD6D6D67F936F938AEE91E09F9304
S11322808F931F9280E38F9382E293E09F938F93C7
S11322900E94971921E031E048E460E082E293E093
S11322A00E94E5078DB79EB70A960FB6F8949EBFB5
S11322B00FBE8DBF08951F926F931F928F938EEF61
S11322C091E09F938F931F9280E38F9382E293E038
S11322D09F938F930E94971921E031E040E560E0DD
S11322E082E293E00E94E5078DB79EB70A960FB687
S11322F0F8949EBF0FBE8DBF08953F932F931F92F6
S11323004F931F926F931F928F9386E192E09F9356
S11323108F931F9280E38F9382E293E09F938F9336
S11323200E94971921E031E048E560E082E293E001
S11323300E94E5078DB79EB70E960FB6F8949EBF20
S11323400FBE8DBF08953F932F931F924F931F92FB
S11323506F931F928F9384E392E09F938F931F92C6
S113236080E38F9382E293E09F938F93E0D721E001
S113237031E040E660E082E293E00E94E5078DB739
S11323809EB70E960FB6F8949EBF0FBE8DBF0895EC
S11323909F938F9381E592E09F938F931F9280E3A5
S11323A08F9382E293E09F938F93C1D721E031E032
S11323B048E660E082E293E00E94E5078DB79EB7AD
S11323C008960FB6F8949EBF0FBE8DBF089581E0A6
S11323D091E0089582EE8ADA80E090E001968B32F3
S11323E028E69207D9F76CDA88232CF081E0C7DA63
S11323F013DB80E0089581E0089582EE77DA80E0CF
S113240090E001968B362AE09207D9F7089520913F
S11324106B03222371F0E22FF0E0EE59FC4F81E6CA
S113242093E01292E817F907E1F7209369031092F9
S11324306B030895CF93DF9300D000D0CDB7DEB700
S1132440FC0121813081323209F0D1C0253809F4F0
S113245077C078F4213809F440C028F42130E9F039
S1132460203871F1C4C0233809F44EC008F443C0C5
S11324705FC02A3809F488C038F4283809F46DC0DC
S1132480293809F473C0B3C02C3809F494C008F493
S113249083C02D3809F49EC0AAC0809160038111C5
S11324A009C0E8E5F3E08A81818380E1808381E0EB
S11324B080935703809181038E7F8093810397C01B
S11324C02091810321FF93C0648170E0762F6627F9
S11324D02381622B828145DD8AC02091810321FF03
S11324E086C0238130E0922F882752814581648100
S11324F0852BC6DD7CC02091810321FF78C04481F7
S113250063818281E5DD73C02091810321FF6FC067
S1132510658170E0762F66272481622B238130E069
S1132520322F22278281A901482BCA01F9DD5FC01D
S11325302091810321FF5BC06381828113DE57C038
S11325402091810321FF53C0648170E0762F6627B8
S11325502381622B828128DE4AC02091810321FFDE
S113256046C044816381828141DE41C02091810360
S113257021FF3DC0238130E0322F22278281F901DF
S1132580E82BCF0157DE33C02091810321FF2FC0F8
S11325906381828190DE2BC02091810321FF27C0BB
S11325A0268130E0322F22274581242B4481638108
S11325B08281A3DE1CC02091810321FF18C02681E3
S11325C030E0322F22274581242B4481638182818C
S11325D0BADE0DC02091810321FF09C0238130E0C0
S11325E0322F22278281A901482BCA01D1DE0F9004
S11325F00F900F900F90DF91CF9108950F931F9339
S1132600CF93DF93D62FC42F082F10E0093F110575
S113261008F04DC1F801EC5CFF4F60C681E0809387
S11326206A031092560382E080935503E1E6F3E0D7
S113263084E2808384E3818386E5828388E78383DD
S11326408AE984830000E091560381E08E0F809331
S11326505603F0E0EF59FC4F80818093BB002BC1FF
S1132660C06129C1E091560380915503E81758F4DD
S113267081E08E0F80935603F0E0EF59FC4F808188
S11326808093BB0018C1C06110926A03C0DE13C1FD
S1132690C06110926A03BBDE0EC1C0620CC10000AF
S11326A00AC1000008C1000006C1000004C1000006
S11326B011E01093600340E068E088E593E04AD1BC
S11326C0D695D093580310935403C064F4C000000B
S11326D081E080936003D695D0935803809354038C
S11326E0C064E9C00000809153038F3009F464C0D2
S11326F0809154038F3028F4E82FF0E0E85AFC4F1F
S1132700D083813009F049C090915803903349F443
S1132710909159039295969597709F5F9093530368
S11327203EC09232E1F590915903943811F158F476
S1132730903819F128F49923A1F09130B1F029C00F
S11327409238F9F41AC09B3838F4993890F49538D3
S1132750A1F0983891F01DC09D38B8F09D3849F02B
S113276018C091E0909353031AC092E090935303DE
S113277016C093E09093530312C094E090935303D4
S11327800EC095E0909353030AC096E090935303D0
S113279006C09EE09093530302C08E3058F48F5FBE
S11327A08093540390915303981710F0C06483C02E
S11327B0CF7B81C0CF7B7FC0D0935A03CF7B109255
S11327C0540379C0000010926003809153038F304A
S11327D029F06091540388E593E02CDE10925403B1
S11327E01092530340E068E088E593E0B3D0109280
S11327F06003C06460C010926003809153038F3003
S113280029F06091540388E593E014DEC0641092CB
S1132810540351C0000081E080936003109256037A
S11328208091570380935503882331F081E080938E
S113283056038091580301C080E08093BB009091BF
S1132840550380915603891710F4C06434C0CF7BBC
S113285032C0E091560380915503E81748F481E0B3
S11328608E0F80935603F0E0E85AFC4F808101C03C
S113287080E08093BB0090915503809156038917A3
S113288010F4C06418C0CF7B16C0C06410926003FB
S113289012C0C064109260030EC00000C0641092A5
S11328A0600309C00000C0641092600304C000000B
S11328B0C064109260038C2FDF91CF911F910F9110
S11328C0089508958F929F92AF92BF92CF92DF9214
S11328D0EF92FF92CF93DF931F92CDB7DEB78FB7FE
S11328E08983F89499818091840020918500C09017
S11328F09803D0909903E0909A03F0909B039FBFB4
S113290090E0922BBC01990F880B990BBDD320E06A
S113291034E244EF5AE41DD34B015C01C701B60114
S1132920B1D320E030E040E054E462D420E034E26B
S113293044EF5AE40ED3A5019401A3D20F90DF9182
S1132940CF91FF90EF90DF90CF90BF90AF909F908A
S11329508F900895662339F0FC01860F911D4193F1
S1132960E817F907E1F708954F925F926F927F920B
S11329708F929F92AF92BF92CF92DF92EF92FF928B
S1132980CF93DF93CDB7DEB7E0970FB6F894DEBFF1
S11329900FBECDBF8FB78CA7F8948CA5C0909303BE
S11329A0D0909403E0909503F090960320918F03C8
S11329B030919003409191035091920380908B0346
S11329C090908C03A0908D03B0908E034090870369
S11329D0509088036090890370908A038FBFC70169
S11329E0B6014ED26DA77EA78FA798AB20E030E04A
S11329F040E05FEBAAD2181664F420E030E040E037
S1132A005FE36DA57EA58FA598A9EED388230CF46A
S1132A1063C0C701B6010AD36DA77EA78FA798AB81
S1132A202DA53EA5263B83E0380708F5B90180E0D3
S1132A3090E028D320E030E040E251E421D220E0CD
S1132A4030E84DE654E485D220E030E045E753E435
S1132A50CFD320E030E040E251E413D2E7D26093D8
S1132A60B300E0EBF0E080818068808307C01092BF
S1132A70B300E0EBF0E080818F7380838091810369
S1132A8080FF1DC09EA59F932DA52F9382E692E003
S1132A909F938F931F9280E18F938CE693E09F9393
S1132AA08F9345D494DC9C014CE364EB8CE693E077
S1132AB00E94E5070FB6F894DEBF0FBECDBF8FB7F7
S1132AC08BA7F8948BA5C0928F03D0929003E092C9
S1132AD09103F09292038FBFA3019201C501B40147
S1132AE0CFD16B017C012AE037ED43EA5BEB2DD2B9
S1132AF018164CF42AE037ED43EA5BE3C701B6014C
S1132B0073D3882334F18FB78AA7F894FAA429E100
S1132B1037EC4FEA53E4C501B401B2D120E030EA06
S1132B2047E85FE365D320E030E048EC51E4A9D105
S1132B306093830370938403809385039093860347
S1132B408092870390928803A0928903B0928A03AB
S1132B50FFBE8091810380FF02C021D81EC08091F6
S1132B6000018823D1F010920001809181038260DA
S1132B70809381030E940C0D89E2EDE6F2E0DE0110
S1132B80119601900D928A95E1F721DC9C0140E0B9
S1132B9060E0CE0101960E94E507E0960FB6F89436
S1132BA0DEBF0FBECDBFDF91CF91FF90EF90DF90DE
S1132BB0CF90BF90AF909F908F907F906F905F90D9
S1132BC04F900895EF92FF920F931F93CF93DF934B
S1132BD000D000D01F92CDB7DEB78EE788B988E069
S1132BE087B984E185B98BEF84B98FEF8BB91AB8B3
S1132BF00F2EFEE7EF2EF12CF02D11E0F7011083DC
S1132C000E94DC038BEE8093640003E803BD68E05C
S1132C1080E00E94F50382E88093800089E080933D
S1132C208100109285001092840010938900109204
S1132C30880010936F0087E286BB60E480E00E9406
S1132C40F5030093B00085E08093B1001092B200C8
S1132C501092B3001092700087E087BB1092B60008
S1132C6061E080E00E94F503F7011083EAE7F0E0F9
S1132C7087E8808380EC80937C00808180618083FE
S1132C80808188608083ABE7B0E08C91887F866028
S1132C908C9380818062808314DE84B7982F977030
S1132CA011F481113DC08FB78D83F8949D811092EA
S1132CB09703109293031092940310929503109229
S1132CC0960310928F031092900310929103109226
S1132CD0920310928B0310928C0310928D03109226
S1132CE08E03109287031092880310928903109226
S1132CF08A0340E050E068EC71E44093830350930E
S1132D008403609385037093860380E48093820335
S1132D10809181038E7F8D7F809381039FBF0DC03F
S1132D2090E0A0E0B0E080937D0390937E03A093B5
S1132D307F03B09380030E940E0860E880E00E9445
S1132D40F5038FB78C83F8948C811092B90092E0CC
S1132D509093B80094E49093BA001092BD0095E467
S1132D609093BC008FBF789413BC34DB81EF6BD895
S1132D7081E080937C0311E0F7DD13BF889583B76E
S1132D808E7F83BF80917C038111F6CF36DBF8946C
S1132D9080B7806880BF64E080E00E940B0462E03A
S1132DA080E00E940B048FB78B83F8948B81ECEB4B
S1132DB0F0E094E090833C98449A3D98459A1082C0
S1132DC08FBF60E880E00E940B04EAE7F0E08081B6
S1132DD0877F808380818F7D8083EBE7F0E0808133
S1132DE0887F808310927C0010927E0061E080E0F6
S1132DF00E940B048FB78983F894198160E280E004
S1132E000E940B042198299810928000109281004E
S1132E101092820010926F0068E080E00E940B0420
S1132E20239A2B981092B0001092B1001092700067
S1132E301092B60060E480E00E940B048FB78A838E
S1132E40F8948A815F9350E85093610050E0509366
S1132E5061005F918FBF1FBF89E083BF889583B7EF
S1132E608E7F83BF80E090E00F900F900F900F90C3
S1132E700F90DF91CF911F910F91FF90EF900895E4
S1132E805058BB27AA270ED075C166D130F06BD13C
S1132E9020F031F49F3F11F41EF45BC10EF4E09571
S1132EA0E7FB51C1E92F77D180F3BA1762077307A3
S1132EB08407950718F071F49EF58FC10EF4E09520
S1132EC00B2EBA2FA02D0B01B90190010C01CA01E0
S1132ED0A0011124FF27591B99F0593F50F4503E8B
S1132EE068F11A16F040A22F232F342F4427585F7D
S1132EF0F3CF469537952795A795F0405395C9F795
S1132F007EF41F16BA0B620B730B840BBAF091504C
S1132F10A1F0FF0FBB1F661F771F881FC2F70EC0EB
S1132F20BA0F621F731F841F48F4879577956795BE
S1132F30B795F7959E3F08F0B3CF9395880F08F0A7
S1132F409927EE0F979587950895D9D008F481E0D5
S1132F5008950CD00FC107D140F0FED030F021F419
S1132F605F3F19F0F0C0511139C1F3C014D198F387
S1132F709923C9F35523B1F3951B550BBB27AA27F6
S1132F8062177307840738F09F5F5F4F220F331F68
S1132F90441FAA1FA9F333D00E2E3AF0E0E830D034
S1132FA091505040E695001CCAF729D0FE2F27D037
S1132FB0660F771F881FBB1F261737074807AB0705
S1132FC0B0E809F0BB0B802DBF01FF2793585F4F7A
S1132FD02AF09E3F510568F0B6C000C15F3FECF394
S1132FE0983EDCF3869577956795B795F7959F5F3F
S1132FF0C9F7880F911D9695879597F90895E1E093
S1133000660F771F881FBB1F621773078407BA07F1
S113301020F0621B730B840BBA0BEE1F88F7E0954C
S1133020089504D06894B111D9C00895BCD088F033
S11330309F5790F0B92F9927B751A0F0D1F0660FA0
S1133040771F881F991F1AF0BA95C9F712C0B130BB
S113305081F0C3D0B1E00895C0C0672F782F8827CE
S1133060B85F39F0B93FCCF3869577956795B395FA
S1133070D9F73EF490958095709561957F4F8F4F69
S11330809F4F0895E89409C097FB3EF4909580956E
S1133090709561957F4F8F4F9F4F9923A9F0F92F1A
S11330A096E9BB279395F695879577956795B79598
S11330B0F111F8CFFAF4BB0F11F460FF1BC06F5F7E
S11330C07F4F8F4F9F4F16C0882311F096E911C090
S11330D0772321F09EE8872F762F05C0662371F0B1
S11330E096E8862F70E060E02AF09A95660F771FC5
S11330F0881FDAF7880F9695879597F90895990FA1
S11331000008550FAA0BE0E8FEEF16161706E807AD
S1133110F907C0F012161306E407F50798F0621BCE
S1133120730B840B950B39F40A2661F0232B242BA3
S1133130252B21F408950A2609F4A140A6958FEFC2
S1133140811D811D089597F99F6780E870E060E014
S113315008959FEF80EC089500240A94161617062C
S113316018060906089500240A9412161306140674
S113317005060895092E0394000C11F4882352F0D7
S1133180BB0F40F4BF2B11F460FF04C06F5F7F4F8F
S11331908F4F9F4F089557FD9058440F551F59F076
S11331A05F3F71F04795880F97FB991F61F09F3F30
S11331B079F087950895121613061406551FF2CF59
S11331C04695F1DF08C0161617061806991FF1CFA9
S11331D086957105610508940895E894BB276627D0
S11331E07727CB0197F908958ADF08F48FEF0895C4
S11331F00BD0C0CFB1DF28F0B6DF18F0952309F06B
S1133200A2CFA7CF1124EACFC6DFA0F3959FD1F3B5
S1133210950F50E0551F629FF001729FBB27F00D80
S1133220B11D639FAA27F00DB11DAA1F649F6627D5
S1133230B00DA11D661F829F2227B00DA11D621F24
S1133240739FB00DA11D621F839FA00D611D221FDE
S1133250749F3327A00D611D231F849F600D211DC2
S1133260822F762F6A2F11249F5750408AF0E1F065
S113327088234AF0EE0FFF1FBB1F661F771F881FAE
S113328091505040A9F79E3F510570F05CCFA6CFF6
S11332905F3FECF3983EDCF3869577956795B79599
S11332A0F795E7959F5FC1F7FE2B880F911D9695C3
S11332B0879597F9089597FB072E16F4009406D086
S11332C077FD08D020D007FC05D03EF49095819579
S11332D09F4F0895709561957F4F0895EE0FFF1FDE
S11332E00590F491E02D0994A29FB001B39FC00111
S11332F0A39F700D811D1124911DB29F700D811D1E
S11333001124911D0895AA1BBB1B51E107C0AA1FDC
S1133310BB1FA617B70710F0A61BB70B881F991F72
S11333205A95A9F780959095BC01CD010895AEE01A
S1133330B0E0ECE9F9E1A5C20D891E898F89988D69
S113334026E02C831A83098397FF02C080E090E86B
S113335001979E838D83AE01455E5F4F698D7A8DA3
S1133360CE01019611D04D815E8157FD0AC02F8197
S11333703885421753070CF49A01F801E20FF31F42
S113338010822E96E4E099C2ACE0B0E0E9ECF9E1F9
S11333906AC27C016B018A01FC0117821682838157
S11333A081FFB0C1CE0101964C01F7019381F60172
S11333B093FD859193FF81916F01882309F49EC148
S11333C0853239F493FD859193FF81916F018532A4
S11333D021F4B70190E0B1D1E8CF512C312C20E099
S11333E02032A0F48B3269F030F4803259F0833209
S11333F069F420612CC08D3239F0803339F42160B6
S113340026C02260246023C0286021C027FD27C075
S113341030ED380F3A3078F426FF06C0FAE05F9EAC
S1133420300D1124532E13C08AE0389E300D112420
S1133430332E20620CC08E3221F426FD5FC120643D
S113344006C08C3611F4206802C0883641F4F601B7
S113345093FD859193FF81916F018111C1CF982FC5
S11334609F7D9554933028F40C5F1F4FFFE3F9833D
S11334700DC0833631F0833771F0833509F057C0BE
S113348021C0F801808189830E5F1F4F4424439437
S1133490512C540114C03801F2E06F0E711CF80174
S11334A0A080B18026FF03C0652D70E002C06FEFDD
S11334B07FEFC5012C8736D12C0183012C852F7712
S11334C0222E16C03801F2E06F0E711CF801A080A4
S11334D0B18026FF03C0652D70E002C06FEF7FEF5F
S11334E0C5012C8714D12C012C852068222E830140
S11334F023FC19C0832D90E048165906A0F4B701A7
S113350080E290E01AD13A94F5CFF50127FC859139
S113351027FE81915F01B70190E00FD131103A94F9
S1133520F1E04F1A51084114510479F7DEC0843692
S113353011F0893631F5F80127FF07C060817181E8
S1133540828193810C5F1F4F08C060817181072EB7
S1133550000C880B990B0E5F1F4F2F76722E97FF6E
S113356009C090958095709561957F4F8F4F9F4FBF
S11335702068722E2AE030E0A40117D1A82EA818E2
S113358043C0853729F42F7EB22E2AE030E025C0CF
S1133590F22FF97FBF2E8F36C1F018F4883579F0F9
S11335A0ADC0803719F0883721F0A8C02F2F2061D3
S11335B0B22EB4FE0DC08B2D8460B82E09C024FF3A
S11335C00AC09F2F9660B92E06C028E030E005C0DF
S11335D020E130E002C020E132E0F801B7FE07C08C
S11335E060817181828193810C5F1F4F06C060816D
S11335F0718180E090E00E5F1F4FA401D6D0A82E09
S1133600A818FB2DFF777F2E76FE0BC0372D3E7F4B
S1133610A51450F474FE0AC072FC08C0372D3E7E17
S113362005C0BA2C372D03C0BA2C01C0B52C34FF09
S11336300DC0FE01EA0DF11D8081803311F4397E45
S113364009C032FF06C0B394B39404C0832F8678B4
S113365009F0B39433FD12C030FF06C05A2CB314E2
S113366018F4530C5B18B32CB31460F4B70180E264
S113367090E03C8762D0B3943C85F6CFB31410F449
S11336803B1801C0312C34FF11C0B70180E390E036
S11336903C8753D03C8532FF16C031FD03C088E718
S11336A090E002C088E590E0B7010CC0832F8678D3
S11336B051F031FF02C08BE201C080E237FD8DE2A0
S11336C0B70190E03AD0A51430F4B70180E390E05C
S11336D034D05A94F8CFAA94F401EA0DF11D8081F4
S11336E0B70190E02AD0A110F6CF332009F45DCEC3
S11336F0B70180E290E021D03A94F7CFF7018681B8
S1133700978102C08FEF9FEF2C96E2E1C8C0FC01C5
S11337100590615070400110D8F7809590958E0FF8
S11337209F1F0895FC016150704001900110D8F76B
S1133730809590958E0F9F1F08950F931F93CF939D
S1133740DF93FB01238121FD03C08FEF9FEF28C08E
S113375022FF16C0468157812481358142175307C1
S113376044F4A081B1819D012F5F3F4F31832083B9
S11337708C93268137812F5F3F4F3783268310C078
S1133780EB01092F182F0084F185E02D0995892B71
S1133790E1F68E819F8101969F838E83812F902FE6
S11337A0DF91CF911F910F910895FA01AA27283034
S11337B051F1203181F1E8946F936E7F6E5F7F4FFA
S11337C08F4F9F4FAF4FB1E03ED0B4E03CD0670F76
S11337D0781F891F9A1FA11D680F791F8A1F911DC9
S11337E0A11D6A0F711D811D911DA11D20D009F419
S11337F068943F912AE0269F11243019305D31935B
S1133800DEF6CF010895462F4770405D4193B3E043
S11338100FD0C9F7F6CF462F4F70405D4A3318F0EA
S1133820495D31FD4052419302D0A9F7EACFB4E09B
S1133830A6959795879577956795BA95C9F7009753
S11338406105710508959B01AC010A2E06945795F4
S1133850479537952795BA95C9F7620F731F841F4B
S1133860951FA01D08952F923F924F925F926F92E1
S11338707F928F929F92AF92BF92CF92DF92EF92FC
S1133880FF920F931F93CF93DF93CDB7DEB7CA1B7D
S1133890DB0B0FB6F894DEBF0FBECDBF09942A88A8
S11338A0398848885F846E847D848C849B84AA8450
S11338B0B984C884DF80EE80FD800C811B81AA81DD
S11338C0B981CE0FD11D0FB6F894DEBF0FBECDBFA8
S10B38D0ED010895F894FFCF07
S11338D801005A020607207D20543D2532642E2516
S11338E83032645E43200044463449414820536DD5
S11338F86172742D4C434400436C6B53746174655A
S11339083A203078253158005068617365202020AA
S11339183A0044617465202020203A20253032641E
S11339282E253032642E253034640055544320202B
S11339382020203A20253032643A253032642E255E
S1133948303264005072656369732E203A20253042
S113395835642E253033642070706D0050574D2027
S1133968202020203A202533642E25303364202F4C
S1133978203235362025250050756C6C566F6C74D2
S11339883A202531642E253033642056005361745F
S113399855736520203A20576573743D2530326489
S11339A820456173743D2530326420557365643D48
S11339B82530326420736174730053617420444F5A
S11339C850203A20253033642E2530326400536168
S11339D87453746174653A2046493D253164204D19
S11339E8323D25316400536174204C6174203A20BF
S11339F825632020253032645E253032642E25303C
S1133A0834642700536174204C6F6E203A20256378
S1133A1820253033645E253032642E253034642703
S1133A280053617420486774203A20253034642098
S1133A386D00204C3D25346420414420003C3D3D2C
S1133A483D3D203130204D487A2E2D5265662E2D6D
S1133A584F73632E2020536D6172742D4C434420A0
S1093A683D3D3D3D3E0022
S9030000FC
